{
  "contractName": "Bondage",
  "abi": [
    {
      "constant": true,
      "inputs": [],
      "name": "db",
      "outputs": [
        {
          "name": "",
          "type": "address"
        }
      ],
      "payable": false,
      "stateMutability": "view",
      "type": "function"
    },
    {
      "constant": true,
      "inputs": [],
      "name": "arbiterAddress",
      "outputs": [
        {
          "name": "",
          "type": "address"
        }
      ],
      "payable": false,
      "stateMutability": "view",
      "type": "function"
    },
    {
      "constant": false,
      "inputs": [],
      "name": "updateDependencies",
      "outputs": [],
      "payable": false,
      "stateMutability": "nonpayable",
      "type": "function"
    },
    {
      "constant": true,
      "inputs": [],
      "name": "owner",
      "outputs": [
        {
          "name": "",
          "type": "address"
        }
      ],
      "payable": false,
      "stateMutability": "view",
      "type": "function"
    },
    {
      "constant": false,
      "inputs": [],
      "name": "selfDestruct",
      "outputs": [],
      "payable": false,
      "stateMutability": "nonpayable",
      "type": "function"
    },
    {
      "constant": false,
      "inputs": [
        {
          "name": "newOwner",
          "type": "address"
        }
      ],
      "name": "transferOwnership",
      "outputs": [],
      "payable": false,
      "stateMutability": "nonpayable",
      "type": "function"
    },
    {
      "constant": true,
      "inputs": [],
      "name": "dispatchAddress",
      "outputs": [
        {
          "name": "",
          "type": "address"
        }
      ],
      "payable": false,
      "stateMutability": "view",
      "type": "function"
    },
    {
      "inputs": [
        {
          "name": "c",
          "type": "address"
        }
      ],
      "payable": false,
      "stateMutability": "nonpayable",
      "type": "constructor"
    },
    {
      "anonymous": false,
      "inputs": [
        {
          "indexed": true,
          "name": "holder",
          "type": "address"
        },
        {
          "indexed": true,
          "name": "oracle",
          "type": "address"
        },
        {
          "indexed": true,
          "name": "endpoint",
          "type": "bytes32"
        },
        {
          "indexed": false,
          "name": "numZap",
          "type": "uint256"
        },
        {
          "indexed": false,
          "name": "numDots",
          "type": "uint256"
        }
      ],
      "name": "Bound",
      "type": "event"
    },
    {
      "anonymous": false,
      "inputs": [
        {
          "indexed": true,
          "name": "holder",
          "type": "address"
        },
        {
          "indexed": true,
          "name": "oracle",
          "type": "address"
        },
        {
          "indexed": true,
          "name": "endpoint",
          "type": "bytes32"
        },
        {
          "indexed": false,
          "name": "numDots",
          "type": "uint256"
        }
      ],
      "name": "Unbound",
      "type": "event"
    },
    {
      "anonymous": false,
      "inputs": [
        {
          "indexed": true,
          "name": "holder",
          "type": "address"
        },
        {
          "indexed": true,
          "name": "oracle",
          "type": "address"
        },
        {
          "indexed": true,
          "name": "endpoint",
          "type": "bytes32"
        },
        {
          "indexed": false,
          "name": "numDots",
          "type": "uint256"
        }
      ],
      "name": "Escrowed",
      "type": "event"
    },
    {
      "anonymous": false,
      "inputs": [
        {
          "indexed": true,
          "name": "holder",
          "type": "address"
        },
        {
          "indexed": true,
          "name": "oracle",
          "type": "address"
        },
        {
          "indexed": true,
          "name": "endpoint",
          "type": "bytes32"
        },
        {
          "indexed": false,
          "name": "numDots",
          "type": "uint256"
        }
      ],
      "name": "Released",
      "type": "event"
    },
    {
      "anonymous": false,
      "inputs": [
        {
          "indexed": true,
          "name": "holder",
          "type": "address"
        },
        {
          "indexed": true,
          "name": "oracle",
          "type": "address"
        },
        {
          "indexed": true,
          "name": "endpoint",
          "type": "bytes32"
        },
        {
          "indexed": false,
          "name": "numDots",
          "type": "uint256"
        }
      ],
      "name": "Returned",
      "type": "event"
    },
    {
      "anonymous": false,
      "inputs": [
        {
          "indexed": true,
          "name": "previousOwner",
          "type": "address"
        },
        {
          "indexed": true,
          "name": "newOwner",
          "type": "address"
        }
      ],
      "name": "OwnershipTransferred",
      "type": "event"
    },
    {
      "constant": false,
      "inputs": [
        {
          "name": "oracleAddress",
          "type": "address"
        },
        {
          "name": "endpoint",
          "type": "bytes32"
        },
        {
          "name": "numDots",
          "type": "uint256"
        }
      ],
      "name": "bond",
      "outputs": [
        {
          "name": "bound",
          "type": "uint256"
        }
      ],
      "payable": false,
      "stateMutability": "nonpayable",
      "type": "function"
    },
    {
      "constant": false,
      "inputs": [
        {
          "name": "oracleAddress",
          "type": "address"
        },
        {
          "name": "endpoint",
          "type": "bytes32"
        },
        {
          "name": "numDots",
          "type": "uint256"
        }
      ],
      "name": "unbond",
      "outputs": [
        {
          "name": "unbound",
          "type": "uint256"
        }
      ],
      "payable": false,
      "stateMutability": "nonpayable",
      "type": "function"
    },
    {
      "constant": false,
      "inputs": [
        {
          "name": "holderAddress",
          "type": "address"
        },
        {
          "name": "oracleAddress",
          "type": "address"
        },
        {
          "name": "endpoint",
          "type": "bytes32"
        },
        {
          "name": "numDots",
          "type": "uint256"
        }
      ],
      "name": "delegateBond",
      "outputs": [
        {
          "name": "boundZap",
          "type": "uint256"
        }
      ],
      "payable": false,
      "stateMutability": "nonpayable",
      "type": "function"
    },
    {
      "constant": false,
      "inputs": [
        {
          "name": "holderAddress",
          "type": "address"
        },
        {
          "name": "oracleAddress",
          "type": "address"
        },
        {
          "name": "endpoint",
          "type": "bytes32"
        },
        {
          "name": "numDots",
          "type": "uint256"
        }
      ],
      "name": "escrowDots",
      "outputs": [
        {
          "name": "success",
          "type": "bool"
        }
      ],
      "payable": false,
      "stateMutability": "nonpayable",
      "type": "function"
    },
    {
      "constant": false,
      "inputs": [
        {
          "name": "holderAddress",
          "type": "address"
        },
        {
          "name": "oracleAddress",
          "type": "address"
        },
        {
          "name": "endpoint",
          "type": "bytes32"
        },
        {
          "name": "numDots",
          "type": "uint256"
        }
      ],
      "name": "releaseDots",
      "outputs": [
        {
          "name": "success",
          "type": "bool"
        }
      ],
      "payable": false,
      "stateMutability": "nonpayable",
      "type": "function"
    },
    {
      "constant": false,
      "inputs": [
        {
          "name": "holderAddress",
          "type": "address"
        },
        {
          "name": "oracleAddress",
          "type": "address"
        },
        {
          "name": "endpoint",
          "type": "bytes32"
        },
        {
          "name": "numDots",
          "type": "uint256"
        }
      ],
      "name": "returnDots",
      "outputs": [
        {
          "name": "success",
          "type": "bool"
        }
      ],
      "payable": false,
      "stateMutability": "nonpayable",
      "type": "function"
    },
    {
      "constant": true,
      "inputs": [
        {
          "name": "oracleAddress",
          "type": "address"
        },
        {
          "name": "endpoint",
          "type": "bytes32"
        },
        {
          "name": "numDots",
          "type": "uint256"
        }
      ],
      "name": "calcZapForDots",
      "outputs": [
        {
          "name": "numZap",
          "type": "uint256"
        }
      ],
      "payable": false,
      "stateMutability": "view",
      "type": "function"
    },
    {
      "constant": true,
      "inputs": [
        {
          "name": "oracleAddress",
          "type": "address"
        },
        {
          "name": "endpoint",
          "type": "bytes32"
        },
        {
          "name": "totalBound",
          "type": "uint256"
        }
      ],
      "name": "currentCostOfDot",
      "outputs": [
        {
          "name": "cost",
          "type": "uint256"
        }
      ],
      "payable": false,
      "stateMutability": "view",
      "type": "function"
    },
    {
      "constant": true,
      "inputs": [
        {
          "name": "oracleAddress",
          "type": "address"
        },
        {
          "name": "endpoint",
          "type": "bytes32"
        }
      ],
      "name": "dotLimit",
      "outputs": [
        {
          "name": "limit",
          "type": "uint256"
        }
      ],
      "payable": false,
      "stateMutability": "view",
      "type": "function"
    },
    {
      "constant": true,
      "inputs": [
        {
          "name": "oracleAddress",
          "type": "address"
        },
        {
          "name": "endpoint",
          "type": "bytes32"
        }
      ],
      "name": "getZapBound",
      "outputs": [
        {
          "name": "",
          "type": "uint256"
        }
      ],
      "payable": false,
      "stateMutability": "view",
      "type": "function"
    },
    {
      "constant": true,
      "inputs": [
        {
          "name": "holderAddress",
          "type": "address"
        },
        {
          "name": "oracleAddress",
          "type": "address"
        }
      ],
      "name": "isProviderInitialized",
      "outputs": [
        {
          "name": "",
          "type": "bool"
        }
      ],
      "payable": false,
      "stateMutability": "view",
      "type": "function"
    },
    {
      "constant": true,
      "inputs": [
        {
          "name": "holderAddress",
          "type": "address"
        },
        {
          "name": "oracleAddress",
          "type": "address"
        },
        {
          "name": "endpoint",
          "type": "bytes32"
        }
      ],
      "name": "getNumEscrow",
      "outputs": [
        {
          "name": "",
          "type": "uint256"
        }
      ],
      "payable": false,
      "stateMutability": "view",
      "type": "function"
    },
    {
      "constant": true,
      "inputs": [
        {
          "name": "oracleAddress",
          "type": "address"
        },
        {
          "name": "endpoint",
          "type": "bytes32"
        }
      ],
      "name": "getNumZap",
      "outputs": [
        {
          "name": "",
          "type": "uint256"
        }
      ],
      "payable": false,
      "stateMutability": "view",
      "type": "function"
    },
    {
      "constant": true,
      "inputs": [
        {
          "name": "oracleAddress",
          "type": "address"
        },
        {
          "name": "endpoint",
          "type": "bytes32"
        }
      ],
      "name": "getDotsIssued",
      "outputs": [
        {
          "name": "",
          "type": "uint256"
        }
      ],
      "payable": false,
      "stateMutability": "view",
      "type": "function"
    },
    {
      "constant": true,
      "inputs": [
        {
          "name": "holderAddress",
          "type": "address"
        },
        {
          "name": "oracleAddress",
          "type": "address"
        },
        {
          "name": "endpoint",
          "type": "bytes32"
        }
      ],
      "name": "getBoundDots",
      "outputs": [
        {
          "name": "",
          "type": "uint256"
        }
      ],
      "payable": false,
      "stateMutability": "view",
      "type": "function"
    },
    {
      "constant": true,
      "inputs": [
        {
          "name": "holderAddress",
          "type": "address"
        }
      ],
      "name": "getIndexSize",
      "outputs": [
        {
          "name": "",
          "type": "uint256"
        }
      ],
      "payable": false,
      "stateMutability": "view",
      "type": "function"
    },
    {
      "constant": true,
      "inputs": [
        {
          "name": "holderAddress",
          "type": "address"
        },
        {
          "name": "index",
          "type": "uint256"
        }
      ],
      "name": "getOracleAddress",
      "outputs": [
        {
          "name": "",
          "type": "address"
        }
      ],
      "payable": false,
      "stateMutability": "view",
      "type": "function"
    }
  ],
  "bytecode": "0x60806040523480156200001157600080fd5b5060405160208062004f328339810180604052810190808051906020019092919050505080336000806101000a81548173ffffffffffffffffffffffffffffffffffffffff021916908373ffffffffffffffffffffffffffffffffffffffff16021790555080600160006101000a81548173ffffffffffffffffffffffffffffffffffffffff021916908373ffffffffffffffffffffffffffffffffffffffff16021790555080600260006101000a81548173ffffffffffffffffffffffffffffffffffffffff021916908373ffffffffffffffffffffffffffffffffffffffff160217905550506200011262000119640100000000026401000000009004565b5062000761565b6000600260009054906101000a900473ffffffffffffffffffffffffffffffffffffffff1673ffffffffffffffffffffffffffffffffffffffff1663358177736040518163ffffffff167c01000000000000000000000000000000000000000000000000000000000281526004018080602001828103825260088152602001807f4441544142415345000000000000000000000000000000000000000000000000815250602001915050602060405180830381600087803b158015620001de57600080fd5b505af1158015620001f3573d6000803e3d6000fd5b505050506040513d60208110156200020a57600080fd5b8101908080519060200190929190505050905080600360006101000a81548173ffffffffffffffffffffffffffffffffffffffff021916908373ffffffffffffffffffffffffffffffffffffffff160217905550600260009054906101000a900473ffffffffffffffffffffffffffffffffffffffff1673ffffffffffffffffffffffffffffffffffffffff1663358177736040518163ffffffff167c01000000000000000000000000000000000000000000000000000000000281526004018080602001828103825260078152602001807f4152424954455200000000000000000000000000000000000000000000000000815250602001915050602060405180830381600087803b1580156200032157600080fd5b505af115801562000336573d6000803e3d6000fd5b505050506040513d60208110156200034d57600080fd5b8101908080519060200190929190505050600660006101000a81548173ffffffffffffffffffffffffffffffffffffffff021916908373ffffffffffffffffffffffffffffffffffffffff160217905550600260009054906101000a900473ffffffffffffffffffffffffffffffffffffffff1673ffffffffffffffffffffffffffffffffffffffff1663358177736040518163ffffffff167c01000000000000000000000000000000000000000000000000000000000281526004018080602001828103825260088152602001807f4449535041544348000000000000000000000000000000000000000000000000815250602001915050602060405180830381600087803b1580156200046157600080fd5b505af115801562000476573d6000803e3d6000fd5b505050506040513d60208110156200048d57600080fd5b8101908080519060200190929190505050600760006101000a81548173ffffffffffffffffffffffffffffffffffffffff021916908373ffffffffffffffffffffffffffffffffffffffff160217905550600260009054906101000a900473ffffffffffffffffffffffffffffffffffffffff1673ffffffffffffffffffffffffffffffffffffffff1663358177736040518163ffffffff167c01000000000000000000000000000000000000000000000000000000000281526004018080602001828103825260098152602001807f5a41505f544f4b454e0000000000000000000000000000000000000000000000815250602001915050602060405180830381600087803b158015620005a157600080fd5b505af1158015620005b6573d6000803e3d6000fd5b505050506040513d6020811015620005cd57600080fd5b8101908080519060200190929190505050600560006101000a81548173ffffffffffffffffffffffffffffffffffffffff021916908373ffffffffffffffffffffffffffffffffffffffff160217905550600260009054906101000a900473ffffffffffffffffffffffffffffffffffffffff1673ffffffffffffffffffffffffffffffffffffffff1663358177736040518163ffffffff167c010000000000000000000000000000000000000000000000000000000002815260040180806020018281038252600c8152602001807f43555252454e545f434f53540000000000000000000000000000000000000000815250602001915050602060405180830381600087803b158015620006e157600080fd5b505af1158015620006f6573d6000803e3d6000fd5b505050506040513d60208110156200070d57600080fd5b8101908080519060200190929190505050600460006101000a81548173ffffffffffffffffffffffffffffffffffffffff021916908373ffffffffffffffffffffffffffffffffffffffff16021790555050565b6147c180620007716000396000f30060806040526004361061013e576000357c0100000000000000000000000000000000000000000000000000000000900463ffffffff168063036459c01461014357806316614c98146101be57806319ec825c146102515780631d7b5e22146102b657806321cb4ec71461031b5780633b058aa7146103805780633fe79685146104135780634d655aff146104785780635d799306146104cf5780636e5ecdff146105265780637a68c23a1461053d5780638758eb69146105c25780638da5cb5b1461064f57806399275cc7146106a65780639cb8a26a14610715578063a06fe7751461072c578063b6105f151461079b578063bbee36941461080a578063ca01fed51461088f578063cbdaf0c81461091e578063ceae8b321461098d578063f2fde38b146109e4578063f528c94914610a27578063f6dfac2514610a7e575b600080fd5b34801561014f57600080fd5b506101a4600480360381019080803573ffffffffffffffffffffffffffffffffffffffff169060200190929190803573ffffffffffffffffffffffffffffffffffffffff169060200190929190505050610b11565b604051808215151515815260200191505060405180910390f35b3480156101ca57600080fd5b50610237600480360381019080803573ffffffffffffffffffffffffffffffffffffffff169060200190929190803573ffffffffffffffffffffffffffffffffffffffff169060200190929190803560001916906020019092919080359060200190929190505050610d4f565b604051808215151515815260200191505060405180910390f35b34801561025d57600080fd5b506102a0600480360381019080803573ffffffffffffffffffffffffffffffffffffffff1690602001909291908035600019169060200190929190505050610ef3565b6040518082815260200191505060405180910390f35b3480156102c257600080fd5b50610305600480360381019080803573ffffffffffffffffffffffffffffffffffffffff1690602001909291908035600019169060200190929190505050610f07565b6040518082815260200191505060405180910390f35b34801561032757600080fd5b5061036a600480360381019080803573ffffffffffffffffffffffffffffffffffffffff16906020019092919080356000191690602001909291905050506110d9565b6040518082815260200191505060405180910390f35b34801561038c57600080fd5b506103f9600480360381019080803573ffffffffffffffffffffffffffffffffffffffff169060200190929190803573ffffffffffffffffffffffffffffffffffffffff1690602001909291908035600019169060200190929190803590602001909291905050506111eb565b604051808215151515815260200191505060405180910390f35b34801561041f57600080fd5b50610462600480360381019080803573ffffffffffffffffffffffffffffffffffffffff169060200190929190803560001916906020019092919050505061138f565b6040518082815260200191505060405180910390f35b34801561048457600080fd5b5061048d611561565b604051808273ffffffffffffffffffffffffffffffffffffffff1673ffffffffffffffffffffffffffffffffffffffff16815260200191505060405180910390f35b3480156104db57600080fd5b506104e4611587565b604051808273ffffffffffffffffffffffffffffffffffffffff1673ffffffffffffffffffffffffffffffffffffffff16815260200191505060405180910390f35b34801561053257600080fd5b5061053b6115ad565b005b34801561054957600080fd5b506105ac600480360381019080803573ffffffffffffffffffffffffffffffffffffffff169060200190929190803573ffffffffffffffffffffffffffffffffffffffff1690602001909291908035600019169060200190929190505050611613565b6040518082815260200191505060405180910390f35b3480156105ce57600080fd5b5061060d600480360381019080803573ffffffffffffffffffffffffffffffffffffffff16906020019092919080359060200190929190505050611829565b604051808273ffffffffffffffffffffffffffffffffffffffff1673ffffffffffffffffffffffffffffffffffffffff16815260200191505060405180910390f35b34801561065b57600080fd5b50610664611a1b565b604051808273ffffffffffffffffffffffffffffffffffffffff1673ffffffffffffffffffffffffffffffffffffffff16815260200191505060405180910390f35b3480156106b257600080fd5b506106ff600480360381019080803573ffffffffffffffffffffffffffffffffffffffff169060200190929190803560001916906020019092919080359060200190929190505050611a40565b6040518082815260200191505060405180910390f35b34801561072157600080fd5b5061072a611ac9565b005b34801561073857600080fd5b50610785600480360381019080803573ffffffffffffffffffffffffffffffffffffffff169060200190929190803560001916906020019092919080359060200190929190505050611b5e565b6040518082815260200191505060405180910390f35b3480156107a757600080fd5b506107f4600480360381019080803573ffffffffffffffffffffffffffffffffffffffff169060200190929190803560001916906020019092919080359060200190929190505050611bdf565b6040518082815260200191505060405180910390f35b34801561081657600080fd5b50610879600480360381019080803573ffffffffffffffffffffffffffffffffffffffff169060200190929190803573ffffffffffffffffffffffffffffffffffffffff1690602001909291908035600019169060200190929190505050611d16565b6040518082815260200191505060405180910390f35b34801561089b57600080fd5b50610908600480360381019080803573ffffffffffffffffffffffffffffffffffffffff169060200190929190803573ffffffffffffffffffffffffffffffffffffffff169060200190929190803560001916906020019092919080359060200190929190505050611f54565b6040518082815260200191505060405180910390f35b34801561092a57600080fd5b50610977600480360381019080803573ffffffffffffffffffffffffffffffffffffffff169060200190929190803560001916906020019092919080359060200190929190505050611fde565b6040518082815260200191505060405180910390f35b34801561099957600080fd5b506109ce600480360381019080803573ffffffffffffffffffffffffffffffffffffffff1690602001909291905050506120f9565b6040518082815260200191505060405180910390f35b3480156109f057600080fd5b50610a25600480360381019080803573ffffffffffffffffffffffffffffffffffffffff1690602001909291905050506122e2565b005b348015610a3357600080fd5b50610a3c612437565b604051808273ffffffffffffffffffffffffffffffffffffffff1673ffffffffffffffffffffffffffffffffffffffff16815260200191505060405180910390f35b348015610a8a57600080fd5b50610af7600480360381019080803573ffffffffffffffffffffffffffffffffffffffff169060200190929190803573ffffffffffffffffffffffffffffffffffffffff16906020019092919080356000191690602001909291908035906020019092919050505061245d565b604051808215151515815260200191505060405180910390f35b60006001600360009054906101000a900473ffffffffffffffffffffffffffffffffffffffff1673ffffffffffffffffffffffffffffffffffffffff16632ecb0d64858560405160200180807f686f6c64657273000000000000000000000000000000000000000000000000008152506007018373ffffffffffffffffffffffffffffffffffffffff1673ffffffffffffffffffffffffffffffffffffffff166c01000000000000000000000000028152601401807f696e697469616c697a6564000000000000000000000000000000000000000000815250600b018273ffffffffffffffffffffffffffffffffffffffff1673ffffffffffffffffffffffffffffffffffffffff166c01000000000000000000000000028152601401925050506040516020818303038152906040526040518082805190602001908083835b602083101515610c765780518252602082019150602081019050602083039250610c51565b6001836020036101000a03801982511681845116808217855250505050505090500191505060405180910390206040518263ffffffff167c0100000000000000000000000000000000000000000000000000000000028152600401808260001916600019168152602001915050602060405180830381600087803b158015610cfd57600080fd5b505af1158015610d11573d6000803e3d6000fd5b505050506040513d6020811015610d2757600080fd5b810190808051906020019092919050505014610d44576000610d47565b60015b905092915050565b600080600660009054906101000a900473ffffffffffffffffffffffffffffffffffffffff1673ffffffffffffffffffffffffffffffffffffffff163373ffffffffffffffffffffffffffffffffffffffff161480610dfb5750600760009054906101000a900473ffffffffffffffffffffffffffffffffffffffff1673ffffffffffffffffffffffffffffffffffffffff163373ffffffffffffffffffffffffffffffffffffffff16145b1515610e0657600080fd5b610e11868686611d16565b9050808311151515610e2257600080fd5b610e4f868686867f6164640000000000000000000000000000000000000000000000000000000000612601565b610e7c868686867f7375620000000000000000000000000000000000000000000000000000000000612a7a565b83600019168573ffffffffffffffffffffffffffffffffffffffff168773ffffffffffffffffffffffffffffffffffffffff167f2738c9bd1693cadc7b4fabefd6467b42f901650c7401bad1076dbc984f4b15d0866040518082815260200191505060405180910390a46001915050949350505050565b6000610eff838361138f565b905092915050565b6000600360009054906101000a900473ffffffffffffffffffffffffffffffffffffffff1673ffffffffffffffffffffffffffffffffffffffff16632ecb0d64848460405160200180807f746f74616c497373756564000000000000000000000000000000000000000000815250600b018373ffffffffffffffffffffffffffffffffffffffff1673ffffffffffffffffffffffffffffffffffffffff166c010000000000000000000000000281526014018260001916600019168152602001925050506040516020818303038152906040526040518082805190602001908083835b60208310151561100f5780518252602082019150602081019050602083039250610fea565b6001836020036101000a03801982511681845116808217855250505050505090500191505060405180910390206040518263ffffffff167c0100000000000000000000000000000000000000000000000000000000028152600401808260001916600019168152602001915050602060405180830381600087803b15801561109657600080fd5b505af11580156110aa573d6000803e3d6000fd5b505050506040513d60208110156110c057600080fd5b8101908080519060200190929190505050905092915050565b6000600460009054906101000a900473ffffffffffffffffffffffffffffffffffffffff1673ffffffffffffffffffffffffffffffffffffffff1663c1ca69c484846040518363ffffffff167c0100000000000000000000000000000000000000000000000000000000028152600401808373ffffffffffffffffffffffffffffffffffffffff1673ffffffffffffffffffffffffffffffffffffffff168152602001826000191660001916815260200192505050602060405180830381600087803b1580156111a857600080fd5b505af11580156111bc573d6000803e3d6000fd5b505050506040513d60208110156111d257600080fd5b8101908080519060200190929190505050905092915050565b600080600660009054906101000a900473ffffffffffffffffffffffffffffffffffffffff1673ffffffffffffffffffffffffffffffffffffffff163373ffffffffffffffffffffffffffffffffffffffff1614806112975750600760009054906101000a900473ffffffffffffffffffffffffffffffffffffffff1673ffffffffffffffffffffffffffffffffffffffff163373ffffffffffffffffffffffffffffffffffffffff16145b15156112a257600080fd5b6112ad868686611613565b90508083111515156112be57600080fd5b6112eb868686867f7375620000000000000000000000000000000000000000000000000000000000612601565b611318858686867f6164640000000000000000000000000000000000000000000000000000000000612a7a565b83600019168573ffffffffffffffffffffffffffffffffffffffff168773ffffffffffffffffffffffffffffffffffffffff167f2afa253d0464d87b039f71a6964ed5c028a3a3c68048d909fbee4b1610756e79866040518082815260200191505060405180910390a46001915050949350505050565b6000600360009054906101000a900473ffffffffffffffffffffffffffffffffffffffff1673ffffffffffffffffffffffffffffffffffffffff16632ecb0d64848460405160200180807f746f74616c426f756e6400000000000000000000000000000000000000000000815250600a018373ffffffffffffffffffffffffffffffffffffffff1673ffffffffffffffffffffffffffffffffffffffff166c010000000000000000000000000281526014018260001916600019168152602001925050506040516020818303038152906040526040518082805190602001908083835b6020831015156114975780518252602082019150602081019050602083039250611472565b6001836020036101000a03801982511681845116808217855250505050505090500191505060405180910390206040518263ffffffff167c0100000000000000000000000000000000000000000000000000000000028152600401808260001916600019168152602001915050602060405180830381600087803b15801561151e57600080fd5b505af1158015611532573d6000803e3d6000fd5b505050506040513d602081101561154857600080fd5b8101908080519060200190929190505050905092915050565b600360009054906101000a900473ffffffffffffffffffffffffffffffffffffffff1681565b600660009054906101000a900473ffffffffffffffffffffffffffffffffffffffff1681565b600160009054906101000a900473ffffffffffffffffffffffffffffffffffffffff1673ffffffffffffffffffffffffffffffffffffffff163373ffffffffffffffffffffffffffffffffffffffff1614151561160957600080fd5b611611612f3a565b565b6000600360009054906101000a900473ffffffffffffffffffffffffffffffffffffffff1673ffffffffffffffffffffffffffffffffffffffff16632ecb0d6485858560405160200180807f657363726f7700000000000000000000000000000000000000000000000000008152506006018473ffffffffffffffffffffffffffffffffffffffff1673ffffffffffffffffffffffffffffffffffffffff166c010000000000000000000000000281526014018373ffffffffffffffffffffffffffffffffffffffff1673ffffffffffffffffffffffffffffffffffffffff166c01000000000000000000000000028152601401826000191660001916815260200193505050506040516020818303038152906040526040518082805190602001908083835b60208310151561175e5780518252602082019150602081019050602083039250611739565b6001836020036101000a03801982511681845116808217855250505050505090500191505060405180910390206040518263ffffffff167c0100000000000000000000000000000000000000000000000000000000028152600401808260001916600019168152602001915050602060405180830381600087803b1580156117e557600080fd5b505af11580156117f9573d6000803e3d6000fd5b505050506040513d602081101561180f57600080fd5b810190808051906020019092919050505090509392505050565b6000600360009054906101000a900473ffffffffffffffffffffffffffffffffffffffff1673ffffffffffffffffffffffffffffffffffffffff1663e16e93408460405160200180807f686f6c64657273000000000000000000000000000000000000000000000000008152506007018273ffffffffffffffffffffffffffffffffffffffff1673ffffffffffffffffffffffffffffffffffffffff166c01000000000000000000000000028152601401807f6f7261636c654c69737400000000000000000000000000000000000000000000815250600a019150506040516020818303038152906040526040518082805190602001908083835b6020831015156119495780518252602082019150602081019050602083039250611924565b6001836020036101000a0380198251168184511680821785525050505050509050019150506040518091039020846040518363ffffffff167c010000000000000000000000000000000000000000000000000000000002815260040180836000191660001916815260200182815260200192505050602060405180830381600087803b1580156119d857600080fd5b505af11580156119ec573d6000803e3d6000fd5b505050506040513d6020811015611a0257600080fd5b8101908080519060200190929190505050905092915050565b6000809054906101000a900473ffffffffffffffffffffffffffffffffffffffff1681565b6000611a4e33858585613573565b905082600019168473ffffffffffffffffffffffffffffffffffffffff163373ffffffffffffffffffffffffffffffffffffffff167fe8fd3c22d82ce4b5a0addda04f808686ef3d592b33cadc8435ce17dc106ced6c8486604051808381526020018281526020019250505060405180910390a49392505050565b6000809054906101000a900473ffffffffffffffffffffffffffffffffffffffff1673ffffffffffffffffffffffffffffffffffffffff163373ffffffffffffffffffffffffffffffffffffffff16141515611b2457600080fd5b6000809054906101000a900473ffffffffffffffffffffffffffffffffffffffff1673ffffffffffffffffffffffffffffffffffffffff16ff5b6000611b6c338585856138b4565b905082600019168473ffffffffffffffffffffffffffffffffffffffff163373ffffffffffffffffffffffffffffffffffffffff167f60b9c649cd4eb0d02bcdc2d69fd86d12022c0bf7ff8aa61e5ac0bc121fc3cac0856040518082815260200191505060405180910390a49392505050565b600080611bec8585610f07565b9050600460009054906101000a900473ffffffffffffffffffffffffffffffffffffffff1673ffffffffffffffffffffffffffffffffffffffff1663197d66d5868660018501600188036040518563ffffffff167c0100000000000000000000000000000000000000000000000000000000028152600401808573ffffffffffffffffffffffffffffffffffffffff1673ffffffffffffffffffffffffffffffffffffffff1681526020018460001916600019168152602001838152602001828152602001945050505050602060405180830381600087803b158015611cd157600080fd5b505af1158015611ce5573d6000803e3d6000fd5b505050506040513d6020811015611cfb57600080fd5b81019080805190602001909291905050509150509392505050565b6000600360009054906101000a900473ffffffffffffffffffffffffffffffffffffffff1673ffffffffffffffffffffffffffffffffffffffff16632ecb0d6485858560405160200180807f686f6c64657273000000000000000000000000000000000000000000000000008152506007018473ffffffffffffffffffffffffffffffffffffffff1673ffffffffffffffffffffffffffffffffffffffff166c01000000000000000000000000028152601401807f626f6e64730000000000000000000000000000000000000000000000000000008152506005018373ffffffffffffffffffffffffffffffffffffffff1673ffffffffffffffffffffffffffffffffffffffff166c01000000000000000000000000028152601401826000191660001916815260200193505050506040516020818303038152906040526040518082805190602001908083835b602083101515611e895780518252602082019150602081019050602083039250611e64565b6001836020036101000a03801982511681845116808217855250505050505090500191505060405180910390206040518263ffffffff167c0100000000000000000000000000000000000000000000000000000000028152600401808260001916600019168152602001915050602060405180830381600087803b158015611f1057600080fd5b505af1158015611f24573d6000803e3d6000fd5b505050506040513d6020811015611f3a57600080fd5b810190808051906020019092919050505090509392505050565b6000611f6285858585613573565b905082600019168473ffffffffffffffffffffffffffffffffffffffff168673ffffffffffffffffffffffffffffffffffffffff167fe8fd3c22d82ce4b5a0addda04f808686ef3d592b33cadc8435ce17dc106ced6c8486604051808381526020018281526020019250505060405180910390a4949350505050565b6000600460009054906101000a900473ffffffffffffffffffffffffffffffffffffffff1673ffffffffffffffffffffffffffffffffffffffff1663ecca1fad8585856040518463ffffffff167c0100000000000000000000000000000000000000000000000000000000028152600401808473ffffffffffffffffffffffffffffffffffffffff1673ffffffffffffffffffffffffffffffffffffffff16815260200183600019166000191681526020018281526020019350505050602060405180830381600087803b1580156120b557600080fd5b505af11580156120c9573d6000803e3d6000fd5b505050506040513d60208110156120df57600080fd5b810190808051906020019092919050505090509392505050565b6000600360009054906101000a900473ffffffffffffffffffffffffffffffffffffffff1673ffffffffffffffffffffffffffffffffffffffff16632fc94ba68360405160200180807f686f6c64657273000000000000000000000000000000000000000000000000008152506007018273ffffffffffffffffffffffffffffffffffffffff1673ffffffffffffffffffffffffffffffffffffffff166c01000000000000000000000000028152601401807f6f7261636c654c69737400000000000000000000000000000000000000000000815250600a019150506040516020818303038152906040526040518082805190602001908083835b60208310151561221957805182526020820191506020810190506020830392506121f4565b6001836020036101000a03801982511681845116808217855250505050505090500191505060405180910390206040518263ffffffff167c0100000000000000000000000000000000000000000000000000000000028152600401808260001916600019168152602001915050602060405180830381600087803b1580156122a057600080fd5b505af11580156122b4573d6000803e3d6000fd5b505050506040513d60208110156122ca57600080fd5b81019080805190602001909291905050509050919050565b6000809054906101000a900473ffffffffffffffffffffffffffffffffffffffff1673ffffffffffffffffffffffffffffffffffffffff163373ffffffffffffffffffffffffffffffffffffffff1614151561233d57600080fd5b600073ffffffffffffffffffffffffffffffffffffffff168173ffffffffffffffffffffffffffffffffffffffff161415151561237957600080fd5b8073ffffffffffffffffffffffffffffffffffffffff166000809054906101000a900473ffffffffffffffffffffffffffffffffffffffff1673ffffffffffffffffffffffffffffffffffffffff167f8be0079c531659141344cd1fd0a4f28419497f9722a3daafe3b4186f6b6457e060405160405180910390a3806000806101000a81548173ffffffffffffffffffffffffffffffffffffffff021916908373ffffffffffffffffffffffffffffffffffffffff16021790555050565b600760009054906101000a900473ffffffffffffffffffffffffffffffffffffffff1681565b600080600660009054906101000a900473ffffffffffffffffffffffffffffffffffffffff1673ffffffffffffffffffffffffffffffffffffffff163373ffffffffffffffffffffffffffffffffffffffff1614806125095750600760009054906101000a900473ffffffffffffffffffffffffffffffffffffffff1673ffffffffffffffffffffffffffffffffffffffff163373ffffffffffffffffffffffffffffffffffffffff16145b151561251457600080fd5b61251f868686611613565b905080831115151561253057600080fd5b61255d868686867f7375620000000000000000000000000000000000000000000000000000000000612601565b61258a868686867f6164640000000000000000000000000000000000000000000000000000000000612a7a565b83600019168573ffffffffffffffffffffffffffffffffffffffff168773ffffffffffffffffffffffffffffffffffffffff167f8ce63c9cd119808de8fe6e9629b631f115a967dd2cfd274bca3f6b9486745bf7866040518082815260200191505060405180910390a46001915050949350505050565b6000600360009054906101000a900473ffffffffffffffffffffffffffffffffffffffff1673ffffffffffffffffffffffffffffffffffffffff16632ecb0d6487878760405160200180807f657363726f7700000000000000000000000000000000000000000000000000008152506006018473ffffffffffffffffffffffffffffffffffffffff1673ffffffffffffffffffffffffffffffffffffffff166c010000000000000000000000000281526014018373ffffffffffffffffffffffffffffffffffffffff1673ffffffffffffffffffffffffffffffffffffffff166c01000000000000000000000000028152601401826000191660001916815260200193505050506040516020818303038152906040526040518082805190602001908083835b60208310151561274c5780518252602082019150602081019050602083039250612727565b6001836020036101000a03801982511681845116808217855250505050505090500191505060405180910390206040518263ffffffff167c0100000000000000000000000000000000000000000000000000000000028152600401808260001916600019168152602001915050602060405180830381600087803b1580156127d357600080fd5b505af11580156127e7573d6000803e3d6000fd5b505050506040513d60208110156127fd57600080fd5b810190808051906020019092919050505090507f737562000000000000000000000000000000000000000000000000000000000082600019161415612846578281039050612882565b7f61646400000000000000000000000000000000000000000000000000000000008260001916141561287c578281019050612881565b600080fd5b5b600360009054906101000a900473ffffffffffffffffffffffffffffffffffffffff1673ffffffffffffffffffffffffffffffffffffffff166354c552db87878760405160200180807f657363726f7700000000000000000000000000000000000000000000000000008152506006018473ffffffffffffffffffffffffffffffffffffffff1673ffffffffffffffffffffffffffffffffffffffff166c010000000000000000000000000281526014018373ffffffffffffffffffffffffffffffffffffffff1673ffffffffffffffffffffffffffffffffffffffff166c01000000000000000000000000028152601401826000191660001916815260200193505050506040516020818303038152906040526040518082805190602001908083835b6020831015156129cb57805182526020820191506020810190506020830392506129a6565b6001836020036101000a0380198251168184511680821785525050505050509050019150506040518091039020836040518363ffffffff167c010000000000000000000000000000000000000000000000000000000002815260040180836000191660001916815260200182815260200192505050600060405180830381600087803b158015612a5a57600080fd5b505af1158015612a6e573d6000803e3d6000fd5b50505050505050505050565b6000600360009054906101000a900473ffffffffffffffffffffffffffffffffffffffff1673ffffffffffffffffffffffffffffffffffffffff16632ecb0d6487878760405160200180807f686f6c64657273000000000000000000000000000000000000000000000000008152506007018473ffffffffffffffffffffffffffffffffffffffff1673ffffffffffffffffffffffffffffffffffffffff166c01000000000000000000000000028152601401807f626f6e64730000000000000000000000000000000000000000000000000000008152506005018373ffffffffffffffffffffffffffffffffffffffff1673ffffffffffffffffffffffffffffffffffffffff166c01000000000000000000000000028152601401826000191660001916815260200193505050506040516020818303038152906040526040518082805190602001908083835b602083101515612bed5780518252602082019150602081019050602083039250612bc8565b6001836020036101000a03801982511681845116808217855250505050505090500191505060405180910390206040518263ffffffff167c0100000000000000000000000000000000000000000000000000000000028152600401808260001916600019168152602001915050602060405180830381600087803b158015612c7457600080fd5b505af1158015612c88573d6000803e3d6000fd5b505050506040513d6020811015612c9e57600080fd5b810190808051906020019092919050505090507f737562000000000000000000000000000000000000000000000000000000000082600019161415612ce7578281039050612d1a565b7f616464000000000000000000000000000000000000000000000000000000000082600019161415612d195782810190505b5b600360009054906101000a900473ffffffffffffffffffffffffffffffffffffffff1673ffffffffffffffffffffffffffffffffffffffff166354c552db87878760405160200180807f686f6c64657273000000000000000000000000000000000000000000000000008152506007018473ffffffffffffffffffffffffffffffffffffffff1673ffffffffffffffffffffffffffffffffffffffff166c01000000000000000000000000028152601401807f626f6e64730000000000000000000000000000000000000000000000000000008152506005018373ffffffffffffffffffffffffffffffffffffffff1673ffffffffffffffffffffffffffffffffffffffff166c01000000000000000000000000028152601401826000191660001916815260200193505050506040516020818303038152906040526040518082805190602001908083835b602083101515612e8b5780518252602082019150602081019050602083039250612e66565b6001836020036101000a0380198251168184511680821785525050505050509050019150506040518091039020836040518363ffffffff167c010000000000000000000000000000000000000000000000000000000002815260040180836000191660001916815260200182815260200192505050600060405180830381600087803b158015612f1a57600080fd5b505af1158015612f2e573d6000803e3d6000fd5b50505050505050505050565b6000600260009054906101000a900473ffffffffffffffffffffffffffffffffffffffff1673ffffffffffffffffffffffffffffffffffffffff1663358177736040518163ffffffff167c01000000000000000000000000000000000000000000000000000000000281526004018080602001828103825260088152602001807f4441544142415345000000000000000000000000000000000000000000000000815250602001915050602060405180830381600087803b158015612ffe57600080fd5b505af1158015613012573d6000803e3d6000fd5b505050506040513d602081101561302857600080fd5b8101908080519060200190929190505050905080600360006101000a81548173ffffffffffffffffffffffffffffffffffffffff021916908373ffffffffffffffffffffffffffffffffffffffff160217905550600260009054906101000a900473ffffffffffffffffffffffffffffffffffffffff1673ffffffffffffffffffffffffffffffffffffffff1663358177736040518163ffffffff167c01000000000000000000000000000000000000000000000000000000000281526004018080602001828103825260078152602001807f4152424954455200000000000000000000000000000000000000000000000000815250602001915050602060405180830381600087803b15801561313e57600080fd5b505af1158015613152573d6000803e3d6000fd5b505050506040513d602081101561316857600080fd5b8101908080519060200190929190505050600660006101000a81548173ffffffffffffffffffffffffffffffffffffffff021916908373ffffffffffffffffffffffffffffffffffffffff160217905550600260009054906101000a900473ffffffffffffffffffffffffffffffffffffffff1673ffffffffffffffffffffffffffffffffffffffff1663358177736040518163ffffffff167c01000000000000000000000000000000000000000000000000000000000281526004018080602001828103825260088152602001807f4449535041544348000000000000000000000000000000000000000000000000815250602001915050602060405180830381600087803b15801561327b57600080fd5b505af115801561328f573d6000803e3d6000fd5b505050506040513d60208110156132a557600080fd5b8101908080519060200190929190505050600760006101000a81548173ffffffffffffffffffffffffffffffffffffffff021916908373ffffffffffffffffffffffffffffffffffffffff160217905550600260009054906101000a900473ffffffffffffffffffffffffffffffffffffffff1673ffffffffffffffffffffffffffffffffffffffff1663358177736040518163ffffffff167c01000000000000000000000000000000000000000000000000000000000281526004018080602001828103825260098152602001807f5a41505f544f4b454e0000000000000000000000000000000000000000000000815250602001915050602060405180830381600087803b1580156133b857600080fd5b505af11580156133cc573d6000803e3d6000fd5b505050506040513d60208110156133e257600080fd5b8101908080519060200190929190505050600560006101000a81548173ffffffffffffffffffffffffffffffffffffffff021916908373ffffffffffffffffffffffffffffffffffffffff160217905550600260009054906101000a900473ffffffffffffffffffffffffffffffffffffffff1673ffffffffffffffffffffffffffffffffffffffff1663358177736040518163ffffffff167c010000000000000000000000000000000000000000000000000000000002815260040180806020018281038252600c8152602001807f43555252454e545f434f53540000000000000000000000000000000000000000815250602001915050602060405180830381600087803b1580156134f557600080fd5b505af1158015613509573d6000803e3d6000fd5b505050506040513d602081101561351f57600080fd5b8101908080519060200190929190505050600460006101000a81548173ffffffffffffffffffffffffffffffffffffffff021916908373ffffffffffffffffffffffffffffffffffffffff16021790555050565b60008060006135828686610f07565b915061358e86866110d9565b8483011115151561359e57600080fd5b600460009054906101000a900473ffffffffffffffffffffffffffffffffffffffff1673ffffffffffffffffffffffffffffffffffffffff1663197d66d5878760018601600189036040518563ffffffff167c0100000000000000000000000000000000000000000000000000000000028152600401808573ffffffffffffffffffffffffffffffffffffffff1673ffffffffffffffffffffffffffffffffffffffff1681526020018460001916600019168152602001838152602001828152602001945050505050602060405180830381600087803b15801561368157600080fd5b505af1158015613695573d6000803e3d6000fd5b505050506040513d60208110156136ab57600080fd5b81019080805190602001909291905050509050600560009054906101000a900473ffffffffffffffffffffffffffffffffffffffff1673ffffffffffffffffffffffffffffffffffffffff166323b872dd3330846040518463ffffffff167c0100000000000000000000000000000000000000000000000000000000028152600401808473ffffffffffffffffffffffffffffffffffffffff1673ffffffffffffffffffffffffffffffffffffffff1681526020018373ffffffffffffffffffffffffffffffffffffffff1673ffffffffffffffffffffffffffffffffffffffff1681526020018281526020019350505050602060405180830381600087803b1580156137b757600080fd5b505af11580156137cb573d6000803e3d6000fd5b505050506040513d60208110156137e157600080fd5b810190808051906020019092919050505015156137fd57600080fd5b6138078787610b11565b1515613822576138178787613baf565b6138218787613dbc565b5b61384f878787877f6164640000000000000000000000000000000000000000000000000000000000612a7a565b61387b8686867f6164640000000000000000000000000000000000000000000000000000000000613fb1565b6138a78686837f61646400000000000000000000000000000000000000000000000000000000006143a3565b8092505050949350505050565b60008060006138c4878787611d16565b91508382101515156138d557600080fd5b6000841115156138e457600080fd5b6138ee8686610f07565b9050600460009054906101000a900473ffffffffffffffffffffffffffffffffffffffff1673ffffffffffffffffffffffffffffffffffffffff1663197d66d58787876001860103600189036040518563ffffffff167c0100000000000000000000000000000000000000000000000000000000028152600401808573ffffffffffffffffffffffffffffffffffffffff1673ffffffffffffffffffffffffffffffffffffffff1681526020018460001916600019168152602001838152602001828152602001945050505050602060405180830381600087803b1580156139d557600080fd5b505af11580156139e9573d6000803e3d6000fd5b505050506040513d60208110156139ff57600080fd5b81019080805190602001909291905050509250613a3e8686857f73756200000000000000000000000000000000000000000000000000000000006143a3565b613a6a8686867f7375620000000000000000000000000000000000000000000000000000000000613fb1565b613a97878787877f7375620000000000000000000000000000000000000000000000000000000000612a7a565b600560009054906101000a900473ffffffffffffffffffffffffffffffffffffffff1673ffffffffffffffffffffffffffffffffffffffff1663a9059cbb88856040518363ffffffff167c0100000000000000000000000000000000000000000000000000000000028152600401808373ffffffffffffffffffffffffffffffffffffffff1673ffffffffffffffffffffffffffffffffffffffff16815260200182815260200192505050602060405180830381600087803b158015613b5c57600080fd5b505af1158015613b70573d6000803e3d6000fd5b505050506040513d6020811015613b8657600080fd5b81019080805190602001909291905050501515613ba257600080fd5b8292505050949350505050565b600360009054906101000a900473ffffffffffffffffffffffffffffffffffffffff1673ffffffffffffffffffffffffffffffffffffffff166354c552db838360405160200180807f686f6c64657273000000000000000000000000000000000000000000000000008152506007018373ffffffffffffffffffffffffffffffffffffffff1673ffffffffffffffffffffffffffffffffffffffff166c01000000000000000000000000028152601401807f696e697469616c697a6564000000000000000000000000000000000000000000815250600b018273ffffffffffffffffffffffffffffffffffffffff1673ffffffffffffffffffffffffffffffffffffffff166c01000000000000000000000000028152601401925050506040516020818303038152906040526040518082805190602001908083835b602083101515613d105780518252602082019150602081019050602083039250613ceb565b6001836020036101000a038019825116818451168082178552505050505050905001915050604051809103902060016040518363ffffffff167c010000000000000000000000000000000000000000000000000000000002815260040180836000191660001916815260200182815260200192505050600060405180830381600087803b158015613da057600080fd5b505af1158015613db4573d6000803e3d6000fd5b505050505050565b600360009054906101000a900473ffffffffffffffffffffffffffffffffffffffff1673ffffffffffffffffffffffffffffffffffffffff1663dd151d1e8360405160200180807f686f6c64657273000000000000000000000000000000000000000000000000008152506007018273ffffffffffffffffffffffffffffffffffffffff1673ffffffffffffffffffffffffffffffffffffffff166c01000000000000000000000000028152601401807f6f7261636c654c69737400000000000000000000000000000000000000000000815250600a019150506040516020818303038152906040526040518082805190602001908083835b602083101515613eda5780518252602082019150602081019050602083039250613eb5565b6001836020036101000a0380198251168184511680821785525050505050509050019150506040518091039020836040518363ffffffff167c01000000000000000000000000000000000000000000000000000000000281526004018083600019166000191681526020018273ffffffffffffffffffffffffffffffffffffffff1673ffffffffffffffffffffffffffffffffffffffff16815260200192505050600060405180830381600087803b158015613f9557600080fd5b505af1158015613fa9573d6000803e3d6000fd5b505050505050565b6000600360009054906101000a900473ffffffffffffffffffffffffffffffffffffffff1673ffffffffffffffffffffffffffffffffffffffff16632ecb0d64868660405160200180807f746f74616c497373756564000000000000000000000000000000000000000000815250600b018373ffffffffffffffffffffffffffffffffffffffff1673ffffffffffffffffffffffffffffffffffffffff166c010000000000000000000000000281526014018260001916600019168152602001925050506040516020818303038152906040526040518082805190602001908083835b6020831015156140b95780518252602082019150602081019050602083039250614094565b6001836020036101000a03801982511681845116808217855250505050505090500191505060405180910390206040518263ffffffff167c0100000000000000000000000000000000000000000000000000000000028152600401808260001916600019168152602001915050602060405180830381600087803b15801561414057600080fd5b505af1158015614154573d6000803e3d6000fd5b505050506040513d602081101561416a57600080fd5b810190808051906020019092919050505090507f7375620000000000000000000000000000000000000000000000000000000000826000191614156141b35782810390506141ef565b7f6164640000000000000000000000000000000000000000000000000000000000826000191614156141e95782810190506141ee565b600080fd5b5b600360009054906101000a900473ffffffffffffffffffffffffffffffffffffffff1673ffffffffffffffffffffffffffffffffffffffff166354c552db868660405160200180807f746f74616c497373756564000000000000000000000000000000000000000000815250600b018373ffffffffffffffffffffffffffffffffffffffff1673ffffffffffffffffffffffffffffffffffffffff166c010000000000000000000000000281526014018260001916600019168152602001925050506040516020818303038152906040526040518082805190602001908083835b6020831015156142f557805182526020820191506020810190506020830392506142d0565b6001836020036101000a0380198251168184511680821785525050505050509050019150506040518091039020836040518363ffffffff167c010000000000000000000000000000000000000000000000000000000002815260040180836000191660001916815260200182815260200192505050600060405180830381600087803b15801561438457600080fd5b505af1158015614398573d6000803e3d6000fd5b505050505050505050565b6000600360009054906101000a900473ffffffffffffffffffffffffffffffffffffffff1673ffffffffffffffffffffffffffffffffffffffff16632ecb0d64868660405160200180807f746f74616c426f756e6400000000000000000000000000000000000000000000815250600a018373ffffffffffffffffffffffffffffffffffffffff1673ffffffffffffffffffffffffffffffffffffffff166c010000000000000000000000000281526014018260001916600019168152602001925050506040516020818303038152906040526040518082805190602001908083835b6020831015156144ab5780518252602082019150602081019050602083039250614486565b6001836020036101000a03801982511681845116808217855250505050505090500191505060405180910390206040518263ffffffff167c0100000000000000000000000000000000000000000000000000000000028152600401808260001916600019168152602001915050602060405180830381600087803b15801561453257600080fd5b505af1158015614546573d6000803e3d6000fd5b505050506040513d602081101561455c57600080fd5b810190808051906020019092919050505090507f7375620000000000000000000000000000000000000000000000000000000000826000191614156145a55782810390506145e1565b7f6164640000000000000000000000000000000000000000000000000000000000826000191614156145db5782810190506145e0565b600080fd5b5b600360009054906101000a900473ffffffffffffffffffffffffffffffffffffffff1673ffffffffffffffffffffffffffffffffffffffff166354c552db868660405160200180807f746f74616c426f756e6400000000000000000000000000000000000000000000815250600a018373ffffffffffffffffffffffffffffffffffffffff1673ffffffffffffffffffffffffffffffffffffffff166c010000000000000000000000000281526014018260001916600019168152602001925050506040516020818303038152906040526040518082805190602001908083835b6020831015156146e757805182526020820191506020810190506020830392506146c2565b6001836020036101000a0380198251168184511680821785525050505050509050019150506040518091039020836040518363ffffffff167c010000000000000000000000000000000000000000000000000000000002815260040180836000191660001916815260200182815260200192505050600060405180830381600087803b15801561477657600080fd5b505af115801561478a573d6000803e3d6000fd5b5050505050505050505600a165627a7a723058207ed2ac6e5485c5b64cf7e726e1bd0d14c1698ad5ba5d053889765b9fea5d82750029",
  "source": "pragma solidity ^0.4.24;\n\nimport \"../../lib/lifecycle/Destructible.sol\";\nimport \"../../lib/ownership/Upgradable.sol\";\nimport \"../../lib/ERC20.sol\";\nimport \"../database/DatabaseInterface.sol\";\nimport \"./currentCost/CurrentCostInterface.sol\";\nimport \"./BondageInterface.sol\";\n\ncontract Bondage is Destructible, BondageInterface, Upgradable {\n    DatabaseInterface public db;\n\n    event Bound(address indexed holder, address indexed oracle, bytes32 indexed endpoint, uint256 numZap, uint256 numDots);\n    event Unbound(address indexed holder, address indexed oracle, bytes32 indexed endpoint, uint256 numDots);\n    event Escrowed(address indexed holder, address indexed oracle, bytes32 indexed endpoint, uint256 numDots);\n    event Released(address indexed holder, address indexed oracle, bytes32 indexed endpoint, uint256 numDots);\n    event Returned(address indexed holder, address indexed oracle, bytes32 indexed endpoint, uint256 numDots);\n\n\n    CurrentCostInterface currentCost;\n    ERC20 token;\n\n    address public arbiterAddress;\n    address public dispatchAddress;\n\n    // For restricting dot escrow/transfer method calls to Dispatch and Arbiter\n    modifier operatorOnly() {\n        require(msg.sender == arbiterAddress || msg.sender == dispatchAddress);\n        _;\n    }\n\n    /// @dev Initialize Storage, Token, anc CurrentCost Contracts\n    constructor(address c) Upgradable(c) public {\n        _updateDependencies();\n    }\n\n    function _updateDependencies() internal {\n        address databaseAddress = coordinator.getContract(\"DATABASE\");\n        db = DatabaseInterface(databaseAddress);\n        arbiterAddress = coordinator.getContract(\"ARBITER\");\n        dispatchAddress = coordinator.getContract(\"DISPATCH\");\n        token = ERC20(coordinator.getContract(\"ZAP_TOKEN\")); \n        currentCost = CurrentCostInterface(coordinator.getContract(\"CURRENT_COST\")); \n    }\n\n    /// @dev will bond to an oracle\n    /// @return total ZAP bound to oracle\n    function bond(address oracleAddress, bytes32 endpoint, uint256 numDots) external returns (uint256 bound) {\n        bound = _bond(msg.sender, oracleAddress, endpoint, numDots);\n        emit Bound(msg.sender, oracleAddress, endpoint, bound, numDots);\n    }\n\n    /// @return total ZAP unbound from oracle\n    function unbond(address oracleAddress, bytes32 endpoint, uint256 numDots) external returns (uint256 unbound) {\n        unbound = _unbond(msg.sender, oracleAddress, endpoint, numDots);\n        emit Unbound(msg.sender, oracleAddress, endpoint, numDots);\n    }        \n\n    /// @dev will bond to an oracle on behalf of some holder\n    /// @return total ZAP bound to oracle\n    function delegateBond(address holderAddress, address oracleAddress, bytes32 endpoint, uint256 numDots) external returns (uint256 boundZap) {\n        boundZap = _bond(holderAddress, oracleAddress, endpoint, numDots);\n        emit Bound(holderAddress, oracleAddress, endpoint, boundZap, numDots);\n    }\n\n    /// @dev Move numDots dots from provider-requester to bondage according to \n    /// data-provider address, holder address, and endpoint specifier (ala 'smart_contract')\n    /// Called only by Dispatch or Arbiter Contracts\n    function escrowDots(        \n        address holderAddress,\n        address oracleAddress,\n        bytes32 endpoint,\n        uint256 numDots\n    )\n        external\n        operatorOnly        \n        returns (bool success)\n    {\n        uint256 boundDots = getBoundDots(holderAddress, oracleAddress, endpoint);\n        require(numDots <= boundDots);\n        updateEscrow(holderAddress, oracleAddress, endpoint, numDots, \"add\");\n        updateBondValue(holderAddress, oracleAddress, endpoint, numDots, \"sub\");\n        emit Escrowed(holderAddress, oracleAddress, endpoint, numDots);\n        return true;\n    }\n\n    /// @dev Transfer N dots from fromAddress to destAddress. \n    /// Called only by Disptach or Arbiter Contracts\n    /// In smart contract endpoint, occurs per satisfied request. \n    /// In socket endpoint called on termination of subscription.\n    function releaseDots(\n        address holderAddress,\n        address oracleAddress,\n        bytes32 endpoint,\n        uint256 numDots\n    )\n        external\n        operatorOnly \n        returns (bool success)\n    {\n        uint256 numEscrowed = getNumEscrow(holderAddress, oracleAddress, endpoint);\n        require(numDots <= numEscrowed);\n        updateEscrow(holderAddress, oracleAddress, endpoint, numDots, \"sub\");\n        updateBondValue(oracleAddress, oracleAddress, endpoint, numDots, \"add\");\n        emit Released(holderAddress, oracleAddress, endpoint, numDots);\n        return true;\n    }\n\n    /// @dev Transfer N dots from destAddress to fromAddress. \n    /// Called only by Disptach or Arbiter Contracts\n    /// In smart contract endpoint, occurs per satisfied request. \n    /// In socket endpoint called on termination of subscription.\n    function returnDots(\n        address holderAddress,\n        address oracleAddress,\n        bytes32 endpoint,\n        uint256 numDots\n    )\n        external\n        operatorOnly \n        returns (bool success)\n    {\n        uint256 numEscrowed = getNumEscrow(holderAddress, oracleAddress, endpoint);\n        require(numDots <= numEscrowed);\n        updateEscrow(holderAddress, oracleAddress, endpoint, numDots, \"sub\");\n        updateBondValue(holderAddress, oracleAddress, endpoint, numDots, \"add\");\n        emit Returned(holderAddress, oracleAddress, endpoint, numDots);\n        return true;\n    }\n\n\n    /// @dev Calculate quantity of tokens required for specified amount of dots\n    /// for endpoint defined by endpoint and data provider defined by oracleAddress\n    function calcZapForDots(\n        address oracleAddress,\n        bytes32 endpoint,\n        uint256 numDots       \n    ) \n        external\n        view\n        returns (uint256 numZap)\n    {\n        uint256 issued = getDotsIssued(oracleAddress, endpoint);\n        return currentCost._costOfNDots(oracleAddress, endpoint, issued + 1, numDots - 1);\n    }\n\n    /// @dev Get the current cost of a dot.\n    /// @param endpoint specifier\n    /// @param oracleAddress data-provider\n    /// @param totalBound current number of dots\n    function currentCostOfDot(\n        address oracleAddress,\n        bytes32 endpoint,\n        uint256 totalBound\n    )\n        public\n        view\n        returns (uint256 cost)\n    {\n        return currentCost._currentCostOfDot(oracleAddress, endpoint, totalBound);\n    }\n\n    /// @dev Get issuance limit of dots \n    /// @param endpoint specifier\n    /// @param oracleAddress data-provider\n    function dotLimit(\n        address oracleAddress,\n        bytes32 endpoint\n    )\n        public\n        view\n        returns (uint256 limit)\n    {\n        return currentCost._dotLimit(oracleAddress, endpoint);\n    }\n\n\n    /// @return total ZAP held by contract\n    function getZapBound(address oracleAddress, bytes32 endpoint) public view returns (uint256) {\n        return getNumZap(oracleAddress, endpoint);\n    }\n\n    function _bond(\n        address holderAddress,\n        address oracleAddress,\n        bytes32 endpoint,\n        uint256 numDots        \n    )\n        private\n        returns (uint256) \n    {   \n        // This also checks if oracle is registered w/an initialized curve\n        uint256 issued = getDotsIssued(oracleAddress, endpoint);\n        require(issued + numDots <= dotLimit(oracleAddress, endpoint));\n        \n        uint256 numZap = currentCost._costOfNDots(oracleAddress, endpoint, issued + 1, numDots - 1);\n\n        // User must have approved contract to transfer working ZAP\n        require(token.transferFrom(msg.sender, this, numZap));\n\n        if (!isProviderInitialized(holderAddress, oracleAddress)) {            \n            setProviderInitialized(holderAddress, oracleAddress);\n            addHolderOracle(holderAddress, oracleAddress);\n        }\n\n        updateBondValue(holderAddress, oracleAddress, endpoint, numDots, \"add\");        \n        updateTotalIssued(oracleAddress, endpoint, numDots, \"add\");\n        updateTotalBound(oracleAddress, endpoint, numZap, \"add\");\n\n        return numZap;\n    }\n\n    function _unbond(        \n        address holderAddress,\n        address oracleAddress,\n        bytes32 endpoint,\n        uint256 numDots\n    )\n        private\n        returns (uint256 numZap)\n    {\n        // Make sure the user has enough to bond with some additional sanity checks\n        uint256 amountBound = getBoundDots(holderAddress, oracleAddress, endpoint);\n        require(amountBound >= numDots);\n        require(numDots > 0);\n\n        // Get the value of the dots\n        uint256 issued = getDotsIssued(oracleAddress, endpoint);\n        numZap = currentCost._costOfNDots(oracleAddress, endpoint, issued + 1 - numDots, numDots - 1);\n\n        // Update the storage values\n        updateTotalBound(oracleAddress, endpoint, numZap, \"sub\");\n        updateTotalIssued(oracleAddress, endpoint, numDots, \"sub\");\n        updateBondValue(holderAddress, oracleAddress, endpoint, numDots, \"sub\");\n\n        // Do the transfer\n        require(token.transfer(holderAddress, numZap));\n\n        return numZap;\n    }\n\n    /**** Get Methods ****/\n    function isProviderInitialized(address holderAddress, address oracleAddress) public view returns (bool) {\n        return db.getNumber(keccak256(abi.encodePacked('holders', holderAddress, 'initialized', oracleAddress))) == 1 ? true : false;\n    }\n\n    function getNumEscrow(address holderAddress, address oracleAddress, bytes32 endpoint) public view returns (uint256) {\n        return db.getNumber(keccak256(abi.encodePacked('escrow', holderAddress, oracleAddress, endpoint)));\n    }\n\n    function getNumZap(address oracleAddress, bytes32 endpoint) public view returns (uint256) {\n        return db.getNumber(keccak256(abi.encodePacked('totalBound', oracleAddress, endpoint)));\n    }\n\n    function getDotsIssued(address oracleAddress, bytes32 endpoint) public view returns (uint256) {\n        return db.getNumber(keccak256(abi.encodePacked('totalIssued', oracleAddress, endpoint)));\n    }\n\n    function getBoundDots(address holderAddress, address oracleAddress, bytes32 endpoint) public view returns (uint256) {\n        return db.getNumber(keccak256(abi.encodePacked('holders', holderAddress, 'bonds', oracleAddress, endpoint)));\n    }\n\n    function getIndexSize(address holderAddress) external view returns (uint256) {\n        return db.getAddressArrayLength(keccak256(abi.encodePacked('holders', holderAddress, 'oracleList')));\n    }\n\n    function getOracleAddress(address holderAddress, uint256 index) public view returns (address) {\n        return db.getAddressArrayIndex(keccak256(abi.encodePacked('holders', holderAddress, 'oracleList')), index);\n    }\n\n    /**** Set Methods ****/\n    function addHolderOracle(address holderAddress, address oracleAddress) internal {\n        db.pushAddressArray(keccak256(abi.encodePacked('holders', holderAddress, 'oracleList')), oracleAddress);\n    }\n\n    function setProviderInitialized(address holderAddress, address oracleAddress) internal {\n        db.setNumber(keccak256(abi.encodePacked('holders', holderAddress, 'initialized', oracleAddress)), 1);\n    }\n\n    function updateEscrow(address holderAddress, address oracleAddress, bytes32 endpoint, uint256 numDots, bytes32 op) internal {\n        uint256 newEscrow = db.getNumber(keccak256(abi.encodePacked('escrow', holderAddress, oracleAddress, endpoint)));\n\n        if ( op == \"sub\" ) {\n            newEscrow -= numDots;\n        } else if ( op == \"add\" ) {\n            newEscrow += numDots;\n        }\n        else {\n            revert();\n        }\n\n        db.setNumber(keccak256(abi.encodePacked('escrow', holderAddress, oracleAddress, endpoint)), newEscrow);\n    }\n\n    function updateBondValue(address holderAddress, address oracleAddress, bytes32 endpoint, uint256 numDots, bytes32 op) internal {\n        uint256 bondValue = db.getNumber(keccak256(abi.encodePacked('holders', holderAddress, 'bonds', oracleAddress, endpoint)));\n        \n        if (op == \"sub\") {\n            bondValue -= numDots;\n        } else if (op == \"add\") {\n            bondValue += numDots;\n        }\n\n        db.setNumber(keccak256(abi.encodePacked('holders', holderAddress, 'bonds', oracleAddress, endpoint)), bondValue);\n    }\n\n    function updateTotalBound(address oracleAddress, bytes32 endpoint, uint256 numZap, bytes32 op) internal {\n        uint256 totalBound = db.getNumber(keccak256(abi.encodePacked('totalBound', oracleAddress, endpoint)));\n        \n        if (op == \"sub\"){\n            totalBound -= numZap;\n        } else if (op == \"add\") {\n            totalBound += numZap;\n        }\n        else {\n            revert();\n        }\n        \n        db.setNumber(keccak256(abi.encodePacked('totalBound', oracleAddress, endpoint)), totalBound);\n    }\n\n    function updateTotalIssued(address oracleAddress, bytes32 endpoint, uint256 numDots, bytes32 op) internal {\n        uint256 totalIssued = db.getNumber(keccak256(abi.encodePacked('totalIssued', oracleAddress, endpoint)));\n        \n        if (op == \"sub\"){\n            totalIssued -= numDots;\n        } else if (op == \"add\") {\n            totalIssued += numDots;\n        }\n        else {\n            revert();\n        }\n    \n        db.setNumber(keccak256(abi.encodePacked('totalIssued', oracleAddress, endpoint)), totalIssued);\n    }\n}",
  "sourcePath": "/Users/avisaven/Documents/Work/Zap/zap-ethereum-api/contracts/platform/bondage/Bondage.sol",
  "compiler": {
    "name": "solc",
    "version": "0.4.24+commit.e67f0147.Emscripten.clang"
  },
  "schemaVersion": "2.0.0",
  "updatedAt": "2018-08-09T22:58:25.449Z"
}