{
  "contractName": "CurrentCost",
  "abi": [
    {
      "constant": true,
      "inputs": [],
      "name": "owner",
      "outputs": [
        {
          "name": "",
          "type": "address"
        }
      ],
      "payable": false,
      "stateMutability": "view",
      "type": "function"
    },
    {
      "constant": false,
      "inputs": [],
      "name": "selfDestruct",
      "outputs": [],
      "payable": false,
      "stateMutability": "nonpayable",
      "type": "function"
    },
    {
      "constant": false,
      "inputs": [
        {
          "name": "newOwner",
          "type": "address"
        }
      ],
      "name": "transferOwnership",
      "outputs": [],
      "payable": false,
      "stateMutability": "nonpayable",
      "type": "function"
    },
    {
      "inputs": [
        {
          "name": "registryAddress",
          "type": "address"
        }
      ],
      "payable": false,
      "stateMutability": "nonpayable",
      "type": "constructor"
    },
    {
      "anonymous": false,
      "inputs": [
        {
          "indexed": true,
          "name": "previousOwner",
          "type": "address"
        },
        {
          "indexed": true,
          "name": "newOwner",
          "type": "address"
        }
      ],
      "name": "OwnershipTransferred",
      "type": "event"
    },
    {
      "constant": true,
      "inputs": [
        {
          "name": "oracleAddress",
          "type": "address"
        },
        {
          "name": "endpoint",
          "type": "bytes32"
        },
        {
          "name": "totalBound",
          "type": "uint256"
        }
      ],
      "name": "_currentCostOfDot",
      "outputs": [
        {
          "name": "cost",
          "type": "uint256"
        }
      ],
      "payable": false,
      "stateMutability": "view",
      "type": "function"
    },
    {
      "constant": true,
      "inputs": [
        {
          "name": "oracleAddress",
          "type": "address"
        },
        {
          "name": "endpoint",
          "type": "bytes32"
        }
      ],
      "name": "_dotLimit",
      "outputs": [
        {
          "name": "limit",
          "type": "uint256"
        }
      ],
      "payable": false,
      "stateMutability": "view",
      "type": "function"
    }
  ],
  "bytecode": "0x608060405234801561001057600080fd5b50604051602080610e4c83398101806040528101908080519060200190929190505050336000806101000a81548173ffffffffffffffffffffffffffffffffffffffff021916908373ffffffffffffffffffffffffffffffffffffffff16021790555080600160006101000a81548173ffffffffffffffffffffffffffffffffffffffff021916908373ffffffffffffffffffffffffffffffffffffffff16021790555050610d88806100c46000396000f30060806040526004361061006d576000357c0100000000000000000000000000000000000000000000000000000000900463ffffffff1680638da5cb5b146100725780639cb8a26a146100c9578063c1ca69c4146100e0578063ecca1fad14610145578063f2fde38b146101b4575b600080fd5b34801561007e57600080fd5b506100876101f7565b604051808273ffffffffffffffffffffffffffffffffffffffff1673ffffffffffffffffffffffffffffffffffffffff16815260200191505060405180910390f35b3480156100d557600080fd5b506100de61021c565b005b3480156100ec57600080fd5b5061012f600480360381019080803573ffffffffffffffffffffffffffffffffffffffff16906020019092919080356000191690602001909291905050506102b1565b6040518082815260200191505060405180910390f35b34801561015157600080fd5b5061019e600480360381019080803573ffffffffffffffffffffffffffffffffffffffff1690602001909291908035600019169060200190929190803590602001909291905050506103c3565b6040518082815260200191505060405180910390f35b3480156101c057600080fd5b506101f5600480360381019080803573ffffffffffffffffffffffffffffffffffffffff169060200190929190505050610870565b005b6000809054906101000a900473ffffffffffffffffffffffffffffffffffffffff1681565b6000809054906101000a900473ffffffffffffffffffffffffffffffffffffffff1673ffffffffffffffffffffffffffffffffffffffff163373ffffffffffffffffffffffffffffffffffffffff1614151561027757600080fd5b6000809054906101000a900473ffffffffffffffffffffffffffffffffffffffff1673ffffffffffffffffffffffffffffffffffffffff16ff5b6000600160009054906101000a900473ffffffffffffffffffffffffffffffffffffffff1673ffffffffffffffffffffffffffffffffffffffff1663e48875ae84846040518363ffffffff167c0100000000000000000000000000000000000000000000000000000000028152600401808373ffffffffffffffffffffffffffffffffffffffff1673ffffffffffffffffffffffffffffffffffffffff168152602001826000191660001916815260200192505050602060405180830381600087803b15801561038057600080fd5b505af1158015610394573d6000803e3d6000fd5b505050506040513d60208110156103aa57600080fd5b8101908080519060200190929190505050905092915050565b600060608060608060036040519080825280602002602001820160405280156103fb5781602001602082028038833980820191505090505b509350600160009054906101000a900473ffffffffffffffffffffffffffffffffffffffff1673ffffffffffffffffffffffffffffffffffffffff166353b0a30089896040518363ffffffff167c0100000000000000000000000000000000000000000000000000000000028152600401808373ffffffffffffffffffffffffffffffffffffffff1673ffffffffffffffffffffffffffffffffffffffff168152602001826000191660001916815260200192505050606060405180830381600087803b1580156104cb57600080fd5b505af11580156104df573d6000803e3d6000fd5b505050506040513d60608110156104f557600080fd5b8101908080519060200190929190805190602001909291908051906020019092919050505086600081518110151561052957fe5b90602001906020020187600181518110151561054157fe5b90602001906020020188600281518110151561055957fe5b90602001906020020183815250838152508381525050505083600081518110151561058057fe5b906020019060200201516040519080825280602002602001820160405280156105b85781602001602082028038833980820191505090505b5092508360018151811015156105ca57fe5b906020019060200201516040519080825280602002602001820160405280156106025781602001602082028038833980820191505090505b50915083600281518110151561061457fe5b9060200190602002015160405190808252806020026020018201604052801561064c5781602001602082028038833980820191505090505b509050600160009054906101000a900473ffffffffffffffffffffffffffffffffffffffff1673ffffffffffffffffffffffffffffffffffffffff16632316a9ff89896040518363ffffffff167c0100000000000000000000000000000000000000000000000000000000028152600401808373ffffffffffffffffffffffffffffffffffffffff1673ffffffffffffffffffffffffffffffffffffffff168152602001826000191660001916815260200192505050600060405180830381600087803b15801561071c57600080fd5b505af1158015610730573d6000803e3d6000fd5b505050506040513d6000823e3d601f19601f82011682018060405250606081101561075a57600080fd5b81019080805164010000000081111561077257600080fd5b8281019050602081018481111561078857600080fd5b81518560208202830111640100000000821117156107a557600080fd5b505092919060200180516401000000008111156107c157600080fd5b828101905060208101848111156107d757600080fd5b81518560208202830111640100000000821117156107f457600080fd5b5050929190602001805164010000000081111561081057600080fd5b8281019050602081018481111561082657600080fd5b815185602082028301116401000000008211171561084357600080fd5b5050929190505050809350819450829550505050610863838383896109c5565b9450505050509392505050565b6000809054906101000a900473ffffffffffffffffffffffffffffffffffffffff1673ffffffffffffffffffffffffffffffffffffffff163373ffffffffffffffffffffffffffffffffffffffff161415156108cb57600080fd5b600073ffffffffffffffffffffffffffffffffffffffff168173ffffffffffffffffffffffffffffffffffffffff161415151561090757600080fd5b8073ffffffffffffffffffffffffffffffffffffffff166000809054906101000a900473ffffffffffffffffffffffffffffffffffffffff1673ffffffffffffffffffffffffffffffffffffffff167f8be0079c531659141344cd1fd0a4f28419497f9722a3daafe3b4186f6b6457e060405160405180910390a3806000806101000a81548173ffffffffffffffffffffffffffffffffffffffff021916908373ffffffffffffffffffffffffffffffffffffffff16021790555050565b600080600080600080600080600080600098505b8b51891015610d46578c896002028151811015156109f357fe5b906020019060200201519750878b1015610a0c57610d39565b8c60018a60020201815181101515610a2057fe5b906020019060200201519650868b1115610a3957610d39565b6000955060008914610a65578b60018a03815181101515610a5657fe5b90602001906020020151610a68565b60005b94508493505b8b89815181101515610a7c57fe5b90602001906020020151841015610d31578d84600302815181101515610a9e57fe5b9060200190602002015192508d60018560030201815181101515610abe57fe5b9060200190602002015191508d60028560030201815181101515610ade57fe5b9060200190602002015190508a8160018114610af957610d19565b60018203915060028204821791506004820482179150601082048217915061010082048217915062010000820482179150640100000000820482179150680100000000000000008204821791507001000000000000000000000000000000008204821791506001820191506040517ff8f9cbfae6cc78fbefe7cdc3a1793dfcf4f0e8bbd8cec470b6a28a7a5a3e1efd81527ff5ecf1b3e9debc68e1d9cfabc5997135bfb7a7a3938b7b606b5b4b3f2f1f0ffe60208201527ff6e4ed9ff2d6b458eadcdf97bd91692de2d4da8fd2d0ac50c6ae9a827252361660408201527fc8c0b887b0a8a4489c948c7f847c6125746c645c544c444038302820181008ff60608201527ff7cae577eec2a03cf3bad76fb589591debb2dd67e0aa9834bea6925f6a4a2e0e60808201527fe39ed557db96902cd38ed14fad815115c786af479b7e8324736353433727170760a08201527fc976c13bb96e881cb166a933a55e490d9d56952b8d4e801485467d236242260660c08201527f753a6d1b65325d0c552a4d1345224105391a310b29122104190a11030902010060e082015261010081016040527f0100000000000000000000000000000000000000000000000000000000000000807e818283848586878898a8b8c8d8e8f929395969799a9b9d9e9faaeb6bedeeff85020460ff03820151047f80000000000000000000000000000000000000000000000000000000000000008411610100028101905080935050505b508383820a0287019650508380600101945050610a6e565b859950610d4b565b88806001019950506109d9565b600099505b5050505050505050509493505050505600a165627a7a72305820c45d97886e41f9c894d0b9aa29c8b2d16144a8b55fc93b9291de765e78a649ed0029",
  "source": "pragma solidity ^0.4.24;\n\nimport \"../../../lib/lifecycle/Destructible.sol\";\nimport \"../../../lib/platform/PiecewiseLogic.sol\";\nimport \"../../registry/RegistryInterface.sol\";\nimport \"./CurrentCostInterface.sol\";\n\ncontract CurrentCost is Destructible, CurrentCostInterface {\n\n    RegistryInterface registry;\n\n    constructor(address registryAddress) public {\n       registry = RegistryInterface(registryAddress);\n    }\n\n    /// @dev calculates current cost of dot\n    /// @param oracleAddress oracle address\n    /// @param endpoint oracle endpoint\n    /// @param totalBound of already bounded dots\n    /// @return cost of next dot\n    function _currentCostOfDot(\n        address oracleAddress,\n        bytes32 endpoint,\n        uint256 totalBound\n    )\n        public\n        view\n        returns (uint256 cost)\n    {\n\n        uint[] memory lens = new uint[](3);\n        (lens[0],lens[1],lens[2]) = registry.getProviderArgsLength(oracleAddress,endpoint);\n        int[] memory constants = new int[](lens[0]);\n        uint[] memory  parts = new uint[](lens[1]);\n        uint[] memory dividers = new uint[](lens[2]);\n\n        (constants,parts,dividers) = registry.getProviderCurve(oracleAddress, endpoint);\n\n        return uint256(PiecewiseLogic.evalutePiecewiseFunction(constants,parts,dividers,totalBound));\n    }\n\n   function _dotLimit( \n        address oracleAddress,\n        bytes32 endpoint\n    )\n        public\n        view\n        returns (uint256 limit)\n    {\n        return registry.getDotLimit(oracleAddress, endpoint);\n    }\n}\n",
  "sourcePath": "/Users/michaelzman/Documents/workspace/zap-ethereum-api/contracts/platform/bondage/currentCost/CurrentCost.sol",
  "compiler": {
    "name": "solc",
    "version": "0.4.24+commit.e67f0147.Emscripten.clang"
  },
  "schemaVersion": "2.0.0",
  "updatedAt": "2018-07-18T21:14:08.904Z"
}