{
  "contractName": "CurrentCost",
  "abi": [
    {
      "constant": true,
      "inputs": [],
      "name": "owner",
      "outputs": [
        {
          "name": "",
          "type": "address"
        }
      ],
      "payable": false,
      "stateMutability": "view",
      "type": "function"
    },
    {
      "constant": false,
      "inputs": [],
      "name": "selfDestruct",
      "outputs": [],
      "payable": false,
      "stateMutability": "nonpayable",
      "type": "function"
    },
    {
      "constant": false,
      "inputs": [
        {
          "name": "newOwner",
          "type": "address"
        }
      ],
      "name": "transferOwnership",
      "outputs": [],
      "payable": false,
      "stateMutability": "nonpayable",
      "type": "function"
    },
    {
      "inputs": [
        {
          "name": "registryAddress",
          "type": "address"
        }
      ],
      "payable": false,
      "stateMutability": "nonpayable",
      "type": "constructor"
    },
    {
      "anonymous": false,
      "inputs": [
        {
          "indexed": true,
          "name": "previousOwner",
          "type": "address"
        },
        {
          "indexed": true,
          "name": "newOwner",
          "type": "address"
        }
      ],
      "name": "OwnershipTransferred",
      "type": "event"
    },
    {
      "constant": true,
      "inputs": [
        {
          "name": "oracleAddress",
          "type": "address"
        },
        {
          "name": "endpoint",
          "type": "bytes32"
        },
        {
          "name": "totalBound",
          "type": "uint256"
        }
      ],
      "name": "_currentCostOfDot",
      "outputs": [
        {
          "name": "cost",
          "type": "uint256"
        }
      ],
      "payable": false,
      "stateMutability": "view",
      "type": "function"
    },
    {
      "constant": true,
      "inputs": [
        {
          "name": "oracleAddress",
          "type": "address"
        },
        {
          "name": "endpoint",
          "type": "bytes32"
        },
        {
          "name": "totalBound",
          "type": "uint256"
        },
        {
          "name": "nDots",
          "type": "uint256"
        }
      ],
      "name": "_costOfNDots",
      "outputs": [
        {
          "name": "cost",
          "type": "uint256"
        }
      ],
      "payable": false,
      "stateMutability": "view",
      "type": "function"
    },
    {
      "constant": true,
      "inputs": [
        {
          "name": "oracleAddress",
          "type": "address"
        },
        {
          "name": "endpoint",
          "type": "bytes32"
        }
      ],
      "name": "_dotLimit",
      "outputs": [
        {
          "name": "limit",
          "type": "uint256"
        }
      ],
      "payable": false,
      "stateMutability": "view",
      "type": "function"
    }
  ],
  "bytecode": "0x608060405234801561001057600080fd5b5060405160208061173483398101806040528101908080519060200190929190505050336000806101000a81548173ffffffffffffffffffffffffffffffffffffffff021916908373ffffffffffffffffffffffffffffffffffffffff16021790555080600160006101000a81548173ffffffffffffffffffffffffffffffffffffffff021916908373ffffffffffffffffffffffffffffffffffffffff16021790555050611670806100c46000396000f300608060405260043610610078576000357c0100000000000000000000000000000000000000000000000000000000900463ffffffff168063197d66d51461007d5780638da5cb5b146100f65780639cb8a26a1461014d578063c1ca69c414610164578063ecca1fad146101c9578063f2fde38b14610238575b600080fd5b34801561008957600080fd5b506100e0600480360381019080803573ffffffffffffffffffffffffffffffffffffffff1690602001909291908035600019169060200190929190803590602001909291908035906020019092919050505061027b565b6040518082815260200191505060405180910390f35b34801561010257600080fd5b5061010b610743565b604051808273ffffffffffffffffffffffffffffffffffffffff1673ffffffffffffffffffffffffffffffffffffffff16815260200191505060405180910390f35b34801561015957600080fd5b50610162610768565b005b34801561017057600080fd5b506101b3600480360381019080803573ffffffffffffffffffffffffffffffffffffffff16906020019092919080356000191690602001909291905050506107fd565b6040518082815260200191505060405180910390f35b3480156101d557600080fd5b50610222600480360381019080803573ffffffffffffffffffffffffffffffffffffffff16906020019092919080356000191690602001909291908035906020019092919050505061090f565b6040518082815260200191505060405180910390f35b34801561024457600080fd5b50610279600480360381019080803573ffffffffffffffffffffffffffffffffffffffff169060200190929190505050610dbc565b005b600060608060608060008060036040519080825280602002602001820160405280156102b65781602001602082028038833980820191505090505b509550600160009054906101000a900473ffffffffffffffffffffffffffffffffffffffff1673ffffffffffffffffffffffffffffffffffffffff166353b0a3008c8c6040518363ffffffff167c0100000000000000000000000000000000000000000000000000000000028152600401808373ffffffffffffffffffffffffffffffffffffffff1673ffffffffffffffffffffffffffffffffffffffff168152602001826000191660001916815260200192505050606060405180830381600087803b15801561038657600080fd5b505af115801561039a573d6000803e3d6000fd5b505050506040513d60608110156103b057600080fd5b810190808051906020019092919080519060200190929190805190602001909291905050508860008151811015156103e457fe5b9060200190602002018960018151811015156103fc57fe5b9060200190602002018a600281518110151561041457fe5b90602001906020020183815250838152508381525050505085600081518110151561043b57fe5b906020019060200201516040519080825280602002602001820160405280156104735781602001602082028038833980820191505090505b50945085600181518110151561048557fe5b906020019060200201516040519080825280602002602001820160405280156104bd5781602001602082028038833980820191505090505b5093508560028151811015156104cf57fe5b906020019060200201516040519080825280602002602001820160405280156105075781602001602082028038833980820191505090505b509250600160009054906101000a900473ffffffffffffffffffffffffffffffffffffffff1673ffffffffffffffffffffffffffffffffffffffff16632316a9ff8c8c6040518363ffffffff167c0100000000000000000000000000000000000000000000000000000000028152600401808373ffffffffffffffffffffffffffffffffffffffff1673ffffffffffffffffffffffffffffffffffffffff168152602001826000191660001916815260200192505050600060405180830381600087803b1580156105d757600080fd5b505af11580156105eb573d6000803e3d6000fd5b505050506040513d6000823e3d601f19601f82011682018060405250606081101561061557600080fd5b81019080805164010000000081111561062d57600080fd5b8281019050602081018481111561064357600080fd5b815185602082028301116401000000008211171561066057600080fd5b5050929190602001805164010000000081111561067c57600080fd5b8281019050602081018481111561069257600080fd5b81518560208202830111640100000000821117156106af57600080fd5b505092919060200180516401000000008111156106cb57600080fd5b828101905060208101848111156106e157600080fd5b81518560208202830111640100000000821117156106fe57600080fd5b505092919050505080955081965082975050505061071e8585858c610f11565b915061072e8585858b8d01610f11565b90508181039650505050505050949350505050565b6000809054906101000a900473ffffffffffffffffffffffffffffffffffffffff1681565b6000809054906101000a900473ffffffffffffffffffffffffffffffffffffffff1673ffffffffffffffffffffffffffffffffffffffff163373ffffffffffffffffffffffffffffffffffffffff161415156107c357600080fd5b6000809054906101000a900473ffffffffffffffffffffffffffffffffffffffff1673ffffffffffffffffffffffffffffffffffffffff16ff5b6000600160009054906101000a900473ffffffffffffffffffffffffffffffffffffffff1673ffffffffffffffffffffffffffffffffffffffff1663e48875ae84846040518363ffffffff167c0100000000000000000000000000000000000000000000000000000000028152600401808373ffffffffffffffffffffffffffffffffffffffff1673ffffffffffffffffffffffffffffffffffffffff168152602001826000191660001916815260200192505050602060405180830381600087803b1580156108cc57600080fd5b505af11580156108e0573d6000803e3d6000fd5b505050506040513d60208110156108f657600080fd5b8101908080519060200190929190505050905092915050565b600060608060608060036040519080825280602002602001820160405280156109475781602001602082028038833980820191505090505b509350600160009054906101000a900473ffffffffffffffffffffffffffffffffffffffff1673ffffffffffffffffffffffffffffffffffffffff166353b0a30089896040518363ffffffff167c0100000000000000000000000000000000000000000000000000000000028152600401808373ffffffffffffffffffffffffffffffffffffffff1673ffffffffffffffffffffffffffffffffffffffff168152602001826000191660001916815260200192505050606060405180830381600087803b158015610a1757600080fd5b505af1158015610a2b573d6000803e3d6000fd5b505050506040513d6060811015610a4157600080fd5b81019080805190602001909291908051906020019092919080519060200190929190505050866000815181101515610a7557fe5b906020019060200201876001815181101515610a8d57fe5b906020019060200201886002815181101515610aa557fe5b906020019060200201838152508381525083815250505050836000815181101515610acc57fe5b90602001906020020151604051908082528060200260200182016040528015610b045781602001602082028038833980820191505090505b509250836001815181101515610b1657fe5b90602001906020020151604051908082528060200260200182016040528015610b4e5781602001602082028038833980820191505090505b509150836002815181101515610b6057fe5b90602001906020020151604051908082528060200260200182016040528015610b985781602001602082028038833980820191505090505b509050600160009054906101000a900473ffffffffffffffffffffffffffffffffffffffff1673ffffffffffffffffffffffffffffffffffffffff16632316a9ff89896040518363ffffffff167c0100000000000000000000000000000000000000000000000000000000028152600401808373ffffffffffffffffffffffffffffffffffffffff1673ffffffffffffffffffffffffffffffffffffffff168152602001826000191660001916815260200192505050600060405180830381600087803b158015610c6857600080fd5b505af1158015610c7c573d6000803e3d6000fd5b505050506040513d6000823e3d601f19601f820116820180604052506060811015610ca657600080fd5b810190808051640100000000811115610cbe57600080fd5b82810190506020810184811115610cd457600080fd5b8151856020820283011164010000000082111715610cf157600080fd5b50509291906020018051640100000000811115610d0d57600080fd5b82810190506020810184811115610d2357600080fd5b8151856020820283011164010000000082111715610d4057600080fd5b50509291906020018051640100000000811115610d5c57600080fd5b82810190506020810184811115610d7257600080fd5b8151856020820283011164010000000082111715610d8f57600080fd5b5050929190505050809350819450829550505050610daf838383896112ad565b9450505050509392505050565b6000809054906101000a900473ffffffffffffffffffffffffffffffffffffffff1673ffffffffffffffffffffffffffffffffffffffff163373ffffffffffffffffffffffffffffffffffffffff16141515610e1757600080fd5b600073ffffffffffffffffffffffffffffffffffffffff168173ffffffffffffffffffffffffffffffffffffffff1614151515610e5357600080fd5b8073ffffffffffffffffffffffffffffffffffffffff166000809054906101000a900473ffffffffffffffffffffffffffffffffffffffff1673ffffffffffffffffffffffffffffffffffffffff167f8be0079c531659141344cd1fd0a4f28419497f9722a3daafe3b4186f6b6457e060405160405180910390a3806000806101000a81548173ffffffffffffffffffffffffffffffffffffffff021916908373ffffffffffffffffffffffffffffffffffffffff16021790555050565b600080600080600080600080600080600098505b8b51891015611297578c89600202815181101515610f3f57fe5b906020019060200201519750878b1015610f585761128a565b8c60018a60020201815181101515610f6c57fe5b906020019060200201519650868b1115610f855761128a565b6000955060008914610fb1578b60018a03815181101515610fa257fe5b90602001906020020151610fb4565b60005b94508493505b8b89815181101515610fc857fe5b90602001906020020151841015611282578d84600302815181101515610fea57fe5b90602001906020020151925060018e6001866003020181518110151561100c57fe5b906020019060200201510191508d6002856003020181518110151561102d57fe5b9060200190602002015190508a816001811461104857611268565b60018203915060028204821791506004820482179150601082048217915061010082048217915062010000820482179150640100000000820482179150680100000000000000008204821791507001000000000000000000000000000000008204821791506001820191506040517ff8f9cbfae6cc78fbefe7cdc3a1793dfcf4f0e8bbd8cec470b6a28a7a5a3e1efd81527ff5ecf1b3e9debc68e1d9cfabc5997135bfb7a7a3938b7b606b5b4b3f2f1f0ffe60208201527ff6e4ed9ff2d6b458eadcdf97bd91692de2d4da8fd2d0ac50c6ae9a827252361660408201527fc8c0b887b0a8a4489c948c7f847c6125746c645c544c444038302820181008ff60608201527ff7cae577eec2a03cf3bad76fb589591debb2dd67e0aa9834bea6925f6a4a2e0e60808201527fe39ed557db96902cd38ed14fad815115c786af479b7e8324736353433727170760a08201527fc976c13bb96e881cb166a933a55e490d9d56952b8d4e801485467d236242260660c08201527f753a6d1b65325d0c552a4d1345224105391a310b29122104190a11030902010060e082015261010081016040527f0100000000000000000000000000000000000000000000000000000000000000807e818283848586878898a8b8c8d8e8f929395969799a9b9d9e9faaeb6bedeeff85020460ff03820151047f80000000000000000000000000000000000000000000000000000000000000008411610100028101905080935050505b50828484830a020487019650508380600101945050610fba565b85995061129c565b8880600101995050610f25565b600099505b505050505050505050949350505050565b600080600080600080600080600080600098505b8b5189101561162e578c896002028151811015156112db57fe5b906020019060200201519750878b10156112f457611621565b8c60018a6002020181518110151561130857fe5b906020019060200201519650868b111561132157611621565b600095506000891461134d578b60018a0381518110151561133e57fe5b90602001906020020151611350565b60005b94508493505b8b8981518110151561136457fe5b90602001906020020151841015611619578d8460030281518110151561138657fe5b9060200190602002015192508d600185600302018151811015156113a657fe5b9060200190602002015191508d600285600302018151811015156113c657fe5b9060200190602002015190508a81600181146113e157611601565b60018203915060028204821791506004820482179150601082048217915061010082048217915062010000820482179150640100000000820482179150680100000000000000008204821791507001000000000000000000000000000000008204821791506001820191506040517ff8f9cbfae6cc78fbefe7cdc3a1793dfcf4f0e8bbd8cec470b6a28a7a5a3e1efd81527ff5ecf1b3e9debc68e1d9cfabc5997135bfb7a7a3938b7b606b5b4b3f2f1f0ffe60208201527ff6e4ed9ff2d6b458eadcdf97bd91692de2d4da8fd2d0ac50c6ae9a827252361660408201527fc8c0b887b0a8a4489c948c7f847c6125746c645c544c444038302820181008ff60608201527ff7cae577eec2a03cf3bad76fb589591debb2dd67e0aa9834bea6925f6a4a2e0e60808201527fe39ed557db96902cd38ed14fad815115c786af479b7e8324736353433727170760a08201527fc976c13bb96e881cb166a933a55e490d9d56952b8d4e801485467d236242260660c08201527f753a6d1b65325d0c552a4d1345224105391a310b29122104190a11030902010060e082015261010081016040527f0100000000000000000000000000000000000000000000000000000000000000807e818283848586878898a8b8c8d8e8f929395969799a9b9d9e9faaeb6bedeeff85020460ff03820151047f80000000000000000000000000000000000000000000000000000000000000008411610100028101905080935050505b508383820a0287019650508380600101945050611356565b859950611633565b88806001019950506112c1565b600099505b5050505050505050509493505050505600a165627a7a7230582090478193216531c25afca2b732d694b9fd400ce1f64016e5e52335960f0dd3590029",
  "source": "pragma solidity ^0.4.24;\n\nimport \"../../../lib/lifecycle/Destructible.sol\";\nimport \"../../../lib/platform/PiecewiseLogic.sol\";\nimport \"../../registry/RegistryInterface.sol\";\nimport \"./CurrentCostInterface.sol\";\n\ncontract CurrentCost is Destructible, CurrentCostInterface {\n\n    RegistryInterface registry;\n\n    constructor(address registryAddress) public {\n       registry = RegistryInterface(registryAddress);\n    }\n\n    /// @dev calculates current cost of dot\n    /// @param oracleAddress oracle address\n    /// @param endpoint oracle endpoint\n    /// @param totalBound of already bounded dots\n    /// @return cost of next dot\n    function _currentCostOfDot(\n        address oracleAddress,\n        bytes32 endpoint,\n        uint256 totalBound\n    )\n        public\n        view\n        returns (uint256 cost)\n    {\n\n        uint[] memory lens = new uint[](3);\n        (lens[0],lens[1],lens[2]) = registry.getProviderArgsLength(oracleAddress,endpoint);\n        int[] memory constants = new int[](lens[0]);\n        uint[] memory  parts = new uint[](lens[1]);\n        uint[] memory dividers = new uint[](lens[2]);\n\n        (constants,parts,dividers) = registry.getProviderCurve(oracleAddress, endpoint);\n\n        return uint256(PiecewiseLogic.evalutePiecewiseFunction(constants,parts,dividers,totalBound));\n    }\n\n    /// @dev calculates cost of n dots\n    /// @param oracleAddress oracle address\n    /// @param endpoint oracle endpoint\n    /// @param totalBound of already bounded dots\n    /// @param nDots to bond\n    /// @return cost of next dot\n    function _costOfNDots(\n        address oracleAddress,\n        bytes32 endpoint,\n        uint256 totalBound,\n        uint256 nDots\n    )\n        public\n        view\n        returns (uint256 cost)\n    {\n\n        uint[] memory lens = new uint[](3);\n        (lens[0],lens[1],lens[2]) = registry.getProviderArgsLength(oracleAddress,endpoint);\n        int[] memory constants = new int[](lens[0]);\n        uint[] memory  parts = new uint[](lens[1]);\n        uint[] memory dividers = new uint[](lens[2]);\n\n        (constants,parts,dividers) = registry.getProviderCurve(oracleAddress, endpoint);\n\n        uint256 a = uint256(PiecewiseLogic.integratePiecewiseFunction(constants,parts,dividers,totalBound));\n        uint256 b = uint256(PiecewiseLogic.integratePiecewiseFunction(constants,parts,dividers,totalBound + nDots));\n\n        return b - a;\n    }\n\n   function _dotLimit( \n        address oracleAddress,\n        bytes32 endpoint\n    )\n        public\n        view\n        returns (uint256 limit)\n    {\n        return registry.getDotLimit(oracleAddress, endpoint);\n    }\n}\n",
  "sourcePath": "/Users/avisaven/Documents/Work/Zap/zap-ethereum-api/contracts/platform/bondage/currentCost/CurrentCost.sol",
  "compiler": {
    "name": "solc",
    "version": "0.4.24+commit.e67f0147.Emscripten.clang"
  },
  "schemaVersion": "2.0.0",
  "updatedAt": "2018-08-03T17:10:29.659Z"
}