{
  "contractName": "CurrentCost",
  "abi": [
    {
      "constant": true,
      "inputs": [],
      "name": "owner",
      "outputs": [
        {
          "name": "",
          "type": "address"
        }
      ],
      "payable": false,
      "stateMutability": "view",
      "type": "function"
    },
    {
      "constant": false,
      "inputs": [],
      "name": "selfDestruct",
      "outputs": [],
      "payable": false,
      "stateMutability": "nonpayable",
      "type": "function"
    },
    {
      "constant": false,
      "inputs": [
        {
          "name": "newOwner",
          "type": "address"
        }
      ],
      "name": "transferOwnership",
      "outputs": [],
      "payable": false,
      "stateMutability": "nonpayable",
      "type": "function"
    },
    {
      "inputs": [
        {
          "name": "registryAddress",
          "type": "address"
        }
      ],
      "payable": false,
      "stateMutability": "nonpayable",
      "type": "constructor"
    },
    {
      "anonymous": false,
      "inputs": [
        {
          "indexed": true,
          "name": "previousOwner",
          "type": "address"
        },
        {
          "indexed": true,
          "name": "newOwner",
          "type": "address"
        }
      ],
      "name": "OwnershipTransferred",
      "type": "event"
    },
    {
      "constant": true,
      "inputs": [
        {
          "name": "oracleAddress",
          "type": "address"
        },
        {
          "name": "endpoint",
          "type": "bytes32"
        },
        {
          "name": "totalBound",
          "type": "uint256"
        }
      ],
      "name": "_currentCostOfDot",
      "outputs": [
        {
          "name": "cost",
          "type": "uint256"
        }
      ],
      "payable": false,
      "stateMutability": "view",
      "type": "function"
    }
  ],
  "bytecode": "0x608060405234801561001057600080fd5b50604051602080610fa983398101806040528101908080519060200190929190505050336000806101000a81548173ffffffffffffffffffffffffffffffffffffffff021916908373ffffffffffffffffffffffffffffffffffffffff16021790555080600160006101000a81548173ffffffffffffffffffffffffffffffffffffffff021916908373ffffffffffffffffffffffffffffffffffffffff16021790555050610ee5806100c46000396000f300608060405260043610610062576000357c0100000000000000000000000000000000000000000000000000000000900463ffffffff1680638da5cb5b146100675780639cb8a26a146100be578063ecca1fad146100d5578063f2fde38b14610144575b600080fd5b34801561007357600080fd5b5061007c610187565b604051808273ffffffffffffffffffffffffffffffffffffffff1673ffffffffffffffffffffffffffffffffffffffff16815260200191505060405180910390f35b3480156100ca57600080fd5b506100d36101ac565b005b3480156100e157600080fd5b5061012e600480360381019080803573ffffffffffffffffffffffffffffffffffffffff169060200190929190803560001916906020019092919080359060200190929190505050610241565b6040518082815260200191505060405180910390f35b34801561015057600080fd5b50610185600480360381019080803573ffffffffffffffffffffffffffffffffffffffff1690602001909291905050506106ee565b005b6000809054906101000a900473ffffffffffffffffffffffffffffffffffffffff1681565b6000809054906101000a900473ffffffffffffffffffffffffffffffffffffffff1673ffffffffffffffffffffffffffffffffffffffff163373ffffffffffffffffffffffffffffffffffffffff1614151561020757600080fd5b6000809054906101000a900473ffffffffffffffffffffffffffffffffffffffff1673ffffffffffffffffffffffffffffffffffffffff16ff5b600060608060608060036040519080825280602002602001820160405280156102795781602001602082028038833980820191505090505b509350600160009054906101000a900473ffffffffffffffffffffffffffffffffffffffff1673ffffffffffffffffffffffffffffffffffffffff166353b0a30089896040518363ffffffff167c0100000000000000000000000000000000000000000000000000000000028152600401808373ffffffffffffffffffffffffffffffffffffffff1673ffffffffffffffffffffffffffffffffffffffff168152602001826000191660001916815260200192505050606060405180830381600087803b15801561034957600080fd5b505af115801561035d573d6000803e3d6000fd5b505050506040513d606081101561037357600080fd5b810190808051906020019092919080519060200190929190805190602001909291905050508660008151811015156103a757fe5b9060200190602002018760018151811015156103bf57fe5b9060200190602002018860028151811015156103d757fe5b9060200190602002018381525083815250838152505050508360008151811015156103fe57fe5b906020019060200201516040519080825280602002602001820160405280156104365781602001602082028038833980820191505090505b50925083600181518110151561044857fe5b906020019060200201516040519080825280602002602001820160405280156104805781602001602082028038833980820191505090505b50915083600281518110151561049257fe5b906020019060200201516040519080825280602002602001820160405280156104ca5781602001602082028038833980820191505090505b509050600160009054906101000a900473ffffffffffffffffffffffffffffffffffffffff1673ffffffffffffffffffffffffffffffffffffffff16632316a9ff89896040518363ffffffff167c0100000000000000000000000000000000000000000000000000000000028152600401808373ffffffffffffffffffffffffffffffffffffffff1673ffffffffffffffffffffffffffffffffffffffff168152602001826000191660001916815260200192505050600060405180830381600087803b15801561059a57600080fd5b505af11580156105ae573d6000803e3d6000fd5b505050506040513d6000823e3d601f19601f8201168201806040525060608110156105d857600080fd5b8101908080516401000000008111156105f057600080fd5b8281019050602081018481111561060657600080fd5b815185602082028301116401000000008211171561062357600080fd5b5050929190602001805164010000000081111561063f57600080fd5b8281019050602081018481111561065557600080fd5b815185602082028301116401000000008211171561067257600080fd5b5050929190602001805164010000000081111561068e57600080fd5b828101905060208101848111156106a457600080fd5b81518560208202830111640100000000821117156106c157600080fd5b50509291905050508093508194508295505050506106e183838389610843565b9450505050509392505050565b6000809054906101000a900473ffffffffffffffffffffffffffffffffffffffff1673ffffffffffffffffffffffffffffffffffffffff163373ffffffffffffffffffffffffffffffffffffffff1614151561074957600080fd5b600073ffffffffffffffffffffffffffffffffffffffff168173ffffffffffffffffffffffffffffffffffffffff161415151561078557600080fd5b8073ffffffffffffffffffffffffffffffffffffffff166000809054906101000a900473ffffffffffffffffffffffffffffffffffffffff1673ffffffffffffffffffffffffffffffffffffffff167f8be0079c531659141344cd1fd0a4f28419497f9722a3daafe3b4186f6b6457e060405160405180910390a3806000806101000a81548173ffffffffffffffffffffffffffffffffffffffff021916908373ffffffffffffffffffffffffffffffffffffffff16021790555050565b600080600060606000606060008060008061085c610e53565b6000808d121561086b57600080fd5b8c9a50600099508d516040519080825280602002602001820160405280156108ad57816020015b61089a610e75565b8152602001906001900390816108925790505b509850600097505b8d51881015610a9d578e886002028151811015156108cf57fe5b9060200190602002015189898151811015156108e757fe5b9060200190602002015160200181815250508e6001896002020181518110151561090d57fe5b90602001906020020151898981518110151561092557fe5b906020019060200201516040018181525050898e8981518110151561094657fe5b906020019060200201510360405190808252806020026020018201604052801561098a57816020015b610977610e97565b81526020019060019003908161096f5790505b5096508995505b8d8881518110151561099f57fe5b90602001906020020151861015610a56578f866003028151811015156109c157fe5b9060200190602002015194508f600187600302018151811015156109e157fe5b9060200190602002015193508f60028760030201815181101515610a0157fe5b90602001906020020151925060606040519081016040528086815260200185815260200184815250915081878b8803815181101515610a3c57fe5b906020019060200201819052508580600101965050610991565b868989815181101515610a6557fe5b90602001906020020151600001819052508d88815181101515610a8457fe5b90602001906020020151995087806001019850506108b5565b600090505b8851811015610b2f578a8982815181101515610aba57fe5b906020019060200201516020015111158015610af157508881815181101515610adf57fe5b90602001906020020151604001518b11155b15610b2257610b1b8982815181101515610b0757fe5b90602001906020020151600001518e610b47565b9b50610b34565b8080600101915050610aa2565b60009b505b5050505050505050505050949350505050565b6000806000809150600090505b8451811015610b8f57610b7e8582815181101515610b6e57fe5b9060200190602002015185610b9a565b820191508080600101915050610b54565b819250505092915050565b600080600060019150600085604001511415610bc5576000841215610bc0578360000393505b610bf2565b600185604001511415610bf1576000841215610be45760009350610bf0565b610bed84610c27565b93505b5b5b846020015190505b6000811315610c16578382029150808060019003915050610bfa565b846000015182029250505092915050565b60008160018303925060028304831792506004830483179250601083048317925061010083048317925062010000830483179250640100000000830483179250680100000000000000008304831792507001000000000000000000000000000000008304831792506001830192506040517ff8f9cbfae6cc78fbefe7cdc3a1793dfcf4f0e8bbd8cec470b6a28a7a5a3e1efd81527ff5ecf1b3e9debc68e1d9cfabc5997135bfb7a7a3938b7b606b5b4b3f2f1f0ffe60208201527ff6e4ed9ff2d6b458eadcdf97bd91692de2d4da8fd2d0ac50c6ae9a827252361660408201527fc8c0b887b0a8a4489c948c7f847c6125746c645c544c444038302820181008ff60608201527ff7cae577eec2a03cf3bad76fb589591debb2dd67e0aa9834bea6925f6a4a2e0e60808201527fe39ed557db96902cd38ed14fad815115c786af479b7e8324736353433727170760a08201527fc976c13bb96e881cb166a933a55e490d9d56952b8d4e801485467d236242260660c08201527f753a6d1b65325d0c552a4d1345224105391a310b29122104190a11030902010060e082015261010081016040527e818283848586878898a8b8c8d8e8f929395969799a9b9d9e9faaeb6bedeeff7f01000000000000000000000000000000000000000000000000000000000000008082870204818160ff038501510495507f8000000000000000000000000000000000000000000000000000000000000000851161010002860195505050505050919050565b6060604051908101604052806000815260200160008152602001600081525090565b6060604051908101604052806060815260200160008152602001600081525090565b60606040519081016040528060008152602001600081526020016000815250905600a165627a7a72305820552ce0e322156f9febd4e1f698fcc887eebb091aad804506b1f65d2c5f1ebe170029",
  "source": "pragma solidity ^0.4.24;\n\nimport \"../../../lib/lifecycle/Destructible.sol\";\nimport \"../../../lib/platform/PiecewiseLogic.sol\";\nimport \"../../registry/RegistryInterface.sol\";\nimport \"./CurrentCostInterface.sol\";\n\ncontract CurrentCost is Destructible, CurrentCostInterface {\n\n    RegistryInterface registry;\n\n    constructor(address registryAddress) public {\n       registry = RegistryInterface(registryAddress);\n    }\n\n    /// @dev calculates current cost of dot\n    /// @param oracleAddress oracle address\n    /// @param endpoint oracle endpoint\n    /// @param totalBound of already bounded dots\n    /// @return cost of next dot\n    function _currentCostOfDot(\n        address oracleAddress,\n        bytes32 endpoint,\n        uint256 totalBound\n    )\n        public\n        view\n        returns (uint256 cost)\n    {\n\n        uint[] memory lens = new uint[](3);\n        (lens[0],lens[1],lens[2]) = registry.getProviderArgsLength(oracleAddress,endpoint);\n        int[] memory constants = new int[](lens[0]);\n        uint[] memory  parts = new uint[](lens[1]);\n        uint[] memory dividers = new uint[](lens[2]);\n\n        (constants,parts,dividers) = registry.getProviderCurve(oracleAddress, endpoint);\n\n        return uint256(PiecewiseLogic.evalutePiecewiseFunction(constants,parts,dividers,\n            int(totalBound)\n        ));\n    }\n}\n",
  "sourcePath": "/home/iefnw/office3/zap-ethereum-api/contracts/platform/bondage/currentCost/CurrentCost.sol",
  "compiler": {
    "name": "solc",
    "version": "0.4.24+commit.e67f0147.Emscripten.clang"
  },
  "schemaVersion": "2.0.0",
  "updatedAt": "2018-06-19T21:22:28.139Z"
}