{
  "contractName": "CurrentCost",
  "abi": [
    {
      "constant": true,
      "inputs": [],
      "name": "owner",
      "outputs": [
        {
          "name": "",
          "type": "address"
        }
      ],
      "payable": false,
      "stateMutability": "view",
      "type": "function"
    },
    {
      "constant": false,
      "inputs": [],
      "name": "selfDestruct",
      "outputs": [],
      "payable": false,
      "stateMutability": "nonpayable",
      "type": "function"
    },
    {
      "constant": false,
      "inputs": [
        {
          "name": "newOwner",
          "type": "address"
        }
      ],
      "name": "transferOwnership",
      "outputs": [],
      "payable": false,
      "stateMutability": "nonpayable",
      "type": "function"
    },
    {
      "inputs": [
        {
          "name": "registryAddress",
          "type": "address"
        }
      ],
      "payable": false,
      "stateMutability": "nonpayable",
      "type": "constructor"
    },
    {
      "anonymous": false,
      "inputs": [
        {
          "indexed": true,
          "name": "previousOwner",
          "type": "address"
        },
        {
          "indexed": true,
          "name": "newOwner",
          "type": "address"
        }
      ],
      "name": "OwnershipTransferred",
      "type": "event"
    },
    {
      "constant": true,
      "inputs": [
        {
          "name": "oracleAddress",
          "type": "address"
        },
        {
          "name": "endpoint",
          "type": "bytes32"
        },
        {
          "name": "totalBound",
          "type": "uint256"
        }
      ],
      "name": "_currentCostOfDot",
      "outputs": [
        {
          "name": "cost",
          "type": "uint256"
        }
      ],
      "payable": false,
      "stateMutability": "view",
      "type": "function"
    },
    {
      "constant": true,
      "inputs": [
        {
          "name": "oracleAddress",
          "type": "address"
        },
        {
          "name": "endpoint",
          "type": "bytes32"
        },
        {
          "name": "totalBound",
          "type": "uint256"
        },
        {
          "name": "nDots",
          "type": "uint256"
        }
      ],
      "name": "_costOfNDots",
      "outputs": [
        {
          "name": "cost",
          "type": "uint256"
        }
      ],
      "payable": false,
      "stateMutability": "view",
      "type": "function"
    },
    {
      "constant": true,
      "inputs": [
        {
          "name": "oracleAddress",
          "type": "address"
        },
        {
          "name": "endpoint",
          "type": "bytes32"
        }
      ],
      "name": "_dotLimit",
      "outputs": [
        {
          "name": "limit",
          "type": "uint256"
        }
      ],
      "payable": false,
      "stateMutability": "view",
      "type": "function"
    }
  ],
  "bytecode": "0x608060405234801561001057600080fd5b506040516020806116d083398101806040528101908080519060200190929190505050336000806101000a81548173ffffffffffffffffffffffffffffffffffffffff021916908373ffffffffffffffffffffffffffffffffffffffff16021790555080600160006101000a81548173ffffffffffffffffffffffffffffffffffffffff021916908373ffffffffffffffffffffffffffffffffffffffff1602179055505061160c806100c46000396000f300608060405260043610610078576000357c0100000000000000000000000000000000000000000000000000000000900463ffffffff168063197d66d51461007d5780638da5cb5b146100f65780639cb8a26a1461014d578063c1ca69c414610164578063ecca1fad146101c9578063f2fde38b14610238575b600080fd5b34801561008957600080fd5b506100e0600480360381019080803573ffffffffffffffffffffffffffffffffffffffff1690602001909291908035600019169060200190929190803590602001909291908035906020019092919050505061027b565b6040518082815260200191505060405180910390f35b34801561010257600080fd5b5061010b61072a565b604051808273ffffffffffffffffffffffffffffffffffffffff1673ffffffffffffffffffffffffffffffffffffffff16815260200191505060405180910390f35b34801561015957600080fd5b5061016261074f565b005b34801561017057600080fd5b506101b3600480360381019080803573ffffffffffffffffffffffffffffffffffffffff16906020019092919080356000191690602001909291905050506107e4565b6040518082815260200191505060405180910390f35b3480156101d557600080fd5b50610222600480360381019080803573ffffffffffffffffffffffffffffffffffffffff1690602001909291908035600019169060200190929190803590602001909291905050506108f6565b6040518082815260200191505060405180910390f35b34801561024457600080fd5b50610279600480360381019080803573ffffffffffffffffffffffffffffffffffffffff169060200190929190505050610da3565b005b600060608060608060036040519080825280602002602001820160405280156102b35781602001602082028038833980820191505090505b509350600160009054906101000a900473ffffffffffffffffffffffffffffffffffffffff1673ffffffffffffffffffffffffffffffffffffffff166353b0a3008a8a6040518363ffffffff167c0100000000000000000000000000000000000000000000000000000000028152600401808373ffffffffffffffffffffffffffffffffffffffff1673ffffffffffffffffffffffffffffffffffffffff168152602001826000191660001916815260200192505050606060405180830381600087803b15801561038357600080fd5b505af1158015610397573d6000803e3d6000fd5b505050506040513d60608110156103ad57600080fd5b810190808051906020019092919080519060200190929190805190602001909291905050508660008151811015156103e157fe5b9060200190602002018760018151811015156103f957fe5b90602001906020020188600281518110151561041157fe5b90602001906020020183815250838152508381525050505083600081518110151561043857fe5b906020019060200201516040519080825280602002602001820160405280156104705781602001602082028038833980820191505090505b50925083600181518110151561048257fe5b906020019060200201516040519080825280602002602001820160405280156104ba5781602001602082028038833980820191505090505b5091508360028151811015156104cc57fe5b906020019060200201516040519080825280602002602001820160405280156105045781602001602082028038833980820191505090505b509050600160009054906101000a900473ffffffffffffffffffffffffffffffffffffffff1673ffffffffffffffffffffffffffffffffffffffff16632316a9ff8a8a6040518363ffffffff167c0100000000000000000000000000000000000000000000000000000000028152600401808373ffffffffffffffffffffffffffffffffffffffff1673ffffffffffffffffffffffffffffffffffffffff168152602001826000191660001916815260200192505050600060405180830381600087803b1580156105d457600080fd5b505af11580156105e8573d6000803e3d6000fd5b505050506040513d6000823e3d601f19601f82011682018060405250606081101561061257600080fd5b81019080805164010000000081111561062a57600080fd5b8281019050602081018481111561064057600080fd5b815185602082028301116401000000008211171561065d57600080fd5b5050929190602001805164010000000081111561067957600080fd5b8281019050602081018481111561068f57600080fd5b81518560208202830111640100000000821117156106ac57600080fd5b505092919060200180516401000000008111156106c857600080fd5b828101905060208101848111156106de57600080fd5b81518560208202830111640100000000821117156106fb57600080fd5b505092919050505080935081945082955050505061071c8383838a8a610ef8565b945050505050949350505050565b6000809054906101000a900473ffffffffffffffffffffffffffffffffffffffff1681565b6000809054906101000a900473ffffffffffffffffffffffffffffffffffffffff1673ffffffffffffffffffffffffffffffffffffffff163373ffffffffffffffffffffffffffffffffffffffff161415156107aa57600080fd5b6000809054906101000a900473ffffffffffffffffffffffffffffffffffffffff1673ffffffffffffffffffffffffffffffffffffffff16ff5b6000600160009054906101000a900473ffffffffffffffffffffffffffffffffffffffff1673ffffffffffffffffffffffffffffffffffffffff1663e48875ae84846040518363ffffffff167c0100000000000000000000000000000000000000000000000000000000028152600401808373ffffffffffffffffffffffffffffffffffffffff1673ffffffffffffffffffffffffffffffffffffffff168152602001826000191660001916815260200192505050602060405180830381600087803b1580156108b357600080fd5b505af11580156108c7573d6000803e3d6000fd5b505050506040513d60208110156108dd57600080fd5b8101908080519060200190929190505050905092915050565b6000606080606080600360405190808252806020026020018201604052801561092e5781602001602082028038833980820191505090505b509350600160009054906101000a900473ffffffffffffffffffffffffffffffffffffffff1673ffffffffffffffffffffffffffffffffffffffff166353b0a30089896040518363ffffffff167c0100000000000000000000000000000000000000000000000000000000028152600401808373ffffffffffffffffffffffffffffffffffffffff1673ffffffffffffffffffffffffffffffffffffffff168152602001826000191660001916815260200192505050606060405180830381600087803b1580156109fe57600080fd5b505af1158015610a12573d6000803e3d6000fd5b505050506040513d6060811015610a2857600080fd5b81019080805190602001909291908051906020019092919080519060200190929190505050866000815181101515610a5c57fe5b906020019060200201876001815181101515610a7457fe5b906020019060200201886002815181101515610a8c57fe5b906020019060200201838152508381525083815250505050836000815181101515610ab357fe5b90602001906020020151604051908082528060200260200182016040528015610aeb5781602001602082028038833980820191505090505b509250836001815181101515610afd57fe5b90602001906020020151604051908082528060200260200182016040528015610b355781602001602082028038833980820191505090505b509150836002815181101515610b4757fe5b90602001906020020151604051908082528060200260200182016040528015610b7f5781602001602082028038833980820191505090505b509050600160009054906101000a900473ffffffffffffffffffffffffffffffffffffffff1673ffffffffffffffffffffffffffffffffffffffff16632316a9ff89896040518363ffffffff167c0100000000000000000000000000000000000000000000000000000000028152600401808373ffffffffffffffffffffffffffffffffffffffff1673ffffffffffffffffffffffffffffffffffffffff168152602001826000191660001916815260200192505050600060405180830381600087803b158015610c4f57600080fd5b505af1158015610c63573d6000803e3d6000fd5b505050506040513d6000823e3d601f19601f820116820180604052506060811015610c8d57600080fd5b810190808051640100000000811115610ca557600080fd5b82810190506020810184811115610cbb57600080fd5b8151856020820283011164010000000082111715610cd857600080fd5b50509291906020018051640100000000811115610cf457600080fd5b82810190506020810184811115610d0a57600080fd5b8151856020820283011164010000000082111715610d2757600080fd5b50509291906020018051640100000000811115610d4357600080fd5b82810190506020810184811115610d5957600080fd5b8151856020820283011164010000000082111715610d7657600080fd5b5050929190505050809350819450829550505050610d9683838389611100565b9450505050509392505050565b6000809054906101000a900473ffffffffffffffffffffffffffffffffffffffff1673ffffffffffffffffffffffffffffffffffffffff163373ffffffffffffffffffffffffffffffffffffffff16141515610dfe57600080fd5b600073ffffffffffffffffffffffffffffffffffffffff168173ffffffffffffffffffffffffffffffffffffffff1614151515610e3a57600080fd5b8073ffffffffffffffffffffffffffffffffffffffff166000809054906101000a900473ffffffffffffffffffffffffffffffffffffffff1673ffffffffffffffffffffffffffffffffffffffff167f8be0079c531659141344cd1fd0a4f28419497f9722a3daafe3b4186f6b6457e060405160405180910390a3806000806101000a81548173ffffffffffffffffffffffffffffffffffffffff021916908373ffffffffffffffffffffffffffffffffffffffff16021790555050565b60008060008060008060008060008060009850600097505b8e51881015610f9e5760078f89815181101515610f2957fe5b90602001906020020151121580610f5b575060008f60018a01815181101515610f4e57fe5b9060200190602002015114155b15610f93578b96505b8a8c01871015610f8b57610f7a8f8f8f8a611100565b890198508780600101985050610f64565b8899506110ee565b600388019750610f10565b600097505b8c518810156110ea578d88600202815181101515610fbd57fe5b9060200190602002015195508b861015610fd6576110dd565b8d60018960020201815181101515610fea57fe5b9060200190602002015194508a935084848d011115611009578b850393505b60008814611031578c6001890381518110151561102257fe5b90602001906020020151611034565b60005b92505b8c8881518110151561104557fe5b906020019060200201518310156110c3578e8360030281518110151561106757fe5b9060200190602002015191508e6001846003020181518110151561108757fe5b9060200190602002015190506110a060018d0382611491565b6110af6001868f010383611491565b038202890198508280600101935050611037565b848b8d0111156110d757848c019b506110dc565b6110ea565b5b8780600101985050610fa3565b8899505b50505050505050505095945050505050565b60008060008060008060008060008097505b8a5188101561147c578b8860020281518110151561112c57fe5b906020019060200201519650868a10156111455761146f565b8b6001896002020181518110151561115957fe5b906020019060200201519550858a11156111725761146f565b600094506000881461119e578a6001890381518110151561118f57fe5b906020019060200201516111a1565b60005b93505b8a888151811015156111b257fe5b90602001906020020151841015611467578c846003028151811015156111d457fe5b9060200190602002015192508c600185600302018151811015156111f457fe5b9060200190602002015191508c6002856003020181518110151561121457fe5b90602001906020020151905089816001811461122f5761144f565b60018203915060028204821791506004820482179150601082048217915061010082048217915062010000820482179150640100000000820482179150680100000000000000008204821791507001000000000000000000000000000000008204821791506001820191506040517ff8f9cbfae6cc78fbefe7cdc3a1793dfcf4f0e8bbd8cec470b6a28a7a5a3e1efd81527ff5ecf1b3e9debc68e1d9cfabc5997135bfb7a7a3938b7b606b5b4b3f2f1f0ffe60208201527ff6e4ed9ff2d6b458eadcdf97bd91692de2d4da8fd2d0ac50c6ae9a827252361660408201527fc8c0b887b0a8a4489c948c7f847c6125746c645c544c444038302820181008ff60608201527ff7cae577eec2a03cf3bad76fb589591debb2dd67e0aa9834bea6925f6a4a2e0e60808201527fe39ed557db96902cd38ed14fad815115c786af479b7e8324736353433727170760a08201527fc976c13bb96e881cb166a933a55e490d9d56952b8d4e801485467d236242260660c08201527f753a6d1b65325d0c552a4d1345224105391a310b29122104190a11030902010060e082015261010081016040527f0100000000000000000000000000000000000000000000000000000000000000807e818283848586878898a8b8c8d8e8f929395969799a9b9d9e9faaeb6bedeeff85020460ff03820151047f80000000000000000000000000000000000000000000000000000000000000008411610100028101905080935050505b508383820a02860195505083806001019450506111a4565b849850611481565b8780600101985050611112565b600098505b5050505050505050949350505050565b6000600682111580156114a5575060008210155b15156114b057600080fd5b60008214156114c1578290506115da565b60018214156114e35760026001840184028115156114db57fe5b0490506115da565b600282141561150d576006600184600202016001850185020281151561150557fe5b0490506115da565b60038214156115315760028060018501850281151561152857fe5b040a90506115da565b600482141561156a57601e600184600302858660030202010360018560020201600186018602020281151561156257fe5b0490506115da565b6005821415611593576001836002026002850a600202010360026001850185020a0290506115da565b60068214156115d557602a6001846003026003860a6006026004870a6003020103016001856002020160018601860202028115156115cd57fe5b0490506115da565b600090505b929150505600a165627a7a723058201bb9a6ababd98a38576c2fbc305d2fe9264718a2133b6b27421f26a6323ea78f0029",
  "source": "pragma solidity ^0.4.24;\n\nimport \"../../../lib/lifecycle/Destructible.sol\";\nimport \"../../../lib/platform/PiecewiseLogic.sol\";\nimport \"../../registry/RegistryInterface.sol\";\nimport \"./CurrentCostInterface.sol\";\n\ncontract CurrentCost is Destructible, CurrentCostInterface {\n\n    RegistryInterface registry;\n\n    constructor(address registryAddress) public {\n       registry = RegistryInterface(registryAddress);\n    }\n\n    /// @dev calculates current cost of dot\n    /// @param oracleAddress oracle address\n    /// @param endpoint oracle endpoint\n    /// @param totalBound of already bounded dots\n    /// @return cost of next dot\n    function _currentCostOfDot(\n        address oracleAddress,\n        bytes32 endpoint,\n        uint256 totalBound\n    )\n        public\n        view\n        returns (uint256 cost)\n    {\n\n        uint[] memory lens = new uint[](3);\n        (lens[0],lens[1],lens[2]) = registry.getProviderArgsLength(oracleAddress,endpoint);\n        int[] memory constants = new int[](lens[0]);\n        uint[] memory  parts = new uint[](lens[1]);\n        uint[] memory dividers = new uint[](lens[2]);\n\n        (constants,parts,dividers) = registry.getProviderCurve(oracleAddress, endpoint);\n\n        return uint256(PiecewiseLogic.evalutePiecewiseFunction(constants,parts,dividers,totalBound));\n    }\n\n    /// @dev calculates cost of n dots\n    /// @param oracleAddress oracle address\n    /// @param endpoint oracle endpoint\n    /// @param totalBound of already bounded dots\n    /// @param nDots to bond\n    /// @return cost of next dot\n    function _costOfNDots(\n        address oracleAddress,\n        bytes32 endpoint,\n        uint256 totalBound,\n        uint256 nDots\n    )\n        public\n        view\n        returns (uint256 cost)\n    {\n\n        uint[] memory lens = new uint[](3);\n        (lens[0],lens[1],lens[2]) = registry.getProviderArgsLength(oracleAddress,endpoint);\n        int[] memory constants = new int[](lens[0]);\n        uint[] memory  parts = new uint[](lens[1]);\n        uint[] memory dividers = new uint[](lens[2]);\n\n        (constants,parts,dividers) = registry.getProviderCurve(oracleAddress, endpoint);\n\n        return uint256(PiecewiseLogic.fastPiecewiseFunction(constants, parts, dividers, totalBound, nDots));\n    }\n\n   function _dotLimit( \n        address oracleAddress,\n        bytes32 endpoint\n    )\n        public\n        view\n        returns (uint256 limit)\n    {\n        return registry.getDotLimit(oracleAddress, endpoint);\n    }\n}\n",
  "sourcePath": "/Users/avisaven/Documents/Work/Zap/zap-ethereum-api/contracts/platform/bondage/currentCost/CurrentCost.sol",
  "compiler": {
    "name": "solc",
    "version": "0.4.24+commit.e67f0147.Emscripten.clang"
  },
  "schemaVersion": "2.0.0",
  "updatedAt": "2018-08-04T00:05:46.242Z"
}