{
  "contractName": "CurrentCost",
  "abi": [
    {
      "constant": false,
      "inputs": [],
      "name": "updateDependencies",
      "outputs": [],
      "payable": false,
      "stateMutability": "nonpayable",
      "type": "function"
    },
    {
      "constant": true,
      "inputs": [],
      "name": "owner",
      "outputs": [
        {
          "name": "",
          "type": "address"
        }
      ],
      "payable": false,
      "stateMutability": "view",
      "type": "function"
    },
    {
      "constant": false,
      "inputs": [],
      "name": "selfDestruct",
      "outputs": [],
      "payable": false,
      "stateMutability": "nonpayable",
      "type": "function"
    },
    {
      "constant": false,
      "inputs": [
        {
          "name": "newOwner",
          "type": "address"
        }
      ],
      "name": "transferOwnership",
      "outputs": [],
      "payable": false,
      "stateMutability": "nonpayable",
      "type": "function"
    },
    {
      "inputs": [
        {
          "name": "c",
          "type": "address"
        }
      ],
      "payable": false,
      "stateMutability": "nonpayable",
      "type": "constructor"
    },
    {
      "anonymous": false,
      "inputs": [
        {
          "indexed": true,
          "name": "previousOwner",
          "type": "address"
        },
        {
          "indexed": true,
          "name": "newOwner",
          "type": "address"
        }
      ],
      "name": "OwnershipTransferred",
      "type": "event"
    },
    {
      "constant": true,
      "inputs": [
        {
          "name": "oracleAddress",
          "type": "address"
        },
        {
          "name": "endpoint",
          "type": "bytes32"
        },
        {
          "name": "start",
          "type": "uint256"
        }
      ],
      "name": "_currentCostOfDot",
      "outputs": [
        {
          "name": "cost",
          "type": "uint256"
        }
      ],
      "payable": false,
      "stateMutability": "view",
      "type": "function"
    },
    {
      "constant": true,
      "inputs": [
        {
          "name": "oracleAddress",
          "type": "address"
        },
        {
          "name": "endpoint",
          "type": "bytes32"
        },
        {
          "name": "start",
          "type": "uint256"
        },
        {
          "name": "nDots",
          "type": "uint256"
        }
      ],
      "name": "_costOfNDots",
      "outputs": [
        {
          "name": "cost",
          "type": "uint256"
        }
      ],
      "payable": false,
      "stateMutability": "view",
      "type": "function"
    },
    {
      "constant": true,
      "inputs": [
        {
          "name": "oracleAddress",
          "type": "address"
        },
        {
          "name": "endpoint",
          "type": "bytes32"
        }
      ],
      "name": "_dotLimit",
      "outputs": [
        {
          "name": "",
          "type": "uint256"
        }
      ],
      "payable": false,
      "stateMutability": "view",
      "type": "function"
    }
  ],
  "bytecode": "0x608060405234801561001057600080fd5b5060405160208061116f8339810180604052810190808051906020019092919050505080336000806101000a81548173ffffffffffffffffffffffffffffffffffffffff021916908373ffffffffffffffffffffffffffffffffffffffff16021790555080600160006101000a81548173ffffffffffffffffffffffffffffffffffffffff021916908373ffffffffffffffffffffffffffffffffffffffff16021790555080600260006101000a81548173ffffffffffffffffffffffffffffffffffffffff021916908373ffffffffffffffffffffffffffffffffffffffff1602179055505061010e610114640100000000026401000000009004565b50610253565b600260009054906101000a900473ffffffffffffffffffffffffffffffffffffffff1673ffffffffffffffffffffffffffffffffffffffff1663358177736040518163ffffffff167c01000000000000000000000000000000000000000000000000000000000281526004018080602001828103825260088152602001807f5245474953545259000000000000000000000000000000000000000000000000815250602001915050602060405180830381600087803b1580156101d657600080fd5b505af11580156101ea573d6000803e3d6000fd5b505050506040513d602081101561020057600080fd5b8101908080519060200190929190505050600360006101000a81548173ffffffffffffffffffffffffffffffffffffffff021916908373ffffffffffffffffffffffffffffffffffffffff160217905550565b610f0d806102626000396000f300608060405260043610610083576000357c0100000000000000000000000000000000000000000000000000000000900463ffffffff168063197d66d5146100885780636e5ecdff146101015780638da5cb5b146101185780639cb8a26a1461016f578063c1ca69c414610186578063ecca1fad146101eb578063f2fde38b1461025a575b600080fd5b34801561009457600080fd5b506100eb600480360381019080803573ffffffffffffffffffffffffffffffffffffffff1690602001909291908035600019169060200190929190803590602001909291908035906020019092919050505061029d565b6040518082815260200191505060405180910390f35b34801561010d57600080fd5b5061011661056b565b005b34801561012457600080fd5b5061012d6105d1565b604051808273ffffffffffffffffffffffffffffffffffffffff1673ffffffffffffffffffffffffffffffffffffffff16815260200191505060405180910390f35b34801561017b57600080fd5b506101846105f6565b005b34801561019257600080fd5b506101d5600480360381019080803573ffffffffffffffffffffffffffffffffffffffff169060200190929190803560001916906020019092919050505061068b565b6040518082815260200191505060405180910390f35b3480156101f757600080fd5b50610244600480360381019080803573ffffffffffffffffffffffffffffffffffffffff169060200190929190803560001916906020019092919080359060200190929190505050610951565b6040518082815260200191505060405180910390f35b34801561026657600080fd5b5061029b600480360381019080803573ffffffffffffffffffffffffffffffffffffffff169060200190929190505050610969565b005b60008060606000600360009054906101000a900473ffffffffffffffffffffffffffffffffffffffff1673ffffffffffffffffffffffffffffffffffffffff166387cd29a489896040518363ffffffff167c0100000000000000000000000000000000000000000000000000000000028152600401808373ffffffffffffffffffffffffffffffffffffffff1673ffffffffffffffffffffffffffffffffffffffff168152602001826000191660001916815260200192505050602060405180830381600087803b15801561037157600080fd5b505af1158015610385573d6000803e3d6000fd5b505050506040513d602081101561039b57600080fd5b81019080805190602001909291905050509250826040519080825280602002602001820160405280156103dd5781602001602082028038833980820191505090505b509150600360009054906101000a900473ffffffffffffffffffffffffffffffffffffffff1673ffffffffffffffffffffffffffffffffffffffff16632316a9ff89896040518363ffffffff167c0100000000000000000000000000000000000000000000000000000000028152600401808373ffffffffffffffffffffffffffffffffffffffff1673ffffffffffffffffffffffffffffffffffffffff168152602001826000191660001916815260200192505050600060405180830381600087803b1580156104ad57600080fd5b505af11580156104c1573d6000803e3d6000fd5b505050506040513d6000823e3d601f19601f8201168201806040525060208110156104eb57600080fd5b81019080805164010000000081111561050357600080fd5b8281019050602081018481111561051957600080fd5b815185602082028301116401000000008211171561053657600080fd5b5050929190505050915061054b828787610abe565b90506000811215151561055d57600080fd5b809350505050949350505050565b600160009054906101000a900473ffffffffffffffffffffffffffffffffffffffff1673ffffffffffffffffffffffffffffffffffffffff163373ffffffffffffffffffffffffffffffffffffffff161415156105c757600080fd5b6105cf610bad565b565b6000809054906101000a900473ffffffffffffffffffffffffffffffffffffffff1681565b6000809054906101000a900473ffffffffffffffffffffffffffffffffffffffff1673ffffffffffffffffffffffffffffffffffffffff163373ffffffffffffffffffffffffffffffffffffffff1614151561065157600080fd5b6000809054906101000a900473ffffffffffffffffffffffffffffffffffffffff1673ffffffffffffffffffffffffffffffffffffffff16ff5b6000806060600360009054906101000a900473ffffffffffffffffffffffffffffffffffffffff1673ffffffffffffffffffffffffffffffffffffffff166387cd29a486866040518363ffffffff167c0100000000000000000000000000000000000000000000000000000000028152600401808373ffffffffffffffffffffffffffffffffffffffff1673ffffffffffffffffffffffffffffffffffffffff168152602001826000191660001916815260200192505050602060405180830381600087803b15801561075d57600080fd5b505af1158015610771573d6000803e3d6000fd5b505050506040513d602081101561078757600080fd5b81019080805190602001909291905050509150816040519080825280602002602001820160405280156107c95781602001602082028038833980820191505090505b509050600360009054906101000a900473ffffffffffffffffffffffffffffffffffffffff1673ffffffffffffffffffffffffffffffffffffffff16632316a9ff86866040518363ffffffff167c0100000000000000000000000000000000000000000000000000000000028152600401808373ffffffffffffffffffffffffffffffffffffffff1673ffffffffffffffffffffffffffffffffffffffff168152602001826000191660001916815260200192505050600060405180830381600087803b15801561089957600080fd5b505af11580156108ad573d6000803e3d6000fd5b505050506040513d6000823e3d601f19601f8201168201806040525060208110156108d757600080fd5b8101908080516401000000008111156108ef57600080fd5b8281019050602081018481111561090557600080fd5b815185602082028301116401000000008211171561092257600080fd5b50509291905050509050806001830381518110151561093d57fe5b906020019060200201519250505092915050565b6000610960848484600061029d565b90509392505050565b6000809054906101000a900473ffffffffffffffffffffffffffffffffffffffff1673ffffffffffffffffffffffffffffffffffffffff163373ffffffffffffffffffffffffffffffffffffffff161415156109c457600080fd5b600073ffffffffffffffffffffffffffffffffffffffff168173ffffffffffffffffffffffffffffffffffffffff1614151515610a0057600080fd5b8073ffffffffffffffffffffffffffffffffffffffff166000809054906101000a900473ffffffffffffffffffffffffffffffffffffffff1673ffffffffffffffffffffffffffffffffffffffff167f8be0079c531659141344cd1fd0a4f28419497f9722a3daafe3b4186f6b6457e060405160405180910390a3806000806101000a81548173ffffffffffffffffffffffffffffffffffffffff021916908373ffffffffffffffffffffffffffffffffffffffff16021790555050565b60008060008060008060009450600093508860018a5103815181101515610ae157fe5b9060200190602002015187890111151515610afb57600080fd5b5b8851851015610ba0578885815181101515610b1357fe5b90602001906020020151925088600184870101815181101515610b3257fe5b906020019060200201519150600283860101905081881115610b5657809450610afc565b610b7489868a858b8d0111610b6b578a610b6f565b8b86035b610cec565b8401935081878901111515610b8b57839550610ba1565b60018883030187039650819750809450610afc565b5b50505050509392505050565b600260009054906101000a900473ffffffffffffffffffffffffffffffffffffffff1673ffffffffffffffffffffffffffffffffffffffff1663358177736040518163ffffffff167c01000000000000000000000000000000000000000000000000000000000281526004018080602001828103825260088152602001807f5245474953545259000000000000000000000000000000000000000000000000815250602001915050602060405180830381600087803b158015610c6f57600080fd5b505af1158015610c83573d6000803e3d6000fd5b505050506040513d6020811015610c9957600080fd5b8101908080519060200190929190505050600360006101000a81548173ffffffffffffffffffffffffffffffffffffffff021916908373ffffffffffffffffffffffffffffffffffffffff160217905550565b600080600080600080600094508989815181101515610d0757fe5b90602001906020020151935060018901925083830191508290505b81811015610d7257610d3960018903848303610d92565b610d47888a01858403610d92565b038a82815181101515610d5657fe5b9060200190602002015102850194508080600101915050610d22565b60008512151515610d8257600080fd5b8495505050505050949350505050565b600060068211158015610da6575060008210155b1515610db157600080fd5b6000821415610dc257829050610edb565b6001821415610de4576002600184018402811515610ddc57fe5b049050610edb565b6002821415610e0e5760066001846002020160018501850202811515610e0657fe5b049050610edb565b6003821415610e3257600280600185018502811515610e2957fe5b040a9050610edb565b6004821415610e6b57601e6001846003028586600302020103600185600202016001860186020202811515610e6357fe5b049050610edb565b6005821415610e94576001836002026002850a600202010360026001850185020a029050610edb565b6006821415610ed657602a6001846003026003860a6006026004870a600302010301600185600202016001860186020202811515610ece57fe5b049050610edb565b600090505b929150505600a165627a7a723058209753d6d4c264902428ec7e12cdd9284817992b0d8182eee9894e90cdaadff59d0029",
  "source": "pragma solidity ^0.4.24;\n\nimport \"../../../lib/lifecycle/Destructible.sol\";\nimport \"../../../lib/ownership/Upgradable.sol\";\nimport \"../../../lib/platform/PiecewiseLogic.sol\";\nimport \"../../registry/RegistryInterface.sol\";\nimport \"./CurrentCostInterface.sol\";\n\n\ncontract CurrentCost is Destructible, CurrentCostInterface, Upgradable {\n\n    RegistryInterface registry;\n\n    constructor(address c) Upgradable(c) public {\n        _updateDependencies();\n    }\n\n    function _updateDependencies() internal {\n        registry = RegistryInterface(coordinator.getContract(\"REGISTRY\"));\n    }\n\n    /// @dev calculates current cost of dot\n    /// @param oracleAddress oracle address\n    /// @param endpoint oracle endpoint\n    /// @param start nth dot to calculate price of\n    /// @return cost of next dot\n    function _currentCostOfDot(\n        address oracleAddress,\n        bytes32 endpoint,\n        uint256 start\n    )\n        public\n        view\n        returns (uint256 cost)\n    {\n        return _costOfNDots(oracleAddress, endpoint, start, 0);\n    }\n\n    /// @dev calculates cost of n dots\n    /// @param oracleAddress oracle address\n    /// @param endpoint oracle endpoint\n    /// @param start nth dot to start calculating price at\n    /// @param nDots to bond\n    /// @return cost of next dot\n    function _costOfNDots(\n        address oracleAddress,\n        bytes32 endpoint,\n        uint256 start,\n        uint256 nDots\n    )\n        public\n        view\n        returns (uint256 cost)\n    {\n\n\n        uint256 length = registry.getProviderCurveLength(oracleAddress,endpoint);\n        int[] memory curve = new int[](length);\n        curve = registry.getProviderCurve(oracleAddress, endpoint);\n\n        int res = PiecewiseLogic.evaluateFunction(curve, start, nDots);\n        require(res >= 0);\n        return uint256(res);\n    }\n\n   function _dotLimit( \n        address oracleAddress,\n        bytes32 endpoint\n    )\n        public\n        view\n        returns (uint256)\n    {\n        uint256 length = registry.getProviderCurveLength(oracleAddress,endpoint);\n        int[] memory curve = new int[](length);\n        curve = registry.getProviderCurve(oracleAddress, endpoint);\n\n        return uint(curve[length-1]);\n    }\n}\n",
  "sourcePath": "/home/iefnw/office7/zap-ethereum-api/contracts/platform/bondage/currentCost/CurrentCost.sol",
  "compiler": {
    "name": "solc",
    "version": "0.4.24+commit.e67f0147.Emscripten.clang"
  },
  "schemaVersion": "2.0.0",
  "updatedAt": "2018-08-27T22:30:32.553Z"
}