{
  "contractName": "Database",
  "abi": [
    {
      "constant": true,
      "inputs": [],
      "name": "owner",
      "outputs": [
        {
          "name": "",
          "type": "address"
        }
      ],
      "payable": false,
      "stateMutability": "view",
      "type": "function"
    },
    {
      "constant": false,
      "inputs": [
        {
          "name": "newOwner",
          "type": "address"
        }
      ],
      "name": "transferOwnership",
      "outputs": [],
      "payable": false,
      "stateMutability": "nonpayable",
      "type": "function"
    },
    {
      "inputs": [],
      "payable": false,
      "stateMutability": "nonpayable",
      "type": "constructor"
    },
    {
      "anonymous": false,
      "inputs": [
        {
          "indexed": true,
          "name": "contractAddress",
          "type": "address"
        },
        {
          "indexed": false,
          "name": "allowed",
          "type": "bool"
        }
      ],
      "name": "StorageModified",
      "type": "event"
    },
    {
      "anonymous": false,
      "inputs": [
        {
          "indexed": true,
          "name": "previousOwner",
          "type": "address"
        },
        {
          "indexed": true,
          "name": "newOwner",
          "type": "address"
        }
      ],
      "name": "OwnershipTransferred",
      "type": "event"
    },
    {
      "constant": false,
      "inputs": [
        {
          "name": "_storageContract",
          "type": "address"
        },
        {
          "name": "_allowed",
          "type": "bool"
        }
      ],
      "name": "setStorageContract",
      "outputs": [],
      "payable": false,
      "stateMutability": "nonpayable",
      "type": "function"
    },
    {
      "constant": true,
      "inputs": [
        {
          "name": "key",
          "type": "bytes32"
        }
      ],
      "name": "getBytes32",
      "outputs": [
        {
          "name": "",
          "type": "bytes32"
        }
      ],
      "payable": false,
      "stateMutability": "view",
      "type": "function"
    },
    {
      "constant": false,
      "inputs": [
        {
          "name": "key",
          "type": "bytes32"
        },
        {
          "name": "value",
          "type": "bytes32"
        }
      ],
      "name": "setBytes32",
      "outputs": [],
      "payable": false,
      "stateMutability": "nonpayable",
      "type": "function"
    },
    {
      "constant": true,
      "inputs": [
        {
          "name": "key",
          "type": "bytes32"
        }
      ],
      "name": "getNumber",
      "outputs": [
        {
          "name": "",
          "type": "uint256"
        }
      ],
      "payable": false,
      "stateMutability": "view",
      "type": "function"
    },
    {
      "constant": false,
      "inputs": [
        {
          "name": "key",
          "type": "bytes32"
        },
        {
          "name": "value",
          "type": "uint256"
        }
      ],
      "name": "setNumber",
      "outputs": [],
      "payable": false,
      "stateMutability": "nonpayable",
      "type": "function"
    },
    {
      "constant": true,
      "inputs": [
        {
          "name": "key",
          "type": "bytes32"
        }
      ],
      "name": "getBytes",
      "outputs": [
        {
          "name": "",
          "type": "bytes"
        }
      ],
      "payable": false,
      "stateMutability": "view",
      "type": "function"
    },
    {
      "constant": false,
      "inputs": [
        {
          "name": "key",
          "type": "bytes32"
        },
        {
          "name": "value",
          "type": "bytes"
        }
      ],
      "name": "setBytes",
      "outputs": [],
      "payable": false,
      "stateMutability": "nonpayable",
      "type": "function"
    },
    {
      "constant": true,
      "inputs": [
        {
          "name": "key",
          "type": "bytes32"
        }
      ],
      "name": "getString",
      "outputs": [
        {
          "name": "",
          "type": "string"
        }
      ],
      "payable": false,
      "stateMutability": "view",
      "type": "function"
    },
    {
      "constant": false,
      "inputs": [
        {
          "name": "key",
          "type": "bytes32"
        },
        {
          "name": "value",
          "type": "string"
        }
      ],
      "name": "setString",
      "outputs": [],
      "payable": false,
      "stateMutability": "nonpayable",
      "type": "function"
    },
    {
      "constant": true,
      "inputs": [
        {
          "name": "key",
          "type": "bytes32"
        }
      ],
      "name": "getBytesArray",
      "outputs": [
        {
          "name": "",
          "type": "bytes32[]"
        }
      ],
      "payable": false,
      "stateMutability": "view",
      "type": "function"
    },
    {
      "constant": true,
      "inputs": [
        {
          "name": "key",
          "type": "bytes32"
        },
        {
          "name": "index",
          "type": "uint256"
        }
      ],
      "name": "getBytesArrayIndex",
      "outputs": [
        {
          "name": "",
          "type": "bytes32"
        }
      ],
      "payable": false,
      "stateMutability": "view",
      "type": "function"
    },
    {
      "constant": true,
      "inputs": [
        {
          "name": "key",
          "type": "bytes32"
        }
      ],
      "name": "getBytesArrayLength",
      "outputs": [
        {
          "name": "",
          "type": "uint256"
        }
      ],
      "payable": false,
      "stateMutability": "view",
      "type": "function"
    },
    {
      "constant": false,
      "inputs": [
        {
          "name": "key",
          "type": "bytes32"
        },
        {
          "name": "value",
          "type": "bytes32"
        }
      ],
      "name": "pushBytesArray",
      "outputs": [],
      "payable": false,
      "stateMutability": "nonpayable",
      "type": "function"
    },
    {
      "constant": false,
      "inputs": [
        {
          "name": "key",
          "type": "bytes32"
        },
        {
          "name": "index",
          "type": "uint256"
        },
        {
          "name": "value",
          "type": "bytes32"
        }
      ],
      "name": "setBytesArrayIndex",
      "outputs": [],
      "payable": false,
      "stateMutability": "nonpayable",
      "type": "function"
    },
    {
      "constant": false,
      "inputs": [
        {
          "name": "key",
          "type": "bytes32"
        },
        {
          "name": "value",
          "type": "bytes32[]"
        }
      ],
      "name": "setBytesArray",
      "outputs": [],
      "payable": false,
      "stateMutability": "nonpayable",
      "type": "function"
    },
    {
      "constant": true,
      "inputs": [
        {
          "name": "key",
          "type": "bytes32"
        }
      ],
      "name": "getIntArray",
      "outputs": [
        {
          "name": "",
          "type": "int256[]"
        }
      ],
      "payable": false,
      "stateMutability": "view",
      "type": "function"
    },
    {
      "constant": true,
      "inputs": [
        {
          "name": "key",
          "type": "bytes32"
        },
        {
          "name": "index",
          "type": "uint256"
        }
      ],
      "name": "getIntArrayIndex",
      "outputs": [
        {
          "name": "",
          "type": "int256"
        }
      ],
      "payable": false,
      "stateMutability": "view",
      "type": "function"
    },
    {
      "constant": true,
      "inputs": [
        {
          "name": "key",
          "type": "bytes32"
        }
      ],
      "name": "getIntArrayLength",
      "outputs": [
        {
          "name": "",
          "type": "uint256"
        }
      ],
      "payable": false,
      "stateMutability": "view",
      "type": "function"
    },
    {
      "constant": false,
      "inputs": [
        {
          "name": "key",
          "type": "bytes32"
        },
        {
          "name": "value",
          "type": "int256"
        }
      ],
      "name": "pushIntArray",
      "outputs": [],
      "payable": false,
      "stateMutability": "nonpayable",
      "type": "function"
    },
    {
      "constant": false,
      "inputs": [
        {
          "name": "key",
          "type": "bytes32"
        },
        {
          "name": "index",
          "type": "uint256"
        },
        {
          "name": "value",
          "type": "int256"
        }
      ],
      "name": "setIntArrayIndex",
      "outputs": [],
      "payable": false,
      "stateMutability": "nonpayable",
      "type": "function"
    },
    {
      "constant": false,
      "inputs": [
        {
          "name": "key",
          "type": "bytes32"
        },
        {
          "name": "value",
          "type": "int256[]"
        }
      ],
      "name": "setIntArray",
      "outputs": [],
      "payable": false,
      "stateMutability": "nonpayable",
      "type": "function"
    },
    {
      "constant": true,
      "inputs": [
        {
          "name": "key",
          "type": "bytes32"
        }
      ],
      "name": "getAddressArray",
      "outputs": [
        {
          "name": "",
          "type": "address[]"
        }
      ],
      "payable": false,
      "stateMutability": "view",
      "type": "function"
    },
    {
      "constant": true,
      "inputs": [
        {
          "name": "key",
          "type": "bytes32"
        },
        {
          "name": "index",
          "type": "uint256"
        }
      ],
      "name": "getAddressArrayIndex",
      "outputs": [
        {
          "name": "",
          "type": "address"
        }
      ],
      "payable": false,
      "stateMutability": "view",
      "type": "function"
    },
    {
      "constant": true,
      "inputs": [
        {
          "name": "key",
          "type": "bytes32"
        }
      ],
      "name": "getAddressArrayLength",
      "outputs": [
        {
          "name": "",
          "type": "uint256"
        }
      ],
      "payable": false,
      "stateMutability": "view",
      "type": "function"
    },
    {
      "constant": false,
      "inputs": [
        {
          "name": "key",
          "type": "bytes32"
        },
        {
          "name": "value",
          "type": "address"
        }
      ],
      "name": "pushAddressArray",
      "outputs": [],
      "payable": false,
      "stateMutability": "nonpayable",
      "type": "function"
    },
    {
      "constant": false,
      "inputs": [
        {
          "name": "key",
          "type": "bytes32"
        },
        {
          "name": "index",
          "type": "uint256"
        },
        {
          "name": "value",
          "type": "address"
        }
      ],
      "name": "setAddressArrayIndex",
      "outputs": [],
      "payable": false,
      "stateMutability": "nonpayable",
      "type": "function"
    },
    {
      "constant": false,
      "inputs": [
        {
          "name": "key",
          "type": "bytes32"
        },
        {
          "name": "value",
          "type": "address[]"
        }
      ],
      "name": "setAddressArray",
      "outputs": [],
      "payable": false,
      "stateMutability": "nonpayable",
      "type": "function"
    }
  ],
  "bytecode": "0x608060405234801561001057600080fd5b50336000806101000a81548173ffffffffffffffffffffffffffffffffffffffff021916908373ffffffffffffffffffffffffffffffffffffffff16021790555061223a806100606000396000f300608060405260043610610175576000357c0100000000000000000000000000000000000000000000000000000000900463ffffffff1680630dd63ba31461017a5780631b929940146101bf5780632d2899b6146101fa5780632e28d084146102805780632ecb0d64146102c95780632fc94ba61461030e57806343cb0af7146103535780634e91db081461039857806354c552db146103d757806356e5cf2e146104125780635948f7331461045b5780635eca2aeb146104e15780636e8995501461053857806387ddf6cd146105815780638d152d78146105dc5780638da5cb5b1461061b5780638db0e83b14610672578063986e791a146106f8578063a21a65ae146107a2578063a2987245146107e7578063a42b6bf114610836578063a4f63ec814610885578063a6ed563e146108ce578063a9fcf76b1461091b578063c031a18014610964578063dd151d1e14610a0e578063e16e934014610a5f578063ec672cf614610ada578063f2fde38b14610b23575b600080fd5b34801561018657600080fd5b506101bd60048036038101908080356000191690602001909291908035906020019092919080359060200190929190505050610b66565b005b3480156101cb57600080fd5b506101f8600480360381019080803560001916906020019092919080359060200190929190505050610c63565b005b34801561020657600080fd5b506102296004803603810190808035600019169060200190929190505050610cac565b6040518080602001828103825283818151815260200191508051906020019060200280838360005b8381101561026c578082015181840152602081019050610251565b505050509050019250505060405180910390f35b34801561028c57600080fd5b506102c76004803603810190808035600019169060200190929190803590602001908201803590602001919091929391929390505050610d1f565b005b3480156102d557600080fd5b506102f86004803603810190808035600019169060200190929190505050610e10565b6040518082815260200191505060405180910390f35b34801561031a57600080fd5b5061033d6004803603810190808035600019169060200190929190505050610e39565b6040518082815260200191505060405180910390f35b34801561035f57600080fd5b506103826004803603810190808035600019169060200190929190505050610e61565b6040518082815260200191505060405180910390f35b3480156103a457600080fd5b506103d560048036038101908080356000191690602001909291908035600019169060200190929190505050610e89565b005b3480156103e357600080fd5b50610410600480360381019080803560001916906020019092919080359060200190929190505050610f72565b005b34801561041e57600080fd5b50610459600480360381019080803560001916906020019092919080359060200190820180359060200191909192939192939050505061105e565b005b34801561046757600080fd5b5061048a600480360381019080803560001916906020019092919050505061114f565b6040518080602001828103825283818151815260200191508051906020019060200280838360005b838110156104cd5780820151818401526020810190506104b2565b505050509050019250505060405180910390f35b3480156104ed57600080fd5b5061051a6004803603810190808035600019169060200190929190803590602001909291905050506111f8565b60405180826000191660001916815260200191505060405180910390f35b34801561054457600080fd5b5061057f6004803603810190808035600019169060200190929190803590602001908201803590602001919091929391929390505050611235565b005b34801561058d57600080fd5b506105da600480360381019080803560001916906020019092919080359060200190929190803573ffffffffffffffffffffffffffffffffffffffff169060200190929190505050611326565b005b3480156105e857600080fd5b506106196004803603810190808035600019169060200190929190803560001916906020019092919050505061145d565b005b34801561062757600080fd5b506106306114ac565b604051808273ffffffffffffffffffffffffffffffffffffffff1673ffffffffffffffffffffffffffffffffffffffff16815260200191505060405180910390f35b34801561067e57600080fd5b506106a160048036038101908080356000191690602001909291905050506114d1565b6040518080602001828103825283818151815260200191508051906020019060200280838360005b838110156106e45780820151818401526020810190506106c9565b505050509050019250505060405180910390f35b34801561070457600080fd5b506107276004803603810190808035600019169060200190929190505050611548565b6040518080602001828103825283818151815260200191508051906020019080838360005b8381101561076757808201518184015260208101905061074c565b50505050905090810190601f1680156107945780820380516001836020036101000a031916815260200191505b509250505060405180910390f35b3480156107ae57600080fd5b506107d16004803603810190808035600019169060200190929190505050611605565b6040518082815260200191505060405180910390f35b3480156107f357600080fd5b5061082060048036038101908080356000191690602001909291908035906020019092919050505061162d565b6040518082815260200191505060405180910390f35b34801561084257600080fd5b50610883600480360381019080803573ffffffffffffffffffffffffffffffffffffffff16906020019092919080351515906020019092919050505061166a565b005b34801561089157600080fd5b506108cc60048036038101908080356000191690602001909291908035906020019092919080356000191690602001909291905050506118a6565b005b3480156108da57600080fd5b506108fd60048036038101908080356000191690602001909291905050506119a7565b60405180826000191660001916815260200191505060405180910390f35b34801561092757600080fd5b5061096260048036038101908080356000191690602001909291908035906020019082018035906020019190919293919293905050506119cc565b005b34801561097057600080fd5b506109936004803603810190808035600019169060200190929190505050611abd565b6040518080602001828103825283818151815260200191508051906020019080838360005b838110156109d35780820151818401526020810190506109b8565b50505050905090810190601f168015610a005780820380516001836020036101000a031916815260200191505b509250505060405180910390f35b348015610a1a57600080fd5b50610a5d6004803603810190808035600019169060200190929190803573ffffffffffffffffffffffffffffffffffffffff169060200190929190505050611b7a565b005b348015610a6b57600080fd5b50610a98600480360381019080803560001916906020019092919080359060200190929190505050611bfd565b604051808273ffffffffffffffffffffffffffffffffffffffff1673ffffffffffffffffffffffffffffffffffffffff16815260200191505060405180910390f35b348015610ae657600080fd5b50610b216004803603810190808035600019169060200190929190803590602001908201803590602001919091929391929390505050611c5a565b005b348015610b2f57600080fd5b50610b64600480360381019080803573ffffffffffffffffffffffffffffffffffffffff169060200190929190505050611d4b565b005b600660003373ffffffffffffffffffffffffffffffffffffffff1673ffffffffffffffffffffffffffffffffffffffff16815260200190815260200160002060009054906101000a900460ff161515610c27576040517f08c379a000000000000000000000000000000000000000000000000000000000815260040180806020018281038252601c8152602001807f4572726f723a20556e617070726f766564206d73672e73656e6465720000000081525060200191505060405180910390fd5b8060046000856000191660001916815260200190815260200160002083815481101515610c5057fe5b9060005260206000200181905550505050565b6004600083600019166000191681526020019081526020016000208190806001815401808255809150509060018203906000526020600020016000909192909190915055505050565b6060600460008360001916600019168152602001908152602001600020805480602002602001604051908101604052809291908181526020018280548015610d1357602002820191906000526020600020905b815481526020019060010190808311610cff575b50505050509050919050565b600660003373ffffffffffffffffffffffffffffffffffffffff1673ffffffffffffffffffffffffffffffffffffffff16815260200190815260200160002060009054906101000a900460ff161515610de0576040517f08c379a000000000000000000000000000000000000000000000000000000000815260040180806020018281038252601c8152602001807f4572726f723a20556e617070726f766564206d73672e73656e6465720000000081525060200191505060405180910390fd5b81816002600086600019166000191681526020019081526020016000209190610e0a929190611f98565b50505050565b600060016000836000191660001916815260200190815260200160002054600190049050919050565b6000600560008360001916600019168152602001908152602001600020805490509050919050565b6000600360008360001916600019168152602001908152602001600020805490509050919050565b600660003373ffffffffffffffffffffffffffffffffffffffff1673ffffffffffffffffffffffffffffffffffffffff16815260200190815260200160002060009054906101000a900460ff161515610f4a576040517f08c379a000000000000000000000000000000000000000000000000000000000815260040180806020018281038252601c8152602001807f4572726f723a20556e617070726f766564206d73672e73656e6465720000000081525060200191505060405180910390fd5b8060016000846000191660001916815260200190815260200160002081600019169055505050565b600660003373ffffffffffffffffffffffffffffffffffffffff1673ffffffffffffffffffffffffffffffffffffffff16815260200190815260200160002060009054906101000a900460ff161515611033576040517f08c379a000000000000000000000000000000000000000000000000000000000815260040180806020018281038252601c8152602001807f4572726f723a20556e617070726f766564206d73672e73656e6465720000000081525060200191505060405180910390fd5b8060010260016000846000191660001916815260200190815260200160002081600019169055505050565b600660003373ffffffffffffffffffffffffffffffffffffffff1673ffffffffffffffffffffffffffffffffffffffff16815260200190815260200160002060009054906101000a900460ff16151561111f576040517f08c379a000000000000000000000000000000000000000000000000000000000815260040180806020018281038252601c8152602001807f4572726f723a20556e617070726f766564206d73672e73656e6465720000000081525060200191505060405180910390fd5b81816003600086600019166000191681526020019081526020016000209190611149929190612018565b50505050565b60606005600083600019166000191681526020019081526020016000208054806020026020016040519081016040528092919081815260200182805480156111ec57602002820191906000526020600020905b8160009054906101000a900473ffffffffffffffffffffffffffffffffffffffff1673ffffffffffffffffffffffffffffffffffffffff16815260200190600101908083116111a2575b50505050509050919050565b60006003600084600019166000191681526020019081526020016000208281548110151561122257fe5b9060005260206000200154905092915050565b600660003373ffffffffffffffffffffffffffffffffffffffff1673ffffffffffffffffffffffffffffffffffffffff16815260200190815260200160002060009054906101000a900460ff1615156112f6576040517f08c379a000000000000000000000000000000000000000000000000000000000815260040180806020018281038252601c8152602001807f4572726f723a20556e617070726f766564206d73672e73656e6465720000000081525060200191505060405180910390fd5b81816002600086600019166000191681526020019081526020016000209190611320929190611f98565b50505050565b600660003373ffffffffffffffffffffffffffffffffffffffff1673ffffffffffffffffffffffffffffffffffffffff16815260200190815260200160002060009054906101000a900460ff1615156113e7576040517f08c379a000000000000000000000000000000000000000000000000000000000815260040180806020018281038252601c8152602001807f4572726f723a20556e617070726f766564206d73672e73656e6465720000000081525060200191505060405180910390fd5b806005600085600019166000191681526020019081526020016000208381548110151561141057fe5b9060005260206000200160006101000a81548173ffffffffffffffffffffffffffffffffffffffff021916908373ffffffffffffffffffffffffffffffffffffffff160217905550505050565b6003600083600019166000191681526020019081526020016000208190806001815401808255809150509060018203906000526020600020016000909192909190915090600019169055505050565b6000809054906101000a900473ffffffffffffffffffffffffffffffffffffffff1681565b606060036000836000191660001916815260200190815260200160002080548060200260200160405190810160405280929190818152602001828054801561153c57602002820191906000526020600020905b81546000191681526020019060010190808311611524575b50505050509050919050565b60606002600083600019166000191681526020019081526020016000208054600181600116156101000203166002900480601f0160208091040260200160405190810160405280929190818152602001828054600181600116156101000203166002900480156115f95780601f106115ce576101008083540402835291602001916115f9565b820191906000526020600020905b8154815290600101906020018083116115dc57829003601f168201915b50505050509050919050565b6000600460008360001916600019168152602001908152602001600020805490509050919050565b60006004600084600019166000191681526020019081526020016000208281548110151561165757fe5b9060005260206000200154905092915050565b6000809054906101000a900473ffffffffffffffffffffffffffffffffffffffff1673ffffffffffffffffffffffffffffffffffffffff163373ffffffffffffffffffffffffffffffffffffffff1614151561172e576040517f08c379a00000000000000000000000000000000000000000000000000000000081526004018080602001828103825260178152602001807f4572726f723a204f6e6c79204f776e6572204572726f7200000000000000000081525060200191505060405180910390fd5b600073ffffffffffffffffffffffffffffffffffffffff168273ffffffffffffffffffffffffffffffffffffffff16141515156117f9576040517f08c379a00000000000000000000000000000000000000000000000000000000081526004018080602001828103825260328152602001807f4572726f723a204164647265737320302063616e6e6f7420626520736574206181526020017f732073746f7261676520636f6e7472616374000000000000000000000000000081525060400191505060405180910390fd5b80600660008473ffffffffffffffffffffffffffffffffffffffff1673ffffffffffffffffffffffffffffffffffffffff16815260200190815260200160002060006101000a81548160ff0219169083151502179055508173ffffffffffffffffffffffffffffffffffffffff167fc139d49f05d574c44ade2e84d6e5ddbab8d65a476d7244af01a64b247788c29782604051808215151515815260200191505060405180910390a25050565b600660003373ffffffffffffffffffffffffffffffffffffffff1673ffffffffffffffffffffffffffffffffffffffff16815260200190815260200160002060009054906101000a900460ff161515611967576040517f08c379a000000000000000000000000000000000000000000000000000000000815260040180806020018281038252601c8152602001807f4572726f723a20556e617070726f766564206d73672e73656e6465720000000081525060200191505060405180910390fd5b806003600085600019166000191681526020019081526020016000208381548110151561199057fe5b906000526020600020018160001916905550505050565b6000600160008360001916600019168152602001908152602001600020549050919050565b600660003373ffffffffffffffffffffffffffffffffffffffff1673ffffffffffffffffffffffffffffffffffffffff16815260200190815260200160002060009054906101000a900460ff161515611a8d576040517f08c379a000000000000000000000000000000000000000000000000000000000815260040180806020018281038252601c8152602001807f4572726f723a20556e617070726f766564206d73672e73656e6465720000000081525060200191505060405180910390fd5b81816004600086600019166000191681526020019081526020016000209190611ab792919061206f565b50505050565b60606002600083600019166000191681526020019081526020016000208054600181600116156101000203166002900480601f016020809104026020016040519081016040528092919081815260200182805460018160011615610100020316600290048015611b6e5780601f10611b4357610100808354040283529160200191611b6e565b820191906000526020600020905b815481529060010190602001808311611b5157829003601f168201915b50505050509050919050565b6005600083600019166000191681526020019081526020016000208190806001815401808255809150509060018203906000526020600020016000909192909190916101000a81548173ffffffffffffffffffffffffffffffffffffffff021916908373ffffffffffffffffffffffffffffffffffffffff160217905550505050565b600060056000846000191660001916815260200190815260200160002082815481101515611c2757fe5b9060005260206000200160009054906101000a900473ffffffffffffffffffffffffffffffffffffffff16905092915050565b600660003373ffffffffffffffffffffffffffffffffffffffff1673ffffffffffffffffffffffffffffffffffffffff16815260200190815260200160002060009054906101000a900460ff161515611d1b576040517f08c379a000000000000000000000000000000000000000000000000000000000815260040180806020018281038252601c8152602001807f4572726f723a20556e617070726f766564206d73672e73656e6465720000000081525060200191505060405180910390fd5b81816005600086600019166000191681526020019081526020016000209190611d459291906120bc565b50505050565b6000809054906101000a900473ffffffffffffffffffffffffffffffffffffffff1673ffffffffffffffffffffffffffffffffffffffff163373ffffffffffffffffffffffffffffffffffffffff16141515611e0f576040517f08c379a00000000000000000000000000000000000000000000000000000000081526004018080602001828103825260178152602001807f4572726f723a204f6e6c79204f776e6572204572726f7200000000000000000081525060200191505060405180910390fd5b600073ffffffffffffffffffffffffffffffffffffffff168173ffffffffffffffffffffffffffffffffffffffff1614151515611eda576040517f08c379a00000000000000000000000000000000000000000000000000000000081526004018080602001828103825260248152602001807f4572726f723a20526563697069656e742063616e6e6f7420626520616464726581526020017f737320300000000000000000000000000000000000000000000000000000000081525060400191505060405180910390fd5b8073ffffffffffffffffffffffffffffffffffffffff166000809054906101000a900473ffffffffffffffffffffffffffffffffffffffff1673ffffffffffffffffffffffffffffffffffffffff167f8be0079c531659141344cd1fd0a4f28419497f9722a3daafe3b4186f6b6457e060405160405180910390a3806000806101000a81548173ffffffffffffffffffffffffffffffffffffffff021916908373ffffffffffffffffffffffffffffffffffffffff16021790555050565b828054600181600116156101000203166002900490600052602060002090601f016020900481019282601f10611fd957803560ff1916838001178555612007565b82800160010185558215612007579182015b82811115612006578235825591602001919060010190611feb565b5b509050612014919061215c565b5090565b82805482825590600052602060002090810192821561205e579160200282015b8281111561205d57823560001916829060001916905591602001919060010190612038565b5b50905061206b9190612181565b5090565b8280548282559060005260206000209081019282156120ab579160200282015b828111156120aa57823582559160200191906001019061208f565b5b5090506120b891906121a6565b5090565b82805482825590600052602060002090810192821561214b579160200282015b8281111561214a57823573ffffffffffffffffffffffffffffffffffffffff168260006101000a81548173ffffffffffffffffffffffffffffffffffffffff021916908373ffffffffffffffffffffffffffffffffffffffff160217905550916020019190600101906120dc565b5b50905061215891906121cb565b5090565b61217e91905b8082111561217a576000816000905550600101612162565b5090565b90565b6121a391905b8082111561219f576000816000905550600101612187565b5090565b90565b6121c891905b808211156121c45760008160009055506001016121ac565b5090565b90565b61220b91905b8082111561220757600081816101000a81549073ffffffffffffffffffffffffffffffffffffffff0219169055506001016121d1565b5090565b905600a165627a7a72305820c5c36d9363be387b7472f05749660ae48a004132a40e52eeb6ce209de11cfa150029",
  "source": "pragma solidity ^0.4.24;\n\nimport \"./DatabaseInterface.sol\";\nimport \"../../lib/ownership/Ownable.sol\";\n\ncontract Database is Ownable, DatabaseInterface {\n\tevent StorageModified(address indexed contractAddress, bool allowed);\n\n\tmapping (bytes32 => bytes32) data_bytes32;\n\tmapping (bytes32 => bytes) data_bytes;\n\tmapping (bytes32 => bytes32[]) data_bytesArray;\n\tmapping (bytes32 => int[]) data_intArray;\n\tmapping (bytes32 => address[]) data_addressArray;\n\tmapping (address => bool) allowed;\n\n\tconstructor() public {\n\n\t}\n\n\tmodifier storageOnly {\n\t\trequire(allowed[msg.sender],\"Error: Unapproved msg.sender\");\n\t\t_;\n\t}\n\n\tfunction setStorageContract(address _storageContract, bool _allowed) public onlyOwner {\n\t\trequire(_storageContract != address(0),\"Error: Address 0 cannot be set as storage contract\");\n\t\tallowed[_storageContract] = _allowed;\n\t\temit StorageModified(_storageContract, _allowed);\n\t}\n\n\t/*** Bytes32 ***/\n\tfunction getBytes32(bytes32 key) external view returns(bytes32) {\n\t\treturn data_bytes32[key];\n\t}\n\n\tfunction setBytes32(bytes32 key, bytes32 value) external storageOnly  {\n\t\tdata_bytes32[key] = value;\n\t}\n\n\t/*** Number **/\n\tfunction getNumber(bytes32 key) external view returns(uint256) {\n\t\treturn uint256(data_bytes32[key]);\n\t}\n\n\tfunction setNumber(bytes32 key, uint256 value) external storageOnly {\n\t\tdata_bytes32[key] = bytes32(value);\n\t}\n\n\t/*** Bytes ***/\n\tfunction getBytes(bytes32 key) external view returns(bytes) {\n\t\treturn data_bytes[key];\n\t}\n\n\tfunction setBytes(bytes32 key, bytes value) external storageOnly {\n\t\tdata_bytes[key] = value;\n\t}\n\n\t/*** String ***/\n\tfunction getString(bytes32 key) external view returns(string) {\n\t\treturn string(data_bytes[key]);\n\t}\n\n\tfunction setString(bytes32 key, string value) external storageOnly {\n\t\tdata_bytes[key] = bytes(value);\n\t}\n\n\t/*** Bytes Array ***/\n\tfunction getBytesArray(bytes32 key) external view returns (bytes32[]) {\n\t\treturn data_bytesArray[key];\n\t}\n\n\tfunction getBytesArrayIndex(bytes32 key, uint256 index) external view returns (bytes32) {\n\t\treturn data_bytesArray[key][index];\n\t}\n\n\tfunction getBytesArrayLength(bytes32 key) external view returns (uint256) {\n\t\treturn data_bytesArray[key].length;\n\t}\n\n\tfunction pushBytesArray(bytes32 key, bytes32 value) external {\n\t\tdata_bytesArray[key].push(value);\n\t}\n\n\tfunction setBytesArrayIndex(bytes32 key, uint256 index, bytes32 value) external storageOnly {\n\t\tdata_bytesArray[key][index] = value;\n\t}\n\n\tfunction setBytesArray(bytes32 key, bytes32[] value) external storageOnly {\n\t\tdata_bytesArray[key] = value;\n\t}\n\n\t/*** Int Array ***/\n\tfunction getIntArray(bytes32 key) external view returns (int[]) {\n\t\treturn data_intArray[key];\n\t}\n\n\tfunction getIntArrayIndex(bytes32 key, uint256 index) external view returns (int) {\n\t\treturn data_intArray[key][index];\n\t}\n\n\tfunction getIntArrayLength(bytes32 key) external view returns (uint256) {\n\t\treturn data_intArray[key].length;\n\t}\n\n\tfunction pushIntArray(bytes32 key, int value) external {\n\t\tdata_intArray[key].push(value);\n\t}\n\n\tfunction setIntArrayIndex(bytes32 key, uint256 index, int value) external storageOnly {\n\t\tdata_intArray[key][index] = value;\n\t}\n\n\tfunction setIntArray(bytes32 key, int[] value) external storageOnly {\n\t\tdata_intArray[key] = value;\n\t}\n\n\t/*** Address Array ***/\n\tfunction getAddressArray(bytes32 key) external view returns (address[]) {\n\t\treturn data_addressArray[key];\n\t}\n\n\tfunction getAddressArrayIndex(bytes32 key, uint256 index) external view returns (address) {\n\t\treturn data_addressArray[key][index];\n\t}\n\n\tfunction getAddressArrayLength(bytes32 key) external view returns (uint256) {\n\t\treturn data_addressArray[key].length;\n\t}\n\n\tfunction pushAddressArray(bytes32 key, address value) external {\n\t\tdata_addressArray[key].push(value);\n\t}\n\n\tfunction setAddressArrayIndex(bytes32 key, uint256 index, address value) external storageOnly {\n\t\tdata_addressArray[key][index] = value;\n\t}\n\n\tfunction setAddressArray(bytes32 key, address[] value) external storageOnly {\n\t\tdata_addressArray[key] = value;\n\t}\n}",
  "sourcePath": "/home/max/zprojects/zap-ethereum-api/contracts/platform/database/Database.sol",
  "compiler": {
    "name": "solc",
    "version": "0.4.24+commit.e67f0147.Emscripten.clang"
  },
  "schemaVersion": "2.0.1",
  "updatedAt": "2018-09-12T20:31:41.753Z"
}