{
  "contractName": "DispatchStorage",
  "abi": [
    {
      "constant": true,
      "inputs": [],
      "name": "db",
      "outputs": [
        {
          "name": "",
          "type": "address"
        }
      ],
      "payable": false,
      "stateMutability": "view",
      "type": "function"
    },
    {
      "constant": true,
      "inputs": [],
      "name": "owner",
      "outputs": [
        {
          "name": "",
          "type": "address"
        }
      ],
      "payable": false,
      "stateMutability": "view",
      "type": "function"
    },
    {
      "constant": false,
      "inputs": [
        {
          "name": "newOwner",
          "type": "address"
        }
      ],
      "name": "transferOwnership",
      "outputs": [],
      "payable": false,
      "stateMutability": "nonpayable",
      "type": "function"
    },
    {
      "inputs": [
        {
          "name": "database",
          "type": "address"
        }
      ],
      "payable": false,
      "stateMutability": "nonpayable",
      "type": "constructor"
    },
    {
      "anonymous": false,
      "inputs": [
        {
          "indexed": true,
          "name": "previousOwner",
          "type": "address"
        },
        {
          "indexed": true,
          "name": "newOwner",
          "type": "address"
        }
      ],
      "name": "OwnershipTransferred",
      "type": "event"
    },
    {
      "constant": true,
      "inputs": [
        {
          "name": "id",
          "type": "uint256"
        }
      ],
      "name": "getProvider",
      "outputs": [
        {
          "name": "",
          "type": "address"
        }
      ],
      "payable": false,
      "stateMutability": "view",
      "type": "function"
    },
    {
      "constant": true,
      "inputs": [
        {
          "name": "id",
          "type": "uint256"
        }
      ],
      "name": "getSubscriber",
      "outputs": [
        {
          "name": "",
          "type": "address"
        }
      ],
      "payable": false,
      "stateMutability": "view",
      "type": "function"
    },
    {
      "constant": true,
      "inputs": [
        {
          "name": "id",
          "type": "uint256"
        }
      ],
      "name": "getEndpoint",
      "outputs": [
        {
          "name": "",
          "type": "bytes32"
        }
      ],
      "payable": false,
      "stateMutability": "view",
      "type": "function"
    },
    {
      "constant": true,
      "inputs": [
        {
          "name": "id",
          "type": "uint256"
        }
      ],
      "name": "getStatus",
      "outputs": [
        {
          "name": "",
          "type": "uint8"
        }
      ],
      "payable": false,
      "stateMutability": "view",
      "type": "function"
    },
    {
      "constant": true,
      "inputs": [
        {
          "name": "id",
          "type": "uint256"
        }
      ],
      "name": "getUserQuery",
      "outputs": [
        {
          "name": "",
          "type": "string"
        }
      ],
      "payable": false,
      "stateMutability": "view",
      "type": "function"
    },
    {
      "constant": true,
      "inputs": [
        {
          "name": "id",
          "type": "uint256"
        }
      ],
      "name": "getSubscriberOnchain",
      "outputs": [
        {
          "name": "",
          "type": "bool"
        }
      ],
      "payable": false,
      "stateMutability": "view",
      "type": "function"
    },
    {
      "constant": false,
      "inputs": [
        {
          "name": "id",
          "type": "uint256"
        },
        {
          "name": "provider",
          "type": "address"
        },
        {
          "name": "subscriber",
          "type": "address"
        },
        {
          "name": "endpoint",
          "type": "bytes32"
        },
        {
          "name": "userQuery",
          "type": "string"
        },
        {
          "name": "onchainSubscriber",
          "type": "bool"
        }
      ],
      "name": "createQuery",
      "outputs": [],
      "payable": false,
      "stateMutability": "nonpayable",
      "type": "function"
    },
    {
      "constant": false,
      "inputs": [
        {
          "name": "id",
          "type": "uint256"
        }
      ],
      "name": "setFulfilled",
      "outputs": [],
      "payable": false,
      "stateMutability": "nonpayable",
      "type": "function"
    }
  ],
  "bytecode": "0x608060405234801561001057600080fd5b50604051602080611e0783398101806040528101908080519060200190929190505050336000806101000a81548173ffffffffffffffffffffffffffffffffffffffff021916908373ffffffffffffffffffffffffffffffffffffffff16021790555080600160006101000a81548173ffffffffffffffffffffffffffffffffffffffff021916908373ffffffffffffffffffffffffffffffffffffffff16021790555050611d43806100c46000396000f3006080604052600436106100af576000357c0100000000000000000000000000000000000000000000000000000000900463ffffffff16806325df1e77146100b457806336f406cd1461012157806337a8c560146101c05780634d655aff146102055780635c42d0791461025c5780635c622a0e146102c95780636e447710146103185780638da5cb5b14610345578063937bbc4a1461039c578063dc7317c9146103e5578063f2fde38b1461048b575b600080fd5b3480156100c057600080fd5b506100df600480360381019080803590602001909291905050506104ce565b604051808273ffffffffffffffffffffffffffffffffffffffff1673ffffffffffffffffffffffffffffffffffffffff16815260200191505060405180910390f35b34801561012d57600080fd5b506101be60048036038101908080359060200190929190803573ffffffffffffffffffffffffffffffffffffffff169060200190929190803573ffffffffffffffffffffffffffffffffffffffff169060200190929190803560001916906020019092919080359060200190820180359060200191909192939192939080351515906020019092919050505061067c565b005b3480156101cc57600080fd5b506101eb600480360381019080803590602001909291905050506110a7565b604051808215151515815260200191505060405180910390f35b34801561021157600080fd5b5061021a61126b565b604051808273ffffffffffffffffffffffffffffffffffffffff1673ffffffffffffffffffffffffffffffffffffffff16815260200191505060405180910390f35b34801561026857600080fd5b5061028760048036038101908080359060200190929190505050611291565b604051808273ffffffffffffffffffffffffffffffffffffffff1673ffffffffffffffffffffffffffffffffffffffff16815260200191505060405180910390f35b3480156102d557600080fd5b506102f46004803603810190808035906020019092919050505061143f565b6040518082600181111561030457fe5b60ff16815260200191505060405180910390f35b34801561032457600080fd5b50610343600480360381019080803590602001909291905050506115f8565b005b34801561035157600080fd5b5061035a6117eb565b604051808273ffffffffffffffffffffffffffffffffffffffff1673ffffffffffffffffffffffffffffffffffffffff16815260200191505060405180910390f35b3480156103a857600080fd5b506103c760048036038101908080359060200190929190505050611810565b60405180826000191660001916815260200191505060405180910390f35b3480156103f157600080fd5b50610410600480360381019080803590602001909291905050506119be565b6040518080602001828103825283818151815260200191508051906020019080838360005b83811015610450578082015181840152602081019050610435565b50505050905090810190601f16801561047d5780820380516001836020036101000a031916815260200191505b509250505060405180910390f35b34801561049757600080fd5b506104cc600480360381019080803573ffffffffffffffffffffffffffffffffffffffff169060200190929190505050611bc2565b005b6000600160009054906101000a900473ffffffffffffffffffffffffffffffffffffffff1673ffffffffffffffffffffffffffffffffffffffff16632ecb0d648360405160200180807f7175657269657300000000000000000000000000000000000000000000000000815250600701828152602001807f7375627363726962657200000000000000000000000000000000000000000000815250600a019150506040516020818303038152906040526040518082805190602001908083835b6020831015156105b3578051825260208201915060208101905060208303925061058e565b6001836020036101000a03801982511681845116808217855250505050505090500191505060405180910390206040518263ffffffff167c0100000000000000000000000000000000000000000000000000000000028152600401808260001916600019168152602001915050602060405180830381600087803b15801561063a57600080fd5b505af115801561064e573d6000803e3d6000fd5b505050506040513d602081101561066457600080fd5b81019080805190602001909291905050509050919050565b6000809054906101000a900473ffffffffffffffffffffffffffffffffffffffff1673ffffffffffffffffffffffffffffffffffffffff163373ffffffffffffffffffffffffffffffffffffffff161415156106d757600080fd5b600160009054906101000a900473ffffffffffffffffffffffffffffffffffffffff1673ffffffffffffffffffffffffffffffffffffffff166354c552db8860405160200180807f7175657269657300000000000000000000000000000000000000000000000000815250600701828152602001807f70726f76696465720000000000000000000000000000000000000000000000008152506008019150506040516020818303038152906040526040518082805190602001908083835b6020831015156107ba5780518252602082019150602081019050602083039250610795565b6001836020036101000a03801982511681845116808217855250505050505090500191505060405180910390208873ffffffffffffffffffffffffffffffffffffffff166040518363ffffffff167c010000000000000000000000000000000000000000000000000000000002815260040180836000191660001916815260200182815260200192505050600060405180830381600087803b15801561085f57600080fd5b505af1158015610873573d6000803e3d6000fd5b50505050600160009054906101000a900473ffffffffffffffffffffffffffffffffffffffff1673ffffffffffffffffffffffffffffffffffffffff166354c552db8860405160200180807f7175657269657300000000000000000000000000000000000000000000000000815250600701828152602001807f7375627363726962657200000000000000000000000000000000000000000000815250600a019150506040516020818303038152906040526040518082805190602001908083835b60208310151561095a5780518252602082019150602081019050602083039250610935565b6001836020036101000a03801982511681845116808217855250505050505090500191505060405180910390208773ffffffffffffffffffffffffffffffffffffffff166040518363ffffffff167c010000000000000000000000000000000000000000000000000000000002815260040180836000191660001916815260200182815260200192505050600060405180830381600087803b1580156109ff57600080fd5b505af1158015610a13573d6000803e3d6000fd5b50505050600160009054906101000a900473ffffffffffffffffffffffffffffffffffffffff1673ffffffffffffffffffffffffffffffffffffffff16634e91db088860405160200180807f7175657269657300000000000000000000000000000000000000000000000000815250600701828152602001807f656e64706f696e740000000000000000000000000000000000000000000000008152506008019150506040516020818303038152906040526040518082805190602001908083835b602083101515610afa5780518252602082019150602081019050602083039250610ad5565b6001836020036101000a0380198251168184511680821785525050505050509050019150506040518091039020866040518363ffffffff167c0100000000000000000000000000000000000000000000000000000000028152600401808360001916600019168152602001826000191660001916815260200192505050600060405180830381600087803b158015610b9157600080fd5b505af1158015610ba5573d6000803e3d6000fd5b50505050600160009054906101000a900473ffffffffffffffffffffffffffffffffffffffff1673ffffffffffffffffffffffffffffffffffffffff16636e8995508860405160200180807f7175657269657300000000000000000000000000000000000000000000000000815250600701828152602001807f75736572517565727900000000000000000000000000000000000000000000008152506009019150506040516020818303038152906040526040518082805190602001908083835b602083101515610c8c5780518252602082019150602081019050602083039250610c67565b6001836020036101000a038019825116818451168082178552505050505050905001915050604051809103902085856040518463ffffffff167c01000000000000000000000000000000000000000000000000000000000281526004018084600019166000191681526020018060200182810382528484828181526020019250808284378201915050945050505050600060405180830381600087803b158015610d3557600080fd5b505af1158015610d49573d6000803e3d6000fd5b50505050600160009054906101000a900473ffffffffffffffffffffffffffffffffffffffff1673ffffffffffffffffffffffffffffffffffffffff166354c552db8860405160200180807f7175657269657300000000000000000000000000000000000000000000000000815250600701828152602001807f73746174757300000000000000000000000000000000000000000000000000008152506006019150506040516020818303038152906040526040518082805190602001908083835b602083101515610e305780518252602082019150602081019050602083039250610e0b565b6001836020036101000a038019825116818451168082178552505050505050905001915050604051809103902060006001811115610e6a57fe5b6040518363ffffffff167c010000000000000000000000000000000000000000000000000000000002815260040180836000191660001916815260200182815260200192505050600060405180830381600087803b158015610ecb57600080fd5b505af1158015610edf573d6000803e3d6000fd5b50505050600160009054906101000a900473ffffffffffffffffffffffffffffffffffffffff1673ffffffffffffffffffffffffffffffffffffffff166354c552db60405160200180807f7175657269657300000000000000000000000000000000000000000000000000815250600701807f6964000000000000000000000000000000000000000000000000000000000000815250600201807f6f6e636861696e5375627363726962657200000000000000000000000000000081525060110190506040516020818303038152906040526040518082805190602001908083835b602083101515610fe65780518252602082019150602081019050602083039250610fc1565b6001836020036101000a03801982511681845116808217855250505050505090500191505060405180910390208361101f576000611022565b60015b6040518363ffffffff167c01000000000000000000000000000000000000000000000000000000000281526004018083600019166000191681526020018260ff16815260200192505050600060405180830381600087803b15801561108657600080fd5b505af115801561109a573d6000803e3d6000fd5b5050505050505050505050565b600080600160009054906101000a900473ffffffffffffffffffffffffffffffffffffffff1673ffffffffffffffffffffffffffffffffffffffff16632ecb0d648460405160200180807f7175657269657300000000000000000000000000000000000000000000000000815250600701828152602001807f6f6e636861696e537562736372696265720000000000000000000000000000008152506011019150506040516020818303038152906040526040518082805190602001908083835b60208310151561118d5780518252602082019150602081019050602083039250611168565b6001836020036101000a03801982511681845116808217855250505050505090500191505060405180910390206040518263ffffffff167c0100000000000000000000000000000000000000000000000000000000028152600401808260001916600019168152602001915050602060405180830381600087803b15801561121457600080fd5b505af1158015611228573d6000803e3d6000fd5b505050506040513d602081101561123e57600080fd5b8101908080519060200190929190505050905060018114611260576000611263565b60015b915050919050565b600160009054906101000a900473ffffffffffffffffffffffffffffffffffffffff1681565b6000600160009054906101000a900473ffffffffffffffffffffffffffffffffffffffff1673ffffffffffffffffffffffffffffffffffffffff16632ecb0d648360405160200180807f7175657269657300000000000000000000000000000000000000000000000000815250600701828152602001807f70726f76696465720000000000000000000000000000000000000000000000008152506008019150506040516020818303038152906040526040518082805190602001908083835b6020831015156113765780518252602082019150602081019050602083039250611351565b6001836020036101000a03801982511681845116808217855250505050505090500191505060405180910390206040518263ffffffff167c0100000000000000000000000000000000000000000000000000000000028152600401808260001916600019168152602001915050602060405180830381600087803b1580156113fd57600080fd5b505af1158015611411573d6000803e3d6000fd5b505050506040513d602081101561142757600080fd5b81019080805190602001909291905050509050919050565b6000600160009054906101000a900473ffffffffffffffffffffffffffffffffffffffff1673ffffffffffffffffffffffffffffffffffffffff16632ecb0d648360405160200180807f7175657269657300000000000000000000000000000000000000000000000000815250600701828152602001807f73746174757300000000000000000000000000000000000000000000000000008152506006019150506040516020818303038152906040526040518082805190602001908083835b60208310151561152457805182526020820191506020810190506020830392506114ff565b6001836020036101000a03801982511681845116808217855250505050505090500191505060405180910390206040518263ffffffff167c0100000000000000000000000000000000000000000000000000000000028152600401808260001916600019168152602001915050602060405180830381600087803b1580156115ab57600080fd5b505af11580156115bf573d6000803e3d6000fd5b505050506040513d60208110156115d557600080fd5b810190808051906020019092919050505060018111156115f157fe5b9050919050565b6000809054906101000a900473ffffffffffffffffffffffffffffffffffffffff1673ffffffffffffffffffffffffffffffffffffffff163373ffffffffffffffffffffffffffffffffffffffff1614151561165357600080fd5b600160009054906101000a900473ffffffffffffffffffffffffffffffffffffffff1673ffffffffffffffffffffffffffffffffffffffff166354c552db8260405160200180807f7175657269657300000000000000000000000000000000000000000000000000815250600701828152602001807f73746174757300000000000000000000000000000000000000000000000000008152506006019150506040516020818303038152906040526040518082805190602001908083835b6020831015156117365780518252602082019150602081019050602083039250611711565b6001836020036101000a038019825116818451168082178552505050505050905001915050604051809103902060018081111561176f57fe5b6040518363ffffffff167c010000000000000000000000000000000000000000000000000000000002815260040180836000191660001916815260200182815260200192505050600060405180830381600087803b1580156117d057600080fd5b505af11580156117e4573d6000803e3d6000fd5b5050505050565b6000809054906101000a900473ffffffffffffffffffffffffffffffffffffffff1681565b6000600160009054906101000a900473ffffffffffffffffffffffffffffffffffffffff1673ffffffffffffffffffffffffffffffffffffffff1663a6ed563e8360405160200180807f7175657269657300000000000000000000000000000000000000000000000000815250600701828152602001807f656e64706f696e740000000000000000000000000000000000000000000000008152506008019150506040516020818303038152906040526040518082805190602001908083835b6020831015156118f557805182526020820191506020810190506020830392506118d0565b6001836020036101000a03801982511681845116808217855250505050505090500191505060405180910390206040518263ffffffff167c0100000000000000000000000000000000000000000000000000000000028152600401808260001916600019168152602001915050602060405180830381600087803b15801561197c57600080fd5b505af1158015611990573d6000803e3d6000fd5b505050506040513d60208110156119a657600080fd5b81019080805190602001909291905050509050919050565b6060600160009054906101000a900473ffffffffffffffffffffffffffffffffffffffff1673ffffffffffffffffffffffffffffffffffffffff1663986e791a8360405160200180807f7175657269657300000000000000000000000000000000000000000000000000815250600701828152602001807f75736572517565727900000000000000000000000000000000000000000000008152506009019150506040516020818303038152906040526040518082805190602001908083835b602083101515611aa35780518252602082019150602081019050602083039250611a7e565b6001836020036101000a03801982511681845116808217855250505050505090500191505060405180910390206040518263ffffffff167c0100000000000000000000000000000000000000000000000000000000028152600401808260001916600019168152602001915050600060405180830381600087803b158015611b2a57600080fd5b505af1158015611b3e573d6000803e3d6000fd5b505050506040513d6000823e3d601f19601f820116820180604052506020811015611b6857600080fd5b810190808051640100000000811115611b8057600080fd5b82810190506020810184811115611b9657600080fd5b8151856001820283011164010000000082111715611bb357600080fd5b50509291905050509050919050565b6000809054906101000a900473ffffffffffffffffffffffffffffffffffffffff1673ffffffffffffffffffffffffffffffffffffffff163373ffffffffffffffffffffffffffffffffffffffff16141515611c1d57600080fd5b600073ffffffffffffffffffffffffffffffffffffffff168173ffffffffffffffffffffffffffffffffffffffff1614151515611c5957600080fd5b8073ffffffffffffffffffffffffffffffffffffffff166000809054906101000a900473ffffffffffffffffffffffffffffffffffffffff1673ffffffffffffffffffffffffffffffffffffffff167f8be0079c531659141344cd1fd0a4f28419497f9722a3daafe3b4186f6b6457e060405160405180910390a3806000806101000a81548173ffffffffffffffffffffffffffffffffffffffff021916908373ffffffffffffffffffffffffffffffffffffffff160217905550505600a165627a7a7230582084cf89fd2a38cd92048a3d56bdc2f821eb4f8c0abf5ead476782a651d2807c670029",
  "source": "pragma solidity ^0.4.24;\n\nimport \"../../lib/ownership/Ownable.sol\";\nimport \"../database/DatabaseInterface.sol\";\n\ncontract DispatchStorage is Ownable {\n    DatabaseInterface public db;\n    enum Status { Pending, Fulfilled }\n\n    constructor(address database) public {\n        db = DatabaseInterface(database);\n    }\n\n    /// @dev get provider address of request\n    /// @param id request id\n    function getProvider(uint256 id) external view returns (address) {\n        return address(db.getNumber(keccak256(abi.encodePacked('queries', id, 'provider'))));\n    }\n\n    /// @dev get subscriber address of request\n    /// @param id request id\n    function getSubscriber(uint256 id) external view returns (address) {\n        return address(db.getNumber(keccak256(abi.encodePacked('queries', id, 'subscriber'))));\n    }\n\n    /// @dev get endpoint of request\n    /// @param id request id\n    function getEndpoint(uint256 id) external view returns (bytes32) {\n        return db.getBytes32(keccak256(abi.encodePacked('queries', id, 'endpoint')));\n    }\n\n    /// @dev get status of request\n    /// @param id request id\n    function getStatus(uint256 id) external view returns (Status) {\n        return Status(db.getNumber(keccak256(abi.encodePacked('queries', id, 'status'))));\n    }\n\n    /// @dev get user specified query of request\n    /// @param id request id\n    function getUserQuery(uint256 id) external view returns (string) {\n        return db.getString(keccak256(abi.encodePacked('queries', id, 'userQuery')));\n    }\n\n    /// @dev is subscriber contract or offchain \n    /// @param id request id\n    function getSubscriberOnchain(uint256 id) external view returns (bool) {\n        uint res = db.getNumber(keccak256(abi.encodePacked('queries', id, 'onchainSubscriber')));\n        return res == 1 ? true : false;\n    }\n\n\n\t/**** Set Methods ****/\n    function createQuery(\n        uint256 id,\n        address provider,\n        address subscriber,\n        bytes32 endpoint,\n        string userQuery,\n        bool onchainSubscriber\n    ) \n        external\n        onlyOwner\n    {\n        db.setNumber(keccak256(abi.encodePacked('queries', id, 'provider')), uint256(provider));\n        db.setNumber(keccak256(abi.encodePacked('queries', id, 'subscriber')), uint256(subscriber));\n        db.setBytes32(keccak256(abi.encodePacked('queries', id, 'endpoint')), endpoint);\n        db.setString(keccak256(abi.encodePacked('queries', id, 'userQuery')), userQuery);\n        db.setNumber(keccak256(abi.encodePacked('queries', id, 'status')), uint256(Status.Pending));\n        db.setNumber(keccak256(abi.encodePacked('queries', 'id', 'onchainSubscriber')), onchainSubscriber ? 1 : 0);\n    }\n\n    function setFulfilled(uint256 id) external onlyOwner {\n        db.setNumber(keccak256(abi.encodePacked('queries', id, 'status')), uint256(Status.Fulfilled));\n    }\n}\n",
  "sourcePath": "/Users/avisaven/Documents/Work/Zap/zap-ethereum-api/contracts/platform/dispatch/DispatchStorage.sol",
  "compiler": {
    "name": "solc",
    "version": "0.4.24+commit.e67f0147.Emscripten.clang"
  },
  "schemaVersion": "2.0.0",
  "updatedAt": "2018-08-07T20:31:29.319Z"
}