{
  "contractName": "Dispatch",
  "abi": [
    {
      "constant": true,
      "inputs": [],
      "name": "storageAddress",
      "outputs": [
        {
          "name": "",
          "type": "address"
        }
      ],
      "payable": false,
      "stateMutability": "view",
      "type": "function"
    },
    {
      "constant": true,
      "inputs": [],
      "name": "owner",
      "outputs": [
        {
          "name": "",
          "type": "address"
        }
      ],
      "payable": false,
      "stateMutability": "view",
      "type": "function"
    },
    {
      "constant": false,
      "inputs": [
        {
          "name": "newStorage",
          "type": "address"
        }
      ],
      "name": "setStorage",
      "outputs": [],
      "payable": false,
      "stateMutability": "nonpayable",
      "type": "function"
    },
    {
      "constant": false,
      "inputs": [],
      "name": "selfDestruct",
      "outputs": [],
      "payable": false,
      "stateMutability": "nonpayable",
      "type": "function"
    },
    {
      "constant": true,
      "inputs": [],
      "name": "bondageAddress",
      "outputs": [
        {
          "name": "",
          "type": "address"
        }
      ],
      "payable": false,
      "stateMutability": "view",
      "type": "function"
    },
    {
      "constant": false,
      "inputs": [
        {
          "name": "newOwner",
          "type": "address"
        }
      ],
      "name": "transferOwnership",
      "outputs": [],
      "payable": false,
      "stateMutability": "nonpayable",
      "type": "function"
    },
    {
      "inputs": [
        {
          "name": "_storageAddress",
          "type": "address"
        },
        {
          "name": "_bondageAddress",
          "type": "address"
        }
      ],
      "payable": false,
      "stateMutability": "nonpayable",
      "type": "constructor"
    },
    {
      "anonymous": false,
      "inputs": [
        {
          "indexed": true,
          "name": "id",
          "type": "uint256"
        },
        {
          "indexed": true,
          "name": "provider",
          "type": "address"
        },
        {
          "indexed": true,
          "name": "subscriber",
          "type": "address"
        },
        {
          "indexed": false,
          "name": "query",
          "type": "string"
        },
        {
          "indexed": false,
          "name": "endpoint",
          "type": "bytes32"
        },
        {
          "indexed": false,
          "name": "endpointParams",
          "type": "bytes32[]"
        },
        {
          "indexed": false,
          "name": "onchainSubscriber",
          "type": "bool"
        }
      ],
      "name": "Incoming",
      "type": "event"
    },
    {
      "anonymous": false,
      "inputs": [
        {
          "indexed": true,
          "name": "subscriber",
          "type": "address"
        },
        {
          "indexed": true,
          "name": "provider",
          "type": "address"
        },
        {
          "indexed": true,
          "name": "endpoint",
          "type": "bytes32"
        }
      ],
      "name": "FulfillQuery",
      "type": "event"
    },
    {
      "anonymous": false,
      "inputs": [
        {
          "indexed": true,
          "name": "id",
          "type": "uint256"
        },
        {
          "indexed": true,
          "name": "subscriber",
          "type": "address"
        },
        {
          "indexed": true,
          "name": "provider",
          "type": "address"
        },
        {
          "indexed": false,
          "name": "response",
          "type": "bytes32[]"
        }
      ],
      "name": "OffchainResponse",
      "type": "event"
    },
    {
      "anonymous": false,
      "inputs": [
        {
          "indexed": true,
          "name": "id",
          "type": "uint256"
        },
        {
          "indexed": true,
          "name": "subscriber",
          "type": "address"
        },
        {
          "indexed": true,
          "name": "provider",
          "type": "address"
        },
        {
          "indexed": false,
          "name": "response1",
          "type": "string"
        }
      ],
      "name": "OffchainResult1",
      "type": "event"
    },
    {
      "anonymous": false,
      "inputs": [
        {
          "indexed": true,
          "name": "id",
          "type": "uint256"
        },
        {
          "indexed": true,
          "name": "subscriber",
          "type": "address"
        },
        {
          "indexed": true,
          "name": "provider",
          "type": "address"
        },
        {
          "indexed": false,
          "name": "response1",
          "type": "string"
        },
        {
          "indexed": false,
          "name": "response2",
          "type": "string"
        }
      ],
      "name": "OffchainResult2",
      "type": "event"
    },
    {
      "anonymous": false,
      "inputs": [
        {
          "indexed": true,
          "name": "id",
          "type": "uint256"
        },
        {
          "indexed": true,
          "name": "subscriber",
          "type": "address"
        },
        {
          "indexed": true,
          "name": "provider",
          "type": "address"
        },
        {
          "indexed": false,
          "name": "response1",
          "type": "string"
        },
        {
          "indexed": false,
          "name": "response2",
          "type": "string"
        },
        {
          "indexed": false,
          "name": "response3",
          "type": "string"
        }
      ],
      "name": "OffchainResult3",
      "type": "event"
    },
    {
      "anonymous": false,
      "inputs": [
        {
          "indexed": true,
          "name": "id",
          "type": "uint256"
        },
        {
          "indexed": true,
          "name": "subscriber",
          "type": "address"
        },
        {
          "indexed": true,
          "name": "provider",
          "type": "address"
        },
        {
          "indexed": false,
          "name": "response1",
          "type": "string"
        },
        {
          "indexed": false,
          "name": "response2",
          "type": "string"
        },
        {
          "indexed": false,
          "name": "response3",
          "type": "string"
        },
        {
          "indexed": false,
          "name": "response4",
          "type": "string"
        }
      ],
      "name": "OffchainResult4",
      "type": "event"
    },
    {
      "anonymous": false,
      "inputs": [
        {
          "indexed": true,
          "name": "previousStorage",
          "type": "address"
        },
        {
          "indexed": true,
          "name": "newStorage",
          "type": "address"
        }
      ],
      "name": "StorageTransferred",
      "type": "event"
    },
    {
      "anonymous": false,
      "inputs": [
        {
          "indexed": true,
          "name": "previousOwner",
          "type": "address"
        },
        {
          "indexed": true,
          "name": "newOwner",
          "type": "address"
        }
      ],
      "name": "OwnershipTransferred",
      "type": "event"
    },
    {
      "constant": false,
      "inputs": [
        {
          "name": "_bondageAddress",
          "type": "address"
        }
      ],
      "name": "setBondage",
      "outputs": [],
      "payable": false,
      "stateMutability": "nonpayable",
      "type": "function"
    },
    {
      "constant": false,
      "inputs": [
        {
          "name": "provider",
          "type": "address"
        },
        {
          "name": "userQuery",
          "type": "string"
        },
        {
          "name": "endpoint",
          "type": "bytes32"
        },
        {
          "name": "endpointParams",
          "type": "bytes32[]"
        },
        {
          "name": "onchainProvider",
          "type": "bool"
        },
        {
          "name": "onchainSubscriber",
          "type": "bool"
        }
      ],
      "name": "query",
      "outputs": [
        {
          "name": "id",
          "type": "uint256"
        }
      ],
      "payable": false,
      "stateMutability": "nonpayable",
      "type": "function"
    },
    {
      "constant": false,
      "inputs": [
        {
          "name": "id",
          "type": "uint256"
        },
        {
          "name": "response",
          "type": "bytes32[]"
        }
      ],
      "name": "respondBytes32Array",
      "outputs": [
        {
          "name": "",
          "type": "bool"
        }
      ],
      "payable": false,
      "stateMutability": "nonpayable",
      "type": "function"
    },
    {
      "constant": false,
      "inputs": [
        {
          "name": "id",
          "type": "uint256"
        },
        {
          "name": "response",
          "type": "string"
        }
      ],
      "name": "respond1",
      "outputs": [
        {
          "name": "",
          "type": "bool"
        }
      ],
      "payable": false,
      "stateMutability": "nonpayable",
      "type": "function"
    },
    {
      "constant": false,
      "inputs": [
        {
          "name": "id",
          "type": "uint256"
        },
        {
          "name": "response1",
          "type": "string"
        },
        {
          "name": "response2",
          "type": "string"
        }
      ],
      "name": "respond2",
      "outputs": [
        {
          "name": "",
          "type": "bool"
        }
      ],
      "payable": false,
      "stateMutability": "nonpayable",
      "type": "function"
    },
    {
      "constant": false,
      "inputs": [
        {
          "name": "id",
          "type": "uint256"
        },
        {
          "name": "response1",
          "type": "string"
        },
        {
          "name": "response2",
          "type": "string"
        },
        {
          "name": "response3",
          "type": "string"
        }
      ],
      "name": "respond3",
      "outputs": [
        {
          "name": "",
          "type": "bool"
        }
      ],
      "payable": false,
      "stateMutability": "nonpayable",
      "type": "function"
    },
    {
      "constant": false,
      "inputs": [
        {
          "name": "id",
          "type": "uint256"
        },
        {
          "name": "response1",
          "type": "string"
        },
        {
          "name": "response2",
          "type": "string"
        },
        {
          "name": "response3",
          "type": "string"
        },
        {
          "name": "response4",
          "type": "string"
        }
      ],
      "name": "respond4",
      "outputs": [
        {
          "name": "",
          "type": "bool"
        }
      ],
      "payable": false,
      "stateMutability": "nonpayable",
      "type": "function"
    }
  ],
  "bytecode": "0x608060405234801561001057600080fd5b506040516040806133a58339810180604052810190808051906020019092919080519060200190929190505050336000806101000a81548173ffffffffffffffffffffffffffffffffffffffff021916908373ffffffffffffffffffffffffffffffffffffffff16021790555081600160006101000a81548173ffffffffffffffffffffffffffffffffffffffff021916908373ffffffffffffffffffffffffffffffffffffffff16021790555080600460006101000a81548173ffffffffffffffffffffffffffffffffffffffff021916908373ffffffffffffffffffffffffffffffffffffffff16021790555081600260006101000a81548173ffffffffffffffffffffffffffffffffffffffff021916908373ffffffffffffffffffffffffffffffffffffffff16021790555080600360006101000a81548173ffffffffffffffffffffffffffffffffffffffff021916908373ffffffffffffffffffffffffffffffffffffffff1602179055505050613213806101926000396000f3006080604052600436106100c5576000357c0100000000000000000000000000000000000000000000000000000000900463ffffffff1680630cbe69a1146100ca5780633485d34c146101275780633b90dfa8146101cc5780636843581c1461025957806385aa92a7146102b65780638da5cb5b1461030d5780639137c1a7146103645780639cb8a26a146103a75780639f77d600146103be578063b50cffc31461046b578063e00dbb41146104ae578063f2fde38b14610505578063fedea28814610548575b600080fd5b3480156100d657600080fd5b5061010d600480360381019080803590602001909291908035906020019082018035906020019190919293919293905050506105bd565b604051808215151515815260200191505060405180910390f35b34801561013357600080fd5b506101b260048036038101908080359060200190929190803590602001908201803590602001919091929391929390803590602001908201803590602001919091929391929390803590602001908201803590602001919091929391929390803590602001908201803590602001919091929391929390505050610a7c565b604051808215151515815260200191505060405180910390f35b3480156101d857600080fd5b5061023f60048036038101908080359060200190929190803590602001908201803590602001919091929391929390803590602001908201803590602001919091929391929390803590602001908201803590602001919091929391929390505050611007565b604051808215151515815260200191505060405180910390f35b34801561026557600080fd5b5061029c6004803603810190808035906020019092919080359060200190820180359060200191909192939192939050505061154c565b604051808215151515815260200191505060405180910390f35b3480156102c257600080fd5b506102cb611a05565b604051808273ffffffffffffffffffffffffffffffffffffffff1673ffffffffffffffffffffffffffffffffffffffff16815260200191505060405180910390f35b34801561031957600080fd5b50610322611a2b565b604051808273ffffffffffffffffffffffffffffffffffffffff1673ffffffffffffffffffffffffffffffffffffffff16815260200191505060405180910390f35b34801561037057600080fd5b506103a5600480360381019080803573ffffffffffffffffffffffffffffffffffffffff169060200190929190505050611a50565b005b3480156103b357600080fd5b506103bc611d1d565b005b3480156103ca57600080fd5b50610455600480360381019080803573ffffffffffffffffffffffffffffffffffffffff1690602001909291908035906020019082018035906020019190919293919293908035600019169060200190929190803590602001908201803590602001919091929391929390803515159060200190929190803515159060200190929190505050611db2565b6040518082815260200191505060405180910390f35b34801561047757600080fd5b506104ac600480360381019080803573ffffffffffffffffffffffffffffffffffffffff169060200190929190505050612514565b005b3480156104ba57600080fd5b506104c36125b3565b604051808273ffffffffffffffffffffffffffffffffffffffff1673ffffffffffffffffffffffffffffffffffffffff16815260200191505060405180910390f35b34801561051157600080fd5b50610546600480360381019080803573ffffffffffffffffffffffffffffffffffffffff1690602001909291905050506125d9565b005b34801561055457600080fd5b506105a36004803603810190808035906020019092919080359060200190820180359060200191909192939192939080359060200190820180359060200191909192939192939050505061272e565b604051808215151515815260200191505060405180910390f35b60003373ffffffffffffffffffffffffffffffffffffffff16600260009054906101000a900473ffffffffffffffffffffffffffffffffffffffff1673ffffffffffffffffffffffffffffffffffffffff16635c42d079866040518263ffffffff167c010000000000000000000000000000000000000000000000000000000002815260040180828152602001915050602060405180830381600087803b15801561066757600080fd5b505af115801561067b573d6000803e3d6000fd5b505050506040513d602081101561069157600080fd5b810190808051906020019092919050505073ffffffffffffffffffffffffffffffffffffffff161415806106cb57506106c984612c2d565b155b156106d557600080fd5b600260009054906101000a900473ffffffffffffffffffffffffffffffffffffffff1673ffffffffffffffffffffffffffffffffffffffff166337a8c560856040518263ffffffff167c010000000000000000000000000000000000000000000000000000000002815260040180828152602001915050602060405180830381600087803b15801561076657600080fd5b505af115801561077a573d6000803e3d6000fd5b505050506040513d602081101561079057600080fd5b81019080805190602001909291905050501561092257600260009054906101000a900473ffffffffffffffffffffffffffffffffffffffff1673ffffffffffffffffffffffffffffffffffffffff166325df1e77856040518263ffffffff167c010000000000000000000000000000000000000000000000000000000002815260040180828152602001915050602060405180830381600087803b15801561083757600080fd5b505af115801561084b573d6000803e3d6000fd5b505050506040513d602081101561086157600080fd5b810190808051906020019092919050505073ffffffffffffffffffffffffffffffffffffffff166363b41fe98585856040518463ffffffff167c0100000000000000000000000000000000000000000000000000000000028152600401808481526020018060200182810382528484828181526020019250602002808284378201915050945050505050600060405180830381600087803b15801561090557600080fd5b505af1158015610919573d6000803e3d6000fd5b50505050610a71565b3373ffffffffffffffffffffffffffffffffffffffff16600260009054906101000a900473ffffffffffffffffffffffffffffffffffffffff1673ffffffffffffffffffffffffffffffffffffffff166325df1e77866040518263ffffffff167c010000000000000000000000000000000000000000000000000000000002815260040180828152602001915050602060405180830381600087803b1580156109ca57600080fd5b505af11580156109de573d6000803e3d6000fd5b505050506040513d60208110156109f457600080fd5b810190808051906020019092919050505073ffffffffffffffffffffffffffffffffffffffff16857f92d44f3550f6aeaab26241971266a417e4385691402c27c5a1bf69b2c19210c68686604051808060200182810382528484828181526020019250602002808284378201915050935050505060405180910390a45b600190509392505050565b60003373ffffffffffffffffffffffffffffffffffffffff16600260009054906101000a900473ffffffffffffffffffffffffffffffffffffffff1673ffffffffffffffffffffffffffffffffffffffff16635c42d0798c6040518263ffffffff167c010000000000000000000000000000000000000000000000000000000002815260040180828152602001915050602060405180830381600087803b158015610b2657600080fd5b505af1158015610b3a573d6000803e3d6000fd5b505050506040513d6020811015610b5057600080fd5b810190808051906020019092919050505073ffffffffffffffffffffffffffffffffffffffff16141580610b8a5750610b888a612c2d565b155b15610b9457600080fd5b600260009054906101000a900473ffffffffffffffffffffffffffffffffffffffff1673ffffffffffffffffffffffffffffffffffffffff166337a8c5608b6040518263ffffffff167c010000000000000000000000000000000000000000000000000000000002815260040180828152602001915050602060405180830381600087803b158015610c2557600080fd5b505af1158015610c39573d6000803e3d6000fd5b505050506040513d6020811015610c4f57600080fd5b810190808051906020019092919050505015610e4457600260009054906101000a900473ffffffffffffffffffffffffffffffffffffffff1673ffffffffffffffffffffffffffffffffffffffff166325df1e778b6040518263ffffffff167c010000000000000000000000000000000000000000000000000000000002815260040180828152602001915050602060405180830381600087803b158015610cf657600080fd5b505af1158015610d0a573d6000803e3d6000fd5b505050506040513d6020811015610d2057600080fd5b810190808051906020019092919050505073ffffffffffffffffffffffffffffffffffffffff1663a267cf078b8b8b8b8b8b8b8b8b6040518a63ffffffff167c0100000000000000000000000000000000000000000000000000000000028152600401808a81526020018060200180602001806020018060200185810385528d8d82818152602001925080828437820191505085810384528b8b82818152602001925080828437820191505085810383528989828181526020019250808284378201915050858103825287878281815260200192508082843782019150509d5050505050505050505050505050600060405180830381600087803b158015610e2757600080fd5b505af1158015610e3b573d6000803e3d6000fd5b50505050610ff6565b3373ffffffffffffffffffffffffffffffffffffffff16600260009054906101000a900473ffffffffffffffffffffffffffffffffffffffff1673ffffffffffffffffffffffffffffffffffffffff166325df1e778c6040518263ffffffff167c010000000000000000000000000000000000000000000000000000000002815260040180828152602001915050602060405180830381600087803b158015610eec57600080fd5b505af1158015610f00573d6000803e3d6000fd5b505050506040513d6020811015610f1657600080fd5b810190808051906020019092919050505073ffffffffffffffffffffffffffffffffffffffff168b7f5e141f0f2db9b2fa0d44e60384103676292be03cac75671374ea23e719dcd64b8c8c8c8c8c8c8c8c604051808060200180602001806020018060200185810385528d8d82818152602001925080828437820191505085810384528b8b82818152602001925080828437820191505085810383528989828181526020019250808284378201915050858103825287878281815260200192508082843782019150509c5050505050505050505050505060405180910390a45b600190509998505050505050505050565b60003373ffffffffffffffffffffffffffffffffffffffff16600260009054906101000a900473ffffffffffffffffffffffffffffffffffffffff1673ffffffffffffffffffffffffffffffffffffffff16635c42d0798a6040518263ffffffff167c010000000000000000000000000000000000000000000000000000000002815260040180828152602001915050602060405180830381600087803b1580156110b157600080fd5b505af11580156110c5573d6000803e3d6000fd5b505050506040513d60208110156110db57600080fd5b810190808051906020019092919050505073ffffffffffffffffffffffffffffffffffffffff16141580611115575061111388612c2d565b155b1561111f57600080fd5b600260009054906101000a900473ffffffffffffffffffffffffffffffffffffffff1673ffffffffffffffffffffffffffffffffffffffff166337a8c560896040518263ffffffff167c010000000000000000000000000000000000000000000000000000000002815260040180828152602001915050602060405180830381600087803b1580156111b057600080fd5b505af11580156111c4573d6000803e3d6000fd5b505050506040513d60208110156111da57600080fd5b8101908080519060200190929190505050156113ad57600260009054906101000a900473ffffffffffffffffffffffffffffffffffffffff1673ffffffffffffffffffffffffffffffffffffffff166325df1e77896040518263ffffffff167c010000000000000000000000000000000000000000000000000000000002815260040180828152602001915050602060405180830381600087803b15801561128157600080fd5b505af1158015611295573d6000803e3d6000fd5b505050506040513d60208110156112ab57600080fd5b810190808051906020019092919050505073ffffffffffffffffffffffffffffffffffffffff1663d936a327898989898989896040518863ffffffff167c01000000000000000000000000000000000000000000000000000000000281526004018088815260200180602001806020018060200184810384528a8a82818152602001925080828437820191505084810383528888828181526020019250808284378201915050848103825286868281815260200192508082843782019150509a5050505050505050505050600060405180830381600087803b15801561139057600080fd5b505af11580156113a4573d6000803e3d6000fd5b5050505061153d565b3373ffffffffffffffffffffffffffffffffffffffff16600260009054906101000a900473ffffffffffffffffffffffffffffffffffffffff1673ffffffffffffffffffffffffffffffffffffffff166325df1e778a6040518263ffffffff167c010000000000000000000000000000000000000000000000000000000002815260040180828152602001915050602060405180830381600087803b15801561145557600080fd5b505af1158015611469573d6000803e3d6000fd5b505050506040513d602081101561147f57600080fd5b810190808051906020019092919050505073ffffffffffffffffffffffffffffffffffffffff16897f5d15dbf2e2e3132b5a4fa750a08fbdc88bde1149224a6b1de740e50804707ef28a8a8a8a8a8a6040518080602001806020018060200184810384528a8a8281815260200192508082843782019150508481038352888882818152602001925080828437820191505084810382528686828181526020019250808284378201915050995050505050505050505060405180910390a45b60019050979650505050505050565b60003373ffffffffffffffffffffffffffffffffffffffff16600260009054906101000a900473ffffffffffffffffffffffffffffffffffffffff1673ffffffffffffffffffffffffffffffffffffffff16635c42d079866040518263ffffffff167c010000000000000000000000000000000000000000000000000000000002815260040180828152602001915050602060405180830381600087803b1580156115f657600080fd5b505af115801561160a573d6000803e3d6000fd5b505050506040513d602081101561162057600080fd5b810190808051906020019092919050505073ffffffffffffffffffffffffffffffffffffffff1614158061165a575061165884612c2d565b155b1561166457600080fd5b600260009054906101000a900473ffffffffffffffffffffffffffffffffffffffff1673ffffffffffffffffffffffffffffffffffffffff166337a8c560856040518263ffffffff167c010000000000000000000000000000000000000000000000000000000002815260040180828152602001915050602060405180830381600087803b1580156116f557600080fd5b505af1158015611709573d6000803e3d6000fd5b505050506040513d602081101561171f57600080fd5b8101908080519060200190929190505050156118ae57600260009054906101000a900473ffffffffffffffffffffffffffffffffffffffff1673ffffffffffffffffffffffffffffffffffffffff166325df1e77856040518263ffffffff167c010000000000000000000000000000000000000000000000000000000002815260040180828152602001915050602060405180830381600087803b1580156117c657600080fd5b505af11580156117da573d6000803e3d6000fd5b505050506040513d60208110156117f057600080fd5b810190808051906020019092919050505073ffffffffffffffffffffffffffffffffffffffff1663b69a375d8585856040518463ffffffff167c0100000000000000000000000000000000000000000000000000000000028152600401808481526020018060200182810382528484828181526020019250808284378201915050945050505050600060405180830381600087803b15801561189157600080fd5b505af11580156118a5573d6000803e3d6000fd5b505050506119fa565b3373ffffffffffffffffffffffffffffffffffffffff16600260009054906101000a900473ffffffffffffffffffffffffffffffffffffffff1673ffffffffffffffffffffffffffffffffffffffff166325df1e77866040518263ffffffff167c010000000000000000000000000000000000000000000000000000000002815260040180828152602001915050602060405180830381600087803b15801561195657600080fd5b505af115801561196a573d6000803e3d6000fd5b505050506040513d602081101561198057600080fd5b810190808051906020019092919050505073ffffffffffffffffffffffffffffffffffffffff16857f61ca5cd516a9a4012e4c147542d38223206ca531953abcb3272f579768d9dfb08686604051808060200182810382528484828181526020019250808284378201915050935050505060405180910390a45b600190509392505050565b600160009054906101000a900473ffffffffffffffffffffffffffffffffffffffff1681565b6000809054906101000a900473ffffffffffffffffffffffffffffffffffffffff1681565b6000809054906101000a900473ffffffffffffffffffffffffffffffffffffffff1673ffffffffffffffffffffffffffffffffffffffff163373ffffffffffffffffffffffffffffffffffffffff16141515611aab57600080fd5b600073ffffffffffffffffffffffffffffffffffffffff168173ffffffffffffffffffffffffffffffffffffffff1614151515611ae757600080fd5b3073ffffffffffffffffffffffffffffffffffffffff16638da5cb5b6040518163ffffffff167c0100000000000000000000000000000000000000000000000000000000028152600401602060405180830381600087803b158015611b4b57600080fd5b505af1158015611b5f573d6000803e3d6000fd5b505050506040513d6020811015611b7557600080fd5b810190808051906020019092919050505073ffffffffffffffffffffffffffffffffffffffff168173ffffffffffffffffffffffffffffffffffffffff16638da5cb5b6040518163ffffffff167c0100000000000000000000000000000000000000000000000000000000028152600401602060405180830381600087803b158015611c0057600080fd5b505af1158015611c14573d6000803e3d6000fd5b505050506040513d6020811015611c2a57600080fd5b810190808051906020019092919050505073ffffffffffffffffffffffffffffffffffffffff16141515611c5d57600080fd5b8073ffffffffffffffffffffffffffffffffffffffff16600160009054906101000a900473ffffffffffffffffffffffffffffffffffffffff1673ffffffffffffffffffffffffffffffffffffffff167f76f31107eca34dd040193f6e1241ce5957bfc5a42f7736fdc1b27596555109d660405160405180910390a380600160006101000a81548173ffffffffffffffffffffffffffffffffffffffff021916908373ffffffffffffffffffffffffffffffffffffffff16021790555050565b6000809054906101000a900473ffffffffffffffffffffffffffffffffffffffff1673ffffffffffffffffffffffffffffffffffffffff163373ffffffffffffffffffffffffffffffffffffffff16141515611d7857600080fd5b6000809054906101000a900473ffffffffffffffffffffffffffffffffffffffff1673ffffffffffffffffffffffffffffffffffffffff16ff5b600080600360009054906101000a900473ffffffffffffffffffffffffffffffffffffffff1673ffffffffffffffffffffffffffffffffffffffff1663bbee3694338c8a6040518463ffffffff167c0100000000000000000000000000000000000000000000000000000000028152600401808473ffffffffffffffffffffffffffffffffffffffff1673ffffffffffffffffffffffffffffffffffffffff1681526020018373ffffffffffffffffffffffffffffffffffffffff1673ffffffffffffffffffffffffffffffffffffffff16815260200182600019166000191681526020019350505050602060405180830381600087803b158015611eb657600080fd5b505af1158015611eca573d6000803e3d6000fd5b505050506040513d6020811015611ee057600080fd5b8101908080519060200190929190505050905060018110151561247357600360009054906101000a900473ffffffffffffffffffffffffffffffffffffffff1673ffffffffffffffffffffffffffffffffffffffff166316614c98338c8a60016040518563ffffffff167c0100000000000000000000000000000000000000000000000000000000028152600401808573ffffffffffffffffffffffffffffffffffffffff1673ffffffffffffffffffffffffffffffffffffffff1681526020018473ffffffffffffffffffffffffffffffffffffffff1673ffffffffffffffffffffffffffffffffffffffff1681526020018360001916600019168152602001828152602001945050505050602060405180830381600087803b15801561200757600080fd5b505af115801561201b573d6000803e3d6000fd5b505050506040513d602081101561203157600080fd5b81019080805190602001909291905050505043428a8a338e6040516020018087815260200186815260200185858082843782019150508373ffffffffffffffffffffffffffffffffffffffff1673ffffffffffffffffffffffffffffffffffffffff166c010000000000000000000000000281526014018273ffffffffffffffffffffffffffffffffffffffff1673ffffffffffffffffffffffffffffffffffffffff166c0100000000000000000000000002815260140196505050505050506040516020818303038152906040526040518082805190602001908083835b6020831015156121355780518252602082019150602081019050602083039250612110565b6001836020036101000a0380198251168184511680821785525050505050509050019150506040518091039020600190049150600260009054906101000a900473ffffffffffffffffffffffffffffffffffffffff1673ffffffffffffffffffffffffffffffffffffffff166336f406cd838c338b8e8e8a6040518863ffffffff167c0100000000000000000000000000000000000000000000000000000000028152600401808881526020018773ffffffffffffffffffffffffffffffffffffffff1673ffffffffffffffffffffffffffffffffffffffff1681526020018673ffffffffffffffffffffffffffffffffffffffff1673ffffffffffffffffffffffffffffffffffffffff168152602001856000191660001916815260200180602001831515151581526020018281038252858582818152602001925080828437820191505098505050505050505050600060405180830381600087803b15801561229f57600080fd5b505af11580156122b3573d6000803e3d6000fd5b5050505083156123ac578973ffffffffffffffffffffffffffffffffffffffff1663de261583838b8b8b8b8b8a6040518863ffffffff167c010000000000000000000000000000000000000000000000000000000002815260040180888152602001806020018660001916600019168152602001806020018415151515815260200183810383528989828181526020019250808284378201915050838103825286868281815260200192506020028082843782019150509950505050505050505050600060405180830381600087803b15801561238f57600080fd5b505af11580156123a3573d6000803e3d6000fd5b5050505061246e565b3373ffffffffffffffffffffffffffffffffffffffff168a73ffffffffffffffffffffffffffffffffffffffff16837f69741cc3ec0270f258feb6b53b42ef1e7d2251a3c8eea4f6ba1f72bd4b7beba78c8c8c8c8c8b60405180806020018660001916600019168152602001806020018415151515815260200183810383528989828181526020019250808284378201915050838103825286868281815260200192506020028082843782019150509850505050505050505060405180910390a45b612507565b6040517f08c379a00000000000000000000000000000000000000000000000000000000081526004018080602001828103825260228152602001807f5375627363726962657220646f6573206e6f74206861766520616e7920646f7481526020017f732e00000000000000000000000000000000000000000000000000000000000081525060400191505060405180910390fd5b5098975050505050505050565b6000809054906101000a900473ffffffffffffffffffffffffffffffffffffffff1673ffffffffffffffffffffffffffffffffffffffff163373ffffffffffffffffffffffffffffffffffffffff1614151561256f57600080fd5b80600360006101000a81548173ffffffffffffffffffffffffffffffffffffffff021916908373ffffffffffffffffffffffffffffffffffffffff16021790555050565b600460009054906101000a900473ffffffffffffffffffffffffffffffffffffffff1681565b6000809054906101000a900473ffffffffffffffffffffffffffffffffffffffff1673ffffffffffffffffffffffffffffffffffffffff163373ffffffffffffffffffffffffffffffffffffffff1614151561263457600080fd5b600073ffffffffffffffffffffffffffffffffffffffff168173ffffffffffffffffffffffffffffffffffffffff161415151561267057600080fd5b8073ffffffffffffffffffffffffffffffffffffffff166000809054906101000a900473ffffffffffffffffffffffffffffffffffffffff1673ffffffffffffffffffffffffffffffffffffffff167f8be0079c531659141344cd1fd0a4f28419497f9722a3daafe3b4186f6b6457e060405160405180910390a3806000806101000a81548173ffffffffffffffffffffffffffffffffffffffff021916908373ffffffffffffffffffffffffffffffffffffffff16021790555050565b60003373ffffffffffffffffffffffffffffffffffffffff16600260009054906101000a900473ffffffffffffffffffffffffffffffffffffffff1673ffffffffffffffffffffffffffffffffffffffff16635c42d079886040518263ffffffff167c010000000000000000000000000000000000000000000000000000000002815260040180828152602001915050602060405180830381600087803b1580156127d857600080fd5b505af11580156127ec573d6000803e3d6000fd5b505050506040513d602081101561280257600080fd5b810190808051906020019092919050505073ffffffffffffffffffffffffffffffffffffffff1614158061283c575061283a86612c2d565b155b1561284657600080fd5b600260009054906101000a900473ffffffffffffffffffffffffffffffffffffffff1673ffffffffffffffffffffffffffffffffffffffff166337a8c560876040518263ffffffff167c010000000000000000000000000000000000000000000000000000000002815260040180828152602001915050602060405180830381600087803b1580156128d757600080fd5b505af11580156128eb573d6000803e3d6000fd5b505050506040513d602081101561290157600080fd5b810190808051906020019092919050505015612ab257600260009054906101000a900473ffffffffffffffffffffffffffffffffffffffff1673ffffffffffffffffffffffffffffffffffffffff166325df1e77876040518263ffffffff167c010000000000000000000000000000000000000000000000000000000002815260040180828152602001915050602060405180830381600087803b1580156129a857600080fd5b505af11580156129bc573d6000803e3d6000fd5b505050506040513d60208110156129d257600080fd5b810190808051906020019092919050505073ffffffffffffffffffffffffffffffffffffffff1663f5795cd587878787876040518663ffffffff167c01000000000000000000000000000000000000000000000000000000000281526004018086815260200180602001806020018381038352878782818152602001925080828437820191505083810382528585828181526020019250808284378201915050975050505050505050600060405180830381600087803b158015612a9557600080fd5b505af1158015612aa9573d6000803e3d6000fd5b50505050612c20565b3373ffffffffffffffffffffffffffffffffffffffff16600260009054906101000a900473ffffffffffffffffffffffffffffffffffffffff1673ffffffffffffffffffffffffffffffffffffffff166325df1e77886040518263ffffffff167c010000000000000000000000000000000000000000000000000000000002815260040180828152602001915050602060405180830381600087803b158015612b5a57600080fd5b505af1158015612b6e573d6000803e3d6000fd5b505050506040513d6020811015612b8457600080fd5b810190808051906020019092919050505073ffffffffffffffffffffffffffffffffffffffff16877ff34afe5c6e139b15c1ff3b929a198532242d2d8727db2099925e4e2d8a8fc681888888886040518080602001806020018381038352878782818152602001925080828437820191505083810382528585828181526020019250808284378201915050965050505050505060405180910390a45b6001905095945050505050565b60008060008060006001811115612c4057fe5b600260009054906101000a900473ffffffffffffffffffffffffffffffffffffffff1673ffffffffffffffffffffffffffffffffffffffff16635c622a0e876040518263ffffffff167c010000000000000000000000000000000000000000000000000000000002815260040180828152602001915050602060405180830381600087803b158015612cd157600080fd5b505af1158015612ce5573d6000803e3d6000fd5b505050506040513d6020811015612cfb57600080fd5b81019080805190602001909291905050506001811115612d1757fe5b141515612d2357600080fd5b600260009054906101000a900473ffffffffffffffffffffffffffffffffffffffff1673ffffffffffffffffffffffffffffffffffffffff166325df1e77866040518263ffffffff167c010000000000000000000000000000000000000000000000000000000002815260040180828152602001915050602060405180830381600087803b158015612db457600080fd5b505af1158015612dc8573d6000803e3d6000fd5b505050506040513d6020811015612dde57600080fd5b81019080805190602001909291905050509250600260009054906101000a900473ffffffffffffffffffffffffffffffffffffffff1673ffffffffffffffffffffffffffffffffffffffff16635c42d079866040518263ffffffff167c010000000000000000000000000000000000000000000000000000000002815260040180828152602001915050602060405180830381600087803b158015612e8257600080fd5b505af1158015612e96573d6000803e3d6000fd5b505050506040513d6020811015612eac57600080fd5b81019080805190602001909291905050509150600260009054906101000a900473ffffffffffffffffffffffffffffffffffffffff1673ffffffffffffffffffffffffffffffffffffffff1663937bbc4a866040518263ffffffff167c010000000000000000000000000000000000000000000000000000000002815260040180828152602001915050602060405180830381600087803b158015612f5057600080fd5b505af1158015612f64573d6000803e3d6000fd5b505050506040513d6020811015612f7a57600080fd5b81019080805190602001909291905050509050600260009054906101000a900473ffffffffffffffffffffffffffffffffffffffff1673ffffffffffffffffffffffffffffffffffffffff16636e447710866040518263ffffffff167c010000000000000000000000000000000000000000000000000000000002815260040180828152602001915050600060405180830381600087803b15801561301e57600080fd5b505af1158015613032573d6000803e3d6000fd5b50505050600360009054906101000a900473ffffffffffffffffffffffffffffffffffffffff1673ffffffffffffffffffffffffffffffffffffffff16633b058aa784848460016040518563ffffffff167c0100000000000000000000000000000000000000000000000000000000028152600401808573ffffffffffffffffffffffffffffffffffffffff1673ffffffffffffffffffffffffffffffffffffffff1681526020018473ffffffffffffffffffffffffffffffffffffffff1673ffffffffffffffffffffffffffffffffffffffff1681526020018360001916600019168152602001828152602001945050505050602060405180830381600087803b15801561314057600080fd5b505af1158015613154573d6000803e3d6000fd5b505050506040513d602081101561316a57600080fd5b81019080805190602001909291905050505080600019168273ffffffffffffffffffffffffffffffffffffffff168473ffffffffffffffffffffffffffffffffffffffff167fd2acd679e4b12e04dac69f514df2934d7bdb622acd5b5ebaea14f3dd70c3d58a60405160405180910390a4600193505050509190505600a165627a7a72305820c0f2fd5752cdc463bda82b7f88535de05c635322f04b49adb291abf92282ec9f0029",
  "source": "pragma solidity ^0.4.24;\n// v1.0\n\nimport \"../../lib/lifecycle/Destructible.sol\";\nimport \"../../lib/ownership/StorageHandler.sol\";\nimport \"../../lib/platform/Client.sol\";\nimport \"../../lib/platform/OnChainProvider.sol\";\nimport \"../bondage/BondageInterface.sol\"; \nimport \"./DispatchStorage.sol\";\nimport \"./DispatchInterface.sol\";\n\ncontract Dispatch is Destructible, DispatchInterface, StorageHandler { \n\n    //event data provider is listening for, containing all relevant request parameters\n    event Incoming(\n        uint256 indexed id,\n        address indexed provider,\n        address indexed subscriber,\n        string query,\n        bytes32 endpoint,\n        bytes32[] endpointParams,\n        bool onchainSubscriber\n    );\n\n    event FulfillQuery(\n        address indexed subscriber,\n        address indexed provider,\n        bytes32 indexed endpoint\n    );\n\n    event OffchainResponse(\n        uint256 indexed id,\n        address indexed subscriber,\n        address indexed provider,\n        bytes32[] response\n    );\n\n    event OffchainResult1(\n        uint256 indexed id,\n        address indexed subscriber,\n        address indexed provider,\n        string response1\n    );\n\n    event OffchainResult2(\n        uint256 indexed id,\n        address indexed subscriber,\n        address indexed provider,\n        string response1,\n        string response2\n    );\n\n    event OffchainResult3(\n        uint256 indexed id,\n        address indexed subscriber,\n        address indexed provider,\n        string response1,\n        string response2,\n        string response3\n    );\n\n    event OffchainResult4(\n        uint256 indexed id,\n        address indexed subscriber,\n        address indexed provider,\n        string response1,\n        string response2,\n        string response3,\n        string response4\n    );\n\n    DispatchStorage stor;\n    BondageInterface bondage;\n\n    address public bondageAddress;\n\n    constructor(address _storageAddress, address _bondageAddress) public {\n        storageAddress = _storageAddress;\n        bondageAddress = _bondageAddress;\n        stor = DispatchStorage(_storageAddress);\n        bondage = BondageInterface(_bondageAddress);\n    }\n\n    /// @notice Upgdate bondage function (barring no interface change)\n    function setBondage(address _bondageAddress) public onlyOwner {\n        bondage = BondageInterface(_bondageAddress);\n    }    \n\n    /// @notice Escrow dot for oracle request\n    /// @dev Called by user contract\n    function query(\n        address provider,           // data provider address\n        string userQuery,           // query string\n        bytes32 endpoint,           // endpoint specifier ala 'smart_contract'\n        bytes32[] endpointParams,   // endpoint-specific params\n        bool onchainProvider,                // is provider a contract \n        bool onchainSubscriber               // is subscriber a contract\n        )\n        external\n        returns (uint256 id)\n    {\n        uint256 dots = bondage.getBoundDots(msg.sender, provider, endpoint);\n\n        if(dots >= 1) {\n            //enough dots\n            bondage.escrowDots(msg.sender, provider, endpoint, 1);\n\n            id = uint256(keccak256(abi.encodePacked(block.number, now, userQuery, msg.sender, provider)));\n\n            stor.createQuery(id, provider, msg.sender, endpoint, userQuery, onchainSubscriber);\n            if(onchainProvider) {\n                OnChainProvider(provider).receive(id, userQuery, endpoint, endpointParams, onchainSubscriber); \n            }\n            else{\n                emit Incoming(id, provider, msg.sender, userQuery, endpoint, endpointParams, onchainSubscriber);\n            }\n        } else {\n            // NOT ENOUGH DOTS\n            revert(\"Subscriber does not have any dots.\");\n        }\n    }\n\n    /// @notice Transfer dots from Bondage escrow to data provider's Holder object under its own address\n    /// @dev Called upon data-provider request fulfillment\n    function fulfillQuery(uint256 id) internal returns (bool) {\n\n        require(stor.getStatus(id) == DispatchStorage.Status.Pending);\n\n        address subscriber = stor.getSubscriber(id);\n        address provider = stor.getProvider(id);\n        bytes32 endpoint = stor.getEndpoint(id);\n\n        stor.setFulfilled(id);\n\n        bondage.releaseDots(subscriber, provider, endpoint, 1);\n\n        emit FulfillQuery(subscriber, provider, endpoint);\n\n        return true;\n    }\n\n    /// @dev Parameter-count specific method called by data provider in response\n    function respondBytes32Array(\n        uint256 id,\n        bytes32[] response\n    )\n        external\n        returns (bool)\n    {\n        if (stor.getProvider(id) != msg.sender || !fulfillQuery(id))\n            revert();\n        if(stor.getSubscriberOnchain(id)) {\n            ClientBytes32Array(stor.getSubscriber(id)).callback(id, response);\n        }\n        else {\n            emit OffchainResponse(id, stor.getSubscriber(id), msg.sender, response);\n        }\n        return true;\n    }\n\n\n    /// @dev Parameter-count specific method called by data provider in response\n    function respond1(\n        uint256 id,\n        string response\n    )\n        external\n        returns (bool)\n    {\n        if (stor.getProvider(id) != msg.sender || !fulfillQuery(id))\n            revert();\n\n        if(stor.getSubscriberOnchain(id)) {\n            Client1(stor.getSubscriber(id)).callback(id, response);\n        }\n        else {\n            emit OffchainResult1(id, stor.getSubscriber(id), msg.sender, response);\n        }\n        return true;\n    }\n\n    /// @dev Parameter-count specific method called by data provider in response\n    function respond2(\n        uint256 id,\n        string response1,\n        string response2\n    )\n        external\n        returns (bool)\n    {\n        if (stor.getProvider(id) != msg.sender || !fulfillQuery(id))\n            revert();\n\n        if(stor.getSubscriberOnchain(id)) {\n            Client2(stor.getSubscriber(id)).callback(id, response1, response2);\n        }\n        else {\n            emit OffchainResult2(id, stor.getSubscriber(id), msg.sender, response1, response2);\n        }\n\n        return true;\n    }\n\n    /// @dev Parameter-count specific method called by data provider in response\n    function respond3(\n        uint256 id,\n        string response1,\n        string response2,\n        string response3\n    )\n        external\n        returns (bool)\n    {\n        if (stor.getProvider(id) != msg.sender || !fulfillQuery(id))\n            revert();\n\n        if(stor.getSubscriberOnchain(id)) {\n            Client3(stor.getSubscriber(id)).callback(id, response1, response2, response3);\n        }\n        else {\n            emit OffchainResult3(id, stor.getSubscriber(id), msg.sender, response1, response2, response3);\n        }\n\n        return true;\n    }\n\n    /// @dev Parameter-count specific method called by data provider in response\n    function respond4(\n        uint256 id,\n        string response1,\n        string response2,\n        string response3,\n        string response4\n    )\n        external\n        returns (bool)\n    {\n        if (stor.getProvider(id) != msg.sender || !fulfillQuery(id))\n            revert();\n\n        if(stor.getSubscriberOnchain(id)) {\n            Client4(stor.getSubscriber(id)).callback(id, response1, response2, response3, response4);\n        }\n        else {\n            emit OffchainResult4(id, stor.getSubscriber(id), msg.sender, response1, response2, response3, response4);\n        }\n\n        return true;\n    }\n}\n\n/*\n/* For use in example contract, see TestContracts.sol\n/*\n/* When User Contract calls ZapDispatch.query(),\n/* 1 oracle specific dot is escrowed by ZapBondage and Incoming event is ted.\n/*\n/* When provider's client hears an Incoming event containing provider's address and responds,\n/* the provider calls a ZapDispatch.respondX function corresponding to number of response params.\n/*\n/* Dots are moved from ZapBondage escrow to data-provider's bond Holder struct,\n/* with data provider address set as self's address.\n/*/ \n",
  "sourcePath": "/Users/avisaven/Documents/Work/Zap/zap-ethereum-api/contracts/platform/dispatch/Dispatch.sol",
  "compiler": {
    "name": "solc",
    "version": "0.4.24+commit.e67f0147.Emscripten.clang"
  },
  "schemaVersion": "2.0.0",
  "updatedAt": "2018-08-06T18:03:18.455Z"
}