{
  "contractName": "Dispatch",
  "abi": [
    {
      "constant": false,
      "inputs": [],
      "name": "updateDependencies",
      "outputs": [],
      "payable": false,
      "stateMutability": "nonpayable",
      "type": "function"
    },
    {
      "constant": true,
      "inputs": [],
      "name": "storageAddress",
      "outputs": [
        {
          "name": "",
          "type": "address"
        }
      ],
      "payable": false,
      "stateMutability": "view",
      "type": "function"
    },
    {
      "constant": true,
      "inputs": [],
      "name": "owner",
      "outputs": [
        {
          "name": "",
          "type": "address"
        }
      ],
      "payable": false,
      "stateMutability": "view",
      "type": "function"
    },
    {
      "constant": false,
      "inputs": [
        {
          "name": "newStorage",
          "type": "address"
        }
      ],
      "name": "setStorage",
      "outputs": [],
      "payable": false,
      "stateMutability": "nonpayable",
      "type": "function"
    },
    {
      "constant": false,
      "inputs": [],
      "name": "selfDestruct",
      "outputs": [],
      "payable": false,
      "stateMutability": "nonpayable",
      "type": "function"
    },
    {
      "constant": true,
      "inputs": [],
      "name": "bondageAddress",
      "outputs": [
        {
          "name": "",
          "type": "address"
        }
      ],
      "payable": false,
      "stateMutability": "view",
      "type": "function"
    },
    {
      "constant": false,
      "inputs": [
        {
          "name": "newOwner",
          "type": "address"
        }
      ],
      "name": "transferOwnership",
      "outputs": [],
      "payable": false,
      "stateMutability": "nonpayable",
      "type": "function"
    },
    {
      "inputs": [
        {
          "name": "c",
          "type": "address"
        }
      ],
      "payable": false,
      "stateMutability": "nonpayable",
      "type": "constructor"
    },
    {
      "anonymous": false,
      "inputs": [
        {
          "indexed": true,
          "name": "id",
          "type": "uint256"
        },
        {
          "indexed": true,
          "name": "provider",
          "type": "address"
        },
        {
          "indexed": true,
          "name": "subscriber",
          "type": "address"
        },
        {
          "indexed": false,
          "name": "query",
          "type": "string"
        },
        {
          "indexed": false,
          "name": "endpoint",
          "type": "bytes32"
        },
        {
          "indexed": false,
          "name": "endpointParams",
          "type": "bytes32[]"
        },
        {
          "indexed": false,
          "name": "onchainSubscriber",
          "type": "bool"
        }
      ],
      "name": "Incoming",
      "type": "event"
    },
    {
      "anonymous": false,
      "inputs": [
        {
          "indexed": true,
          "name": "subscriber",
          "type": "address"
        },
        {
          "indexed": true,
          "name": "provider",
          "type": "address"
        },
        {
          "indexed": true,
          "name": "endpoint",
          "type": "bytes32"
        }
      ],
      "name": "FulfillQuery",
      "type": "event"
    },
    {
      "anonymous": false,
      "inputs": [
        {
          "indexed": true,
          "name": "id",
          "type": "uint256"
        },
        {
          "indexed": true,
          "name": "subscriber",
          "type": "address"
        },
        {
          "indexed": true,
          "name": "provider",
          "type": "address"
        },
        {
          "indexed": false,
          "name": "response",
          "type": "bytes32[]"
        }
      ],
      "name": "OffchainResponse",
      "type": "event"
    },
    {
      "anonymous": false,
      "inputs": [
        {
          "indexed": true,
          "name": "id",
          "type": "uint256"
        },
        {
          "indexed": true,
          "name": "subscriber",
          "type": "address"
        },
        {
          "indexed": true,
          "name": "provider",
          "type": "address"
        },
        {
          "indexed": false,
          "name": "response1",
          "type": "string"
        }
      ],
      "name": "OffchainResult1",
      "type": "event"
    },
    {
      "anonymous": false,
      "inputs": [
        {
          "indexed": true,
          "name": "id",
          "type": "uint256"
        },
        {
          "indexed": true,
          "name": "subscriber",
          "type": "address"
        },
        {
          "indexed": true,
          "name": "provider",
          "type": "address"
        },
        {
          "indexed": false,
          "name": "response1",
          "type": "string"
        },
        {
          "indexed": false,
          "name": "response2",
          "type": "string"
        }
      ],
      "name": "OffchainResult2",
      "type": "event"
    },
    {
      "anonymous": false,
      "inputs": [
        {
          "indexed": true,
          "name": "id",
          "type": "uint256"
        },
        {
          "indexed": true,
          "name": "subscriber",
          "type": "address"
        },
        {
          "indexed": true,
          "name": "provider",
          "type": "address"
        },
        {
          "indexed": false,
          "name": "response1",
          "type": "string"
        },
        {
          "indexed": false,
          "name": "response2",
          "type": "string"
        },
        {
          "indexed": false,
          "name": "response3",
          "type": "string"
        }
      ],
      "name": "OffchainResult3",
      "type": "event"
    },
    {
      "anonymous": false,
      "inputs": [
        {
          "indexed": true,
          "name": "id",
          "type": "uint256"
        },
        {
          "indexed": true,
          "name": "subscriber",
          "type": "address"
        },
        {
          "indexed": true,
          "name": "provider",
          "type": "address"
        },
        {
          "indexed": false,
          "name": "response1",
          "type": "string"
        },
        {
          "indexed": false,
          "name": "response2",
          "type": "string"
        },
        {
          "indexed": false,
          "name": "response3",
          "type": "string"
        },
        {
          "indexed": false,
          "name": "response4",
          "type": "string"
        }
      ],
      "name": "OffchainResult4",
      "type": "event"
    },
    {
      "anonymous": false,
      "inputs": [
        {
          "indexed": true,
          "name": "previousStorage",
          "type": "address"
        },
        {
          "indexed": true,
          "name": "newStorage",
          "type": "address"
        }
      ],
      "name": "StorageTransferred",
      "type": "event"
    },
    {
      "anonymous": false,
      "inputs": [
        {
          "indexed": true,
          "name": "previousOwner",
          "type": "address"
        },
        {
          "indexed": true,
          "name": "newOwner",
          "type": "address"
        }
      ],
      "name": "OwnershipTransferred",
      "type": "event"
    },
    {
      "constant": false,
      "inputs": [
        {
          "name": "_bondageAddress",
          "type": "address"
        }
      ],
      "name": "setBondage",
      "outputs": [],
      "payable": false,
      "stateMutability": "nonpayable",
      "type": "function"
    },
    {
      "constant": false,
      "inputs": [
        {
          "name": "provider",
          "type": "address"
        },
        {
          "name": "userQuery",
          "type": "string"
        },
        {
          "name": "endpoint",
          "type": "bytes32"
        },
        {
          "name": "endpointParams",
          "type": "bytes32[]"
        },
        {
          "name": "onchainProvider",
          "type": "bool"
        },
        {
          "name": "onchainSubscriber",
          "type": "bool"
        }
      ],
      "name": "query",
      "outputs": [
        {
          "name": "id",
          "type": "uint256"
        }
      ],
      "payable": false,
      "stateMutability": "nonpayable",
      "type": "function"
    },
    {
      "constant": false,
      "inputs": [
        {
          "name": "id",
          "type": "uint256"
        },
        {
          "name": "response",
          "type": "bytes32[]"
        }
      ],
      "name": "respondBytes32Array",
      "outputs": [
        {
          "name": "",
          "type": "bool"
        }
      ],
      "payable": false,
      "stateMutability": "nonpayable",
      "type": "function"
    },
    {
      "constant": false,
      "inputs": [
        {
          "name": "id",
          "type": "uint256"
        },
        {
          "name": "response",
          "type": "string"
        }
      ],
      "name": "respond1",
      "outputs": [
        {
          "name": "",
          "type": "bool"
        }
      ],
      "payable": false,
      "stateMutability": "nonpayable",
      "type": "function"
    },
    {
      "constant": false,
      "inputs": [
        {
          "name": "id",
          "type": "uint256"
        },
        {
          "name": "response1",
          "type": "string"
        },
        {
          "name": "response2",
          "type": "string"
        }
      ],
      "name": "respond2",
      "outputs": [
        {
          "name": "",
          "type": "bool"
        }
      ],
      "payable": false,
      "stateMutability": "nonpayable",
      "type": "function"
    },
    {
      "constant": false,
      "inputs": [
        {
          "name": "id",
          "type": "uint256"
        },
        {
          "name": "response1",
          "type": "string"
        },
        {
          "name": "response2",
          "type": "string"
        },
        {
          "name": "response3",
          "type": "string"
        }
      ],
      "name": "respond3",
      "outputs": [
        {
          "name": "",
          "type": "bool"
        }
      ],
      "payable": false,
      "stateMutability": "nonpayable",
      "type": "function"
    },
    {
      "constant": false,
      "inputs": [
        {
          "name": "id",
          "type": "uint256"
        },
        {
          "name": "response1",
          "type": "string"
        },
        {
          "name": "response2",
          "type": "string"
        },
        {
          "name": "response3",
          "type": "string"
        },
        {
          "name": "response4",
          "type": "string"
        }
      ],
      "name": "respond4",
      "outputs": [
        {
          "name": "",
          "type": "bool"
        }
      ],
      "payable": false,
      "stateMutability": "nonpayable",
      "type": "function"
    }
  ],
  "bytecode": "0x60806040523480156200001157600080fd5b5060405160208062003a4e8339810180604052810190808051906020019092919050505080336000806101000a81548173ffffffffffffffffffffffffffffffffffffffff021916908373ffffffffffffffffffffffffffffffffffffffff16021790555080600260006101000a81548173ffffffffffffffffffffffffffffffffffffffff021916908373ffffffffffffffffffffffffffffffffffffffff16021790555080600360006101000a81548173ffffffffffffffffffffffffffffffffffffffff021916908373ffffffffffffffffffffffffffffffffffffffff160217905550506200011262000119640100000000026401000000009004565b5062000461565b600360009054906101000a900473ffffffffffffffffffffffffffffffffffffffff1673ffffffffffffffffffffffffffffffffffffffff1663358177736040518163ffffffff167c01000000000000000000000000000000000000000000000000000000000281526004018080602001828103825260108152602001807f44495350415443485f53544f5241474500000000000000000000000000000000815250602001915050602060405180830381600087803b158015620001dc57600080fd5b505af1158015620001f1573d6000803e3d6000fd5b505050506040513d60208110156200020857600080fd5b8101908080519060200190929190505050600660006101000a81548173ffffffffffffffffffffffffffffffffffffffff021916908373ffffffffffffffffffffffffffffffffffffffff160217905550600360009054906101000a900473ffffffffffffffffffffffffffffffffffffffff1673ffffffffffffffffffffffffffffffffffffffff1663358177736040518163ffffffff167c01000000000000000000000000000000000000000000000000000000000281526004018080602001828103825260078152602001807f424f4e4441474500000000000000000000000000000000000000000000000000815250602001915050602060405180830381600087803b1580156200031c57600080fd5b505af115801562000331573d6000803e3d6000fd5b505050506040513d60208110156200034857600080fd5b8101908080519060200190929190505050600760006101000a81548173ffffffffffffffffffffffffffffffffffffffff021916908373ffffffffffffffffffffffffffffffffffffffff160217905550600660009054906101000a900473ffffffffffffffffffffffffffffffffffffffff16600460006101000a81548173ffffffffffffffffffffffffffffffffffffffff021916908373ffffffffffffffffffffffffffffffffffffffff160217905550600760009054906101000a900473ffffffffffffffffffffffffffffffffffffffff16600560006101000a81548173ffffffffffffffffffffffffffffffffffffffff021916908373ffffffffffffffffffffffffffffffffffffffff160217905550565b6135dd80620004716000396000f3006080604052600436106100d0576000357c0100000000000000000000000000000000000000000000000000000000900463ffffffff1680630cbe69a1146100d55780633485d34c146101325780633b90dfa8146101d75780636843581c146102645780636e5ecdff146102c157806385aa92a7146102d85780638da5cb5b1461032f5780639137c1a7146103865780639cb8a26a146103c95780639f77d600146103e0578063b50cffc31461048d578063e00dbb41146104d0578063f2fde38b14610527578063fedea2881461056a575b600080fd5b3480156100e157600080fd5b50610118600480360381019080803590602001909291908035906020019082018035906020019190919293919293905050506105df565b604051808215151515815260200191505060405180910390f35b34801561013e57600080fd5b506101bd60048036038101908080359060200190929190803590602001908201803590602001919091929391929390803590602001908201803590602001919091929391929390803590602001908201803590602001919091929391929390803590602001908201803590602001919091929391929390505050610a9e565b604051808215151515815260200191505060405180910390f35b3480156101e357600080fd5b5061024a60048036038101908080359060200190929190803590602001908201803590602001919091929391929390803590602001908201803590602001919091929391929390803590602001908201803590602001919091929391929390505050611029565b604051808215151515815260200191505060405180910390f35b34801561027057600080fd5b506102a76004803603810190808035906020019092919080359060200190820180359060200191909192939192939050505061156e565b604051808215151515815260200191505060405180910390f35b3480156102cd57600080fd5b506102d6611a27565b005b3480156102e457600080fd5b506102ed611a8d565b604051808273ffffffffffffffffffffffffffffffffffffffff1673ffffffffffffffffffffffffffffffffffffffff16815260200191505060405180910390f35b34801561033b57600080fd5b50610344611ab3565b604051808273ffffffffffffffffffffffffffffffffffffffff1673ffffffffffffffffffffffffffffffffffffffff16815260200191505060405180910390f35b34801561039257600080fd5b506103c7600480360381019080803573ffffffffffffffffffffffffffffffffffffffff169060200190929190505050611ad8565b005b3480156103d557600080fd5b506103de611da5565b005b3480156103ec57600080fd5b50610477600480360381019080803573ffffffffffffffffffffffffffffffffffffffff1690602001909291908035906020019082018035906020019190919293919293908035600019169060200190929190803590602001908201803590602001919091929391929390803515159060200190929190803515159060200190929190505050611e3a565b6040518082815260200191505060405180910390f35b34801561049957600080fd5b506104ce600480360381019080803573ffffffffffffffffffffffffffffffffffffffff16906020019092919050505061259c565b005b3480156104dc57600080fd5b506104e561263b565b604051808273ffffffffffffffffffffffffffffffffffffffff1673ffffffffffffffffffffffffffffffffffffffff16815260200191505060405180910390f35b34801561053357600080fd5b50610568600480360381019080803573ffffffffffffffffffffffffffffffffffffffff169060200190929190505050612661565b005b34801561057657600080fd5b506105c5600480360381019080803590602001909291908035906020019082018035906020019190919293919293908035906020019082018035906020019190919293919293905050506127b6565b604051808215151515815260200191505060405180910390f35b60003373ffffffffffffffffffffffffffffffffffffffff16600460009054906101000a900473ffffffffffffffffffffffffffffffffffffffff1673ffffffffffffffffffffffffffffffffffffffff16635c42d079866040518263ffffffff167c010000000000000000000000000000000000000000000000000000000002815260040180828152602001915050602060405180830381600087803b15801561068957600080fd5b505af115801561069d573d6000803e3d6000fd5b505050506040513d60208110156106b357600080fd5b810190808051906020019092919050505073ffffffffffffffffffffffffffffffffffffffff161415806106ed57506106eb84612cb5565b155b156106f757600080fd5b600460009054906101000a900473ffffffffffffffffffffffffffffffffffffffff1673ffffffffffffffffffffffffffffffffffffffff166337a8c560856040518263ffffffff167c010000000000000000000000000000000000000000000000000000000002815260040180828152602001915050602060405180830381600087803b15801561078857600080fd5b505af115801561079c573d6000803e3d6000fd5b505050506040513d60208110156107b257600080fd5b81019080805190602001909291905050501561094457600460009054906101000a900473ffffffffffffffffffffffffffffffffffffffff1673ffffffffffffffffffffffffffffffffffffffff166325df1e77856040518263ffffffff167c010000000000000000000000000000000000000000000000000000000002815260040180828152602001915050602060405180830381600087803b15801561085957600080fd5b505af115801561086d573d6000803e3d6000fd5b505050506040513d602081101561088357600080fd5b810190808051906020019092919050505073ffffffffffffffffffffffffffffffffffffffff166363b41fe98585856040518463ffffffff167c0100000000000000000000000000000000000000000000000000000000028152600401808481526020018060200182810382528484828181526020019250602002808284378201915050945050505050600060405180830381600087803b15801561092757600080fd5b505af115801561093b573d6000803e3d6000fd5b50505050610a93565b3373ffffffffffffffffffffffffffffffffffffffff16600460009054906101000a900473ffffffffffffffffffffffffffffffffffffffff1673ffffffffffffffffffffffffffffffffffffffff166325df1e77866040518263ffffffff167c010000000000000000000000000000000000000000000000000000000002815260040180828152602001915050602060405180830381600087803b1580156109ec57600080fd5b505af1158015610a00573d6000803e3d6000fd5b505050506040513d6020811015610a1657600080fd5b810190808051906020019092919050505073ffffffffffffffffffffffffffffffffffffffff16857f92d44f3550f6aeaab26241971266a417e4385691402c27c5a1bf69b2c19210c68686604051808060200182810382528484828181526020019250602002808284378201915050935050505060405180910390a45b600190509392505050565b60003373ffffffffffffffffffffffffffffffffffffffff16600460009054906101000a900473ffffffffffffffffffffffffffffffffffffffff1673ffffffffffffffffffffffffffffffffffffffff16635c42d0798c6040518263ffffffff167c010000000000000000000000000000000000000000000000000000000002815260040180828152602001915050602060405180830381600087803b158015610b4857600080fd5b505af1158015610b5c573d6000803e3d6000fd5b505050506040513d6020811015610b7257600080fd5b810190808051906020019092919050505073ffffffffffffffffffffffffffffffffffffffff16141580610bac5750610baa8a612cb5565b155b15610bb657600080fd5b600460009054906101000a900473ffffffffffffffffffffffffffffffffffffffff1673ffffffffffffffffffffffffffffffffffffffff166337a8c5608b6040518263ffffffff167c010000000000000000000000000000000000000000000000000000000002815260040180828152602001915050602060405180830381600087803b158015610c4757600080fd5b505af1158015610c5b573d6000803e3d6000fd5b505050506040513d6020811015610c7157600080fd5b810190808051906020019092919050505015610e6657600460009054906101000a900473ffffffffffffffffffffffffffffffffffffffff1673ffffffffffffffffffffffffffffffffffffffff166325df1e778b6040518263ffffffff167c010000000000000000000000000000000000000000000000000000000002815260040180828152602001915050602060405180830381600087803b158015610d1857600080fd5b505af1158015610d2c573d6000803e3d6000fd5b505050506040513d6020811015610d4257600080fd5b810190808051906020019092919050505073ffffffffffffffffffffffffffffffffffffffff1663a267cf078b8b8b8b8b8b8b8b8b6040518a63ffffffff167c0100000000000000000000000000000000000000000000000000000000028152600401808a81526020018060200180602001806020018060200185810385528d8d82818152602001925080828437820191505085810384528b8b82818152602001925080828437820191505085810383528989828181526020019250808284378201915050858103825287878281815260200192508082843782019150509d5050505050505050505050505050600060405180830381600087803b158015610e4957600080fd5b505af1158015610e5d573d6000803e3d6000fd5b50505050611018565b3373ffffffffffffffffffffffffffffffffffffffff16600460009054906101000a900473ffffffffffffffffffffffffffffffffffffffff1673ffffffffffffffffffffffffffffffffffffffff166325df1e778c6040518263ffffffff167c010000000000000000000000000000000000000000000000000000000002815260040180828152602001915050602060405180830381600087803b158015610f0e57600080fd5b505af1158015610f22573d6000803e3d6000fd5b505050506040513d6020811015610f3857600080fd5b810190808051906020019092919050505073ffffffffffffffffffffffffffffffffffffffff168b7f5e141f0f2db9b2fa0d44e60384103676292be03cac75671374ea23e719dcd64b8c8c8c8c8c8c8c8c604051808060200180602001806020018060200185810385528d8d82818152602001925080828437820191505085810384528b8b82818152602001925080828437820191505085810383528989828181526020019250808284378201915050858103825287878281815260200192508082843782019150509c5050505050505050505050505060405180910390a45b600190509998505050505050505050565b60003373ffffffffffffffffffffffffffffffffffffffff16600460009054906101000a900473ffffffffffffffffffffffffffffffffffffffff1673ffffffffffffffffffffffffffffffffffffffff16635c42d0798a6040518263ffffffff167c010000000000000000000000000000000000000000000000000000000002815260040180828152602001915050602060405180830381600087803b1580156110d357600080fd5b505af11580156110e7573d6000803e3d6000fd5b505050506040513d60208110156110fd57600080fd5b810190808051906020019092919050505073ffffffffffffffffffffffffffffffffffffffff16141580611137575061113588612cb5565b155b1561114157600080fd5b600460009054906101000a900473ffffffffffffffffffffffffffffffffffffffff1673ffffffffffffffffffffffffffffffffffffffff166337a8c560896040518263ffffffff167c010000000000000000000000000000000000000000000000000000000002815260040180828152602001915050602060405180830381600087803b1580156111d257600080fd5b505af11580156111e6573d6000803e3d6000fd5b505050506040513d60208110156111fc57600080fd5b8101908080519060200190929190505050156113cf57600460009054906101000a900473ffffffffffffffffffffffffffffffffffffffff1673ffffffffffffffffffffffffffffffffffffffff166325df1e77896040518263ffffffff167c010000000000000000000000000000000000000000000000000000000002815260040180828152602001915050602060405180830381600087803b1580156112a357600080fd5b505af11580156112b7573d6000803e3d6000fd5b505050506040513d60208110156112cd57600080fd5b810190808051906020019092919050505073ffffffffffffffffffffffffffffffffffffffff1663d936a327898989898989896040518863ffffffff167c01000000000000000000000000000000000000000000000000000000000281526004018088815260200180602001806020018060200184810384528a8a82818152602001925080828437820191505084810383528888828181526020019250808284378201915050848103825286868281815260200192508082843782019150509a5050505050505050505050600060405180830381600087803b1580156113b257600080fd5b505af11580156113c6573d6000803e3d6000fd5b5050505061155f565b3373ffffffffffffffffffffffffffffffffffffffff16600460009054906101000a900473ffffffffffffffffffffffffffffffffffffffff1673ffffffffffffffffffffffffffffffffffffffff166325df1e778a6040518263ffffffff167c010000000000000000000000000000000000000000000000000000000002815260040180828152602001915050602060405180830381600087803b15801561147757600080fd5b505af115801561148b573d6000803e3d6000fd5b505050506040513d60208110156114a157600080fd5b810190808051906020019092919050505073ffffffffffffffffffffffffffffffffffffffff16897f5d15dbf2e2e3132b5a4fa750a08fbdc88bde1149224a6b1de740e50804707ef28a8a8a8a8a8a6040518080602001806020018060200184810384528a8a8281815260200192508082843782019150508481038352888882818152602001925080828437820191505084810382528686828181526020019250808284378201915050995050505050505050505060405180910390a45b60019050979650505050505050565b60003373ffffffffffffffffffffffffffffffffffffffff16600460009054906101000a900473ffffffffffffffffffffffffffffffffffffffff1673ffffffffffffffffffffffffffffffffffffffff16635c42d079866040518263ffffffff167c010000000000000000000000000000000000000000000000000000000002815260040180828152602001915050602060405180830381600087803b15801561161857600080fd5b505af115801561162c573d6000803e3d6000fd5b505050506040513d602081101561164257600080fd5b810190808051906020019092919050505073ffffffffffffffffffffffffffffffffffffffff1614158061167c575061167a84612cb5565b155b1561168657600080fd5b600460009054906101000a900473ffffffffffffffffffffffffffffffffffffffff1673ffffffffffffffffffffffffffffffffffffffff166337a8c560856040518263ffffffff167c010000000000000000000000000000000000000000000000000000000002815260040180828152602001915050602060405180830381600087803b15801561171757600080fd5b505af115801561172b573d6000803e3d6000fd5b505050506040513d602081101561174157600080fd5b8101908080519060200190929190505050156118d057600460009054906101000a900473ffffffffffffffffffffffffffffffffffffffff1673ffffffffffffffffffffffffffffffffffffffff166325df1e77856040518263ffffffff167c010000000000000000000000000000000000000000000000000000000002815260040180828152602001915050602060405180830381600087803b1580156117e857600080fd5b505af11580156117fc573d6000803e3d6000fd5b505050506040513d602081101561181257600080fd5b810190808051906020019092919050505073ffffffffffffffffffffffffffffffffffffffff1663b69a375d8585856040518463ffffffff167c0100000000000000000000000000000000000000000000000000000000028152600401808481526020018060200182810382528484828181526020019250808284378201915050945050505050600060405180830381600087803b1580156118b357600080fd5b505af11580156118c7573d6000803e3d6000fd5b50505050611a1c565b3373ffffffffffffffffffffffffffffffffffffffff16600460009054906101000a900473ffffffffffffffffffffffffffffffffffffffff1673ffffffffffffffffffffffffffffffffffffffff166325df1e77866040518263ffffffff167c010000000000000000000000000000000000000000000000000000000002815260040180828152602001915050602060405180830381600087803b15801561197857600080fd5b505af115801561198c573d6000803e3d6000fd5b505050506040513d60208110156119a257600080fd5b810190808051906020019092919050505073ffffffffffffffffffffffffffffffffffffffff16857f61ca5cd516a9a4012e4c147542d38223206ca531953abcb3272f579768d9dfb08686604051808060200182810382528484828181526020019250808284378201915050935050505060405180910390a45b600190509392505050565b600260009054906101000a900473ffffffffffffffffffffffffffffffffffffffff1673ffffffffffffffffffffffffffffffffffffffff163373ffffffffffffffffffffffffffffffffffffffff16141515611a8357600080fd5b611a8b61326f565b565b600660009054906101000a900473ffffffffffffffffffffffffffffffffffffffff1681565b6000809054906101000a900473ffffffffffffffffffffffffffffffffffffffff1681565b6000809054906101000a900473ffffffffffffffffffffffffffffffffffffffff1673ffffffffffffffffffffffffffffffffffffffff163373ffffffffffffffffffffffffffffffffffffffff16141515611b3357600080fd5b600073ffffffffffffffffffffffffffffffffffffffff168173ffffffffffffffffffffffffffffffffffffffff1614151515611b6f57600080fd5b3073ffffffffffffffffffffffffffffffffffffffff16638da5cb5b6040518163ffffffff167c0100000000000000000000000000000000000000000000000000000000028152600401602060405180830381600087803b158015611bd357600080fd5b505af1158015611be7573d6000803e3d6000fd5b505050506040513d6020811015611bfd57600080fd5b810190808051906020019092919050505073ffffffffffffffffffffffffffffffffffffffff168173ffffffffffffffffffffffffffffffffffffffff16638da5cb5b6040518163ffffffff167c0100000000000000000000000000000000000000000000000000000000028152600401602060405180830381600087803b158015611c8857600080fd5b505af1158015611c9c573d6000803e3d6000fd5b505050506040513d6020811015611cb257600080fd5b810190808051906020019092919050505073ffffffffffffffffffffffffffffffffffffffff16141515611ce557600080fd5b8073ffffffffffffffffffffffffffffffffffffffff16600160009054906101000a900473ffffffffffffffffffffffffffffffffffffffff1673ffffffffffffffffffffffffffffffffffffffff167f76f31107eca34dd040193f6e1241ce5957bfc5a42f7736fdc1b27596555109d660405160405180910390a380600160006101000a81548173ffffffffffffffffffffffffffffffffffffffff021916908373ffffffffffffffffffffffffffffffffffffffff16021790555050565b6000809054906101000a900473ffffffffffffffffffffffffffffffffffffffff1673ffffffffffffffffffffffffffffffffffffffff163373ffffffffffffffffffffffffffffffffffffffff16141515611e0057600080fd5b6000809054906101000a900473ffffffffffffffffffffffffffffffffffffffff1673ffffffffffffffffffffffffffffffffffffffff16ff5b600080600560009054906101000a900473ffffffffffffffffffffffffffffffffffffffff1673ffffffffffffffffffffffffffffffffffffffff1663bbee3694338c8a6040518463ffffffff167c0100000000000000000000000000000000000000000000000000000000028152600401808473ffffffffffffffffffffffffffffffffffffffff1673ffffffffffffffffffffffffffffffffffffffff1681526020018373ffffffffffffffffffffffffffffffffffffffff1673ffffffffffffffffffffffffffffffffffffffff16815260200182600019166000191681526020019350505050602060405180830381600087803b158015611f3e57600080fd5b505af1158015611f52573d6000803e3d6000fd5b505050506040513d6020811015611f6857600080fd5b810190808051906020019092919050505090506001811015156124fb57600560009054906101000a900473ffffffffffffffffffffffffffffffffffffffff1673ffffffffffffffffffffffffffffffffffffffff166316614c98338c8a60016040518563ffffffff167c0100000000000000000000000000000000000000000000000000000000028152600401808573ffffffffffffffffffffffffffffffffffffffff1673ffffffffffffffffffffffffffffffffffffffff1681526020018473ffffffffffffffffffffffffffffffffffffffff1673ffffffffffffffffffffffffffffffffffffffff1681526020018360001916600019168152602001828152602001945050505050602060405180830381600087803b15801561208f57600080fd5b505af11580156120a3573d6000803e3d6000fd5b505050506040513d60208110156120b957600080fd5b81019080805190602001909291905050505043428a8a338e6040516020018087815260200186815260200185858082843782019150508373ffffffffffffffffffffffffffffffffffffffff1673ffffffffffffffffffffffffffffffffffffffff166c010000000000000000000000000281526014018273ffffffffffffffffffffffffffffffffffffffff1673ffffffffffffffffffffffffffffffffffffffff166c0100000000000000000000000002815260140196505050505050506040516020818303038152906040526040518082805190602001908083835b6020831015156121bd5780518252602082019150602081019050602083039250612198565b6001836020036101000a0380198251168184511680821785525050505050509050019150506040518091039020600190049150600460009054906101000a900473ffffffffffffffffffffffffffffffffffffffff1673ffffffffffffffffffffffffffffffffffffffff166336f406cd838c338b8e8e8a6040518863ffffffff167c0100000000000000000000000000000000000000000000000000000000028152600401808881526020018773ffffffffffffffffffffffffffffffffffffffff1673ffffffffffffffffffffffffffffffffffffffff1681526020018673ffffffffffffffffffffffffffffffffffffffff1673ffffffffffffffffffffffffffffffffffffffff168152602001856000191660001916815260200180602001831515151581526020018281038252858582818152602001925080828437820191505098505050505050505050600060405180830381600087803b15801561232757600080fd5b505af115801561233b573d6000803e3d6000fd5b505050508315612434578973ffffffffffffffffffffffffffffffffffffffff1663de261583838b8b8b8b8b8a6040518863ffffffff167c010000000000000000000000000000000000000000000000000000000002815260040180888152602001806020018660001916600019168152602001806020018415151515815260200183810383528989828181526020019250808284378201915050838103825286868281815260200192506020028082843782019150509950505050505050505050600060405180830381600087803b15801561241757600080fd5b505af115801561242b573d6000803e3d6000fd5b505050506124f6565b3373ffffffffffffffffffffffffffffffffffffffff168a73ffffffffffffffffffffffffffffffffffffffff16837f69741cc3ec0270f258feb6b53b42ef1e7d2251a3c8eea4f6ba1f72bd4b7beba78c8c8c8c8c8b60405180806020018660001916600019168152602001806020018415151515815260200183810383528989828181526020019250808284378201915050838103825286868281815260200192506020028082843782019150509850505050505050505060405180910390a45b61258f565b6040517f08c379a00000000000000000000000000000000000000000000000000000000081526004018080602001828103825260228152602001807f5375627363726962657220646f6573206e6f74206861766520616e7920646f7481526020017f732e00000000000000000000000000000000000000000000000000000000000081525060400191505060405180910390fd5b5098975050505050505050565b6000809054906101000a900473ffffffffffffffffffffffffffffffffffffffff1673ffffffffffffffffffffffffffffffffffffffff163373ffffffffffffffffffffffffffffffffffffffff161415156125f757600080fd5b80600560006101000a81548173ffffffffffffffffffffffffffffffffffffffff021916908373ffffffffffffffffffffffffffffffffffffffff16021790555050565b600760009054906101000a900473ffffffffffffffffffffffffffffffffffffffff1681565b6000809054906101000a900473ffffffffffffffffffffffffffffffffffffffff1673ffffffffffffffffffffffffffffffffffffffff163373ffffffffffffffffffffffffffffffffffffffff161415156126bc57600080fd5b600073ffffffffffffffffffffffffffffffffffffffff168173ffffffffffffffffffffffffffffffffffffffff16141515156126f857600080fd5b8073ffffffffffffffffffffffffffffffffffffffff166000809054906101000a900473ffffffffffffffffffffffffffffffffffffffff1673ffffffffffffffffffffffffffffffffffffffff167f8be0079c531659141344cd1fd0a4f28419497f9722a3daafe3b4186f6b6457e060405160405180910390a3806000806101000a81548173ffffffffffffffffffffffffffffffffffffffff021916908373ffffffffffffffffffffffffffffffffffffffff16021790555050565b60003373ffffffffffffffffffffffffffffffffffffffff16600460009054906101000a900473ffffffffffffffffffffffffffffffffffffffff1673ffffffffffffffffffffffffffffffffffffffff16635c42d079886040518263ffffffff167c010000000000000000000000000000000000000000000000000000000002815260040180828152602001915050602060405180830381600087803b15801561286057600080fd5b505af1158015612874573d6000803e3d6000fd5b505050506040513d602081101561288a57600080fd5b810190808051906020019092919050505073ffffffffffffffffffffffffffffffffffffffff161415806128c457506128c286612cb5565b155b156128ce57600080fd5b600460009054906101000a900473ffffffffffffffffffffffffffffffffffffffff1673ffffffffffffffffffffffffffffffffffffffff166337a8c560876040518263ffffffff167c010000000000000000000000000000000000000000000000000000000002815260040180828152602001915050602060405180830381600087803b15801561295f57600080fd5b505af1158015612973573d6000803e3d6000fd5b505050506040513d602081101561298957600080fd5b810190808051906020019092919050505015612b3a57600460009054906101000a900473ffffffffffffffffffffffffffffffffffffffff1673ffffffffffffffffffffffffffffffffffffffff166325df1e77876040518263ffffffff167c010000000000000000000000000000000000000000000000000000000002815260040180828152602001915050602060405180830381600087803b158015612a3057600080fd5b505af1158015612a44573d6000803e3d6000fd5b505050506040513d6020811015612a5a57600080fd5b810190808051906020019092919050505073ffffffffffffffffffffffffffffffffffffffff1663f5795cd587878787876040518663ffffffff167c01000000000000000000000000000000000000000000000000000000000281526004018086815260200180602001806020018381038352878782818152602001925080828437820191505083810382528585828181526020019250808284378201915050975050505050505050600060405180830381600087803b158015612b1d57600080fd5b505af1158015612b31573d6000803e3d6000fd5b50505050612ca8565b3373ffffffffffffffffffffffffffffffffffffffff16600460009054906101000a900473ffffffffffffffffffffffffffffffffffffffff1673ffffffffffffffffffffffffffffffffffffffff166325df1e77886040518263ffffffff167c010000000000000000000000000000000000000000000000000000000002815260040180828152602001915050602060405180830381600087803b158015612be257600080fd5b505af1158015612bf6573d6000803e3d6000fd5b505050506040513d6020811015612c0c57600080fd5b810190808051906020019092919050505073ffffffffffffffffffffffffffffffffffffffff16877ff34afe5c6e139b15c1ff3b929a198532242d2d8727db2099925e4e2d8a8fc681888888886040518080602001806020018381038352878782818152602001925080828437820191505083810382528585828181526020019250808284378201915050965050505050505060405180910390a45b6001905095945050505050565b60008060008060006001811115612cc857fe5b600460009054906101000a900473ffffffffffffffffffffffffffffffffffffffff1673ffffffffffffffffffffffffffffffffffffffff16635c622a0e876040518263ffffffff167c010000000000000000000000000000000000000000000000000000000002815260040180828152602001915050602060405180830381600087803b158015612d5957600080fd5b505af1158015612d6d573d6000803e3d6000fd5b505050506040513d6020811015612d8357600080fd5b81019080805190602001909291905050506001811115612d9f57fe5b141515612dab57600080fd5b600460009054906101000a900473ffffffffffffffffffffffffffffffffffffffff1673ffffffffffffffffffffffffffffffffffffffff166325df1e77866040518263ffffffff167c010000000000000000000000000000000000000000000000000000000002815260040180828152602001915050602060405180830381600087803b158015612e3c57600080fd5b505af1158015612e50573d6000803e3d6000fd5b505050506040513d6020811015612e6657600080fd5b81019080805190602001909291905050509250600460009054906101000a900473ffffffffffffffffffffffffffffffffffffffff1673ffffffffffffffffffffffffffffffffffffffff16635c42d079866040518263ffffffff167c010000000000000000000000000000000000000000000000000000000002815260040180828152602001915050602060405180830381600087803b158015612f0a57600080fd5b505af1158015612f1e573d6000803e3d6000fd5b505050506040513d6020811015612f3457600080fd5b81019080805190602001909291905050509150600460009054906101000a900473ffffffffffffffffffffffffffffffffffffffff1673ffffffffffffffffffffffffffffffffffffffff1663937bbc4a866040518263ffffffff167c010000000000000000000000000000000000000000000000000000000002815260040180828152602001915050602060405180830381600087803b158015612fd857600080fd5b505af1158015612fec573d6000803e3d6000fd5b505050506040513d602081101561300257600080fd5b81019080805190602001909291905050509050600460009054906101000a900473ffffffffffffffffffffffffffffffffffffffff1673ffffffffffffffffffffffffffffffffffffffff16636e447710866040518263ffffffff167c010000000000000000000000000000000000000000000000000000000002815260040180828152602001915050600060405180830381600087803b1580156130a657600080fd5b505af11580156130ba573d6000803e3d6000fd5b50505050600560009054906101000a900473ffffffffffffffffffffffffffffffffffffffff1673ffffffffffffffffffffffffffffffffffffffff16633b058aa784848460016040518563ffffffff167c0100000000000000000000000000000000000000000000000000000000028152600401808573ffffffffffffffffffffffffffffffffffffffff1673ffffffffffffffffffffffffffffffffffffffff1681526020018473ffffffffffffffffffffffffffffffffffffffff1673ffffffffffffffffffffffffffffffffffffffff1681526020018360001916600019168152602001828152602001945050505050602060405180830381600087803b1580156131c857600080fd5b505af11580156131dc573d6000803e3d6000fd5b505050506040513d60208110156131f257600080fd5b81019080805190602001909291905050505080600019168273ffffffffffffffffffffffffffffffffffffffff168473ffffffffffffffffffffffffffffffffffffffff167fd2acd679e4b12e04dac69f514df2934d7bdb622acd5b5ebaea14f3dd70c3d58a60405160405180910390a460019350505050919050565b600360009054906101000a900473ffffffffffffffffffffffffffffffffffffffff1673ffffffffffffffffffffffffffffffffffffffff1663358177736040518163ffffffff167c01000000000000000000000000000000000000000000000000000000000281526004018080602001828103825260108152602001807f44495350415443485f53544f5241474500000000000000000000000000000000815250602001915050602060405180830381600087803b15801561333157600080fd5b505af1158015613345573d6000803e3d6000fd5b505050506040513d602081101561335b57600080fd5b8101908080519060200190929190505050600660006101000a81548173ffffffffffffffffffffffffffffffffffffffff021916908373ffffffffffffffffffffffffffffffffffffffff160217905550600360009054906101000a900473ffffffffffffffffffffffffffffffffffffffff1673ffffffffffffffffffffffffffffffffffffffff1663358177736040518163ffffffff167c01000000000000000000000000000000000000000000000000000000000281526004018080602001828103825260078152602001807f424f4e4441474500000000000000000000000000000000000000000000000000815250602001915050602060405180830381600087803b15801561346e57600080fd5b505af1158015613482573d6000803e3d6000fd5b505050506040513d602081101561349857600080fd5b8101908080519060200190929190505050600760006101000a81548173ffffffffffffffffffffffffffffffffffffffff021916908373ffffffffffffffffffffffffffffffffffffffff160217905550600660009054906101000a900473ffffffffffffffffffffffffffffffffffffffff16600460006101000a81548173ffffffffffffffffffffffffffffffffffffffff021916908373ffffffffffffffffffffffffffffffffffffffff160217905550600760009054906101000a900473ffffffffffffffffffffffffffffffffffffffff16600560006101000a81548173ffffffffffffffffffffffffffffffffffffffff021916908373ffffffffffffffffffffffffffffffffffffffff1602179055505600a165627a7a72305820ad93caf8a54e9fe41321dc84e8b5cbb1c8e847af13cc5aad5967920e1d8952520029",
  "source": "pragma solidity ^0.4.24;\n// v1.0\n\nimport \"../../lib/ownership/Upgradable.sol\";\nimport \"../../lib/lifecycle/Destructible.sol\";\nimport \"../../lib/platform/Client.sol\";\nimport \"../../lib/platform/OnChainProvider.sol\";\nimport \"../bondage/BondageInterface.sol\"; \nimport \"../../lib/ownership/StorageHandler.sol\";\nimport \"./DispatchStorage.sol\";\nimport \"./DispatchInterface.sol\";\n\ncontract Dispatch is Destructible, DispatchInterface, StorageHandler, Upgradable { \n\n    //event data provider is listening for, containing all relevant request parameters\n    event Incoming(\n        uint256 indexed id,\n        address indexed provider,\n        address indexed subscriber,\n        string query,\n        bytes32 endpoint,\n        bytes32[] endpointParams,\n        bool onchainSubscriber\n    );\n\n    event FulfillQuery(\n        address indexed subscriber,\n        address indexed provider,\n        bytes32 indexed endpoint\n    );\n\n    event OffchainResponse(\n        uint256 indexed id,\n        address indexed subscriber,\n        address indexed provider,\n        bytes32[] response\n    );\n\n    event OffchainResult1(\n        uint256 indexed id,\n        address indexed subscriber,\n        address indexed provider,\n        string response1\n    );\n\n    event OffchainResult2(\n        uint256 indexed id,\n        address indexed subscriber,\n        address indexed provider,\n        string response1,\n        string response2\n    );\n\n    event OffchainResult3(\n        uint256 indexed id,\n        address indexed subscriber,\n        address indexed provider,\n        string response1,\n        string response2,\n        string response3\n    );\n\n    event OffchainResult4(\n        uint256 indexed id,\n        address indexed subscriber,\n        address indexed provider,\n        string response1,\n        string response2,\n        string response3,\n        string response4\n    );\n\n    DispatchStorage stor;\n    BondageInterface bondage;\n\n    address public storageAddress;\n    address public bondageAddress;\n\n    constructor(address c) Upgradable(c) public {\n        _updateDependencies();\n    }\n\n    function _updateDependencies() internal {\n        storageAddress = coordinator.getContract(\"DISPATCH_STORAGE\");\n        bondageAddress = coordinator.getContract(\"BONDAGE\");\n        stor = DispatchStorage(storageAddress);\n        bondage = BondageInterface(bondageAddress);\n    }\n\n    /// @notice Upgdate bondage function (barring no interface change)\n    function setBondage(address _bondageAddress) public onlyOwner {\n        bondage = BondageInterface(_bondageAddress);\n    }    \n\n    /// @notice Escrow dot for oracle request\n    /// @dev Called by user contract\n    function query(\n        address provider,           // data provider address\n        string userQuery,           // query string\n        bytes32 endpoint,           // endpoint specifier ala 'smart_contract'\n        bytes32[] endpointParams,   // endpoint-specific params\n        bool onchainProvider,                // is provider a contract \n        bool onchainSubscriber               // is subscriber a contract\n        )\n        external\n        returns (uint256 id)\n    {\n        uint256 dots = bondage.getBoundDots(msg.sender, provider, endpoint);\n\n        if(dots >= 1) {\n            //enough dots\n            bondage.escrowDots(msg.sender, provider, endpoint, 1);\n\n            id = uint256(keccak256(abi.encodePacked(block.number, now, userQuery, msg.sender, provider)));\n\n            stor.createQuery(id, provider, msg.sender, endpoint, userQuery, onchainSubscriber);\n            if(onchainProvider) {\n                OnChainProvider(provider).receive(id, userQuery, endpoint, endpointParams, onchainSubscriber); \n            }\n            else{\n                emit Incoming(id, provider, msg.sender, userQuery, endpoint, endpointParams, onchainSubscriber);\n            }\n        } else {\n            // NOT ENOUGH DOTS\n            revert(\"Subscriber does not have any dots.\");\n        }\n    }\n\n    /// @notice Transfer dots from Bondage escrow to data provider's Holder object under its own address\n    /// @dev Called upon data-provider request fulfillment\n    function fulfillQuery(uint256 id) internal returns (bool) {\n\n        require(stor.getStatus(id) == DispatchStorage.Status.Pending);\n\n        address subscriber = stor.getSubscriber(id);\n        address provider = stor.getProvider(id);\n        bytes32 endpoint = stor.getEndpoint(id);\n\n        stor.setFulfilled(id);\n\n        bondage.releaseDots(subscriber, provider, endpoint, 1);\n\n        emit FulfillQuery(subscriber, provider, endpoint);\n\n        return true;\n    }\n\n    /// @dev Parameter-count specific method called by data provider in response\n    function respondBytes32Array(\n        uint256 id,\n        bytes32[] response\n    )\n        external\n        returns (bool)\n    {\n        if (stor.getProvider(id) != msg.sender || !fulfillQuery(id))\n            revert();\n        if(stor.getSubscriberOnchain(id)) {\n            ClientBytes32Array(stor.getSubscriber(id)).callback(id, response);\n        }\n        else {\n            emit OffchainResponse(id, stor.getSubscriber(id), msg.sender, response);\n        }\n        return true;\n    }\n\n\n    /// @dev Parameter-count specific method called by data provider in response\n    function respond1(\n        uint256 id,\n        string response\n    )\n        external\n        returns (bool)\n    {\n        if (stor.getProvider(id) != msg.sender || !fulfillQuery(id))\n            revert();\n\n        if(stor.getSubscriberOnchain(id)) {\n            Client1(stor.getSubscriber(id)).callback(id, response);\n        }\n        else {\n            emit OffchainResult1(id, stor.getSubscriber(id), msg.sender, response);\n        }\n        return true;\n    }\n\n    /// @dev Parameter-count specific method called by data provider in response\n    function respond2(\n        uint256 id,\n        string response1,\n        string response2\n    )\n        external\n        returns (bool)\n    {\n        if (stor.getProvider(id) != msg.sender || !fulfillQuery(id))\n            revert();\n\n        if(stor.getSubscriberOnchain(id)) {\n            Client2(stor.getSubscriber(id)).callback(id, response1, response2);\n        }\n        else {\n            emit OffchainResult2(id, stor.getSubscriber(id), msg.sender, response1, response2);\n        }\n\n        return true;\n    }\n\n    /// @dev Parameter-count specific method called by data provider in response\n    function respond3(\n        uint256 id,\n        string response1,\n        string response2,\n        string response3\n    )\n        external\n        returns (bool)\n    {\n        if (stor.getProvider(id) != msg.sender || !fulfillQuery(id))\n            revert();\n\n        if(stor.getSubscriberOnchain(id)) {\n            Client3(stor.getSubscriber(id)).callback(id, response1, response2, response3);\n        }\n        else {\n            emit OffchainResult3(id, stor.getSubscriber(id), msg.sender, response1, response2, response3);\n        }\n\n        return true;\n    }\n\n    /// @dev Parameter-count specific method called by data provider in response\n    function respond4(\n        uint256 id,\n        string response1,\n        string response2,\n        string response3,\n        string response4\n    )\n        external\n        returns (bool)\n    {\n        if (stor.getProvider(id) != msg.sender || !fulfillQuery(id))\n            revert();\n\n        if(stor.getSubscriberOnchain(id)) {\n            Client4(stor.getSubscriber(id)).callback(id, response1, response2, response3, response4);\n        }\n        else {\n            emit OffchainResult4(id, stor.getSubscriber(id), msg.sender, response1, response2, response3, response4);\n        }\n\n        return true;\n    }\n}\n\n/*\n/* For use in example contract, see TestContracts.sol\n/*\n/* When User Contract calls ZapDispatch.query(),\n/* 1 oracle specific dot is escrowed by ZapBondage and Incoming event is ted.\n/*\n/* When provider's client hears an Incoming event containing provider's address and responds,\n/* the provider calls a ZapDispatch.respondX function corresponding to number of response params.\n/*\n/* Dots are moved from ZapBondage escrow to data-provider's bond Holder struct,\n/* with data provider address set as self's address.\n/*/ \n",
  "sourcePath": "/Users/avisaven/Documents/Work/Zap/zap-ethereum-api/contracts/platform/dispatch/Dispatch.sol",
  "compiler": {
    "name": "solc",
    "version": "0.4.24+commit.e67f0147.Emscripten.clang"
  },
  "schemaVersion": "2.0.0",
  "updatedAt": "2018-08-07T22:43:58.996Z"
}