{
  "contractName": "Registry",
  "abi": [
    {
      "constant": true,
      "inputs": [],
      "name": "storageAddress",
      "outputs": [
        {
          "name": "",
          "type": "address"
        }
      ],
      "payable": false,
      "stateMutability": "view",
      "type": "function"
    },
    {
      "constant": true,
      "inputs": [],
      "name": "owner",
      "outputs": [
        {
          "name": "",
          "type": "address"
        }
      ],
      "payable": false,
      "stateMutability": "view",
      "type": "function"
    },
    {
      "constant": false,
      "inputs": [
        {
          "name": "newStorage",
          "type": "address"
        }
      ],
      "name": "setStorage",
      "outputs": [],
      "payable": false,
      "stateMutability": "nonpayable",
      "type": "function"
    },
    {
      "constant": false,
      "inputs": [],
      "name": "selfDestruct",
      "outputs": [],
      "payable": false,
      "stateMutability": "nonpayable",
      "type": "function"
    },
    {
      "constant": false,
      "inputs": [
        {
          "name": "newOwner",
          "type": "address"
        }
      ],
      "name": "transferOwnership",
      "outputs": [],
      "payable": false,
      "stateMutability": "nonpayable",
      "type": "function"
    },
    {
      "inputs": [
        {
          "name": "_storageAddress",
          "type": "address"
        }
      ],
      "payable": false,
      "stateMutability": "nonpayable",
      "type": "constructor"
    },
    {
      "anonymous": false,
      "inputs": [
        {
          "indexed": true,
          "name": "provider",
          "type": "address"
        },
        {
          "indexed": true,
          "name": "title",
          "type": "bytes32"
        },
        {
          "indexed": true,
          "name": "endpoint",
          "type": "bytes32"
        }
      ],
      "name": "NewProvider",
      "type": "event"
    },
    {
      "anonymous": false,
      "inputs": [
        {
          "indexed": true,
          "name": "provider",
          "type": "address"
        },
        {
          "indexed": true,
          "name": "endpoint",
          "type": "bytes32"
        },
        {
          "indexed": false,
          "name": "constants",
          "type": "int256[]"
        },
        {
          "indexed": false,
          "name": "parts",
          "type": "uint256[]"
        },
        {
          "indexed": false,
          "name": "dividers",
          "type": "uint256[]"
        }
      ],
      "name": "NewCurve",
      "type": "event"
    },
    {
      "anonymous": false,
      "inputs": [
        {
          "indexed": true,
          "name": "previousStorage",
          "type": "address"
        },
        {
          "indexed": true,
          "name": "newStorage",
          "type": "address"
        }
      ],
      "name": "StorageTransferred",
      "type": "event"
    },
    {
      "anonymous": false,
      "inputs": [
        {
          "indexed": true,
          "name": "previousOwner",
          "type": "address"
        },
        {
          "indexed": true,
          "name": "newOwner",
          "type": "address"
        }
      ],
      "name": "OwnershipTransferred",
      "type": "event"
    },
    {
      "constant": false,
      "inputs": [
        {
          "name": "publicKey",
          "type": "uint256"
        },
        {
          "name": "title",
          "type": "bytes32"
        },
        {
          "name": "endpoint",
          "type": "bytes32"
        },
        {
          "name": "endpointParams",
          "type": "bytes32[]"
        }
      ],
      "name": "initiateProvider",
      "outputs": [
        {
          "name": "",
          "type": "bool"
        }
      ],
      "payable": false,
      "stateMutability": "nonpayable",
      "type": "function"
    },
    {
      "constant": false,
      "inputs": [
        {
          "name": "endpoint",
          "type": "bytes32"
        },
        {
          "name": "constants",
          "type": "int256[]"
        },
        {
          "name": "parts",
          "type": "uint256[]"
        },
        {
          "name": "dividers",
          "type": "uint256[]"
        }
      ],
      "name": "initiateProviderCurve",
      "outputs": [
        {
          "name": "",
          "type": "bool"
        }
      ],
      "payable": false,
      "stateMutability": "nonpayable",
      "type": "function"
    },
    {
      "constant": false,
      "inputs": [
        {
          "name": "endpoint",
          "type": "bytes32"
        },
        {
          "name": "endpointParams",
          "type": "bytes32[]"
        }
      ],
      "name": "setEndpointParams",
      "outputs": [],
      "payable": false,
      "stateMutability": "nonpayable",
      "type": "function"
    },
    {
      "constant": true,
      "inputs": [
        {
          "name": "provider",
          "type": "address"
        }
      ],
      "name": "getProviderPublicKey",
      "outputs": [
        {
          "name": "",
          "type": "uint256"
        }
      ],
      "payable": false,
      "stateMutability": "view",
      "type": "function"
    },
    {
      "constant": true,
      "inputs": [
        {
          "name": "provider",
          "type": "address"
        }
      ],
      "name": "getProviderTitle",
      "outputs": [
        {
          "name": "",
          "type": "bytes32"
        }
      ],
      "payable": false,
      "stateMutability": "view",
      "type": "function"
    },
    {
      "constant": true,
      "inputs": [
        {
          "name": "provider",
          "type": "address"
        },
        {
          "name": "endpoint",
          "type": "bytes32"
        },
        {
          "name": "index",
          "type": "uint256"
        }
      ],
      "name": "getNextEndpointParam",
      "outputs": [
        {
          "name": "nextIndex",
          "type": "uint256"
        },
        {
          "name": "endpointParam",
          "type": "bytes32"
        }
      ],
      "payable": false,
      "stateMutability": "view",
      "type": "function"
    },
    {
      "constant": true,
      "inputs": [
        {
          "name": "provider",
          "type": "address"
        },
        {
          "name": "endpoint",
          "type": "bytes32"
        }
      ],
      "name": "getProviderCurve",
      "outputs": [
        {
          "name": "",
          "type": "int256[]"
        },
        {
          "name": "",
          "type": "uint256[]"
        },
        {
          "name": "",
          "type": "uint256[]"
        }
      ],
      "payable": false,
      "stateMutability": "view",
      "type": "function"
    },
    {
      "constant": true,
      "inputs": [
        {
          "name": "provider",
          "type": "address"
        },
        {
          "name": "endpoint",
          "type": "bytes32"
        }
      ],
      "name": "getDotLimit",
      "outputs": [
        {
          "name": "",
          "type": "uint256"
        }
      ],
      "payable": false,
      "stateMutability": "view",
      "type": "function"
    },
    {
      "constant": true,
      "inputs": [
        {
          "name": "provider",
          "type": "address"
        },
        {
          "name": "endpoint",
          "type": "bytes32"
        }
      ],
      "name": "getProviderArgsLength",
      "outputs": [
        {
          "name": "",
          "type": "uint256"
        },
        {
          "name": "",
          "type": "uint256"
        },
        {
          "name": "",
          "type": "uint256"
        }
      ],
      "payable": false,
      "stateMutability": "view",
      "type": "function"
    },
    {
      "constant": true,
      "inputs": [
        {
          "name": "index",
          "type": "uint256"
        }
      ],
      "name": "getNextProvider",
      "outputs": [
        {
          "name": "nextIndex",
          "type": "uint256"
        },
        {
          "name": "oracleAddress",
          "type": "address"
        },
        {
          "name": "publicKey",
          "type": "uint256"
        },
        {
          "name": "title",
          "type": "bytes32"
        }
      ],
      "payable": false,
      "stateMutability": "view",
      "type": "function"
    }
  ],
  "bytecode": "0x608060405234801561001057600080fd5b506040516020806121b383398101806040528101908080519060200190929190505050336000806101000a81548173ffffffffffffffffffffffffffffffffffffffff021916908373ffffffffffffffffffffffffffffffffffffffff16021790555080600160006101000a81548173ffffffffffffffffffffffffffffffffffffffff021916908373ffffffffffffffffffffffffffffffffffffffff16021790555080600260006101000a81548173ffffffffffffffffffffffffffffffffffffffff021916908373ffffffffffffffffffffffffffffffffffffffff160217905550506120ae806101056000396000f3006080604052600436106100db576000357c0100000000000000000000000000000000000000000000000000000000900463ffffffff16806304c67525146100e05780632316a9ff146101845780634ff6e86e146102ba57806353b0a300146103115780635481f43e1461038457806385aa92a7146103e35780638da5cb5b1461043a5780639137c1a7146104915780639cb8a26a146104d4578063ad473221146104eb578063b21d9e8f14610569578063e48875ae1461067b578063e4b8a9a9146106e0578063f2fde38b1461076a578063fcf0c248146107ad575b600080fd5b3480156100ec57600080fd5b5061016a600480360381019080803590602001909291908035600019169060200190929190803560001916906020019092919080359060200190820180359060200190808060200260200160405190810160405280939291908181526020018383602002808284378201915050505050509192919290505050610821565b604051808215151515815260200191505060405180910390f35b34801561019057600080fd5b506101d3600480360381019080803573ffffffffffffffffffffffffffffffffffffffff1690602001909291908035600019169060200190929190505050610a70565b60405180806020018060200180602001848103845287818151815260200191508051906020019060200280838360005b8381101561021e578082015181840152602081019050610203565b50505050905001848103835286818151815260200191508051906020019060200280838360005b83811015610260578082015181840152602081019050610245565b50505050905001848103825285818151815260200191508051906020019060200280838360005b838110156102a2578082015181840152602081019050610287565b50505050905001965050505050505060405180910390f35b3480156102c657600080fd5b506102fb600480360381019080803573ffffffffffffffffffffffffffffffffffffffff169060200190929190505050610c7e565b6040518082815260200191505060405180910390f35b34801561031d57600080fd5b50610360600480360381019080803573ffffffffffffffffffffffffffffffffffffffff1690602001909291908035600019169060200190929190505050610d7f565b60405180848152602001838152602001828152602001935050505060405180910390f35b34801561039057600080fd5b506103c5600480360381019080803573ffffffffffffffffffffffffffffffffffffffff169060200190929190505050610ead565b60405180826000191660001916815260200191505060405180910390f35b3480156103ef57600080fd5b506103f8610fae565b604051808273ffffffffffffffffffffffffffffffffffffffff1673ffffffffffffffffffffffffffffffffffffffff16815260200191505060405180910390f35b34801561044657600080fd5b5061044f610fd4565b604051808273ffffffffffffffffffffffffffffffffffffffff1673ffffffffffffffffffffffffffffffffffffffff16815260200191505060405180910390f35b34801561049d57600080fd5b506104d2600480360381019080803573ffffffffffffffffffffffffffffffffffffffff169060200190929190505050610ff9565b005b3480156104e057600080fd5b506104e96112c6565b005b3480156104f757600080fd5b50610544600480360381019080803573ffffffffffffffffffffffffffffffffffffffff16906020019092919080356000191690602001909291908035906020019092919050505061135b565b6040518083815260200182600019166000191681526020019250505060405180910390f35b34801561057557600080fd5b5061066160048036038101908080356000191690602001909291908035906020019082018035906020019080806020026020016040519081016040528093929190818152602001838360200280828437820191505050505050919291929080359060200190820180359060200190808060200260200160405190810160405280939291908181526020018383602002808284378201915050505050509192919290803590602001908201803590602001908080602002602001604051908101604052809392919081815260200183836020028082843782019150505050505091929192905050506115c6565b604051808215151515815260200191505060405180910390f35b34801561068757600080fd5b506106ca600480360381019080803573ffffffffffffffffffffffffffffffffffffffff1690602001909291908035600019169060200190929190505050611ad3565b6040518082815260200191505060405180910390f35b3480156106ec57600080fd5b5061070b60048036038101908080359060200190929190505050611be5565b604051808581526020018473ffffffffffffffffffffffffffffffffffffffff1673ffffffffffffffffffffffffffffffffffffffff168152602001838152602001826000191660001916815260200194505050505060405180910390f35b34801561077657600080fd5b506107ab600480360381019080803573ffffffffffffffffffffffffffffffffffffffff169060200190929190505050611dfb565b005b3480156107b957600080fd5b5061081f600480360381019080803560001916906020019092919080359060200190820180359060200190808060200260200160405190810160405280939291908181526020018383602002808284378201915050505050509192919290505050611f50565b005b60008061082d33610c7e565b14151561083957600080fd5b600260009054906101000a900473ffffffffffffffffffffffffffffffffffffffff1673ffffffffffffffffffffffffffffffffffffffff1663b3c0b7be3387876040518463ffffffff167c0100000000000000000000000000000000000000000000000000000000028152600401808473ffffffffffffffffffffffffffffffffffffffff1673ffffffffffffffffffffffffffffffffffffffff16815260200183815260200182600019166000191681526020019350505050600060405180830381600087803b15801561090e57600080fd5b505af1158015610922573d6000803e3d6000fd5b5050505060006001028360001916141515610942576109418383611f50565b5b600260009054906101000a900473ffffffffffffffffffffffffffffffffffffffff1673ffffffffffffffffffffffffffffffffffffffff1663df5dd1a5336040518263ffffffff167c0100000000000000000000000000000000000000000000000000000000028152600401808273ffffffffffffffffffffffffffffffffffffffff1673ffffffffffffffffffffffffffffffffffffffff168152602001915050600060405180830381600087803b1580156109ff57600080fd5b505af1158015610a13573d6000803e3d6000fd5b50505050826000191684600019163373ffffffffffffffffffffffffffffffffffffffff167ff698ab0e7380181252e6e68ce19db1e5c79992e1a2b618460155606fe30c89f260405160405180910390a460019050949350505050565b6060806060600260009054906101000a900473ffffffffffffffffffffffffffffffffffffffff1673ffffffffffffffffffffffffffffffffffffffff1663cc31433886866040518363ffffffff167c0100000000000000000000000000000000000000000000000000000000028152600401808373ffffffffffffffffffffffffffffffffffffffff1673ffffffffffffffffffffffffffffffffffffffff168152602001826000191660001916815260200192505050600060405180830381600087803b158015610b4257600080fd5b505af1158015610b56573d6000803e3d6000fd5b505050506040513d6000823e3d601f19601f820116820180604052506060811015610b8057600080fd5b810190808051640100000000811115610b9857600080fd5b82810190506020810184811115610bae57600080fd5b8151856020820283011164010000000082111715610bcb57600080fd5b50509291906020018051640100000000811115610be757600080fd5b82810190506020810184811115610bfd57600080fd5b8151856020820283011164010000000082111715610c1a57600080fd5b50509291906020018051640100000000811115610c3657600080fd5b82810190506020810184811115610c4c57600080fd5b8151856020820283011164010000000082111715610c6957600080fd5b50509291905050509250925092509250925092565b6000600260009054906101000a900473ffffffffffffffffffffffffffffffffffffffff1673ffffffffffffffffffffffffffffffffffffffff1663857cdbb8836040518263ffffffff167c0100000000000000000000000000000000000000000000000000000000028152600401808273ffffffffffffffffffffffffffffffffffffffff1673ffffffffffffffffffffffffffffffffffffffff168152602001915050602060405180830381600087803b158015610d3d57600080fd5b505af1158015610d51573d6000803e3d6000fd5b505050506040513d6020811015610d6757600080fd5b81019080805190602001909291905050509050919050565b6000806000600260009054906101000a900473ffffffffffffffffffffffffffffffffffffffff1673ffffffffffffffffffffffffffffffffffffffff166353b0a30086866040518363ffffffff167c0100000000000000000000000000000000000000000000000000000000028152600401808373ffffffffffffffffffffffffffffffffffffffff1673ffffffffffffffffffffffffffffffffffffffff168152602001826000191660001916815260200192505050606060405180830381600087803b158015610e5157600080fd5b505af1158015610e65573d6000803e3d6000fd5b505050506040513d6060811015610e7b57600080fd5b810190808051906020019092919080519060200190929190805190602001909291905050509250925092509250925092565b6000600260009054906101000a900473ffffffffffffffffffffffffffffffffffffffff1673ffffffffffffffffffffffffffffffffffffffff1663f51d7d5f836040518263ffffffff167c0100000000000000000000000000000000000000000000000000000000028152600401808273ffffffffffffffffffffffffffffffffffffffff1673ffffffffffffffffffffffffffffffffffffffff168152602001915050602060405180830381600087803b158015610f6c57600080fd5b505af1158015610f80573d6000803e3d6000fd5b505050506040513d6020811015610f9657600080fd5b81019080805190602001909291905050509050919050565b600160009054906101000a900473ffffffffffffffffffffffffffffffffffffffff1681565b6000809054906101000a900473ffffffffffffffffffffffffffffffffffffffff1681565b6000809054906101000a900473ffffffffffffffffffffffffffffffffffffffff1673ffffffffffffffffffffffffffffffffffffffff163373ffffffffffffffffffffffffffffffffffffffff1614151561105457600080fd5b600073ffffffffffffffffffffffffffffffffffffffff168173ffffffffffffffffffffffffffffffffffffffff161415151561109057600080fd5b3073ffffffffffffffffffffffffffffffffffffffff16638da5cb5b6040518163ffffffff167c0100000000000000000000000000000000000000000000000000000000028152600401602060405180830381600087803b1580156110f457600080fd5b505af1158015611108573d6000803e3d6000fd5b505050506040513d602081101561111e57600080fd5b810190808051906020019092919050505073ffffffffffffffffffffffffffffffffffffffff168173ffffffffffffffffffffffffffffffffffffffff16638da5cb5b6040518163ffffffff167c0100000000000000000000000000000000000000000000000000000000028152600401602060405180830381600087803b1580156111a957600080fd5b505af11580156111bd573d6000803e3d6000fd5b505050506040513d60208110156111d357600080fd5b810190808051906020019092919050505073ffffffffffffffffffffffffffffffffffffffff1614151561120657600080fd5b8073ffffffffffffffffffffffffffffffffffffffff16600160009054906101000a900473ffffffffffffffffffffffffffffffffffffffff1673ffffffffffffffffffffffffffffffffffffffff167f76f31107eca34dd040193f6e1241ce5957bfc5a42f7736fdc1b27596555109d660405160405180910390a380600160006101000a81548173ffffffffffffffffffffffffffffffffffffffff021916908373ffffffffffffffffffffffffffffffffffffffff16021790555050565b6000809054906101000a900473ffffffffffffffffffffffffffffffffffffffff1673ffffffffffffffffffffffffffffffffffffffff163373ffffffffffffffffffffffffffffffffffffffff1614151561132157600080fd5b6000809054906101000a900473ffffffffffffffffffffffffffffffffffffffff1673ffffffffffffffffffffffffffffffffffffffff16ff5b6000806000600260009054906101000a900473ffffffffffffffffffffffffffffffffffffffff1673ffffffffffffffffffffffffffffffffffffffff16639a04b2d987876040518363ffffffff167c0100000000000000000000000000000000000000000000000000000000028152600401808373ffffffffffffffffffffffffffffffffffffffff1673ffffffffffffffffffffffffffffffffffffffff168152602001826000191660001916815260200192505050602060405180830381600087803b15801561142d57600080fd5b505af1158015611441573d6000803e3d6000fd5b505050506040513d602081101561145757600080fd5b81019080805190602001909291905050509050808410156115ac57600260009054906101000a900473ffffffffffffffffffffffffffffffffffffffff1673ffffffffffffffffffffffffffffffffffffffff1663d24c67418787876040518463ffffffff167c0100000000000000000000000000000000000000000000000000000000028152600401808473ffffffffffffffffffffffffffffffffffffffff1673ffffffffffffffffffffffffffffffffffffffff16815260200183600019166000191681526020018281526020019350505050602060405180830381600087803b15801561154757600080fd5b505af115801561155b573d6000803e3d6000fd5b505050506040513d602081101561157157600080fd5b810190808051906020019092919050505091508060018501101561159d576001840182925092506115bd565b600082819150925092506115bd565b600080819150806001029050925092505b50935093915050565b600080600260009054906101000a900473ffffffffffffffffffffffffffffffffffffffff1673ffffffffffffffffffffffffffffffffffffffff1663857cdbb8336040518263ffffffff167c0100000000000000000000000000000000000000000000000000000000028152600401808273ffffffffffffffffffffffffffffffffffffffff1673ffffffffffffffffffffffffffffffffffffffff168152602001915050602060405180830381600087803b15801561168657600080fd5b505af115801561169a573d6000803e3d6000fd5b505050506040513d60208110156116b057600080fd5b8101908080519060200190929190505050141515156116ce57600080fd5b600260009054906101000a900473ffffffffffffffffffffffffffffffffffffffff1673ffffffffffffffffffffffffffffffffffffffff166354a365df33876040518363ffffffff167c0100000000000000000000000000000000000000000000000000000000028152600401808373ffffffffffffffffffffffffffffffffffffffff1673ffffffffffffffffffffffffffffffffffffffff168152602001826000191660001916815260200192505050602060405180830381600087803b15801561179b57600080fd5b505af11580156117af573d6000803e3d6000fd5b505050506040513d60208110156117c557600080fd5b810190808051906020019092919050505015156117e157600080fd5b600260009054906101000a900473ffffffffffffffffffffffffffffffffffffffff1673ffffffffffffffffffffffffffffffffffffffff16635f38978933878787876040518663ffffffff167c0100000000000000000000000000000000000000000000000000000000028152600401808673ffffffffffffffffffffffffffffffffffffffff1673ffffffffffffffffffffffffffffffffffffffff1681526020018560001916600019168152602001806020018060200180602001848103845287818151815260200191508051906020019060200280838360005b838110156118da5780820151818401526020810190506118bf565b50505050905001848103835286818151815260200191508051906020019060200280838360005b8381101561191c578082015181840152602081019050611901565b50505050905001848103825285818151815260200191508051906020019060200280838360005b8381101561195e578082015181840152602081019050611943565b5050505090500198505050505050505050600060405180830381600087803b15801561198957600080fd5b505af115801561199d573d6000803e3d6000fd5b5050505084600019163373ffffffffffffffffffffffffffffffffffffffff167fa5b7f64b56f8b812fa96dda674a98abf2d5dd52fcd202fbf6ad0ef1fd8fe8df186868660405180806020018060200180602001848103845287818151815260200191508051906020019060200280838360005b83811015611a2c578082015181840152602081019050611a11565b50505050905001848103835286818151815260200191508051906020019060200280838360005b83811015611a6e578082015181840152602081019050611a53565b50505050905001848103825285818151815260200191508051906020019060200280838360005b83811015611ab0578082015181840152602081019050611a95565b50505050905001965050505050505060405180910390a360019050949350505050565b6000600260009054906101000a900473ffffffffffffffffffffffffffffffffffffffff1673ffffffffffffffffffffffffffffffffffffffff1663e48875ae84846040518363ffffffff167c0100000000000000000000000000000000000000000000000000000000028152600401808373ffffffffffffffffffffffffffffffffffffffff1673ffffffffffffffffffffffffffffffffffffffff168152602001826000191660001916815260200192505050602060405180830381600087803b158015611ba257600080fd5b505af1158015611bb6573d6000803e3d6000fd5b505050506040513d6020811015611bcc57600080fd5b8101908080519060200190929190505050905092915050565b6000806000806000600260009054906101000a900473ffffffffffffffffffffffffffffffffffffffff1673ffffffffffffffffffffffffffffffffffffffff1663b9552c606040518163ffffffff167c0100000000000000000000000000000000000000000000000000000000028152600401602060405180830381600087803b158015611c7357600080fd5b505af1158015611c87573d6000803e3d6000fd5b505050506040513d6020811015611c9d57600080fd5b8101908080519060200190929190505050905080861015611dda57600260009054906101000a900473ffffffffffffffffffffffffffffffffffffffff1673ffffffffffffffffffffffffffffffffffffffff16639217c438876040518263ffffffff167c010000000000000000000000000000000000000000000000000000000002815260040180828152602001915050602060405180830381600087803b158015611d4957600080fd5b505af1158015611d5d573d6000803e3d6000fd5b505050506040513d6020811015611d7357600080fd5b8101908080519060200190929190505050935080600187011015611db5576001860184611d9f86610c7e565b611da887610ead565b9450945094509450611df3565b600084611dc186610c7e565b611dca87610ead565b8393509450945094509450611df3565b6000806000829250819150809050600094509450945094505b509193509193565b6000809054906101000a900473ffffffffffffffffffffffffffffffffffffffff1673ffffffffffffffffffffffffffffffffffffffff163373ffffffffffffffffffffffffffffffffffffffff16141515611e5657600080fd5b600073ffffffffffffffffffffffffffffffffffffffff168173ffffffffffffffffffffffffffffffffffffffff1614151515611e9257600080fd5b8073ffffffffffffffffffffffffffffffffffffffff166000809054906101000a900473ffffffffffffffffffffffffffffffffffffffff1673ffffffffffffffffffffffffffffffffffffffff167f8be0079c531659141344cd1fd0a4f28419497f9722a3daafe3b4186f6b6457e060405160405180910390a3806000806101000a81548173ffffffffffffffffffffffffffffffffffffffff021916908373ffffffffffffffffffffffffffffffffffffffff16021790555050565b600260009054906101000a900473ffffffffffffffffffffffffffffffffffffffff1673ffffffffffffffffffffffffffffffffffffffff1663c6d1d82a3384846040518463ffffffff167c0100000000000000000000000000000000000000000000000000000000028152600401808473ffffffffffffffffffffffffffffffffffffffff1673ffffffffffffffffffffffffffffffffffffffff168152602001836000191660001916815260200180602001828103825283818151815260200191508051906020019060200280838360005b8381101561203f578082015181840152602081019050612024565b50505050905001945050505050600060405180830381600087803b15801561206657600080fd5b505af115801561207a573d6000803e3d6000fd5b5050505050505600a165627a7a723058209f158fd6e0407a44493ec7633785078303678b2f296784873cfca60f4844ff300029",
  "source": "pragma solidity ^0.4.24;\n// v1.0\n\nimport \"../../lib/lifecycle/Destructible.sol\";\nimport \"../../lib/ownership/StorageHandler.sol\";\nimport \"./RegistryStorage.sol\";\nimport \"./RegistryInterface.sol\";\n\ncontract Registry is Destructible, RegistryInterface, StorageHandler {\n\n    enum CurveType { None, Linear, Exponential, Logarithmic }\n\n    event NewProvider(\n        address indexed provider,\n        bytes32 indexed title,\n        bytes32 indexed endpoint\n    );\n\n    event NewCurve(\n        address indexed provider,\n        bytes32 indexed endpoint,\n        int[] constants,\n        uint[] parts,\n        uint[] dividers\n    );\n\n    RegistryStorage stor;\n\n    constructor(address _storageAddress) public {\n        storageAddress = _storageAddress;\n        stor = RegistryStorage(_storageAddress);\n    }\n\n    /// @dev initiates a provider.\n    /// If no address->Oracle mapping exists, Oracle object is created\n    /// @param publicKey unique id for provider. used for encyrpted key swap for subscription endpoints\n    /// @param title name\n    /// @param endpoint specifier\n    /// @param endpointParams endpoint specific params\n    function initiateProvider(\n        uint256 publicKey,\n        bytes32 title,\n        bytes32 endpoint,\n        bytes32[] endpointParams\n    )\n        public\n        returns (bool)\n    {\n        require(getProviderPublicKey(msg.sender) == 0);\n        stor.createOracle(msg.sender, publicKey, title);\n        if(endpoint != 0) setEndpointParams(endpoint, endpointParams);\n        stor.addOracle(msg.sender);\n        emit NewProvider(msg.sender, title, endpoint);\n        return true;\n    }\n\n    /// @dev initiates an endpoint specific provider curve\n    /// If oracle[specfifier] is uninitialized, Curve is mapped to endpoint\n    /// @param endpoint specifier of endpoint. currently \"smart_contract\" or \"socket_subscription\"\n    /// @param constants flattened array of all coefficients/powers/function across all polynomial terms\n    /// @param parts array of starting/ending points for piecewise function pieces\n    /// @param dividers array of indices, each specifying range of indices in coef,power,fn belonging to each piece\n    function initiateProviderCurve(\n        bytes32 endpoint,\n        int256[] constants,\n        uint256[] parts,\n        uint256[] dividers\n    )\n        public\n        returns (bool)\n    {\n        // Provider must be initiated\n        require(stor.getPublicKey(msg.sender) != 0);\n        // Can't reset their curve\n        require(stor.getCurveUnset(msg.sender, endpoint));\n\n        stor.setCurve(msg.sender, endpoint, constants, parts, dividers);\n        emit NewCurve(msg.sender, endpoint, constants, parts, dividers);\n\n        return true;\n    }\n\n    function setEndpointParams(bytes32 endpoint, bytes32[] endpointParams) public {\n        stor.setEndpointParameters(msg.sender, endpoint, endpointParams);\n    }\n\n    /// @return public key\n    function getProviderPublicKey(address provider) public view returns (uint256) {\n        return stor.getPublicKey(provider);\n    }\n\n    /// @return oracle name\n    function getProviderTitle(address provider) public view returns (bytes32) {\n        return stor.getTitle(provider);\n    }\n\n    /// @return endpoint-specific parameter\n    function getNextEndpointParam(address provider, bytes32 endpoint, uint256 index)\n        public\n        view\n        returns (uint256 nextIndex, bytes32 endpointParam)\n    {\n        uint256 len = stor.getEndpointIndexSize(provider, endpoint);\n        if (index < len) {\n            endpointParam = stor.getEndPointParam(provider, endpoint, index);\n            if (index + 1 < len) return (index + 1, endpointParam);\n            return (0, endpointParam);\n        }\n        return(0,0);\n    }\n\n    /// @dev get curve paramaters from oracle\n    function getProviderCurve(\n        address provider,\n        bytes32 endpoint\n    )\n        public\n        view\n        returns (int[], uint[],uint[])\n    {\n\n        return stor.getCurve(provider, endpoint);\n    }\n\n    /// @dev get curve dot limit \n    function getDotLimit(\n        address provider,\n        bytes32 endpoint\n    )\n        public\n        view\n        returns (uint)\n    {\n        return stor.getDotLimit(provider, endpoint);\n    }\n\n    /// @dev get length of constants, parts and dividers arrays\n    function getProviderArgsLength(address provider, bytes32 endpoint)\n        public\n        view\n        returns (uint, uint,uint)\n    {\n        return stor.getProviderArgsLength(provider, endpoint);\n\n    }\n\n    /// @dev get provider info\n    /// @param index index of provider\n    /// @return nextIndex next provider index\n    /// @return oracleAddress provider address\n    /// @return publicKey provider public key\n    /// @return title provider title\n    function getNextProvider(uint256 index)\n        public\n        view\n        returns (uint256 nextIndex, address oracleAddress, uint256 publicKey, bytes32 title)\n    {\n        uint256 len = stor.getOracleIndexSize();\n        if (index < len) {\n            oracleAddress = stor.getOracleAddress(index);\n            if (index + 1 < len)\n                return (\n                    index + 1,\n                    oracleAddress,\n                    getProviderPublicKey(oracleAddress),\n                    getProviderTitle(oracleAddress)\n                );\n            return (\n                0,\n                oracleAddress,\n                getProviderPublicKey(oracleAddress),\n                getProviderTitle(oracleAddress)\n            );\n        }\n        return (0,0x0,0,\"\");\n    }\n}\n",
  "sourcePath": "/Users/avisaven/Documents/Work/Zap/zap-ethereum-api/contracts/platform/registry/Registry.sol",
  "compiler": {
    "name": "solc",
    "version": "0.4.24+commit.e67f0147.Emscripten.clang"
  },
  "schemaVersion": "2.0.0",
  "updatedAt": "2018-08-06T18:03:18.417Z"
}