{
  "contractName": "Registry",
  "abi": [
    {
      "constant": true,
      "inputs": [],
      "name": "db",
      "outputs": [
        {
          "name": "",
          "type": "address"
        }
      ],
      "payable": false,
      "stateMutability": "view",
      "type": "function"
    },
    {
      "constant": false,
      "inputs": [],
      "name": "updateDependencies",
      "outputs": [],
      "payable": false,
      "stateMutability": "nonpayable",
      "type": "function"
    },
    {
      "constant": true,
      "inputs": [],
      "name": "owner",
      "outputs": [
        {
          "name": "",
          "type": "address"
        }
      ],
      "payable": false,
      "stateMutability": "view",
      "type": "function"
    },
    {
      "constant": false,
      "inputs": [],
      "name": "selfDestruct",
      "outputs": [],
      "payable": false,
      "stateMutability": "nonpayable",
      "type": "function"
    },
    {
      "constant": false,
      "inputs": [
        {
          "name": "newOwner",
          "type": "address"
        }
      ],
      "name": "transferOwnership",
      "outputs": [],
      "payable": false,
      "stateMutability": "nonpayable",
      "type": "function"
    },
    {
      "inputs": [
        {
          "name": "c",
          "type": "address"
        }
      ],
      "payable": false,
      "stateMutability": "nonpayable",
      "type": "constructor"
    },
    {
      "anonymous": false,
      "inputs": [
        {
          "indexed": true,
          "name": "provider",
          "type": "address"
        },
        {
          "indexed": true,
          "name": "title",
          "type": "bytes32"
        },
        {
          "indexed": true,
          "name": "endpoint",
          "type": "bytes32"
        }
      ],
      "name": "NewProvider",
      "type": "event"
    },
    {
      "anonymous": false,
      "inputs": [
        {
          "indexed": true,
          "name": "provider",
          "type": "address"
        },
        {
          "indexed": true,
          "name": "endpoint",
          "type": "bytes32"
        },
        {
          "indexed": false,
          "name": "curve",
          "type": "int256[]"
        }
      ],
      "name": "NewCurve",
      "type": "event"
    },
    {
      "anonymous": false,
      "inputs": [
        {
          "indexed": true,
          "name": "previousOwner",
          "type": "address"
        },
        {
          "indexed": true,
          "name": "newOwner",
          "type": "address"
        }
      ],
      "name": "OwnershipTransferred",
      "type": "event"
    },
    {
      "constant": false,
      "inputs": [
        {
          "name": "publicKey",
          "type": "uint256"
        },
        {
          "name": "title",
          "type": "bytes32"
        },
        {
          "name": "endpoint",
          "type": "bytes32"
        },
        {
          "name": "endpointParams",
          "type": "bytes32[]"
        }
      ],
      "name": "initiateProvider",
      "outputs": [
        {
          "name": "",
          "type": "bool"
        }
      ],
      "payable": false,
      "stateMutability": "nonpayable",
      "type": "function"
    },
    {
      "constant": false,
      "inputs": [
        {
          "name": "endpoint",
          "type": "bytes32"
        },
        {
          "name": "curve",
          "type": "int256[]"
        }
      ],
      "name": "initiateProviderCurve",
      "outputs": [
        {
          "name": "",
          "type": "bool"
        }
      ],
      "payable": false,
      "stateMutability": "nonpayable",
      "type": "function"
    },
    {
      "constant": false,
      "inputs": [
        {
          "name": "endpoint",
          "type": "bytes32"
        },
        {
          "name": "endpointParams",
          "type": "bytes32[]"
        }
      ],
      "name": "setEndpointParams",
      "outputs": [],
      "payable": false,
      "stateMutability": "nonpayable",
      "type": "function"
    },
    {
      "constant": true,
      "inputs": [
        {
          "name": "provider",
          "type": "address"
        }
      ],
      "name": "getProviderPublicKey",
      "outputs": [
        {
          "name": "",
          "type": "uint256"
        }
      ],
      "payable": false,
      "stateMutability": "view",
      "type": "function"
    },
    {
      "constant": true,
      "inputs": [
        {
          "name": "provider",
          "type": "address"
        }
      ],
      "name": "getProviderTitle",
      "outputs": [
        {
          "name": "",
          "type": "bytes32"
        }
      ],
      "payable": false,
      "stateMutability": "view",
      "type": "function"
    },
    {
      "constant": true,
      "inputs": [
        {
          "name": "provider",
          "type": "address"
        },
        {
          "name": "endpoint",
          "type": "bytes32"
        },
        {
          "name": "index",
          "type": "uint256"
        }
      ],
      "name": "getNextEndpointParam",
      "outputs": [
        {
          "name": "nextIndex",
          "type": "uint256"
        },
        {
          "name": "endpointParam",
          "type": "bytes32"
        }
      ],
      "payable": false,
      "stateMutability": "view",
      "type": "function"
    },
    {
      "constant": true,
      "inputs": [
        {
          "name": "provider",
          "type": "address"
        },
        {
          "name": "endpoint",
          "type": "bytes32"
        }
      ],
      "name": "getProviderCurve",
      "outputs": [
        {
          "name": "",
          "type": "int256[]"
        }
      ],
      "payable": false,
      "stateMutability": "view",
      "type": "function"
    },
    {
      "constant": true,
      "inputs": [
        {
          "name": "index",
          "type": "uint256"
        }
      ],
      "name": "getNextProvider",
      "outputs": [
        {
          "name": "nextIndex",
          "type": "uint256"
        },
        {
          "name": "oracleAddress",
          "type": "address"
        },
        {
          "name": "publicKey",
          "type": "uint256"
        },
        {
          "name": "title",
          "type": "bytes32"
        }
      ],
      "payable": false,
      "stateMutability": "view",
      "type": "function"
    },
    {
      "constant": true,
      "inputs": [
        {
          "name": "oracleAddress",
          "type": "address"
        }
      ],
      "name": "isProviderInitiated",
      "outputs": [
        {
          "name": "",
          "type": "bool"
        }
      ],
      "payable": false,
      "stateMutability": "view",
      "type": "function"
    },
    {
      "constant": true,
      "inputs": [
        {
          "name": "provider",
          "type": "address"
        }
      ],
      "name": "getPublicKey",
      "outputs": [
        {
          "name": "",
          "type": "uint256"
        }
      ],
      "payable": false,
      "stateMutability": "view",
      "type": "function"
    },
    {
      "constant": true,
      "inputs": [
        {
          "name": "provider",
          "type": "address"
        }
      ],
      "name": "getTitle",
      "outputs": [
        {
          "name": "",
          "type": "bytes32"
        }
      ],
      "payable": false,
      "stateMutability": "view",
      "type": "function"
    },
    {
      "constant": true,
      "inputs": [
        {
          "name": "provider",
          "type": "address"
        },
        {
          "name": "endpoint",
          "type": "bytes32"
        }
      ],
      "name": "getEndpointIndexSize",
      "outputs": [
        {
          "name": "",
          "type": "uint256"
        }
      ],
      "payable": false,
      "stateMutability": "view",
      "type": "function"
    },
    {
      "constant": true,
      "inputs": [
        {
          "name": "provider",
          "type": "address"
        },
        {
          "name": "endpoint",
          "type": "bytes32"
        },
        {
          "name": "index",
          "type": "uint256"
        }
      ],
      "name": "getEndPointParam",
      "outputs": [
        {
          "name": "",
          "type": "bytes32"
        }
      ],
      "payable": false,
      "stateMutability": "view",
      "type": "function"
    },
    {
      "constant": true,
      "inputs": [
        {
          "name": "provider",
          "type": "address"
        },
        {
          "name": "endpoint",
          "type": "bytes32"
        }
      ],
      "name": "getCurve",
      "outputs": [
        {
          "name": "",
          "type": "int256[]"
        }
      ],
      "payable": false,
      "stateMutability": "view",
      "type": "function"
    },
    {
      "constant": true,
      "inputs": [
        {
          "name": "provider",
          "type": "address"
        },
        {
          "name": "endpoint",
          "type": "bytes32"
        }
      ],
      "name": "getProviderArgsLength",
      "outputs": [
        {
          "name": "",
          "type": "uint256"
        }
      ],
      "payable": false,
      "stateMutability": "view",
      "type": "function"
    },
    {
      "constant": true,
      "inputs": [
        {
          "name": "provider",
          "type": "address"
        },
        {
          "name": "endpoint",
          "type": "bytes32"
        }
      ],
      "name": "getCurveUnset",
      "outputs": [
        {
          "name": "",
          "type": "bool"
        }
      ],
      "payable": false,
      "stateMutability": "view",
      "type": "function"
    },
    {
      "constant": true,
      "inputs": [],
      "name": "getOracleIndexSize",
      "outputs": [
        {
          "name": "",
          "type": "uint256"
        }
      ],
      "payable": false,
      "stateMutability": "view",
      "type": "function"
    },
    {
      "constant": true,
      "inputs": [
        {
          "name": "index",
          "type": "uint256"
        }
      ],
      "name": "getOracleAddress",
      "outputs": [
        {
          "name": "",
          "type": "address"
        }
      ],
      "payable": false,
      "stateMutability": "view",
      "type": "function"
    },
    {
      "constant": true,
      "inputs": [],
      "name": "getAllOracles",
      "outputs": [
        {
          "name": "",
          "type": "address[]"
        }
      ],
      "payable": false,
      "stateMutability": "view",
      "type": "function"
    }
  ],
  "bytecode": "0x60806040523480156200001157600080fd5b506040516020806200310f8339810180604052810190808051906020019092919050505080336000806101000a81548173ffffffffffffffffffffffffffffffffffffffff021916908373ffffffffffffffffffffffffffffffffffffffff16021790555080600160006101000a81548173ffffffffffffffffffffffffffffffffffffffff021916908373ffffffffffffffffffffffffffffffffffffffff16021790555080600260006101000a81548173ffffffffffffffffffffffffffffffffffffffff021916908373ffffffffffffffffffffffffffffffffffffffff160217905550506200011262000119640100000000026401000000009004565b5062000261565b6000600260009054906101000a900473ffffffffffffffffffffffffffffffffffffffff1673ffffffffffffffffffffffffffffffffffffffff1663358177736040518163ffffffff167c01000000000000000000000000000000000000000000000000000000000281526004018080602001828103825260088152602001807f4441544142415345000000000000000000000000000000000000000000000000815250602001915050602060405180830381600087803b158015620001de57600080fd5b505af1158015620001f3573d6000803e3d6000fd5b505050506040513d60208110156200020a57600080fd5b8101908080519060200190929190505050905080600360006101000a81548173ffffffffffffffffffffffffffffffffffffffff021916908373ffffffffffffffffffffffffffffffffffffffff16021790555050565b612e9e80620002716000396000f30060806040526004361061013e576000357c0100000000000000000000000000000000000000000000000000000000900463ffffffff16806304c6752514610143578063186b79c9146101e75780632316a9ff146102425780634d655aff146102e85780634ff6e86e1461033f57806353b0a300146103965780635481f43e146103fb57806354a365df1461045a57806365a6bb29146104c35780636e5ecdff1461052f578063857cdbb8146105465780638da5cb5b1461059d5780639217c438146105f45780639a04b2d9146106615780639cb8a26a146106c6578063ad473221146106dd578063b9552c601461075b578063cc31433814610786578063d24c67411461082c578063e4b8a9a9146108a3578063e67097fb1461092d578063f2fde38b146109b9578063f51d7d5f146109fc578063fcf0c24814610a5b575b600080fd5b34801561014f57600080fd5b506101cd600480360381019080803590602001909291908035600019169060200190929190803560001916906020019092919080359060200190820180359060200190808060200260200160405190810160405280939291908181526020018383602002808284378201915050505050509192919290505050610acf565b604051808215151515815260200191505060405180910390f35b3480156101f357600080fd5b50610228600480360381019080803573ffffffffffffffffffffffffffffffffffffffff169060200190929190505050610b6f565b604051808215151515815260200191505060405180910390f35b34801561024e57600080fd5b50610291600480360381019080803573ffffffffffffffffffffffffffffffffffffffff1690602001909291908035600019169060200190929190505050610b8b565b6040518080602001828103825283818151815260200191508051906020019060200280838360005b838110156102d45780820151818401526020810190506102b9565b505050509050019250505060405180910390f35b3480156102f457600080fd5b506102fd610b9f565b604051808273ffffffffffffffffffffffffffffffffffffffff1673ffffffffffffffffffffffffffffffffffffffff16815260200191505060405180910390f35b34801561034b57600080fd5b50610380600480360381019080803573ffffffffffffffffffffffffffffffffffffffff169060200190929190505050610bc5565b6040518082815260200191505060405180910390f35b3480156103a257600080fd5b506103e5600480360381019080803573ffffffffffffffffffffffffffffffffffffffff1690602001909291908035600019169060200190929190505050610bd7565b6040518082815260200191505060405180910390f35b34801561040757600080fd5b5061043c600480360381019080803573ffffffffffffffffffffffffffffffffffffffff169060200190929190505050610dd1565b60405180826000191660001916815260200191505060405180910390f35b34801561046657600080fd5b506104a9600480360381019080803573ffffffffffffffffffffffffffffffffffffffff1690602001909291908035600019169060200190929190505050610de3565b604051808215151515815260200191505060405180910390f35b3480156104cf57600080fd5b506104d8610fdf565b6040518080602001828103825283818151815260200191508051906020019060200280838360005b8381101561051b578082015181840152602081019050610500565b505050509050019250505060405180910390f35b34801561053b57600080fd5b506105446111b1565b005b34801561055257600080fd5b50610587600480360381019080803573ffffffffffffffffffffffffffffffffffffffff169060200190929190505050611217565b6040518082815260200191505060405180910390f35b3480156105a957600080fd5b506105b2611400565b604051808273ffffffffffffffffffffffffffffffffffffffff1673ffffffffffffffffffffffffffffffffffffffff16815260200191505060405180910390f35b34801561060057600080fd5b5061061f60048036038101908080359060200190929190505050611425565b604051808273ffffffffffffffffffffffffffffffffffffffff1673ffffffffffffffffffffffffffffffffffffffff16815260200191505060405180910390f35b34801561066d57600080fd5b506106b0600480360381019080803573ffffffffffffffffffffffffffffffffffffffff16906020019092919080356000191690602001909291905050506115ab565b6040518082815260200191505060405180910390f35b3480156106d257600080fd5b506106db6117a5565b005b3480156106e957600080fd5b50610736600480360381019080803573ffffffffffffffffffffffffffffffffffffffff16906020019092919080356000191690602001909291908035906020019092919050505061183a565b6040518083815260200182600019166000191681526020019250505060405180910390f35b34801561076757600080fd5b506107706118a2565b6040518082815260200191505060405180910390f35b34801561079257600080fd5b506107d5600480360381019080803573ffffffffffffffffffffffffffffffffffffffff1690602001909291908035600019169060200190929190505050611a1e565b6040518080602001828103825283818151815260200191508051906020019060200280838360005b838110156108185780820151818401526020810190506107fd565b505050509050019250505060405180910390f35b34801561083857600080fd5b50610885600480360381019080803573ffffffffffffffffffffffffffffffffffffffff169060200190929190803560001916906020019092919080359060200190929190505050611c82565b60405180826000191660001916815260200191505060405180910390f35b3480156108af57600080fd5b506108ce60048036038101908080359060200190929190505050611e85565b604051808581526020018473ffffffffffffffffffffffffffffffffffffffff1673ffffffffffffffffffffffffffffffffffffffff168152602001838152602001826000191660001916815260200194505050505060405180910390f35b34801561093957600080fd5b5061099f600480360381019080803560001916906020019092919080359060200190820180359060200190808060200260200160405190810160405280939291908181526020018383602002808284378201915050505050509192919290505050611f1f565b604051808215151515815260200191505060405180910390f35b3480156109c557600080fd5b506109fa600480360381019080803573ffffffffffffffffffffffffffffffffffffffff169060200190929190505050611ff3565b005b348015610a0857600080fd5b50610a3d600480360381019080803573ffffffffffffffffffffffffffffffffffffffff169060200190929190505050612148565b60405180826000191660001916815260200191505060405180910390f35b348015610a6757600080fd5b50610acd600480360381019080803560001916906020019092919080359060200190820180359060200190808060200260200160405190810160405280939291908181526020018383602002808284378201915050505050509192919290505050612331565b005b6000610ada33610b6f565b151515610ae657600080fd5b610af1338686612340565b60006001028360001916141515610b0d57610b0c8383612331565b5b610b16336126d7565b826000191684600019163373ffffffffffffffffffffffffffffffffffffffff167ff698ab0e7380181252e6e68ce19db1e5c79992e1a2b618460155606fe30c89f260405160405180910390a460019050949350505050565b600080600102610b7e83610dd1565b6000191614159050919050565b6060610b978383611a1e565b905092915050565b600360009054906101000a900473ffffffffffffffffffffffffffffffffffffffff1681565b6000610bd082611217565b9050919050565b6000600360009054906101000a900473ffffffffffffffffffffffffffffffffffffffff1673ffffffffffffffffffffffffffffffffffffffff1663a21a65ae848460405160200180807f6f7261636c6573000000000000000000000000000000000000000000000000008152506007018373ffffffffffffffffffffffffffffffffffffffff1673ffffffffffffffffffffffffffffffffffffffff166c01000000000000000000000000028152601401807f63757276657300000000000000000000000000000000000000000000000000008152506006018260001916600019168152602001925050506040516020818303038152906040526040518082805190602001908083835b602083101515610d075780518252602082019150602081019050602083039250610ce2565b6001836020036101000a03801982511681845116808217855250505050505090500191505060405180910390206040518263ffffffff167c0100000000000000000000000000000000000000000000000000000000028152600401808260001916600019168152602001915050602060405180830381600087803b158015610d8e57600080fd5b505af1158015610da2573d6000803e3d6000fd5b505050506040513d6020811015610db857600080fd5b8101908080519060200190929190505050905092915050565b6000610ddc82612148565b9050919050565b600080600360009054906101000a900473ffffffffffffffffffffffffffffffffffffffff1673ffffffffffffffffffffffffffffffffffffffff1663a21a65ae858560405160200180807f6f7261636c6573000000000000000000000000000000000000000000000000008152506007018373ffffffffffffffffffffffffffffffffffffffff1673ffffffffffffffffffffffffffffffffffffffff166c01000000000000000000000000028152601401807f63757276657300000000000000000000000000000000000000000000000000008152506006018260001916600019168152602001925050506040516020818303038152906040526040518082805190602001908083835b602083101515610f145780518252602082019150602081019050602083039250610eef565b6001836020036101000a03801982511681845116808217855250505050505090500191505060405180910390206040518263ffffffff167c0100000000000000000000000000000000000000000000000000000000028152600401808260001916600019168152602001915050602060405180830381600087803b158015610f9b57600080fd5b505af1158015610faf573d6000803e3d6000fd5b505050506040513d6020811015610fc557600080fd5b810190808051906020019092919050505014905092915050565b6060600360009054906101000a900473ffffffffffffffffffffffffffffffffffffffff1673ffffffffffffffffffffffffffffffffffffffff16635948f73360405160200180807f6f7261636c65496e646578000000000000000000000000000000000000000000815250600b0190506040516020818303038152906040526040518082805190602001908083835b602083101515611094578051825260208201915060208101905060208303925061106f565b6001836020036101000a03801982511681845116808217855250505050505090500191505060405180910390206040518263ffffffff167c0100000000000000000000000000000000000000000000000000000000028152600401808260001916600019168152602001915050600060405180830381600087803b15801561111b57600080fd5b505af115801561112f573d6000803e3d6000fd5b505050506040513d6000823e3d601f19601f82011682018060405250602081101561115957600080fd5b81019080805164010000000081111561117157600080fd5b8281019050602081018481111561118757600080fd5b81518560208202830111640100000000821117156111a457600080fd5b5050929190505050905090565b600160009054906101000a900473ffffffffffffffffffffffffffffffffffffffff1673ffffffffffffffffffffffffffffffffffffffff163373ffffffffffffffffffffffffffffffffffffffff1614151561120d57600080fd5b611215612860565b565b6000600360009054906101000a900473ffffffffffffffffffffffffffffffffffffffff1673ffffffffffffffffffffffffffffffffffffffff16632ecb0d648360405160200180807f6f7261636c6573000000000000000000000000000000000000000000000000008152506007018273ffffffffffffffffffffffffffffffffffffffff1673ffffffffffffffffffffffffffffffffffffffff166c01000000000000000000000000028152601401807f7075626c69634b657900000000000000000000000000000000000000000000008152506009019150506040516020818303038152906040526040518082805190602001908083835b6020831015156113375780518252602082019150602081019050602083039250611312565b6001836020036101000a03801982511681845116808217855250505050505090500191505060405180910390206040518263ffffffff167c0100000000000000000000000000000000000000000000000000000000028152600401808260001916600019168152602001915050602060405180830381600087803b1580156113be57600080fd5b505af11580156113d2573d6000803e3d6000fd5b505050506040513d60208110156113e857600080fd5b81019080805190602001909291905050509050919050565b6000809054906101000a900473ffffffffffffffffffffffffffffffffffffffff1681565b6000600360009054906101000a900473ffffffffffffffffffffffffffffffffffffffff1673ffffffffffffffffffffffffffffffffffffffff1663e16e934060405160200180807f6f7261636c65496e646578000000000000000000000000000000000000000000815250600b0190506040516020818303038152906040526040518082805190602001908083835b6020831015156114da57805182526020820191506020810190506020830392506114b5565b6001836020036101000a0380198251168184511680821785525050505050509050019150506040518091039020846040518363ffffffff167c010000000000000000000000000000000000000000000000000000000002815260040180836000191660001916815260200182815260200192505050602060405180830381600087803b15801561156957600080fd5b505af115801561157d573d6000803e3d6000fd5b505050506040513d602081101561159357600080fd5b81019080805190602001909291905050509050919050565b6000600360009054906101000a900473ffffffffffffffffffffffffffffffffffffffff1673ffffffffffffffffffffffffffffffffffffffff166343cb0af7848460405160200180807f6f7261636c6573000000000000000000000000000000000000000000000000008152506007018373ffffffffffffffffffffffffffffffffffffffff1673ffffffffffffffffffffffffffffffffffffffff166c01000000000000000000000000028152601401807f656e64706f696e74506172616d73000000000000000000000000000000000000815250600e018260001916600019168152602001925050506040516020818303038152906040526040518082805190602001908083835b6020831015156116db57805182526020820191506020810190506020830392506116b6565b6001836020036101000a03801982511681845116808217855250505050505090500191505060405180910390206040518263ffffffff167c0100000000000000000000000000000000000000000000000000000000028152600401808260001916600019168152602001915050602060405180830381600087803b15801561176257600080fd5b505af1158015611776573d6000803e3d6000fd5b505050506040513d602081101561178c57600080fd5b8101908080519060200190929190505050905092915050565b6000809054906101000a900473ffffffffffffffffffffffffffffffffffffffff1673ffffffffffffffffffffffffffffffffffffffff163373ffffffffffffffffffffffffffffffffffffffff1614151561180057600080fd5b6000809054906101000a900473ffffffffffffffffffffffffffffffffffffffff1673ffffffffffffffffffffffffffffffffffffffff16ff5b600080600061184986866115ab565b9050808410156118885761185e868686611c82565b91508060018501101561187957600184018292509250611899565b60008281915092509250611899565b600080819150806001029050925092505b50935093915050565b6000600360009054906101000a900473ffffffffffffffffffffffffffffffffffffffff1673ffffffffffffffffffffffffffffffffffffffff16632fc94ba660405160200180807f6f7261636c65496e646578000000000000000000000000000000000000000000815250600b0190506040516020818303038152906040526040518082805190602001908083835b6020831015156119575780518252602082019150602081019050602083039250611932565b6001836020036101000a03801982511681845116808217855250505050505090500191505060405180910390206040518263ffffffff167c0100000000000000000000000000000000000000000000000000000000028152600401808260001916600019168152602001915050602060405180830381600087803b1580156119de57600080fd5b505af11580156119f2573d6000803e3d6000fd5b505050506040513d6020811015611a0857600080fd5b8101908080519060200190929190505050905090565b6060611a2a8383610de3565b15611a3457600080fd5b600360009054906101000a900473ffffffffffffffffffffffffffffffffffffffff1673ffffffffffffffffffffffffffffffffffffffff16632d2899b6848460405160200180807f6f7261636c6573000000000000000000000000000000000000000000000000008152506007018373ffffffffffffffffffffffffffffffffffffffff1673ffffffffffffffffffffffffffffffffffffffff166c01000000000000000000000000028152601401807f63757276657300000000000000000000000000000000000000000000000000008152506006018260001916600019168152602001925050506040516020818303038152906040526040518082805190602001908083835b602083101515611b625780518252602082019150602081019050602083039250611b3d565b6001836020036101000a03801982511681845116808217855250505050505090500191505060405180910390206040518263ffffffff167c0100000000000000000000000000000000000000000000000000000000028152600401808260001916600019168152602001915050600060405180830381600087803b158015611be957600080fd5b505af1158015611bfd573d6000803e3d6000fd5b505050506040513d6000823e3d601f19601f820116820180604052506020811015611c2757600080fd5b810190808051640100000000811115611c3f57600080fd5b82810190506020810184811115611c5557600080fd5b8151856020820283011164010000000082111715611c7257600080fd5b5050929190505050905092915050565b6000600360009054906101000a900473ffffffffffffffffffffffffffffffffffffffff1673ffffffffffffffffffffffffffffffffffffffff16635eca2aeb858560405160200180807f6f7261636c6573000000000000000000000000000000000000000000000000008152506007018373ffffffffffffffffffffffffffffffffffffffff1673ffffffffffffffffffffffffffffffffffffffff166c01000000000000000000000000028152601401807f656e64706f696e74506172616d73000000000000000000000000000000000000815250600e018260001916600019168152602001925050506040516020818303038152906040526040518082805190602001908083835b602083101515611db25780518252602082019150602081019050602083039250611d8d565b6001836020036101000a0380198251168184511680821785525050505050509050019150506040518091039020846040518363ffffffff167c010000000000000000000000000000000000000000000000000000000002815260040180836000191660001916815260200182815260200192505050602060405180830381600087803b158015611e4157600080fd5b505af1158015611e55573d6000803e3d6000fd5b505050506040513d6020811015611e6b57600080fd5b810190808051906020019092919050505090509392505050565b6000806000806000611e956118a2565b905080861015611efe57611ea886611425565b935080600187011015611ed9576001860184611ec386610bc5565b611ecc87610dd1565b9450945094509450611f17565b600084611ee586610bc5565b611eee87610dd1565b8393509450945094509450611f17565b6000806000829250819150809050600094509450945094505b509193509193565b6000611f2a33610b6f565b1515611f3557600080fd5b611f3f3384610de3565b1515611f4a57600080fd5b611f553384846129a5565b82600019163373ffffffffffffffffffffffffffffffffffffffff167fb67d424d60359d61c1828cc3668bfa0489f3056931c50e1cbba313dc6f601bae846040518080602001828103825283818151815260200191508051906020019060200280838360005b83811015611fd6578082015181840152602081019050611fbb565b505050509050019250505060405180910390a36001905092915050565b6000809054906101000a900473ffffffffffffffffffffffffffffffffffffffff1673ffffffffffffffffffffffffffffffffffffffff163373ffffffffffffffffffffffffffffffffffffffff1614151561204e57600080fd5b600073ffffffffffffffffffffffffffffffffffffffff168173ffffffffffffffffffffffffffffffffffffffff161415151561208a57600080fd5b8073ffffffffffffffffffffffffffffffffffffffff166000809054906101000a900473ffffffffffffffffffffffffffffffffffffffff1673ffffffffffffffffffffffffffffffffffffffff167f8be0079c531659141344cd1fd0a4f28419497f9722a3daafe3b4186f6b6457e060405160405180910390a3806000806101000a81548173ffffffffffffffffffffffffffffffffffffffff021916908373ffffffffffffffffffffffffffffffffffffffff16021790555050565b6000600360009054906101000a900473ffffffffffffffffffffffffffffffffffffffff1673ffffffffffffffffffffffffffffffffffffffff1663a6ed563e8360405160200180807f6f7261636c6573000000000000000000000000000000000000000000000000008152506007018273ffffffffffffffffffffffffffffffffffffffff1673ffffffffffffffffffffffffffffffffffffffff166c01000000000000000000000000028152601401807f7469746c650000000000000000000000000000000000000000000000000000008152506005019150506040516020818303038152906040526040518082805190602001908083835b6020831015156122685780518252602082019150602081019050602083039250612243565b6001836020036101000a03801982511681845116808217855250505050505090500191505060405180910390206040518263ffffffff167c0100000000000000000000000000000000000000000000000000000000028152600401808260001916600019168152602001915050602060405180830381600087803b1580156122ef57600080fd5b505af1158015612303573d6000803e3d6000fd5b505050506040513d602081101561231957600080fd5b81019080805190602001909291905050509050919050565b61233c338383612c57565b5050565b600360009054906101000a900473ffffffffffffffffffffffffffffffffffffffff1673ffffffffffffffffffffffffffffffffffffffff166354c552db8460405160200180807f6f7261636c6573000000000000000000000000000000000000000000000000008152506007018273ffffffffffffffffffffffffffffffffffffffff1673ffffffffffffffffffffffffffffffffffffffff166c01000000000000000000000000028152601401807f7075626c69634b657900000000000000000000000000000000000000000000008152506009019150506040516020818303038152906040526040518082805190602001908083835b60208310151561245e5780518252602082019150602081019050602083039250612439565b6001836020036101000a0380198251168184511680821785525050505050509050019150506040518091039020846040518363ffffffff167c010000000000000000000000000000000000000000000000000000000002815260040180836000191660001916815260200182815260200192505050600060405180830381600087803b1580156124ed57600080fd5b505af1158015612501573d6000803e3d6000fd5b50505050600360009054906101000a900473ffffffffffffffffffffffffffffffffffffffff1673ffffffffffffffffffffffffffffffffffffffff16634e91db088460405160200180807f6f7261636c6573000000000000000000000000000000000000000000000000008152506007018273ffffffffffffffffffffffffffffffffffffffff1673ffffffffffffffffffffffffffffffffffffffff166c01000000000000000000000000028152601401807f7469746c650000000000000000000000000000000000000000000000000000008152506005019150506040516020818303038152906040526040518082805190602001908083835b60208310151561262357805182526020820191506020810190506020830392506125fe565b6001836020036101000a0380198251168184511680821785525050505050509050019150506040518091039020836040518363ffffffff167c0100000000000000000000000000000000000000000000000000000000028152600401808360001916600019168152602001826000191660001916815260200192505050600060405180830381600087803b1580156126ba57600080fd5b505af11580156126ce573d6000803e3d6000fd5b50505050505050565b600360009054906101000a900473ffffffffffffffffffffffffffffffffffffffff1673ffffffffffffffffffffffffffffffffffffffff1663dd151d1e60405160200180807f6f7261636c65496e646578000000000000000000000000000000000000000000815250600b0190506040516020818303038152906040526040518082805190602001908083835b60208310151561278a5780518252602082019150602081019050602083039250612765565b6001836020036101000a0380198251168184511680821785525050505050509050019150506040518091039020836040518363ffffffff167c01000000000000000000000000000000000000000000000000000000000281526004018083600019166000191681526020018273ffffffffffffffffffffffffffffffffffffffff1673ffffffffffffffffffffffffffffffffffffffff16815260200192505050600060405180830381600087803b15801561284557600080fd5b505af1158015612859573d6000803e3d6000fd5b5050505050565b6000600260009054906101000a900473ffffffffffffffffffffffffffffffffffffffff1673ffffffffffffffffffffffffffffffffffffffff1663358177736040518163ffffffff167c01000000000000000000000000000000000000000000000000000000000281526004018080602001828103825260088152602001807f4441544142415345000000000000000000000000000000000000000000000000815250602001915050602060405180830381600087803b15801561292457600080fd5b505af1158015612938573d6000803e3d6000fd5b505050506040513d602081101561294e57600080fd5b8101908080519060200190929190505050905080600360006101000a81548173ffffffffffffffffffffffffffffffffffffffff021916908373ffffffffffffffffffffffffffffffffffffffff16021790555050565b600080600080600060019450600093505b8551841015612a375785848151811015156129cd57fe5b9060200190602002015192506000831315156129e857600080fd5b60018385010191508551821015156129ff57600080fd5b8582815181101515612a0d57fe5b9060200190602002015190508481111515612a2757600080fd5b80945060028301840193506129b6565b600360009054906101000a900473ffffffffffffffffffffffffffffffffffffffff1673ffffffffffffffffffffffffffffffffffffffff1663a9fcf76b898960405160200180807f6f7261636c6573000000000000000000000000000000000000000000000000008152506007018373ffffffffffffffffffffffffffffffffffffffff1673ffffffffffffffffffffffffffffffffffffffff166c01000000000000000000000000028152601401807f63757276657300000000000000000000000000000000000000000000000000008152506006018260001916600019168152602001925050506040516020818303038152906040526040518082805190602001908083835b602083101515612b655780518252602082019150602081019050602083039250612b40565b6001836020036101000a0380198251168184511680821785525050505050509050019150506040518091039020886040518363ffffffff167c010000000000000000000000000000000000000000000000000000000002815260040180836000191660001916815260200180602001828103825283818151815260200191508051906020019060200280838360005b83811015612c0f578082015181840152602081019050612bf4565b505050509050019350505050600060405180830381600087803b158015612c3557600080fd5b505af1158015612c49573d6000803e3d6000fd5b505050505050505050505050565b600360009054906101000a900473ffffffffffffffffffffffffffffffffffffffff1673ffffffffffffffffffffffffffffffffffffffff166356e5cf2e848460405160200180807f6f7261636c6573000000000000000000000000000000000000000000000000008152506007018373ffffffffffffffffffffffffffffffffffffffff1673ffffffffffffffffffffffffffffffffffffffff166c01000000000000000000000000028152601401807f656e64706f696e74506172616d73000000000000000000000000000000000000815250600e018260001916600019168152602001925050506040516020818303038152906040526040518082805190602001908083835b602083101515612d855780518252602082019150602081019050602083039250612d60565b6001836020036101000a0380198251168184511680821785525050505050509050019150506040518091039020836040518363ffffffff167c010000000000000000000000000000000000000000000000000000000002815260040180836000191660001916815260200180602001828103825283818151815260200191508051906020019060200280838360005b83811015612e2f578082015181840152602081019050612e14565b505050509050019350505050600060405180830381600087803b158015612e5557600080fd5b505af1158015612e69573d6000803e3d6000fd5b505050505050505600a165627a7a72305820633c81dfc931f573aeb14f5a21fd1c5d83ff2ae34e841d74d202a459ed72c1220029",
  "source": "pragma solidity ^0.4.24;\n// v1.0\n\nimport \"../../lib/lifecycle/Destructible.sol\";\nimport \"../../lib/ownership/Upgradable.sol\";\nimport \"../database/DatabaseInterface.sol\";\nimport \"./RegistryInterface.sol\";\n\ncontract Registry is Destructible, RegistryInterface, Upgradable {\n\n    event NewProvider(\n        address indexed provider,\n        bytes32 indexed title,\n        bytes32 indexed endpoint\n    );\n\n    event NewCurve(\n        address indexed provider,\n        bytes32 indexed endpoint,\n        int[] curve\n    );\n\n    DatabaseInterface public db;\n\n    constructor(address c) Upgradable(c) public {\n        _updateDependencies();\n    }\n\n    function _updateDependencies() internal {\n        address databaseAddress = coordinator.getContract(\"DATABASE\");\n        db = DatabaseInterface(databaseAddress);\n    }\n\n    /// @dev initiates a provider.\n    /// If no address->Oracle mapping exists, Oracle object is created\n    /// @param publicKey unique id for provider. used for encyrpted key swap for subscription endpoints\n    /// @param title name\n    /// @param endpoint specifier\n    /// @param endpointParams endpoint specific params\n    function initiateProvider(\n        uint256 publicKey,\n        bytes32 title,\n        bytes32 endpoint,\n        bytes32[] endpointParams\n    )\n        public\n        returns (bool)\n    {\n        require(!isProviderInitiated(msg.sender));\n        createOracle(msg.sender, publicKey, title);\n        if(endpoint != 0) setEndpointParams(endpoint, endpointParams);\n        addOracle(msg.sender);\n        emit NewProvider(msg.sender, title, endpoint);\n        return true;\n    }\n\n    /// @dev initiates an endpoint specific provider curve\n    /// If oracle[specfifier] is uninitialized, Curve is mapped to endpoint\n    /// @param endpoint specifier of endpoint. currently \"smart_contract\" or \"socket_subscription\"\n    /// @param curve flattened array of all segments, coefficients across all polynomial terms, [e0,l0,c0,c1,c2,...]\n    function initiateProviderCurve(\n        bytes32 endpoint,\n        int256[] curve\n    )\n        public\n        returns (bool)\n    {\n        // Provider must be initiated\n        require(isProviderInitiated(msg.sender));\n        // Can't reset their curve\n        require(getCurveUnset(msg.sender, endpoint));\n\n        setCurve(msg.sender, endpoint, curve);\n        emit NewCurve(msg.sender, endpoint, curve);\n\n        return true;\n    }\n\n    function setEndpointParams(bytes32 endpoint, bytes32[] endpointParams) public {\n        setEndpointParameters(msg.sender, endpoint, endpointParams);\n    }\n\n    /// @return public key\n    function getProviderPublicKey(address provider) public view returns (uint256) {\n        return getPublicKey(provider);\n    }\n\n    /// @return oracle name\n    function getProviderTitle(address provider) public view returns (bytes32) {\n        return getTitle(provider);\n    }\n\n    /// @return endpoint-specific parameter\n    function getNextEndpointParam(address provider, bytes32 endpoint, uint256 index)\n        public\n        view\n        returns (uint256 nextIndex, bytes32 endpointParam)\n    {\n        uint256 len = getEndpointIndexSize(provider, endpoint);\n        if (index < len) {\n            endpointParam = getEndPointParam(provider, endpoint, index);\n            if (index + 1 < len) return (index + 1, endpointParam);\n            return (0, endpointParam);\n        }\n        return(0,0);\n    }\n\n    /// @dev get curve paramaters from oracle\n    function getProviderCurve(\n        address provider,\n        bytes32 endpoint\n    )\n        public\n        view\n        returns (int[])\n    {\n\n        return getCurve(provider, endpoint);\n    }\n\n    /// @dev get provider info\n    /// @param index index of provider\n    /// @return nextIndex next provider index\n    /// @return oracleAddress provider address\n    /// @return publicKey provider public key\n    /// @return title provider title\n    function getNextProvider(uint256 index)\n        public\n        view\n        returns (uint256 nextIndex, address oracleAddress, uint256 publicKey, bytes32 title)\n    {\n        uint256 len = getOracleIndexSize();\n        if (index < len) {\n            oracleAddress = getOracleAddress(index);\n            if (index + 1 < len)\n                return (\n                    index + 1,\n                    oracleAddress,\n                    getProviderPublicKey(oracleAddress),\n                    getProviderTitle(oracleAddress)\n                );\n            return (\n                0,\n                oracleAddress,\n                getProviderPublicKey(oracleAddress),\n                getProviderTitle(oracleAddress)\n            );\n        }\n        return (0,0x0,0,\"\");\n    }\n\n    /// @dev is provider initiated\n    /// @param oracleAddress the provider address\n    /// @return Whether or not the provider has initiated in the Registry.\n    function isProviderInitiated(address oracleAddress) public view returns (bool) {\n        return getProviderTitle(oracleAddress) != 0;\n    }\n\n    /*** STORAGE FUNCTIONS ***/\n    /// @dev get public key of provider\n    function getPublicKey(address provider) public view returns (uint256) {\n        return db.getNumber(keccak256(abi.encodePacked(\"oracles\", provider, \"publicKey\")));\n    }\n\n    /// @dev get title of provider\n    function getTitle(address provider) public view returns (bytes32) {\n        return db.getBytes32(keccak256(abi.encodePacked(\"oracles\", provider, \"title\")));\n    }\n\n    /// @dev get endpoint params length\n    function getEndpointIndexSize(address provider, bytes32 endpoint) public view returns (uint256) {\n        return db.getBytesArrayLength(keccak256(abi.encodePacked(\"oracles\", provider, \"endpointParams\", endpoint)));\n    }\n\n    /// @dev get endpoint param by index\n    function getEndPointParam(address provider, bytes32 endpoint, uint256 index) public view returns (bytes32) {\n        return db.getBytesArrayIndex(keccak256(abi.encodePacked('oracles', provider, 'endpointParams', endpoint)), index);\n    }\n\n    /// @dev get curve array for this provider/endpoint\n    function getCurve(address provider, bytes32 endpoint)\n        public\n        view\n        returns (int[])\n    {   \n        if(getCurveUnset(provider, endpoint)) revert();\n        return db.getIntArray(keccak256(abi.encodePacked('oracles', provider, 'curves', endpoint)));\n    }\n\n    /// @dev get length of curve array\n    function getProviderArgsLength(address provider, bytes32 endpoint)\n        public\n        view\n        returns (uint)\n    {\n        return db.getIntArrayLength(keccak256(abi.encodePacked('oracles', provider, 'curves', endpoint)));\n    }\n\n    function getCurveUnset(address provider, bytes32 endpoint) public view returns (bool) {\n        return db.getIntArrayLength(keccak256(abi.encodePacked('oracles', provider, 'curves', endpoint))) == 0;\n    }\n\n    /// @dev get overall number of providers\n    function getOracleIndexSize() public view returns (uint256) {\n        return db.getAddressArrayLength(keccak256(abi.encodePacked('oracleIndex')));\n    }\n\n    /// @dev get provider address by index\n    function getOracleAddress(uint256 index) public view returns (address) {\n        return db.getAddressArrayIndex(keccak256(abi.encodePacked('oracleIndex')), index);\n    }\n\n    /// @dev get all oracle addresses\n    function getAllOracles() external view returns (address[]) {\n        return db.getAddressArray(keccak256(abi.encodePacked('oracleIndex')));\n    }\n\n    ///  @dev add new provider to mapping\n    function createOracle(address origin, uint256 publicKey, bytes32 title) private {\n        db.setNumber(keccak256(abi.encodePacked('oracles', origin, \"publicKey\")), uint256(publicKey));\n        db.setBytes32(keccak256(abi.encodePacked('oracles', origin, \"title\")), title);\n    }\n\n    /// @dev add new provider address to oracles array\n    function addOracle(address origin) private {\n        db.pushAddressArray(keccak256(abi.encodePacked('oracleIndex')), origin);\n    }\n\n    /// @dev set endpoint params of provider\n    function setEndpointParameters(\n        address origin,\n        bytes32 endpoint,\n        bytes32[] endpointParams\n    )   \n        private\n    {\n        db.setBytesArray(keccak256(abi.encodePacked('oracles', origin, 'endpointParams', endpoint)), endpointParams);\n    }\n\n\n    /// @dev initialize new curve for provider\n    /// @param origin address of provider\n    /// @param endpoint endpoint specifier\n    /// @param curve flattened array of all segments, coefficients across all polynomial terms, [l0,c0,c1,c2,..., ck, e0, ...]\n    function setCurve(\n        address origin,\n        bytes32 endpoint,\n        int[] curve\n    )\n        private\n    {\n        uint prevEnd = 1;\n        uint index = 0;\n\n        // Validate the curve\n        while ( index < curve.length ) {\n            // Validate the length of the piece\n            int len = curve[index];\n            require(len > 0);\n\n            // Validate the end index of the piece\n            uint endIndex = index + uint(len) + 1;\n            require(endIndex < curve.length);\n\n            // Validate that the end is continuous\n            int end = curve[endIndex];\n            require(uint(end) > prevEnd);\n\n            prevEnd = uint(end);\n            index += uint(len) + 2; \n        }\n\n        db.setIntArray(keccak256(abi.encodePacked('oracles', origin, 'curves', endpoint)), curve);\n    }\n}\n",
  "sourcePath": "/Users/michaelzman/Documents/workspace/zap-ethereum-api/contracts/platform/registry/Registry.sol",
  "compiler": {
    "name": "solc",
    "version": "0.4.24+commit.e67f0147.Emscripten.clang"
  },
  "schemaVersion": "2.0.0",
  "updatedAt": "2018-08-13T22:20:41.009Z"
}