{
  "contractName": "RegistryStorage",
  "abi": [
    {
      "constant": true,
      "inputs": [],
      "name": "owner",
      "outputs": [
        {
          "name": "",
          "type": "address"
        }
      ],
      "payable": false,
      "stateMutability": "view",
      "type": "function"
    },
    {
      "constant": false,
      "inputs": [
        {
          "name": "newOwner",
          "type": "address"
        }
      ],
      "name": "transferOwnership",
      "outputs": [],
      "payable": false,
      "stateMutability": "nonpayable",
      "type": "function"
    },
    {
      "anonymous": false,
      "inputs": [
        {
          "indexed": true,
          "name": "previousOwner",
          "type": "address"
        },
        {
          "indexed": true,
          "name": "newOwner",
          "type": "address"
        }
      ],
      "name": "OwnershipTransferred",
      "type": "event"
    },
    {
      "constant": true,
      "inputs": [
        {
          "name": "provider",
          "type": "address"
        }
      ],
      "name": "getPublicKey",
      "outputs": [
        {
          "name": "",
          "type": "uint256"
        }
      ],
      "payable": false,
      "stateMutability": "view",
      "type": "function"
    },
    {
      "constant": true,
      "inputs": [
        {
          "name": "provider",
          "type": "address"
        }
      ],
      "name": "getTitle",
      "outputs": [
        {
          "name": "",
          "type": "bytes32"
        }
      ],
      "payable": false,
      "stateMutability": "view",
      "type": "function"
    },
    {
      "constant": true,
      "inputs": [
        {
          "name": "provider",
          "type": "address"
        },
        {
          "name": "endpoint",
          "type": "bytes32"
        }
      ],
      "name": "getEndpointIndexSize",
      "outputs": [
        {
          "name": "",
          "type": "uint256"
        }
      ],
      "payable": false,
      "stateMutability": "view",
      "type": "function"
    },
    {
      "constant": true,
      "inputs": [
        {
          "name": "provider",
          "type": "address"
        },
        {
          "name": "endpoint",
          "type": "bytes32"
        },
        {
          "name": "index",
          "type": "uint256"
        }
      ],
      "name": "getEndPointParam",
      "outputs": [
        {
          "name": "",
          "type": "bytes32"
        }
      ],
      "payable": false,
      "stateMutability": "view",
      "type": "function"
    },
    {
      "constant": true,
      "inputs": [
        {
          "name": "provider",
          "type": "address"
        },
        {
          "name": "endpoint",
          "type": "bytes32"
        }
      ],
      "name": "getCurveUnset",
      "outputs": [
        {
          "name": "",
          "type": "bool"
        }
      ],
      "payable": false,
      "stateMutability": "view",
      "type": "function"
    },
    {
      "constant": true,
      "inputs": [
        {
          "name": "provider",
          "type": "address"
        },
        {
          "name": "endpoint",
          "type": "bytes32"
        }
      ],
      "name": "getCurve",
      "outputs": [
        {
          "name": "",
          "type": "int256[]"
        },
        {
          "name": "",
          "type": "uint256[]"
        },
        {
          "name": "",
          "type": "uint256[]"
        }
      ],
      "payable": false,
      "stateMutability": "view",
      "type": "function"
    },
    {
      "constant": true,
      "inputs": [
        {
          "name": "provider",
          "type": "address"
        },
        {
          "name": "endpoint",
          "type": "bytes32"
        }
      ],
      "name": "getDotLimit",
      "outputs": [
        {
          "name": "",
          "type": "uint256"
        }
      ],
      "payable": false,
      "stateMutability": "view",
      "type": "function"
    },
    {
      "constant": true,
      "inputs": [
        {
          "name": "provider",
          "type": "address"
        },
        {
          "name": "endpoint",
          "type": "bytes32"
        }
      ],
      "name": "getProviderArgsLength",
      "outputs": [
        {
          "name": "",
          "type": "uint256"
        },
        {
          "name": "",
          "type": "uint256"
        },
        {
          "name": "",
          "type": "uint256"
        }
      ],
      "payable": false,
      "stateMutability": "view",
      "type": "function"
    },
    {
      "constant": true,
      "inputs": [],
      "name": "getOracleIndexSize",
      "outputs": [
        {
          "name": "",
          "type": "uint256"
        }
      ],
      "payable": false,
      "stateMutability": "view",
      "type": "function"
    },
    {
      "constant": true,
      "inputs": [
        {
          "name": "index",
          "type": "uint256"
        }
      ],
      "name": "getOracleAddress",
      "outputs": [
        {
          "name": "",
          "type": "address"
        }
      ],
      "payable": false,
      "stateMutability": "view",
      "type": "function"
    },
    {
      "constant": false,
      "inputs": [
        {
          "name": "origin",
          "type": "address"
        },
        {
          "name": "publicKey",
          "type": "uint256"
        },
        {
          "name": "title",
          "type": "bytes32"
        }
      ],
      "name": "createOracle",
      "outputs": [],
      "payable": false,
      "stateMutability": "nonpayable",
      "type": "function"
    },
    {
      "constant": false,
      "inputs": [
        {
          "name": "origin",
          "type": "address"
        }
      ],
      "name": "addOracle",
      "outputs": [],
      "payable": false,
      "stateMutability": "nonpayable",
      "type": "function"
    },
    {
      "constant": false,
      "inputs": [
        {
          "name": "origin",
          "type": "address"
        },
        {
          "name": "endpoint",
          "type": "bytes32"
        },
        {
          "name": "endpointParams",
          "type": "bytes32[]"
        }
      ],
      "name": "setEndpointParameters",
      "outputs": [],
      "payable": false,
      "stateMutability": "nonpayable",
      "type": "function"
    },
    {
      "constant": false,
      "inputs": [
        {
          "name": "origin",
          "type": "address"
        },
        {
          "name": "endpoint",
          "type": "bytes32"
        },
        {
          "name": "constants",
          "type": "int256[]"
        },
        {
          "name": "parts",
          "type": "uint256[]"
        },
        {
          "name": "dividers",
          "type": "uint256[]"
        }
      ],
      "name": "setCurve",
      "outputs": [],
      "payable": false,
      "stateMutability": "nonpayable",
      "type": "function"
    }
  ],
  "bytecode": "0x6080604052336000806101000a81548173ffffffffffffffffffffffffffffffffffffffff021916908373ffffffffffffffffffffffffffffffffffffffff1602179055506115a6806100536000396000f3006080604052600436106100e6576000357c0100000000000000000000000000000000000000000000000000000000900463ffffffff16806353b0a300146100eb57806354a365df1461015e5780635f389789146101c7578063857cdbb8146102605780638da5cb5b146102b75780639217c4381461030e5780639a04b2d91461037b578063b3c0b7be146103e0578063b9552c601461043b578063c6d1d82a14610466578063cc314338146104cf578063d24c674114610605578063df5dd1a51461067c578063e48875ae146106bf578063f2fde38b14610724578063f51d7d5f14610767575b600080fd5b3480156100f757600080fd5b5061013a600480360381019080803573ffffffffffffffffffffffffffffffffffffffff16906020019092919080356000191690602001909291905050506107c6565b60405180848152602001838152602001828152602001935050505060405180910390f35b34801561016a57600080fd5b506101ad600480360381019080803573ffffffffffffffffffffffffffffffffffffffff16906020019092919080356000191690602001909291905050506108fe565b604051808215151515815260200191505060405180910390f35b3480156101d357600080fd5b5061025e600480360381019080803573ffffffffffffffffffffffffffffffffffffffff169060200190929190803560001916906020019092919080359060200190820180359060200191909192939192939080359060200190820180359060200191909192939192939080359060200190820180359060200191909192939192939050505061096c565b005b34801561026c57600080fd5b506102a1600480360381019080803573ffffffffffffffffffffffffffffffffffffffff169060200190929190505050610ad6565b6040518082815260200191505060405180910390f35b3480156102c357600080fd5b506102cc610b22565b604051808273ffffffffffffffffffffffffffffffffffffffff1673ffffffffffffffffffffffffffffffffffffffff16815260200191505060405180910390f35b34801561031a57600080fd5b5061033960048036038101908080359060200190929190505050610b47565b604051808273ffffffffffffffffffffffffffffffffffffffff1673ffffffffffffffffffffffffffffffffffffffff16815260200191505060405180910390f35b34801561038757600080fd5b506103ca600480360381019080803573ffffffffffffffffffffffffffffffffffffffff1690602001909291908035600019169060200190929190505050610b8a565b6040518082815260200191505060405180910390f35b3480156103ec57600080fd5b50610439600480360381019080803573ffffffffffffffffffffffffffffffffffffffff169060200190929190803590602001909291908035600019169060200190929190505050610bf3565b005b34801561044757600080fd5b50610450610cc8565b6040518082815260200191505060405180910390f35b34801561047257600080fd5b506104cd600480360381019080803573ffffffffffffffffffffffffffffffffffffffff1690602001909291908035600019169060200190929190803590602001908201803590602001919091929391929390505050610cd5565b005b3480156104db57600080fd5b5061051e600480360381019080803573ffffffffffffffffffffffffffffffffffffffff1690602001909291908035600019169060200190929190505050610da1565b60405180806020018060200180602001848103845287818151815260200191508051906020019060200280838360005b8381101561056957808201518184015260208101905061054e565b50505050905001848103835286818151815260200191508051906020019060200280838360005b838110156105ab578082015181840152602081019050610590565b50505050905001848103825285818151815260200191508051906020019060200280838360005b838110156105ed5780820151818401526020810190506105d2565b50505050905001965050505050505060405180910390f35b34801561061157600080fd5b5061065e600480360381019080803573ffffffffffffffffffffffffffffffffffffffff169060200190929190803560001916906020019092919080359060200190929190505050610f59565b60405180826000191660001916815260200191505060405180910390f35b34801561068857600080fd5b506106bd600480360381019080803573ffffffffffffffffffffffffffffffffffffffff169060200190929190505050610fd7565b005b3480156106cb57600080fd5b5061070e600480360381019080803573ffffffffffffffffffffffffffffffffffffffff169060200190929190803560001916906020019092919050505061109b565b6040518082815260200191505060405180910390f35b34801561073057600080fd5b50610765600480360381019080803573ffffffffffffffffffffffffffffffffffffffff169060200190929190505050611257565b005b34801561077357600080fd5b506107a8600480360381019080803573ffffffffffffffffffffffffffffffffffffffff1690602001909291905050506113ac565b60405180826000191660001916815260200191505060405180910390f35b6000806000600160008673ffffffffffffffffffffffffffffffffffffffff1673ffffffffffffffffffffffffffffffffffffffff1681526020019081526020016000206003016000856000191660001916815260200190815260200160002060000180549050600160008773ffffffffffffffffffffffffffffffffffffffff1673ffffffffffffffffffffffffffffffffffffffff1681526020019081526020016000206003016000866000191660001916815260200190815260200160002060010180549050600160008873ffffffffffffffffffffffffffffffffffffffff1673ffffffffffffffffffffffffffffffffffffffff16815260200190815260200160002060030160008760001916600019168152602001908152602001600020600201805490509250925092509250925092565b600080600160008573ffffffffffffffffffffffffffffffffffffffff1673ffffffffffffffffffffffffffffffffffffffff168152602001908152602001600020600301600084600019166000191681526020019081526020016000206001018054905014905092915050565b60008060009054906101000a900473ffffffffffffffffffffffffffffffffffffffff1673ffffffffffffffffffffffffffffffffffffffff163373ffffffffffffffffffffffffffffffffffffffff161415156109c957600080fd5b6003878790508115156109d857fe5b0483836001868690500381811015156109ed57fe5b90506020020135141515610a0057600080fd5b82829050600286869050811515610a1357fe5b04141515610a2057600080fd5b600085859050111515610a3257600080fd5b600160008a73ffffffffffffffffffffffffffffffffffffffff1673ffffffffffffffffffffffffffffffffffffffff1681526020019081526020016000206003016000896000191660001916815260200190815260200160002090508686826000019190610aa29291906113f8565b508484826001019190610ab6929190611445565b508282826002019190610aca929190611445565b50505050505050505050565b6000600160008373ffffffffffffffffffffffffffffffffffffffff1673ffffffffffffffffffffffffffffffffffffffff168152602001908152602001600020600001549050919050565b6000809054906101000a900473ffffffffffffffffffffffffffffffffffffffff1681565b6000600282815481101515610b5857fe5b9060005260206000200160009054906101000a900473ffffffffffffffffffffffffffffffffffffffff169050919050565b6000600160008473ffffffffffffffffffffffffffffffffffffffff1673ffffffffffffffffffffffffffffffffffffffff1681526020019081526020016000206002016000836000191660001916815260200190815260200160002080549050905092915050565b6000809054906101000a900473ffffffffffffffffffffffffffffffffffffffff1673ffffffffffffffffffffffffffffffffffffffff163373ffffffffffffffffffffffffffffffffffffffff16141515610c4e57600080fd5b60408051908101604052808381526020018260001916815250600160008573ffffffffffffffffffffffffffffffffffffffff1673ffffffffffffffffffffffffffffffffffffffff1681526020019081526020016000206000820151816000015560208201518160010190600019169055905050505050565b6000600280549050905090565b6000809054906101000a900473ffffffffffffffffffffffffffffffffffffffff1673ffffffffffffffffffffffffffffffffffffffff163373ffffffffffffffffffffffffffffffffffffffff16141515610d3057600080fd5b8181600160008773ffffffffffffffffffffffffffffffffffffffff1673ffffffffffffffffffffffffffffffffffffffff168152602001908152602001600020600201600086600019166000191681526020019081526020016000209190610d9a929190611492565b5050505050565b6060806060610dae6114e9565b600160008773ffffffffffffffffffffffffffffffffffffffff1673ffffffffffffffffffffffffffffffffffffffff168152602001908152602001600020600301600086600019166000191681526020019081526020016000206060604051908101604052908160008201805480602002602001604051908101604052809291908181526020018280548015610e6457602002820191906000526020600020905b815481526020019060010190808311610e50575b5050505050815260200160018201805480602002602001604051908101604052809291908181526020018280548015610ebc57602002820191906000526020600020905b815481526020019060010190808311610ea8575b5050505050815260200160028201805480602002602001604051908101604052809291908181526020018280548015610f1457602002820191906000526020600020905b815481526020019060010190808311610f00575b50505050508152505090506000816020015151111515610f3357600080fd5b806000015181602001518260400151829250819150809050935093509350509250925092565b6000600160008573ffffffffffffffffffffffffffffffffffffffff1673ffffffffffffffffffffffffffffffffffffffff1681526020019081526020016000206002016000846000191660001916815260200190815260200160002082815481101515610fc357fe5b906000526020600020015490509392505050565b6000809054906101000a900473ffffffffffffffffffffffffffffffffffffffff1673ffffffffffffffffffffffffffffffffffffffff163373ffffffffffffffffffffffffffffffffffffffff1614151561103257600080fd5b60028190806001815401808255809150509060018203906000526020600020016000909192909190916101000a81548173ffffffffffffffffffffffffffffffffffffffff021916908373ffffffffffffffffffffffffffffffffffffffff1602179055505050565b60006110a56114e9565b600160008573ffffffffffffffffffffffffffffffffffffffff1673ffffffffffffffffffffffffffffffffffffffff16815260200190815260200160002060030160008460001916600019168152602001908152602001600020606060405190810160405290816000820180548060200260200160405190810160405280929190818152602001828054801561115b57602002820191906000526020600020905b815481526020019060010190808311611147575b50505050508152602001600182018054806020026020016040519081016040528092919081815260200182805480156111b357602002820191906000526020600020905b81548152602001906001019080831161119f575b505050505081526020016002820180548060200260200160405190810160405280929190818152602001828054801561120b57602002820191906000526020600020905b8154815260200190600101908083116111f7575b5050505050815250509050600081602001515111151561122a57600080fd5b806020015160018260200151510381518110151561124457fe5b9060200190602002015191505092915050565b6000809054906101000a900473ffffffffffffffffffffffffffffffffffffffff1673ffffffffffffffffffffffffffffffffffffffff163373ffffffffffffffffffffffffffffffffffffffff161415156112b257600080fd5b600073ffffffffffffffffffffffffffffffffffffffff168173ffffffffffffffffffffffffffffffffffffffff16141515156112ee57600080fd5b8073ffffffffffffffffffffffffffffffffffffffff166000809054906101000a900473ffffffffffffffffffffffffffffffffffffffff1673ffffffffffffffffffffffffffffffffffffffff167f8be0079c531659141344cd1fd0a4f28419497f9722a3daafe3b4186f6b6457e060405160405180910390a3806000806101000a81548173ffffffffffffffffffffffffffffffffffffffff021916908373ffffffffffffffffffffffffffffffffffffffff16021790555050565b6000600160008373ffffffffffffffffffffffffffffffffffffffff1673ffffffffffffffffffffffffffffffffffffffff168152602001908152602001600020600101549050919050565b828054828255906000526020600020908101928215611434579160200282015b82811115611433578235825591602001919060010190611418565b5b509050611441919061150b565b5090565b828054828255906000526020600020908101928215611481579160200282015b82811115611480578235825591602001919060010190611465565b5b50905061148e9190611530565b5090565b8280548282559060005260206000209081019282156114d8579160200282015b828111156114d7578235600019168290600019169055916020019190600101906114b2565b5b5090506114e59190611555565b5090565b6060604051908101604052806060815260200160608152602001606081525090565b61152d91905b80821115611529576000816000905550600101611511565b5090565b90565b61155291905b8082111561154e576000816000905550600101611536565b5090565b90565b61157791905b8082111561157357600081600090555060010161155b565b5090565b905600a165627a7a7230582064b148e46e04945a39b36426040c4b9c9fab7790bd5d2bef9b938740a1a6bfce0029",
  "source": "pragma solidity ^0.4.24;\n\nimport \"../../lib/ownership/Ownable.sol\";\n\ncontract RegistryStorage is Ownable {\n\n    struct PiecewisePiece{\n        int[] constants;\n        uint[] parts;\n        uint[] dividers;\n    }\n\n    // fundamental account type for the platform\n    struct Oracle {\n        uint256 publicKey;                               // Public key of the data provider\n        bytes32 title;                                   // Tags (csv)\n        mapping(bytes32 => bytes32[]) endpointParams;    // Endpoint specific parameters\n        mapping(bytes32 => PiecewisePiece) curves; // Price vs Supply (contract endpoint)\n    }\n\n    mapping(address => Oracle) private oracles;\n    address[] private oracleIndex;\n\n    /**** Get Methods ****/\n\n    /// @dev get public key of provider\n    function getPublicKey(address provider) external view returns (uint256) {\n        return oracles[provider].publicKey;\n    }\n\n    /// @dev get title of provider\n    function getTitle(address provider) external view returns (bytes32) {\n        return oracles[provider].title;\n    }\n\n    /// @dev get endpoint params length\n    function getEndpointIndexSize(address provider, bytes32 endpoint) external view returns (uint256) {\n        return oracles[provider].endpointParams[endpoint].length;\n    }\n\n    /// @dev get endpoint param by index\n    function getEndPointParam(address provider, bytes32 endpoint, uint256 index) external view returns (bytes32) {\n        return oracles[provider].endpointParams[endpoint][index];\n    }\n\n    function getCurveUnset(address provider, bytes32 endpoint) public view returns (bool) {\n        return oracles[provider].curves[endpoint].parts.length==0;\n    }\n\n    /// @dev get curve constants, parts and dividers arrays\n    function getCurve(address provider, bytes32 endpoint)\n        external\n        view\n        returns (int[],uint[],uint[])\n    {\n        PiecewisePiece memory pieces = oracles[provider].curves[endpoint];\n        require(pieces.parts.length>0);\n        return (pieces.constants, pieces.parts, pieces.dividers);\n    }\n\n    /// @dev get limit on costcurve range \n    function getDotLimit(address provider, bytes32 endpoint)\n        external\n        view\n        returns (uint)\n    {\n        PiecewisePiece memory pieces = oracles[provider].curves[endpoint];\n        require(pieces.parts.length>0);\n         \n        // return int(pieces.parts[pieces.parts.length-1]);\n        return uint(pieces.parts[pieces.parts.length-1]);\n    }\n\n\n    /// @dev get length of constants, parts and dividers arrays\n    function getProviderArgsLength(address provider, bytes32 endpoint)\n        external\n        view\n        returns (uint,uint,uint)\n    {\n        return (oracles[provider].curves[endpoint].constants.length,\n        oracles[provider].curves[endpoint].parts.length,\n        oracles[provider].curves[endpoint].dividers.length);\n\n    }\n\n    /// @dev get overall number of providers\n    function getOracleIndexSize() external view returns (uint256) {\n        return oracleIndex.length;\n    }\n\n    /// @dev get provider address by index\n    function getOracleAddress(uint256 index) external view returns (address) {\n        return oracleIndex[index];\n    }\n\n    /**** Set Methods ****/\n\n    ///  @dev add new provider to mapping\n    function createOracle(address origin, uint256 publicKey, bytes32 title) external onlyOwner {\n        oracles[origin] = Oracle(publicKey, title);\n    }\n\n    /// @dev add new provider address to oracles array\n    function addOracle(address origin) external onlyOwner {\n        oracleIndex.push(origin);\n    }\n\n    /// @dev set endpoint params of provider\n    function setEndpointParameters(\n        address origin,\n        bytes32 endpoint,\n        bytes32[] endpointParams\n    )\n        external\n        onlyOwner\n\n    {\n        oracles[origin].endpointParams[endpoint] = endpointParams;\n    }\n\n\n    /// @dev initialize new curve for provider\n    /// @param origin address of provider\n    /// @param endpoint endpoint specifier\n    /// @param constants flattened array of all coefficients/powers/function across all polynomial terms, [c0,p0,fn0, c1,p1,fn1 ...]\n    /// @param parts array of starting/ending points for piecewise function pieces [start0,end0,start1,end1...]\n    /// @param dividers array of indices, each specifying range of indices in coef, power, fn belonging to each piece\n    function setCurve(\n        address origin,\n        bytes32 endpoint,\n        int[] constants,\n        uint[] parts,\n        uint[] dividers\n    )\n        external\n        onlyOwner\n    {\n        require(dividers[dividers.length-1]==constants.length/3);\n        require((parts.length/2)==dividers.length);\n        require(parts.length > 0);\n\n        PiecewisePiece storage pieces = oracles[origin].curves[endpoint];\n        pieces.constants = constants;\n        pieces.parts = parts;\n        pieces.dividers = dividers;\n    }\n}\n",
  "sourcePath": "/Users/avisaven/Documents/Work/Zap/zap-ethereum-api/contracts/platform/registry/RegistryStorage.sol",
  "compiler": {
    "name": "solc",
    "version": "0.4.24+commit.e67f0147.Emscripten.clang"
  },
  "schemaVersion": "2.0.0",
  "updatedAt": "2018-08-03T15:34:05.614Z"
}