{
  "contractName": "RegistryStorage",
  "abi": [
    {
      "constant": true,
      "inputs": [],
      "name": "owner",
      "outputs": [
        {
          "name": "",
          "type": "address"
        }
      ],
      "payable": false,
      "stateMutability": "view",
      "type": "function"
    },
    {
      "constant": false,
      "inputs": [
        {
          "name": "newOwner",
          "type": "address"
        }
      ],
      "name": "transferOwnership",
      "outputs": [],
      "payable": false,
      "stateMutability": "nonpayable",
      "type": "function"
    },
    {
      "anonymous": false,
      "inputs": [
        {
          "indexed": true,
          "name": "previousOwner",
          "type": "address"
        },
        {
          "indexed": true,
          "name": "newOwner",
          "type": "address"
        }
      ],
      "name": "OwnershipTransferred",
      "type": "event"
    },
    {
      "constant": true,
      "inputs": [
        {
          "name": "provider",
          "type": "address"
        }
      ],
      "name": "getPublicKey",
      "outputs": [
        {
          "name": "",
          "type": "uint256"
        }
      ],
      "payable": false,
      "stateMutability": "view",
      "type": "function"
    },
    {
      "constant": true,
      "inputs": [
        {
          "name": "provider",
          "type": "address"
        }
      ],
      "name": "getTitle",
      "outputs": [
        {
          "name": "",
          "type": "bytes32"
        }
      ],
      "payable": false,
      "stateMutability": "view",
      "type": "function"
    },
    {
      "constant": true,
      "inputs": [
        {
          "name": "provider",
          "type": "address"
        },
        {
          "name": "endpoint",
          "type": "bytes32"
        }
      ],
      "name": "getEndpointIndexSize",
      "outputs": [
        {
          "name": "",
          "type": "uint256"
        }
      ],
      "payable": false,
      "stateMutability": "view",
      "type": "function"
    },
    {
      "constant": true,
      "inputs": [
        {
          "name": "provider",
          "type": "address"
        },
        {
          "name": "endpoint",
          "type": "bytes32"
        },
        {
          "name": "index",
          "type": "uint256"
        }
      ],
      "name": "getEndPointParam",
      "outputs": [
        {
          "name": "",
          "type": "bytes32"
        }
      ],
      "payable": false,
      "stateMutability": "view",
      "type": "function"
    },
    {
      "constant": true,
      "inputs": [
        {
          "name": "provider",
          "type": "address"
        },
        {
          "name": "endpoint",
          "type": "bytes32"
        }
      ],
      "name": "getCurveUnset",
      "outputs": [
        {
          "name": "",
          "type": "bool"
        }
      ],
      "payable": false,
      "stateMutability": "view",
      "type": "function"
    },
    {
      "constant": true,
      "inputs": [
        {
          "name": "provider",
          "type": "address"
        },
        {
          "name": "endpoint",
          "type": "bytes32"
        }
      ],
      "name": "getCurve",
      "outputs": [
        {
          "name": "",
          "type": "int256[]"
        }
      ],
      "payable": false,
      "stateMutability": "view",
      "type": "function"
    },
    {
      "constant": true,
      "inputs": [
        {
          "name": "provider",
          "type": "address"
        },
        {
          "name": "endpoint",
          "type": "bytes32"
        }
      ],
      "name": "getProviderArgsLength",
      "outputs": [
        {
          "name": "",
          "type": "uint256"
        }
      ],
      "payable": false,
      "stateMutability": "view",
      "type": "function"
    },
    {
      "constant": true,
      "inputs": [],
      "name": "getOracleIndexSize",
      "outputs": [
        {
          "name": "",
          "type": "uint256"
        }
      ],
      "payable": false,
      "stateMutability": "view",
      "type": "function"
    },
    {
      "constant": true,
      "inputs": [
        {
          "name": "index",
          "type": "uint256"
        }
      ],
      "name": "getOracleAddress",
      "outputs": [
        {
          "name": "",
          "type": "address"
        }
      ],
      "payable": false,
      "stateMutability": "view",
      "type": "function"
    },
    {
      "constant": true,
      "inputs": [],
      "name": "getAllOracles",
      "outputs": [
        {
          "name": "",
          "type": "address[]"
        }
      ],
      "payable": false,
      "stateMutability": "view",
      "type": "function"
    },
    {
      "constant": false,
      "inputs": [
        {
          "name": "origin",
          "type": "address"
        },
        {
          "name": "publicKey",
          "type": "uint256"
        },
        {
          "name": "title",
          "type": "bytes32"
        }
      ],
      "name": "createOracle",
      "outputs": [],
      "payable": false,
      "stateMutability": "nonpayable",
      "type": "function"
    },
    {
      "constant": false,
      "inputs": [
        {
          "name": "origin",
          "type": "address"
        }
      ],
      "name": "addOracle",
      "outputs": [],
      "payable": false,
      "stateMutability": "nonpayable",
      "type": "function"
    },
    {
      "constant": false,
      "inputs": [
        {
          "name": "origin",
          "type": "address"
        },
        {
          "name": "endpoint",
          "type": "bytes32"
        },
        {
          "name": "endpointParams",
          "type": "bytes32[]"
        }
      ],
      "name": "setEndpointParameters",
      "outputs": [],
      "payable": false,
      "stateMutability": "nonpayable",
      "type": "function"
    },
    {
      "constant": false,
      "inputs": [
        {
          "name": "origin",
          "type": "address"
        },
        {
          "name": "endpoint",
          "type": "bytes32"
        },
        {
          "name": "curve",
          "type": "int256[]"
        }
      ],
      "name": "setCurve",
      "outputs": [],
      "payable": false,
      "stateMutability": "nonpayable",
      "type": "function"
    }
  ],
  "bytecode": "0x6080604052336000806101000a81548173ffffffffffffffffffffffffffffffffffffffff021916908373ffffffffffffffffffffffffffffffffffffffff160217905550611146806100536000396000f3006080604052600436106100e6576000357c0100000000000000000000000000000000000000000000000000000000900463ffffffff1680633b27e723146100eb57806353b0a3001461015457806354a365df146101b957806365a6bb2914610222578063857cdbb81461028e5780638da5cb5b146102e55780639217c4381461033c5780639a04b2d9146103a9578063b3c0b7be1461040e578063b9552c6014610469578063c6d1d82a14610494578063cc314338146104fd578063d24c6741146105a3578063df5dd1a51461061a578063f2fde38b1461065d578063f51d7d5f146106a0575b600080fd5b3480156100f757600080fd5b50610152600480360381019080803573ffffffffffffffffffffffffffffffffffffffff16906020019092919080356000191690602001909291908035906020019082018035906020019190919293919293905050506106ff565b005b34801561016057600080fd5b506101a3600480360381019080803573ffffffffffffffffffffffffffffffffffffffff1690602001909291908035600019169060200190929190505050610854565b6040518082815260200191505060405180910390f35b3480156101c557600080fd5b50610208600480360381019080803573ffffffffffffffffffffffffffffffffffffffff16906020019092919080356000191690602001909291905050506108bd565b604051808215151515815260200191505060405180910390f35b34801561022e57600080fd5b50610237610928565b6040518080602001828103825283818151815260200191508051906020019060200280838360005b8381101561027a57808201518184015260208101905061025f565b505050509050019250505060405180910390f35b34801561029a57600080fd5b506102cf600480360381019080803573ffffffffffffffffffffffffffffffffffffffff1690602001909291905050506109b6565b6040518082815260200191505060405180910390f35b3480156102f157600080fd5b506102fa610a02565b604051808273ffffffffffffffffffffffffffffffffffffffff1673ffffffffffffffffffffffffffffffffffffffff16815260200191505060405180910390f35b34801561034857600080fd5b5061036760048036038101908080359060200190929190505050610a27565b604051808273ffffffffffffffffffffffffffffffffffffffff1673ffffffffffffffffffffffffffffffffffffffff16815260200191505060405180910390f35b3480156103b557600080fd5b506103f8600480360381019080803573ffffffffffffffffffffffffffffffffffffffff1690602001909291908035600019169060200190929190505050610a6a565b6040518082815260200191505060405180910390f35b34801561041a57600080fd5b50610467600480360381019080803573ffffffffffffffffffffffffffffffffffffffff169060200190929190803590602001909291908035600019169060200190929190505050610ad3565b005b34801561047557600080fd5b5061047e610ba8565b6040518082815260200191505060405180910390f35b3480156104a057600080fd5b506104fb600480360381019080803573ffffffffffffffffffffffffffffffffffffffff1690602001909291908035600019169060200190929190803590602001908201803590602001919091929391929390505050610bb5565b005b34801561050957600080fd5b5061054c600480360381019080803573ffffffffffffffffffffffffffffffffffffffff1690602001909291908035600019169060200190929190505050610c81565b6040518080602001828103825283818151815260200191508051906020019060200280838360005b8381101561058f578082015181840152602081019050610574565b505050509050019250505060405180910390f35b3480156105af57600080fd5b506105fc600480360381019080803573ffffffffffffffffffffffffffffffffffffffff169060200190929190803560001916906020019092919080359060200190929190505050610d49565b60405180826000191660001916815260200191505060405180910390f35b34801561062657600080fd5b5061065b600480360381019080803573ffffffffffffffffffffffffffffffffffffffff169060200190929190505050610dc7565b005b34801561066957600080fd5b5061069e600480360381019080803573ffffffffffffffffffffffffffffffffffffffff169060200190929190505050610e8b565b005b3480156106ac57600080fd5b506106e1600480360381019080803573ffffffffffffffffffffffffffffffffffffffff169060200190929190505050610fe0565b60405180826000191660001916815260200191505060405180910390f35b6000806000806000809054906101000a900473ffffffffffffffffffffffffffffffffffffffff1673ffffffffffffffffffffffffffffffffffffffff163373ffffffffffffffffffffffffffffffffffffffff1614151561076057600080fd5b600092505b858590508310156107df57858584818110151561077e57fe5b90506020020135915060008213151561079657600080fd5b858560018486010181811015156107a957fe5b9050602002013590506000811315156107c157600080fd5b83811115156107cf57600080fd5b8093506002820183019250610765565b8585600160008b73ffffffffffffffffffffffffffffffffffffffff1673ffffffffffffffffffffffffffffffffffffffff16815260200190815260200160002060030160008a60001916600019168152602001908152602001600020919061084992919061102c565b505050505050505050565b6000600160008473ffffffffffffffffffffffffffffffffffffffff1673ffffffffffffffffffffffffffffffffffffffff1681526020019081526020016000206003016000836000191660001916815260200190815260200160002080549050905092915050565b600080600160008573ffffffffffffffffffffffffffffffffffffffff1673ffffffffffffffffffffffffffffffffffffffff168152602001908152602001600020600301600084600019166000191681526020019081526020016000208054905014905092915050565b606060028054806020026020016040519081016040528092919081815260200182805480156109ac57602002820191906000526020600020905b8160009054906101000a900473ffffffffffffffffffffffffffffffffffffffff1673ffffffffffffffffffffffffffffffffffffffff1681526020019060010190808311610962575b5050505050905090565b6000600160008373ffffffffffffffffffffffffffffffffffffffff1673ffffffffffffffffffffffffffffffffffffffff168152602001908152602001600020600001549050919050565b6000809054906101000a900473ffffffffffffffffffffffffffffffffffffffff1681565b6000600282815481101515610a3857fe5b9060005260206000200160009054906101000a900473ffffffffffffffffffffffffffffffffffffffff169050919050565b6000600160008473ffffffffffffffffffffffffffffffffffffffff1673ffffffffffffffffffffffffffffffffffffffff1681526020019081526020016000206002016000836000191660001916815260200190815260200160002080549050905092915050565b6000809054906101000a900473ffffffffffffffffffffffffffffffffffffffff1673ffffffffffffffffffffffffffffffffffffffff163373ffffffffffffffffffffffffffffffffffffffff16141515610b2e57600080fd5b60408051908101604052808381526020018260001916815250600160008573ffffffffffffffffffffffffffffffffffffffff1673ffffffffffffffffffffffffffffffffffffffff1681526020019081526020016000206000820151816000015560208201518160010190600019169055905050505050565b6000600280549050905090565b6000809054906101000a900473ffffffffffffffffffffffffffffffffffffffff1673ffffffffffffffffffffffffffffffffffffffff163373ffffffffffffffffffffffffffffffffffffffff16141515610c1057600080fd5b8181600160008773ffffffffffffffffffffffffffffffffffffffff1673ffffffffffffffffffffffffffffffffffffffff168152602001908152602001600020600201600086600019166000191681526020019081526020016000209190610c7a929190611079565b5050505050565b6060610c8d83836108bd565b15610c9757600080fd5b600160008473ffffffffffffffffffffffffffffffffffffffff1673ffffffffffffffffffffffffffffffffffffffff16815260200190815260200160002060030160008360001916600019168152602001908152602001600020805480602002602001604051908101604052809291908181526020018280548015610d3c57602002820191906000526020600020905b815481526020019060010190808311610d28575b5050505050905092915050565b6000600160008573ffffffffffffffffffffffffffffffffffffffff1673ffffffffffffffffffffffffffffffffffffffff1681526020019081526020016000206002016000846000191660001916815260200190815260200160002082815481101515610db357fe5b906000526020600020015490509392505050565b6000809054906101000a900473ffffffffffffffffffffffffffffffffffffffff1673ffffffffffffffffffffffffffffffffffffffff163373ffffffffffffffffffffffffffffffffffffffff16141515610e2257600080fd5b60028190806001815401808255809150509060018203906000526020600020016000909192909190916101000a81548173ffffffffffffffffffffffffffffffffffffffff021916908373ffffffffffffffffffffffffffffffffffffffff1602179055505050565b6000809054906101000a900473ffffffffffffffffffffffffffffffffffffffff1673ffffffffffffffffffffffffffffffffffffffff163373ffffffffffffffffffffffffffffffffffffffff16141515610ee657600080fd5b600073ffffffffffffffffffffffffffffffffffffffff168173ffffffffffffffffffffffffffffffffffffffff1614151515610f2257600080fd5b8073ffffffffffffffffffffffffffffffffffffffff166000809054906101000a900473ffffffffffffffffffffffffffffffffffffffff1673ffffffffffffffffffffffffffffffffffffffff167f8be0079c531659141344cd1fd0a4f28419497f9722a3daafe3b4186f6b6457e060405160405180910390a3806000806101000a81548173ffffffffffffffffffffffffffffffffffffffff021916908373ffffffffffffffffffffffffffffffffffffffff16021790555050565b6000600160008373ffffffffffffffffffffffffffffffffffffffff1673ffffffffffffffffffffffffffffffffffffffff168152602001908152602001600020600101549050919050565b828054828255906000526020600020908101928215611068579160200282015b8281111561106757823582559160200191906001019061104c565b5b50905061107591906110d0565b5090565b8280548282559060005260206000209081019282156110bf579160200282015b828111156110be57823560001916829060001916905591602001919060010190611099565b5b5090506110cc91906110f5565b5090565b6110f291905b808211156110ee5760008160009055506001016110d6565b5090565b90565b61111791905b808211156111135760008160009055506001016110fb565b5090565b905600a165627a7a72305820fee2128e355721f0e44d3c4f0d0a78c8ca694a48df9bd3d5e3c26f42d8d8b7b50029",
  "source": "pragma solidity ^0.4.24;\n\nimport \"../../lib/ownership/Ownable.sol\";\n\ncontract RegistryStorage is Ownable {\n\n    // fundamental account type for the platform\n    struct Oracle {\n        uint256 publicKey;                               // Public key of the data provider\n        bytes32 title;                                   // Tags (csv)\n        mapping(bytes32 => bytes32[]) endpointParams;    // Endpoint specific parameters\n        mapping(bytes32 => int[]) curves;                // Endpoint to Curve definition\n    }\n\n    mapping(address => Oracle) private oracles;\n    address[] private oracleIndex;\n\n    /**** Get Methods ****/\n\n    /// @dev get public key of provider\n    function getPublicKey(address provider) external view returns (uint256) {\n        return oracles[provider].publicKey;\n    }\n\n    /// @dev get title of provider\n    function getTitle(address provider) external view returns (bytes32) {\n        return oracles[provider].title;\n    }\n\n    /// @dev get endpoint params length\n    function getEndpointIndexSize(address provider, bytes32 endpoint) external view returns (uint256) {\n        return oracles[provider].endpointParams[endpoint].length;\n    }\n\n    /// @dev get endpoint param by index\n    function getEndPointParam(address provider, bytes32 endpoint, uint256 index) external view returns (bytes32) {\n        return oracles[provider].endpointParams[endpoint][index];\n    }\n\n    function getCurveUnset(address provider, bytes32 endpoint) public view returns (bool) {\n        return oracles[provider].curves[endpoint].length == 0;\n    }\n\n    /// @dev get curve array for this provider/endpoint\n    function getCurve(address provider, bytes32 endpoint)\n        external\n        view\n        returns (int[])\n    {   \n        if(getCurveUnset(provider, endpoint)) revert();\n        return oracles[provider].curves[endpoint];\n    }\n\n    /// @dev get length of curve array\n    function getProviderArgsLength(address provider, bytes32 endpoint)\n        external\n        view\n        returns (uint)\n    {\n        return oracles[provider].curves[endpoint].length;\n    }\n\n    /// @dev get overall number of providers\n    function getOracleIndexSize() external view returns (uint256) {\n        return oracleIndex.length;\n    }\n\n    /// @dev get provider address by index\n    function getOracleAddress(uint256 index) external view returns (address) {\n        return oracleIndex[index];\n    }\n\n    /// @dev get all oracle addresses\n    function getAllOracles() external view returns (address[]){\n        return oracleIndex;\n    }\n\n    /**** Set Methods ****/\n\n    ///  @dev add new provider to mapping\n    function createOracle(address origin, uint256 publicKey, bytes32 title) external onlyOwner {\n        oracles[origin] = Oracle(publicKey, title);\n    }\n\n    /// @dev add new provider address to oracles array\n    function addOracle(address origin) external onlyOwner {\n        oracleIndex.push(origin);\n    }\n\n    /// @dev set endpoint params of provider\n    function setEndpointParameters(\n        address origin,\n        bytes32 endpoint,\n        bytes32[] endpointParams\n    )\n        external\n        onlyOwner\n\n    {\n        oracles[origin].endpointParams[endpoint] = endpointParams;\n    }\n\n\n    /// @dev initialize new curve for provider\n    /// @param origin address of provider\n    /// @param endpoint endpoint specifier\n    /// @param curve flattened array of all segments, coefficients across all polynomial terms, [e0,l0,c0,c1,c2,...]\n    function setCurve(\n        address origin,\n        bytes32 endpoint,\n        int[] curve\n    )\n        external\n        onlyOwner\n    {\n        // TODO: CHECK VALIDITY OF CURVE\n\n        uint256 prevEnd;\n        uint i=0;\n        while(i < curve.length){\n            int len = curve[i];\n            require(len > 0);\n            int end = curve[i+uint(len)+1];\n            require(end > 0);\n            require(uint(end) > prevEnd);\n            prevEnd = uint(end);\n            i += uint(len) + 2; \n        }\n\n        oracles[origin].curves[endpoint] = curve;\n    }\n}\n",
  "sourcePath": "/Users/avisaven/Documents/Work/Zap/zap-ethereum-api/contracts/platform/registry/RegistryStorage.sol",
  "compiler": {
    "name": "solc",
    "version": "0.4.24+commit.e67f0147.Emscripten.clang"
  },
  "schemaVersion": "2.0.0",
  "updatedAt": "2018-08-06T23:43:22.467Z"
}