{
  "contractName": "RegistryStorage",
  "abi": [
    {
      "constant": true,
      "inputs": [],
      "name": "owner",
      "outputs": [
        {
          "name": "",
          "type": "address"
        }
      ],
      "payable": false,
      "stateMutability": "view",
      "type": "function"
    },
    {
      "constant": false,
      "inputs": [
        {
          "name": "newOwner",
          "type": "address"
        }
      ],
      "name": "transferOwnership",
      "outputs": [],
      "payable": false,
      "stateMutability": "nonpayable",
      "type": "function"
    },
    {
      "anonymous": false,
      "inputs": [
        {
          "indexed": true,
          "name": "previousOwner",
          "type": "address"
        },
        {
          "indexed": true,
          "name": "newOwner",
          "type": "address"
        }
      ],
      "name": "OwnershipTransferred",
      "type": "event"
    },
    {
      "constant": true,
      "inputs": [
        {
          "name": "provider",
          "type": "address"
        }
      ],
      "name": "getPublicKey",
      "outputs": [
        {
          "name": "",
          "type": "uint256"
        }
      ],
      "payable": false,
      "stateMutability": "view",
      "type": "function"
    },
    {
      "constant": true,
      "inputs": [
        {
          "name": "provider",
          "type": "address"
        }
      ],
      "name": "getTitle",
      "outputs": [
        {
          "name": "",
          "type": "bytes32"
        }
      ],
      "payable": false,
      "stateMutability": "view",
      "type": "function"
    },
    {
      "constant": true,
      "inputs": [
        {
          "name": "provider",
          "type": "address"
        },
        {
          "name": "endpoint",
          "type": "bytes32"
        }
      ],
      "name": "getEndpointIndexSize",
      "outputs": [
        {
          "name": "",
          "type": "uint256"
        }
      ],
      "payable": false,
      "stateMutability": "view",
      "type": "function"
    },
    {
      "constant": true,
      "inputs": [
        {
          "name": "provider",
          "type": "address"
        },
        {
          "name": "endpoint",
          "type": "bytes32"
        },
        {
          "name": "index",
          "type": "uint256"
        }
      ],
      "name": "getEndPointParam",
      "outputs": [
        {
          "name": "",
          "type": "bytes32"
        }
      ],
      "payable": false,
      "stateMutability": "view",
      "type": "function"
    },
    {
      "constant": true,
      "inputs": [
        {
          "name": "provider",
          "type": "address"
        },
        {
          "name": "endpoint",
          "type": "bytes32"
        }
      ],
      "name": "getCurveUnset",
      "outputs": [
        {
          "name": "",
          "type": "bool"
        }
      ],
      "payable": false,
      "stateMutability": "view",
      "type": "function"
    },
    {
      "constant": true,
      "inputs": [
        {
          "name": "provider",
          "type": "address"
        },
        {
          "name": "endpoint",
          "type": "bytes32"
        }
      ],
      "name": "getCurve",
      "outputs": [
        {
          "name": "",
          "type": "int256[]"
        },
        {
          "name": "",
          "type": "uint256[]"
        },
        {
          "name": "",
          "type": "uint256[]"
        }
      ],
      "payable": false,
      "stateMutability": "view",
      "type": "function"
    },
    {
      "constant": true,
      "inputs": [
        {
          "name": "provider",
          "type": "address"
        },
        {
          "name": "endpoint",
          "type": "bytes32"
        }
      ],
      "name": "getProviderArgsLength",
      "outputs": [
        {
          "name": "",
          "type": "uint256"
        },
        {
          "name": "",
          "type": "uint256"
        },
        {
          "name": "",
          "type": "uint256"
        }
      ],
      "payable": false,
      "stateMutability": "view",
      "type": "function"
    },
    {
      "constant": true,
      "inputs": [],
      "name": "getOracleIndexSize",
      "outputs": [
        {
          "name": "",
          "type": "uint256"
        }
      ],
      "payable": false,
      "stateMutability": "view",
      "type": "function"
    },
    {
      "constant": true,
      "inputs": [
        {
          "name": "index",
          "type": "uint256"
        }
      ],
      "name": "getOracleAddress",
      "outputs": [
        {
          "name": "",
          "type": "address"
        }
      ],
      "payable": false,
      "stateMutability": "view",
      "type": "function"
    },
    {
      "constant": false,
      "inputs": [
        {
          "name": "origin",
          "type": "address"
        },
        {
          "name": "publicKey",
          "type": "uint256"
        },
        {
          "name": "title",
          "type": "bytes32"
        }
      ],
      "name": "createOracle",
      "outputs": [],
      "payable": false,
      "stateMutability": "nonpayable",
      "type": "function"
    },
    {
      "constant": false,
      "inputs": [
        {
          "name": "origin",
          "type": "address"
        }
      ],
      "name": "addOracle",
      "outputs": [],
      "payable": false,
      "stateMutability": "nonpayable",
      "type": "function"
    },
    {
      "constant": false,
      "inputs": [
        {
          "name": "origin",
          "type": "address"
        },
        {
          "name": "endpoint",
          "type": "bytes32"
        },
        {
          "name": "endpointParams",
          "type": "bytes32[]"
        }
      ],
      "name": "setEndpointParameters",
      "outputs": [],
      "payable": false,
      "stateMutability": "nonpayable",
      "type": "function"
    },
    {
      "constant": false,
      "inputs": [
        {
          "name": "origin",
          "type": "address"
        },
        {
          "name": "endpoint",
          "type": "bytes32"
        },
        {
          "name": "constants",
          "type": "int256[]"
        },
        {
          "name": "parts",
          "type": "uint256[]"
        },
        {
          "name": "dividers",
          "type": "uint256[]"
        }
      ],
      "name": "setCurve",
      "outputs": [],
      "payable": false,
      "stateMutability": "nonpayable",
      "type": "function"
    }
  ],
  "bytecode": "0x6080604052336000806101000a81548173ffffffffffffffffffffffffffffffffffffffff021916908373ffffffffffffffffffffffffffffffffffffffff16021790555061137a806100536000396000f3006080604052600436106100db576000357c0100000000000000000000000000000000000000000000000000000000900463ffffffff16806353b0a300146100e057806354a365df146101535780635f389789146101bc578063857cdbb8146102555780638da5cb5b146102ac5780639217c438146103035780639a04b2d914610370578063b3c0b7be146103d5578063b9552c6014610430578063c6d1d82a1461045b578063cc314338146104c4578063d24c6741146105fa578063df5dd1a514610671578063f2fde38b146106b4578063f51d7d5f146106f7575b600080fd5b3480156100ec57600080fd5b5061012f600480360381019080803573ffffffffffffffffffffffffffffffffffffffff1690602001909291908035600019169060200190929190505050610756565b60405180848152602001838152602001828152602001935050505060405180910390f35b34801561015f57600080fd5b506101a2600480360381019080803573ffffffffffffffffffffffffffffffffffffffff169060200190929190803560001916906020019092919050505061088e565b604051808215151515815260200191505060405180910390f35b3480156101c857600080fd5b50610253600480360381019080803573ffffffffffffffffffffffffffffffffffffffff16906020019092919080356000191690602001909291908035906020019082018035906020019190919293919293908035906020019082018035906020019190919293919293908035906020019082018035906020019190919293919293905050506108fc565b005b34801561026157600080fd5b50610296600480360381019080803573ffffffffffffffffffffffffffffffffffffffff169060200190929190505050610a66565b6040518082815260200191505060405180910390f35b3480156102b857600080fd5b506102c1610ab2565b604051808273ffffffffffffffffffffffffffffffffffffffff1673ffffffffffffffffffffffffffffffffffffffff16815260200191505060405180910390f35b34801561030f57600080fd5b5061032e60048036038101908080359060200190929190505050610ad7565b604051808273ffffffffffffffffffffffffffffffffffffffff1673ffffffffffffffffffffffffffffffffffffffff16815260200191505060405180910390f35b34801561037c57600080fd5b506103bf600480360381019080803573ffffffffffffffffffffffffffffffffffffffff1690602001909291908035600019169060200190929190505050610b1a565b6040518082815260200191505060405180910390f35b3480156103e157600080fd5b5061042e600480360381019080803573ffffffffffffffffffffffffffffffffffffffff169060200190929190803590602001909291908035600019169060200190929190505050610b83565b005b34801561043c57600080fd5b50610445610c58565b6040518082815260200191505060405180910390f35b34801561046757600080fd5b506104c2600480360381019080803573ffffffffffffffffffffffffffffffffffffffff1690602001909291908035600019169060200190929190803590602001908201803590602001919091929391929390505050610c65565b005b3480156104d057600080fd5b50610513600480360381019080803573ffffffffffffffffffffffffffffffffffffffff1690602001909291908035600019169060200190929190505050610d31565b60405180806020018060200180602001848103845287818151815260200191508051906020019060200280838360005b8381101561055e578082015181840152602081019050610543565b50505050905001848103835286818151815260200191508051906020019060200280838360005b838110156105a0578082015181840152602081019050610585565b50505050905001848103825285818151815260200191508051906020019060200280838360005b838110156105e25780820151818401526020810190506105c7565b50505050905001965050505050505060405180910390f35b34801561060657600080fd5b50610653600480360381019080803573ffffffffffffffffffffffffffffffffffffffff169060200190929190803560001916906020019092919080359060200190929190505050610ee9565b60405180826000191660001916815260200191505060405180910390f35b34801561067d57600080fd5b506106b2600480360381019080803573ffffffffffffffffffffffffffffffffffffffff169060200190929190505050610f67565b005b3480156106c057600080fd5b506106f5600480360381019080803573ffffffffffffffffffffffffffffffffffffffff16906020019092919050505061102b565b005b34801561070357600080fd5b50610738600480360381019080803573ffffffffffffffffffffffffffffffffffffffff169060200190929190505050611180565b60405180826000191660001916815260200191505060405180910390f35b6000806000600160008673ffffffffffffffffffffffffffffffffffffffff1673ffffffffffffffffffffffffffffffffffffffff1681526020019081526020016000206003016000856000191660001916815260200190815260200160002060000180549050600160008773ffffffffffffffffffffffffffffffffffffffff1673ffffffffffffffffffffffffffffffffffffffff1681526020019081526020016000206003016000866000191660001916815260200190815260200160002060010180549050600160008873ffffffffffffffffffffffffffffffffffffffff1673ffffffffffffffffffffffffffffffffffffffff16815260200190815260200160002060030160008760001916600019168152602001908152602001600020600201805490509250925092509250925092565b600080600160008573ffffffffffffffffffffffffffffffffffffffff1673ffffffffffffffffffffffffffffffffffffffff168152602001908152602001600020600301600084600019166000191681526020019081526020016000206001018054905014905092915050565b60008060009054906101000a900473ffffffffffffffffffffffffffffffffffffffff1673ffffffffffffffffffffffffffffffffffffffff163373ffffffffffffffffffffffffffffffffffffffff1614151561095957600080fd5b60038787905081151561096857fe5b04838360018686905003818110151561097d57fe5b9050602002013514151561099057600080fd5b828290506002868690508115156109a357fe5b041415156109b057600080fd5b6000858590501115156109c257600080fd5b600160008a73ffffffffffffffffffffffffffffffffffffffff1673ffffffffffffffffffffffffffffffffffffffff1681526020019081526020016000206003016000896000191660001916815260200190815260200160002090508686826000019190610a329291906111cc565b508484826001019190610a46929190611219565b508282826002019190610a5a929190611219565b50505050505050505050565b6000600160008373ffffffffffffffffffffffffffffffffffffffff1673ffffffffffffffffffffffffffffffffffffffff168152602001908152602001600020600001549050919050565b6000809054906101000a900473ffffffffffffffffffffffffffffffffffffffff1681565b6000600282815481101515610ae857fe5b9060005260206000200160009054906101000a900473ffffffffffffffffffffffffffffffffffffffff169050919050565b6000600160008473ffffffffffffffffffffffffffffffffffffffff1673ffffffffffffffffffffffffffffffffffffffff1681526020019081526020016000206002016000836000191660001916815260200190815260200160002080549050905092915050565b6000809054906101000a900473ffffffffffffffffffffffffffffffffffffffff1673ffffffffffffffffffffffffffffffffffffffff163373ffffffffffffffffffffffffffffffffffffffff16141515610bde57600080fd5b60408051908101604052808381526020018260001916815250600160008573ffffffffffffffffffffffffffffffffffffffff1673ffffffffffffffffffffffffffffffffffffffff1681526020019081526020016000206000820151816000015560208201518160010190600019169055905050505050565b6000600280549050905090565b6000809054906101000a900473ffffffffffffffffffffffffffffffffffffffff1673ffffffffffffffffffffffffffffffffffffffff163373ffffffffffffffffffffffffffffffffffffffff16141515610cc057600080fd5b8181600160008773ffffffffffffffffffffffffffffffffffffffff1673ffffffffffffffffffffffffffffffffffffffff168152602001908152602001600020600201600086600019166000191681526020019081526020016000209190610d2a929190611266565b5050505050565b6060806060610d3e6112bd565b600160008773ffffffffffffffffffffffffffffffffffffffff1673ffffffffffffffffffffffffffffffffffffffff168152602001908152602001600020600301600086600019166000191681526020019081526020016000206060604051908101604052908160008201805480602002602001604051908101604052809291908181526020018280548015610df457602002820191906000526020600020905b815481526020019060010190808311610de0575b5050505050815260200160018201805480602002602001604051908101604052809291908181526020018280548015610e4c57602002820191906000526020600020905b815481526020019060010190808311610e38575b5050505050815260200160028201805480602002602001604051908101604052809291908181526020018280548015610ea457602002820191906000526020600020905b815481526020019060010190808311610e90575b50505050508152505090506000816020015151111515610ec357600080fd5b806000015181602001518260400151829250819150809050935093509350509250925092565b6000600160008573ffffffffffffffffffffffffffffffffffffffff1673ffffffffffffffffffffffffffffffffffffffff1681526020019081526020016000206002016000846000191660001916815260200190815260200160002082815481101515610f5357fe5b906000526020600020015490509392505050565b6000809054906101000a900473ffffffffffffffffffffffffffffffffffffffff1673ffffffffffffffffffffffffffffffffffffffff163373ffffffffffffffffffffffffffffffffffffffff16141515610fc257600080fd5b60028190806001815401808255809150509060018203906000526020600020016000909192909190916101000a81548173ffffffffffffffffffffffffffffffffffffffff021916908373ffffffffffffffffffffffffffffffffffffffff1602179055505050565b6000809054906101000a900473ffffffffffffffffffffffffffffffffffffffff1673ffffffffffffffffffffffffffffffffffffffff163373ffffffffffffffffffffffffffffffffffffffff1614151561108657600080fd5b600073ffffffffffffffffffffffffffffffffffffffff168173ffffffffffffffffffffffffffffffffffffffff16141515156110c257600080fd5b8073ffffffffffffffffffffffffffffffffffffffff166000809054906101000a900473ffffffffffffffffffffffffffffffffffffffff1673ffffffffffffffffffffffffffffffffffffffff167f8be0079c531659141344cd1fd0a4f28419497f9722a3daafe3b4186f6b6457e060405160405180910390a3806000806101000a81548173ffffffffffffffffffffffffffffffffffffffff021916908373ffffffffffffffffffffffffffffffffffffffff16021790555050565b6000600160008373ffffffffffffffffffffffffffffffffffffffff1673ffffffffffffffffffffffffffffffffffffffff168152602001908152602001600020600101549050919050565b828054828255906000526020600020908101928215611208579160200282015b828111156112075782358255916020019190600101906111ec565b5b50905061121591906112df565b5090565b828054828255906000526020600020908101928215611255579160200282015b82811115611254578235825591602001919060010190611239565b5b5090506112629190611304565b5090565b8280548282559060005260206000209081019282156112ac579160200282015b828111156112ab57823560001916829060001916905591602001919060010190611286565b5b5090506112b99190611329565b5090565b6060604051908101604052806060815260200160608152602001606081525090565b61130191905b808211156112fd5760008160009055506001016112e5565b5090565b90565b61132691905b8082111561132257600081600090555060010161130a565b5090565b90565b61134b91905b8082111561134757600081600090555060010161132f565b5090565b905600a165627a7a72305820086e495c21f07c53ab3afdec88266df428d3dd885138ed0db83fc05849ce34e10029",
  "source": "pragma solidity ^0.4.24;\n\nimport \"../../lib/ownership/Ownable.sol\";\n\ncontract RegistryStorage is Ownable {\n\n    struct PiecewisePiece{\n        int[] constants;\n        uint[] parts;\n        uint[] dividers;\n    }\n\n    // fundamental account type for the platform\n    struct Oracle {\n        uint256 publicKey;                               // Public key of the data provider\n        bytes32 title;                                   // Tags (csv)\n        mapping(bytes32 => bytes32[]) endpointParams;    // Endpoint specific parameters\n        mapping(bytes32 => PiecewisePiece) curves; // Price vs Supply (contract endpoint)\n    }\n\n    mapping(address => Oracle) private oracles;\n    address[] private oracleIndex;\n\n    /**** Get Methods ****/\n\n    /// @dev get public key of provider\n    function getPublicKey(address provider) external view returns (uint256) {\n        return oracles[provider].publicKey;\n    }\n\n    /// @dev get title of provider\n    function getTitle(address provider) external view returns (bytes32) {\n        return oracles[provider].title;\n    }\n\n    /// @dev get endpoint params length\n    function getEndpointIndexSize(address provider, bytes32 endpoint) external view returns (uint256) {\n        return oracles[provider].endpointParams[endpoint].length;\n    }\n\n    /// @dev get endpoint param by index\n    function getEndPointParam(address provider, bytes32 endpoint, uint256 index) external view returns (bytes32) {\n        return oracles[provider].endpointParams[endpoint][index];\n    }\n\n    function getCurveUnset(address provider, bytes32 endpoint) public view returns (bool) {\n        return oracles[provider].curves[endpoint].parts.length==0;\n    }\n\n    /// @dev get curve constants, parts and dividers arrays\n    function getCurve(address provider, bytes32 endpoint)\n        external\n        view\n        returns (int[],uint[],uint[])\n    {\n        PiecewisePiece memory pieces = oracles[provider].curves[endpoint];\n        require(pieces.parts.length>0);\n        return (pieces.constants, pieces.parts, pieces.dividers);\n    }\n\n    /// @dev get length of constants, parts and dividers arrays\n    function getProviderArgsLength(address provider, bytes32 endpoint)\n        external\n        view\n        returns (uint,uint,uint)\n    {\n        return (oracles[provider].curves[endpoint].constants.length,\n        oracles[provider].curves[endpoint].parts.length,\n        oracles[provider].curves[endpoint].dividers.length);\n\n    }\n\n    /// @dev get overall number of providers\n    function getOracleIndexSize() external view returns (uint256) {\n        return oracleIndex.length;\n    }\n\n    /// @dev get provider address by index\n    function getOracleAddress(uint256 index) external view returns (address) {\n        return oracleIndex[index];\n    }\n\n    /**** Set Methods ****/\n\n    ///  @dev add new provider to mapping\n    function createOracle(address origin, uint256 publicKey, bytes32 title) external onlyOwner {\n        oracles[origin] = Oracle(publicKey, title);\n    }\n\n    /// @dev add new provider address to oracles array\n    function addOracle(address origin) external onlyOwner {\n        oracleIndex.push(origin);\n    }\n\n    /// @dev set endpoint params of provider\n    function setEndpointParameters(\n        address origin,\n        bytes32 endpoint,\n        bytes32[] endpointParams\n    )\n        external\n        onlyOwner\n\n    {\n        oracles[origin].endpointParams[endpoint] = endpointParams;\n    }\n\n\n    /// @dev initialize new curve for provider\n    /// @param origin address of provider\n    /// @param endpoint endpoint specifier\n    /// @param constants flattened array of all coefficients/powers/function across all polynomial terms, [c0,p0,fn0, c1,p1,fn1 ...]\n    /// @param parts array of starting/ending points for piecewise function pieces [start0,end0,start1,end1...]\n    /// @param dividers array of indices, each specifying range of indices in coef, power, fn belonging to each piece\n    function setCurve(\n        address origin,\n        bytes32 endpoint,\n        int[] constants,\n        uint[] parts,\n        uint[] dividers\n    )\n        external\n        onlyOwner\n    {\n        require(dividers[dividers.length-1]==constants.length/3);\n        require((parts.length/2)==dividers.length);\n        require(parts.length > 0);\n\n        PiecewisePiece storage pieces = oracles[origin].curves[endpoint];\n        pieces.constants = constants;\n        pieces.parts = parts;\n        pieces.dividers = dividers;\n    }\n}\n",
  "sourcePath": "/home/iefnw/office3/zap-ethereum-api/contracts/platform/registry/RegistryStorage.sol",
  "compiler": {
    "name": "solc",
    "version": "0.4.24+commit.e67f0147.Emscripten.clang"
  },
  "schemaVersion": "2.0.0",
  "updatedAt": "2018-06-19T21:22:28.072Z"
}