{
  "contractName": "Registry",
  "abi": [
    {
      "constant": true,
      "inputs": [],
      "name": "db",
      "outputs": [
        {
          "name": "",
          "type": "address"
        }
      ],
      "payable": false,
      "stateMutability": "view",
      "type": "function"
    },
    {
      "constant": false,
      "inputs": [],
      "name": "updateDependencies",
      "outputs": [],
      "payable": false,
      "stateMutability": "nonpayable",
      "type": "function"
    },
    {
      "constant": true,
      "inputs": [],
      "name": "owner",
      "outputs": [
        {
          "name": "",
          "type": "address"
        }
      ],
      "payable": false,
      "stateMutability": "view",
      "type": "function"
    },
    {
      "constant": false,
      "inputs": [],
      "name": "selfDestruct",
      "outputs": [],
      "payable": false,
      "stateMutability": "nonpayable",
      "type": "function"
    },
    {
      "constant": false,
      "inputs": [
        {
          "name": "newOwner",
          "type": "address"
        }
      ],
      "name": "transferOwnership",
      "outputs": [],
      "payable": false,
      "stateMutability": "nonpayable",
      "type": "function"
    },
    {
      "inputs": [
        {
          "name": "c",
          "type": "address"
        }
      ],
      "payable": false,
      "stateMutability": "nonpayable",
      "type": "constructor"
    },
    {
      "anonymous": false,
      "inputs": [
        {
          "indexed": true,
          "name": "provider",
          "type": "address"
        },
        {
          "indexed": true,
          "name": "title",
          "type": "bytes32"
        }
      ],
      "name": "NewProvider",
      "type": "event"
    },
    {
      "anonymous": false,
      "inputs": [
        {
          "indexed": true,
          "name": "provider",
          "type": "address"
        },
        {
          "indexed": true,
          "name": "endpoint",
          "type": "bytes32"
        },
        {
          "indexed": false,
          "name": "curve",
          "type": "int256[]"
        }
      ],
      "name": "NewCurve",
      "type": "event"
    },
    {
      "anonymous": false,
      "inputs": [
        {
          "indexed": true,
          "name": "previousOwner",
          "type": "address"
        },
        {
          "indexed": true,
          "name": "newOwner",
          "type": "address"
        }
      ],
      "name": "OwnershipTransferred",
      "type": "event"
    },
    {
      "constant": false,
      "inputs": [
        {
          "name": "publicKey",
          "type": "uint256"
        },
        {
          "name": "title",
          "type": "bytes32"
        }
      ],
      "name": "initiateProvider",
      "outputs": [
        {
          "name": "",
          "type": "bool"
        }
      ],
      "payable": false,
      "stateMutability": "nonpayable",
      "type": "function"
    },
    {
      "constant": false,
      "inputs": [
        {
          "name": "endpoint",
          "type": "bytes32"
        },
        {
          "name": "curve",
          "type": "int256[]"
        }
      ],
      "name": "initiateProviderCurve",
      "outputs": [
        {
          "name": "",
          "type": "bool"
        }
      ],
      "payable": false,
      "stateMutability": "nonpayable",
      "type": "function"
    },
    {
      "constant": false,
      "inputs": [
        {
          "name": "key",
          "type": "bytes32"
        },
        {
          "name": "value",
          "type": "bytes32"
        }
      ],
      "name": "setProviderParameter",
      "outputs": [],
      "payable": false,
      "stateMutability": "nonpayable",
      "type": "function"
    },
    {
      "constant": true,
      "inputs": [
        {
          "name": "provider",
          "type": "address"
        },
        {
          "name": "key",
          "type": "bytes32"
        }
      ],
      "name": "getProviderParameter",
      "outputs": [
        {
          "name": "",
          "type": "bytes32"
        }
      ],
      "payable": false,
      "stateMutability": "view",
      "type": "function"
    },
    {
      "constant": true,
      "inputs": [
        {
          "name": "provider",
          "type": "address"
        }
      ],
      "name": "getAllProviderParams",
      "outputs": [
        {
          "name": "",
          "type": "bytes32[]"
        }
      ],
      "payable": false,
      "stateMutability": "view",
      "type": "function"
    },
    {
      "constant": false,
      "inputs": [
        {
          "name": "endpoint",
          "type": "bytes32"
        },
        {
          "name": "endpointParams",
          "type": "bytes32[]"
        }
      ],
      "name": "setEndpointParams",
      "outputs": [],
      "payable": false,
      "stateMutability": "nonpayable",
      "type": "function"
    },
    {
      "constant": true,
      "inputs": [
        {
          "name": "provider",
          "type": "address"
        },
        {
          "name": "endpoint",
          "type": "bytes32"
        }
      ],
      "name": "getEndpointParams",
      "outputs": [
        {
          "name": "",
          "type": "bytes32[]"
        }
      ],
      "payable": false,
      "stateMutability": "view",
      "type": "function"
    },
    {
      "constant": true,
      "inputs": [
        {
          "name": "provider",
          "type": "address"
        }
      ],
      "name": "getProviderPublicKey",
      "outputs": [
        {
          "name": "",
          "type": "uint256"
        }
      ],
      "payable": false,
      "stateMutability": "view",
      "type": "function"
    },
    {
      "constant": true,
      "inputs": [
        {
          "name": "provider",
          "type": "address"
        }
      ],
      "name": "getProviderTitle",
      "outputs": [
        {
          "name": "",
          "type": "bytes32"
        }
      ],
      "payable": false,
      "stateMutability": "view",
      "type": "function"
    },
    {
      "constant": true,
      "inputs": [
        {
          "name": "provider",
          "type": "address"
        },
        {
          "name": "endpoint",
          "type": "bytes32"
        }
      ],
      "name": "getProviderCurve",
      "outputs": [
        {
          "name": "",
          "type": "int256[]"
        }
      ],
      "payable": false,
      "stateMutability": "view",
      "type": "function"
    },
    {
      "constant": true,
      "inputs": [
        {
          "name": "provider",
          "type": "address"
        },
        {
          "name": "endpoint",
          "type": "bytes32"
        }
      ],
      "name": "getProviderCurveLength",
      "outputs": [
        {
          "name": "",
          "type": "uint256"
        }
      ],
      "payable": false,
      "stateMutability": "view",
      "type": "function"
    },
    {
      "constant": true,
      "inputs": [
        {
          "name": "oracleAddress",
          "type": "address"
        }
      ],
      "name": "isProviderInitiated",
      "outputs": [
        {
          "name": "",
          "type": "bool"
        }
      ],
      "payable": false,
      "stateMutability": "view",
      "type": "function"
    },
    {
      "constant": true,
      "inputs": [
        {
          "name": "provider",
          "type": "address"
        }
      ],
      "name": "getPublicKey",
      "outputs": [
        {
          "name": "",
          "type": "uint256"
        }
      ],
      "payable": false,
      "stateMutability": "view",
      "type": "function"
    },
    {
      "constant": true,
      "inputs": [
        {
          "name": "provider",
          "type": "address"
        }
      ],
      "name": "getTitle",
      "outputs": [
        {
          "name": "",
          "type": "bytes32"
        }
      ],
      "payable": false,
      "stateMutability": "view",
      "type": "function"
    },
    {
      "constant": true,
      "inputs": [
        {
          "name": "provider",
          "type": "address"
        }
      ],
      "name": "getProviderEndpoints",
      "outputs": [
        {
          "name": "",
          "type": "bytes32[]"
        }
      ],
      "payable": false,
      "stateMutability": "view",
      "type": "function"
    },
    {
      "constant": true,
      "inputs": [
        {
          "name": "provider",
          "type": "address"
        },
        {
          "name": "endpoint",
          "type": "bytes32"
        }
      ],
      "name": "getEndPointParams",
      "outputs": [
        {
          "name": "",
          "type": "bytes32[]"
        }
      ],
      "payable": false,
      "stateMutability": "view",
      "type": "function"
    },
    {
      "constant": true,
      "inputs": [
        {
          "name": "provider",
          "type": "address"
        },
        {
          "name": "endpoint",
          "type": "bytes32"
        }
      ],
      "name": "getCurveUnset",
      "outputs": [
        {
          "name": "",
          "type": "bool"
        }
      ],
      "payable": false,
      "stateMutability": "view",
      "type": "function"
    },
    {
      "constant": true,
      "inputs": [],
      "name": "getOracleIndexSize",
      "outputs": [
        {
          "name": "",
          "type": "uint256"
        }
      ],
      "payable": false,
      "stateMutability": "view",
      "type": "function"
    },
    {
      "constant": true,
      "inputs": [
        {
          "name": "index",
          "type": "uint256"
        }
      ],
      "name": "getOracleAddress",
      "outputs": [
        {
          "name": "",
          "type": "address"
        }
      ],
      "payable": false,
      "stateMutability": "view",
      "type": "function"
    },
    {
      "constant": true,
      "inputs": [],
      "name": "getAllOracles",
      "outputs": [
        {
          "name": "",
          "type": "address[]"
        }
      ],
      "payable": false,
      "stateMutability": "view",
      "type": "function"
    }
  ],
  "bytecode": "0x60806040523480156200001157600080fd5b50604051602080620041bf8339810180604052810190808051906020019092919050505080336000806101000a81548173ffffffffffffffffffffffffffffffffffffffff021916908373ffffffffffffffffffffffffffffffffffffffff16021790555080600160006101000a81548173ffffffffffffffffffffffffffffffffffffffff021916908373ffffffffffffffffffffffffffffffffffffffff16021790555080600260006101000a81548173ffffffffffffffffffffffffffffffffffffffff021916908373ffffffffffffffffffffffffffffffffffffffff160217905550506200011262000119640100000000026401000000009004565b5062000261565b6000600260009054906101000a900473ffffffffffffffffffffffffffffffffffffffff1673ffffffffffffffffffffffffffffffffffffffff1663358177736040518163ffffffff167c01000000000000000000000000000000000000000000000000000000000281526004018080602001828103825260088152602001807f4441544142415345000000000000000000000000000000000000000000000000815250602001915050602060405180830381600087803b158015620001de57600080fd5b505af1158015620001f3573d6000803e3d6000fd5b505050506040513d60208110156200020a57600080fd5b8101908080519060200190929190505050905080600360006101000a81548173ffffffffffffffffffffffffffffffffffffffff021916908373ffffffffffffffffffffffffffffffffffffffff16021790555050565b613f4e80620002716000396000f300608060405260043610610149576000357c0100000000000000000000000000000000000000000000000000000000900463ffffffff168063186b79c91461014e5780632316a9ff146101a9578063275601f61461024f5780634d655aff146102e75780634d9bcac41461033e5780634ff6e86e146103ab5780635481f43e1461040257806354a365df1461046157806365a6bb29146104ca5780636e5ecdff146105365780637d06ce331461054d578063857cdbb8146105f357806387cd29a41461064a5780638da5cb5b146106af5780638e2c2e50146107065780639217c438146107455780639cb8a26a146107b2578063a72460d1146107c9578063af87c83314610861578063b9552c60146108b4578063e67097fb146108df578063e95d61821461096b578063f2fde38b14610a11578063f51d7d5f14610a54578063fcf0c24814610ab3575b600080fd5b34801561015a57600080fd5b5061018f600480360381019080803573ffffffffffffffffffffffffffffffffffffffff169060200190929190505050610b27565b604051808215151515815260200191505060405180910390f35b3480156101b557600080fd5b506101f8600480360381019080803573ffffffffffffffffffffffffffffffffffffffff1690602001909291908035600019169060200190929190505050610b43565b6040518080602001828103825283818151815260200191508051906020019060200280838360005b8381101561023b578082015181840152602081019050610220565b505050509050019250505060405180910390f35b34801561025b57600080fd5b50610290600480360381019080803573ffffffffffffffffffffffffffffffffffffffff169060200190929190505050610da9565b6040518080602001828103825283818151815260200191508051906020019060200280838360005b838110156102d35780820151818401526020810190506102b8565b505050509050019250505060405180910390f35b3480156102f357600080fd5b506102fc610ffc565b604051808273ffffffffffffffffffffffffffffffffffffffff1673ffffffffffffffffffffffffffffffffffffffff16815260200191505060405180910390f35b34801561034a57600080fd5b5061038d600480360381019080803573ffffffffffffffffffffffffffffffffffffffff1690602001909291908035600019169060200190929190505050611022565b60405180826000191660001916815260200191505060405180910390f35b3480156103b757600080fd5b506103ec600480360381019080803573ffffffffffffffffffffffffffffffffffffffff169060200190929190505050611245565b6040518082815260200191505060405180910390f35b34801561040e57600080fd5b50610443600480360381019080803573ffffffffffffffffffffffffffffffffffffffff169060200190929190505050611257565b60405180826000191660001916815260200191505060405180910390f35b34801561046d57600080fd5b506104b0600480360381019080803573ffffffffffffffffffffffffffffffffffffffff1690602001909291908035600019169060200190929190505050611269565b604051808215151515815260200191505060405180910390f35b3480156104d657600080fd5b506104df611465565b6040518080602001828103825283818151815260200191508051906020019060200280838360005b83811015610522578082015181840152602081019050610507565b505050509050019250505060405180910390f35b34801561054257600080fd5b5061054b611637565b005b34801561055957600080fd5b5061059c600480360381019080803573ffffffffffffffffffffffffffffffffffffffff169060200190929190803560001916906020019092919050505061169d565b6040518080602001828103825283818151815260200191508051906020019060200280838360005b838110156105df5780820151818401526020810190506105c4565b505050509050019250505060405180910390f35b3480156105ff57600080fd5b50610634600480360381019080803573ffffffffffffffffffffffffffffffffffffffff1690602001909291905050506118ed565b6040518082815260200191505060405180910390f35b34801561065657600080fd5b50610699600480360381019080803573ffffffffffffffffffffffffffffffffffffffff1690602001909291908035600019169060200190929190505050611ad6565b6040518082815260200191505060405180910390f35b3480156106bb57600080fd5b506106c4611d3d565b604051808273ffffffffffffffffffffffffffffffffffffffff1673ffffffffffffffffffffffffffffffffffffffff16815260200191505060405180910390f35b34801561071257600080fd5b5061074360048036038101908080356000191690602001909291908035600019169060200190929190505050611d62565b005b34801561075157600080fd5b506107706004803603810190808035906020019092919050505061230b565b604051808273ffffffffffffffffffffffffffffffffffffffff1673ffffffffffffffffffffffffffffffffffffffff16815260200191505060405180910390f35b3480156107be57600080fd5b506107c7612491565b005b3480156107d557600080fd5b5061080a600480360381019080803573ffffffffffffffffffffffffffffffffffffffff169060200190929190505050612526565b6040518080602001828103825283818151815260200191508051906020019060200280838360005b8381101561084d578082015181840152602081019050610832565b505050509050019250505060405180910390f35b34801561086d57600080fd5b5061089a600480360381019080803590602001909291908035600019169060200190929190505050612765565b604051808215151515815260200191505060405180910390f35b3480156108c057600080fd5b506108c96127e2565b6040518082815260200191505060405180910390f35b3480156108eb57600080fd5b5061095160048036038101908080356000191690602001909291908035906020019082018035906020019080806020026020016040519081016040528093929190818152602001838360200280828437820191505050505050919291929050505061295e565b604051808215151515815260200191505060405180910390f35b34801561097757600080fd5b506109ba600480360381019080803573ffffffffffffffffffffffffffffffffffffffff1690602001909291908035600019169060200190929190505050612bff565b6040518080602001828103825283818151815260200191508051906020019060200280838360005b838110156109fd5780820151818401526020810190506109e2565b505050509050019250505060405180910390f35b348015610a1d57600080fd5b50610a52600480360381019080803573ffffffffffffffffffffffffffffffffffffffff169060200190929190505050612e79565b005b348015610a6057600080fd5b50610a95600480360381019080803573ffffffffffffffffffffffffffffffffffffffff169060200190929190505050612fce565b60405180826000191660001916815260200191505060405180910390f35b348015610abf57600080fd5b50610b256004803603810190808035600019169060200190929190803590602001908201803590602001908080602002602001604051908101604052809392919081815260200183836020028082843782019150505050505091929192905050506131b7565b005b600080600102610b3683611257565b6000191614159050919050565b6060610b4f8383611269565b151515610b5b57600080fd5b600360009054906101000a900473ffffffffffffffffffffffffffffffffffffffff1673ffffffffffffffffffffffffffffffffffffffff16632d2899b6848460405160200180807f6f7261636c6573000000000000000000000000000000000000000000000000008152506007018373ffffffffffffffffffffffffffffffffffffffff1673ffffffffffffffffffffffffffffffffffffffff166c01000000000000000000000000028152601401807f63757276657300000000000000000000000000000000000000000000000000008152506006018260001916600019168152602001925050506040516020818303038152906040526040518082805190602001908083835b602083101515610c895780518252602082019150602081019050602083039250610c64565b6001836020036101000a03801982511681845116808217855250505050505090500191505060405180910390206040518263ffffffff167c0100000000000000000000000000000000000000000000000000000000028152600401808260001916600019168152602001915050600060405180830381600087803b158015610d1057600080fd5b505af1158015610d24573d6000803e3d6000fd5b505050506040513d6000823e3d601f19601f820116820180604052506020811015610d4e57600080fd5b810190808051640100000000811115610d6657600080fd5b82810190506020810184811115610d7c57600080fd5b8151856020820283011164010000000082111715610d9957600080fd5b5050929190505050905092915050565b6060610db482610b27565b1515610dbf57600080fd5b600360009054906101000a900473ffffffffffffffffffffffffffffffffffffffff1673ffffffffffffffffffffffffffffffffffffffff16638db0e83b8360405160200180807f6f7261636c6573000000000000000000000000000000000000000000000000008152506007018273ffffffffffffffffffffffffffffffffffffffff1673ffffffffffffffffffffffffffffffffffffffff166c01000000000000000000000000028152601401807f70726f7669646572506172616d73000000000000000000000000000000000000815250600e019150506040516020818303038152906040526040518082805190602001908083835b602083101515610edd5780518252602082019150602081019050602083039250610eb8565b6001836020036101000a03801982511681845116808217855250505050505090500191505060405180910390206040518263ffffffff167c0100000000000000000000000000000000000000000000000000000000028152600401808260001916600019168152602001915050600060405180830381600087803b158015610f6457600080fd5b505af1158015610f78573d6000803e3d6000fd5b505050506040513d6000823e3d601f19601f820116820180604052506020811015610fa257600080fd5b810190808051640100000000811115610fba57600080fd5b82810190506020810184811115610fd057600080fd5b8151856020820283011164010000000082111715610fed57600080fd5b50509291905050509050919050565b600360009054906101000a900473ffffffffffffffffffffffffffffffffffffffff1681565b600061102d83610b27565b151561103857600080fd5b61104283836133fb565b151561104d57600080fd5b600360009054906101000a900473ffffffffffffffffffffffffffffffffffffffff1673ffffffffffffffffffffffffffffffffffffffff1663a6ed563e848460405160200180807f6f7261636c6573000000000000000000000000000000000000000000000000008152506007018373ffffffffffffffffffffffffffffffffffffffff1673ffffffffffffffffffffffffffffffffffffffff166c01000000000000000000000000028152601401807f70726f7669646572506172616d73000000000000000000000000000000000000815250600e018260001916600019168152602001925050506040516020818303038152906040526040518082805190602001908083835b60208310151561117b5780518252602082019150602081019050602083039250611156565b6001836020036101000a03801982511681845116808217855250505050505090500191505060405180910390206040518263ffffffff167c0100000000000000000000000000000000000000000000000000000000028152600401808260001916600019168152602001915050602060405180830381600087803b15801561120257600080fd5b505af1158015611216573d6000803e3d6000fd5b505050506040513d602081101561122c57600080fd5b8101908080519060200190929190505050905092915050565b6000611250826118ed565b9050919050565b600061126282612fce565b9050919050565b600080600360009054906101000a900473ffffffffffffffffffffffffffffffffffffffff1673ffffffffffffffffffffffffffffffffffffffff1663a21a65ae858560405160200180807f6f7261636c6573000000000000000000000000000000000000000000000000008152506007018373ffffffffffffffffffffffffffffffffffffffff1673ffffffffffffffffffffffffffffffffffffffff166c01000000000000000000000000028152601401807f63757276657300000000000000000000000000000000000000000000000000008152506006018260001916600019168152602001925050506040516020818303038152906040526040518082805190602001908083835b60208310151561139a5780518252602082019150602081019050602083039250611375565b6001836020036101000a03801982511681845116808217855250505050505090500191505060405180910390206040518263ffffffff167c0100000000000000000000000000000000000000000000000000000000028152600401808260001916600019168152602001915050602060405180830381600087803b15801561142157600080fd5b505af1158015611435573d6000803e3d6000fd5b505050506040513d602081101561144b57600080fd5b810190808051906020019092919050505014905092915050565b6060600360009054906101000a900473ffffffffffffffffffffffffffffffffffffffff1673ffffffffffffffffffffffffffffffffffffffff16635948f73360405160200180807f6f7261636c65496e646578000000000000000000000000000000000000000000815250600b0190506040516020818303038152906040526040518082805190602001908083835b60208310151561151a57805182526020820191506020810190506020830392506114f5565b6001836020036101000a03801982511681845116808217855250505050505090500191505060405180910390206040518263ffffffff167c0100000000000000000000000000000000000000000000000000000000028152600401808260001916600019168152602001915050600060405180830381600087803b1580156115a157600080fd5b505af11580156115b5573d6000803e3d6000fd5b505050506040513d6000823e3d601f19601f8201168201806040525060208110156115df57600080fd5b8101908080516401000000008111156115f757600080fd5b8281019050602081018481111561160d57600080fd5b815185602082028301116401000000008211171561162a57600080fd5b5050929190505050905090565b600160009054906101000a900473ffffffffffffffffffffffffffffffffffffffff1673ffffffffffffffffffffffffffffffffffffffff163373ffffffffffffffffffffffffffffffffffffffff1614151561169357600080fd5b61169b61360b565b565b6060600360009054906101000a900473ffffffffffffffffffffffffffffffffffffffff1673ffffffffffffffffffffffffffffffffffffffff16638db0e83b848460405160200180807f6f7261636c6573000000000000000000000000000000000000000000000000008152506007018373ffffffffffffffffffffffffffffffffffffffff1673ffffffffffffffffffffffffffffffffffffffff166c01000000000000000000000000028152601401807f656e64706f696e74506172616d73000000000000000000000000000000000000815250600e018260001916600019168152602001925050506040516020818303038152906040526040518082805190602001908083835b6020831015156117cd57805182526020820191506020810190506020830392506117a8565b6001836020036101000a03801982511681845116808217855250505050505090500191505060405180910390206040518263ffffffff167c0100000000000000000000000000000000000000000000000000000000028152600401808260001916600019168152602001915050600060405180830381600087803b15801561185457600080fd5b505af1158015611868573d6000803e3d6000fd5b505050506040513d6000823e3d601f19601f82011682018060405250602081101561189257600080fd5b8101908080516401000000008111156118aa57600080fd5b828101905060208101848111156118c057600080fd5b81518560208202830111640100000000821117156118dd57600080fd5b5050929190505050905092915050565b6000600360009054906101000a900473ffffffffffffffffffffffffffffffffffffffff1673ffffffffffffffffffffffffffffffffffffffff16632ecb0d648360405160200180807f6f7261636c6573000000000000000000000000000000000000000000000000008152506007018273ffffffffffffffffffffffffffffffffffffffff1673ffffffffffffffffffffffffffffffffffffffff166c01000000000000000000000000028152601401807f7075626c69634b657900000000000000000000000000000000000000000000008152506009019150506040516020818303038152906040526040518082805190602001908083835b602083101515611a0d57805182526020820191506020810190506020830392506119e8565b6001836020036101000a03801982511681845116808217855250505050505090500191505060405180910390206040518263ffffffff167c0100000000000000000000000000000000000000000000000000000000028152600401808260001916600019168152602001915050602060405180830381600087803b158015611a9457600080fd5b505af1158015611aa8573d6000803e3d6000fd5b505050506040513d6020811015611abe57600080fd5b81019080805190602001909291905050509050919050565b6000611ae28383611269565b151515611aee57600080fd5b600360009054906101000a900473ffffffffffffffffffffffffffffffffffffffff1673ffffffffffffffffffffffffffffffffffffffff16632d2899b6848460405160200180807f6f7261636c6573000000000000000000000000000000000000000000000000008152506007018373ffffffffffffffffffffffffffffffffffffffff1673ffffffffffffffffffffffffffffffffffffffff166c01000000000000000000000000028152601401807f63757276657300000000000000000000000000000000000000000000000000008152506006018260001916600019168152602001925050506040516020818303038152906040526040518082805190602001908083835b602083101515611c1c5780518252602082019150602081019050602083039250611bf7565b6001836020036101000a03801982511681845116808217855250505050505090500191505060405180910390206040518263ffffffff167c0100000000000000000000000000000000000000000000000000000000028152600401808260001916600019168152602001915050600060405180830381600087803b158015611ca357600080fd5b505af1158015611cb7573d6000803e3d6000fd5b505050506040513d6000823e3d601f19601f820116820180604052506020811015611ce157600080fd5b810190808051640100000000811115611cf957600080fd5b82810190506020810184811115611d0f57600080fd5b8151856020820283011164010000000082111715611d2c57600080fd5b505092919050505051905092915050565b6000809054906101000a900473ffffffffffffffffffffffffffffffffffffffff1681565b611d6b33610b27565b1515611d7657600080fd5b611d8033836133fb565b151561212a57600360009054906101000a900473ffffffffffffffffffffffffffffffffffffffff1673ffffffffffffffffffffffffffffffffffffffff166354c552db338460405160200180807f6f7261636c6573000000000000000000000000000000000000000000000000008152506007018373ffffffffffffffffffffffffffffffffffffffff1673ffffffffffffffffffffffffffffffffffffffff166c01000000000000000000000000028152601401807f69735f706172616d5f7365740000000000000000000000000000000000000000815250600c018260001916600019168152602001925050506040516020818303038152906040526040518082805190602001908083835b602083101515611eb45780518252602082019150602081019050602083039250611e8f565b6001836020036101000a038019825116818451168082178552505050505050905001915050604051809103902060016040518363ffffffff167c010000000000000000000000000000000000000000000000000000000002815260040180836000191660001916815260200182815260200192505050600060405180830381600087803b158015611f4457600080fd5b505af1158015611f58573d6000803e3d6000fd5b50505050600360009054906101000a900473ffffffffffffffffffffffffffffffffffffffff1673ffffffffffffffffffffffffffffffffffffffff16638d152d783360405160200180807f6f7261636c6573000000000000000000000000000000000000000000000000008152506007018273ffffffffffffffffffffffffffffffffffffffff1673ffffffffffffffffffffffffffffffffffffffff166c01000000000000000000000000028152601401807f70726f7669646572506172616d73000000000000000000000000000000000000815250600e019150506040516020818303038152906040526040518082805190602001908083835b60208310151561207a5780518252602082019150602081019050602083039250612055565b6001836020036101000a0380198251168184511680821785525050505050509050019150506040518091039020846040518363ffffffff167c0100000000000000000000000000000000000000000000000000000000028152600401808360001916600019168152602001826000191660001916815260200192505050600060405180830381600087803b15801561211157600080fd5b505af1158015612125573d6000803e3d6000fd5b505050505b600360009054906101000a900473ffffffffffffffffffffffffffffffffffffffff1673ffffffffffffffffffffffffffffffffffffffff16634e91db08338460405160200180807f6f7261636c6573000000000000000000000000000000000000000000000000008152506007018373ffffffffffffffffffffffffffffffffffffffff1673ffffffffffffffffffffffffffffffffffffffff166c01000000000000000000000000028152601401807f70726f7669646572506172616d73000000000000000000000000000000000000815250600e018260001916600019168152602001925050506040516020818303038152906040526040518082805190602001908083835b6020831015156122585780518252602082019150602081019050602083039250612233565b6001836020036101000a0380198251168184511680821785525050505050509050019150506040518091039020836040518363ffffffff167c0100000000000000000000000000000000000000000000000000000000028152600401808360001916600019168152602001826000191660001916815260200192505050600060405180830381600087803b1580156122ef57600080fd5b505af1158015612303573d6000803e3d6000fd5b505050505050565b6000600360009054906101000a900473ffffffffffffffffffffffffffffffffffffffff1673ffffffffffffffffffffffffffffffffffffffff1663e16e934060405160200180807f6f7261636c65496e646578000000000000000000000000000000000000000000815250600b0190506040516020818303038152906040526040518082805190602001908083835b6020831015156123c0578051825260208201915060208101905060208303925061239b565b6001836020036101000a0380198251168184511680821785525050505050509050019150506040518091039020846040518363ffffffff167c010000000000000000000000000000000000000000000000000000000002815260040180836000191660001916815260200182815260200192505050602060405180830381600087803b15801561244f57600080fd5b505af1158015612463573d6000803e3d6000fd5b505050506040513d602081101561247957600080fd5b81019080805190602001909291905050509050919050565b6000809054906101000a900473ffffffffffffffffffffffffffffffffffffffff1673ffffffffffffffffffffffffffffffffffffffff163373ffffffffffffffffffffffffffffffffffffffff161415156124ec57600080fd5b6000809054906101000a900473ffffffffffffffffffffffffffffffffffffffff1673ffffffffffffffffffffffffffffffffffffffff16ff5b6060600360009054906101000a900473ffffffffffffffffffffffffffffffffffffffff1673ffffffffffffffffffffffffffffffffffffffff16638db0e83b8360405160200180807f6f7261636c6573000000000000000000000000000000000000000000000000008152506007018273ffffffffffffffffffffffffffffffffffffffff1673ffffffffffffffffffffffffffffffffffffffff166c01000000000000000000000000028152601401807f656e64706f696e747300000000000000000000000000000000000000000000008152506009019150506040516020818303038152906040526040518082805190602001908083835b6020831015156126465780518252602082019150602081019050602083039250612621565b6001836020036101000a03801982511681845116808217855250505050505090500191505060405180910390206040518263ffffffff167c0100000000000000000000000000000000000000000000000000000000028152600401808260001916600019168152602001915050600060405180830381600087803b1580156126cd57600080fd5b505af11580156126e1573d6000803e3d6000fd5b505050506040513d6000823e3d601f19601f82011682018060405250602081101561270b57600080fd5b81019080805164010000000081111561272357600080fd5b8281019050602081018481111561273957600080fd5b815185602082028301116401000000008211171561275657600080fd5b50509291905050509050919050565b600061277033610b27565b15151561277c57600080fd5b612787338484613750565b61279033613ae7565b81600019163373ffffffffffffffffffffffffffffffffffffffff167f96c4fc31a3e383225857c821101daf68248108597da8ddde0ac2b431eb9a16be60405160405180910390a36001905092915050565b6000600360009054906101000a900473ffffffffffffffffffffffffffffffffffffffff1673ffffffffffffffffffffffffffffffffffffffff16632fc94ba660405160200180807f6f7261636c65496e646578000000000000000000000000000000000000000000815250600b0190506040516020818303038152906040526040518082805190602001908083835b6020831015156128975780518252602082019150602081019050602083039250612872565b6001836020036101000a03801982511681845116808217855250505050505090500191505060405180910390206040518263ffffffff167c0100000000000000000000000000000000000000000000000000000000028152600401808260001916600019168152602001915050602060405180830381600087803b15801561291e57600080fd5b505af1158015612932573d6000803e3d6000fd5b505050506040513d602081101561294857600080fd5b8101908080519060200190929190505050905090565b600061296933610b27565b151561297457600080fd5b61297e3384611269565b151561298957600080fd5b612994338484613c70565b600360009054906101000a900473ffffffffffffffffffffffffffffffffffffffff1673ffffffffffffffffffffffffffffffffffffffff16638d152d783360405160200180807f6f7261636c6573000000000000000000000000000000000000000000000000008152506007018273ffffffffffffffffffffffffffffffffffffffff1673ffffffffffffffffffffffffffffffffffffffff166c01000000000000000000000000028152601401807f656e64706f696e747300000000000000000000000000000000000000000000008152506009019150506040516020818303038152906040526040518082805190602001908083835b602083101515612ab25780518252602082019150602081019050602083039250612a8d565b6001836020036101000a0380198251168184511680821785525050505050509050019150506040518091039020856040518363ffffffff167c0100000000000000000000000000000000000000000000000000000000028152600401808360001916600019168152602001826000191660001916815260200192505050600060405180830381600087803b158015612b4957600080fd5b505af1158015612b5d573d6000803e3d6000fd5b5050505082600019163373ffffffffffffffffffffffffffffffffffffffff167fb67d424d60359d61c1828cc3668bfa0489f3056931c50e1cbba313dc6f601bae846040518080602001828103825283818151815260200191508051906020019060200280838360005b83811015612be2578082015181840152602081019050612bc7565b505050509050019250505060405180910390a36001905092915050565b6060612c0a33610b27565b1515612c1557600080fd5b612c1f3383611269565b151515612c2b57600080fd5b600360009054906101000a900473ffffffffffffffffffffffffffffffffffffffff1673ffffffffffffffffffffffffffffffffffffffff16638db0e83b848460405160200180807f6f7261636c6573000000000000000000000000000000000000000000000000008152506007018373ffffffffffffffffffffffffffffffffffffffff1673ffffffffffffffffffffffffffffffffffffffff166c01000000000000000000000000028152601401807f656e64706f696e74506172616d73000000000000000000000000000000000000815250600e018260001916600019168152602001925050506040516020818303038152906040526040518082805190602001908083835b602083101515612d595780518252602082019150602081019050602083039250612d34565b6001836020036101000a03801982511681845116808217855250505050505090500191505060405180910390206040518263ffffffff167c0100000000000000000000000000000000000000000000000000000000028152600401808260001916600019168152602001915050600060405180830381600087803b158015612de057600080fd5b505af1158015612df4573d6000803e3d6000fd5b505050506040513d6000823e3d601f19601f820116820180604052506020811015612e1e57600080fd5b810190808051640100000000811115612e3657600080fd5b82810190506020810184811115612e4c57600080fd5b8151856020820283011164010000000082111715612e6957600080fd5b5050929190505050905092915050565b6000809054906101000a900473ffffffffffffffffffffffffffffffffffffffff1673ffffffffffffffffffffffffffffffffffffffff163373ffffffffffffffffffffffffffffffffffffffff16141515612ed457600080fd5b600073ffffffffffffffffffffffffffffffffffffffff168173ffffffffffffffffffffffffffffffffffffffff1614151515612f1057600080fd5b8073ffffffffffffffffffffffffffffffffffffffff166000809054906101000a900473ffffffffffffffffffffffffffffffffffffffff1673ffffffffffffffffffffffffffffffffffffffff167f8be0079c531659141344cd1fd0a4f28419497f9722a3daafe3b4186f6b6457e060405160405180910390a3806000806101000a81548173ffffffffffffffffffffffffffffffffffffffff021916908373ffffffffffffffffffffffffffffffffffffffff16021790555050565b6000600360009054906101000a900473ffffffffffffffffffffffffffffffffffffffff1673ffffffffffffffffffffffffffffffffffffffff1663a6ed563e8360405160200180807f6f7261636c6573000000000000000000000000000000000000000000000000008152506007018273ffffffffffffffffffffffffffffffffffffffff1673ffffffffffffffffffffffffffffffffffffffff166c01000000000000000000000000028152601401807f7469746c650000000000000000000000000000000000000000000000000000008152506005019150506040516020818303038152906040526040518082805190602001908083835b6020831015156130ee57805182526020820191506020810190506020830392506130c9565b6001836020036101000a03801982511681845116808217855250505050505090500191505060405180910390206040518263ffffffff167c0100000000000000000000000000000000000000000000000000000000028152600401808260001916600019168152602001915050602060405180830381600087803b15801561317557600080fd5b505af1158015613189573d6000803e3d6000fd5b505050506040513d602081101561319f57600080fd5b81019080805190602001909291905050509050919050565b6131c033610b27565b15156131cb57600080fd5b6131d53383611269565b1515156131e157600080fd5b600360009054906101000a900473ffffffffffffffffffffffffffffffffffffffff1673ffffffffffffffffffffffffffffffffffffffff166356e5cf2e338460405160200180807f6f7261636c6573000000000000000000000000000000000000000000000000008152506007018373ffffffffffffffffffffffffffffffffffffffff1673ffffffffffffffffffffffffffffffffffffffff166c01000000000000000000000000028152601401807f656e64706f696e74506172616d73000000000000000000000000000000000000815250600e018260001916600019168152602001925050506040516020818303038152906040526040518082805190602001908083835b60208310151561330f57805182526020820191506020810190506020830392506132ea565b6001836020036101000a0380198251168184511680821785525050505050509050019150506040518091039020836040518363ffffffff167c010000000000000000000000000000000000000000000000000000000002815260040180836000191660001916815260200180602001828103825283818151815260200191508051906020019060200280838360005b838110156133b957808201518184015260208101905061339e565b505050509050019350505050600060405180830381600087803b1580156133df57600080fd5b505af11580156133f3573d6000803e3d6000fd5b505050505050565b600080600360009054906101000a900473ffffffffffffffffffffffffffffffffffffffff1673ffffffffffffffffffffffffffffffffffffffff16632ecb0d64858560405160200180807f6f7261636c6573000000000000000000000000000000000000000000000000008152506007018373ffffffffffffffffffffffffffffffffffffffff1673ffffffffffffffffffffffffffffffffffffffff166c01000000000000000000000000028152601401807f69735f706172616d5f7365740000000000000000000000000000000000000000815250600c018260001916600019168152602001925050506040516020818303038152906040526040518082805190602001908083835b60208310151561352c5780518252602082019150602081019050602083039250613507565b6001836020036101000a03801982511681845116808217855250505050505090500191505060405180910390206040518263ffffffff167c0100000000000000000000000000000000000000000000000000000000028152600401808260001916600019168152602001915050602060405180830381600087803b1580156135b357600080fd5b505af11580156135c7573d6000803e3d6000fd5b505050506040513d60208110156135dd57600080fd5b81019080805190602001909291905050509050600181146135ff576000613602565b60015b91505092915050565b6000600260009054906101000a900473ffffffffffffffffffffffffffffffffffffffff1673ffffffffffffffffffffffffffffffffffffffff1663358177736040518163ffffffff167c01000000000000000000000000000000000000000000000000000000000281526004018080602001828103825260088152602001807f4441544142415345000000000000000000000000000000000000000000000000815250602001915050602060405180830381600087803b1580156136cf57600080fd5b505af11580156136e3573d6000803e3d6000fd5b505050506040513d60208110156136f957600080fd5b8101908080519060200190929190505050905080600360006101000a81548173ffffffffffffffffffffffffffffffffffffffff021916908373ffffffffffffffffffffffffffffffffffffffff16021790555050565b600360009054906101000a900473ffffffffffffffffffffffffffffffffffffffff1673ffffffffffffffffffffffffffffffffffffffff166354c552db8460405160200180807f6f7261636c6573000000000000000000000000000000000000000000000000008152506007018273ffffffffffffffffffffffffffffffffffffffff1673ffffffffffffffffffffffffffffffffffffffff166c01000000000000000000000000028152601401807f7075626c69634b657900000000000000000000000000000000000000000000008152506009019150506040516020818303038152906040526040518082805190602001908083835b60208310151561386e5780518252602082019150602081019050602083039250613849565b6001836020036101000a0380198251168184511680821785525050505050509050019150506040518091039020846040518363ffffffff167c010000000000000000000000000000000000000000000000000000000002815260040180836000191660001916815260200182815260200192505050600060405180830381600087803b1580156138fd57600080fd5b505af1158015613911573d6000803e3d6000fd5b50505050600360009054906101000a900473ffffffffffffffffffffffffffffffffffffffff1673ffffffffffffffffffffffffffffffffffffffff16634e91db088460405160200180807f6f7261636c6573000000000000000000000000000000000000000000000000008152506007018273ffffffffffffffffffffffffffffffffffffffff1673ffffffffffffffffffffffffffffffffffffffff166c01000000000000000000000000028152601401807f7469746c650000000000000000000000000000000000000000000000000000008152506005019150506040516020818303038152906040526040518082805190602001908083835b602083101515613a335780518252602082019150602081019050602083039250613a0e565b6001836020036101000a0380198251168184511680821785525050505050509050019150506040518091039020836040518363ffffffff167c0100000000000000000000000000000000000000000000000000000000028152600401808360001916600019168152602001826000191660001916815260200192505050600060405180830381600087803b158015613aca57600080fd5b505af1158015613ade573d6000803e3d6000fd5b50505050505050565b600360009054906101000a900473ffffffffffffffffffffffffffffffffffffffff1673ffffffffffffffffffffffffffffffffffffffff1663dd151d1e60405160200180807f6f7261636c65496e646578000000000000000000000000000000000000000000815250600b0190506040516020818303038152906040526040518082805190602001908083835b602083101515613b9a5780518252602082019150602081019050602083039250613b75565b6001836020036101000a0380198251168184511680821785525050505050509050019150506040518091039020836040518363ffffffff167c01000000000000000000000000000000000000000000000000000000000281526004018083600019166000191681526020018273ffffffffffffffffffffffffffffffffffffffff1673ffffffffffffffffffffffffffffffffffffffff16815260200192505050600060405180830381600087803b158015613c5557600080fd5b505af1158015613c69573d6000803e3d6000fd5b5050505050565b600080600080600060019450600093505b8551841015613d02578584815181101515613c9857fe5b906020019060200201519250600083131515613cb357600080fd5b6001838501019150855182101515613cca57600080fd5b8582815181101515613cd857fe5b9060200190602002015190508481111515613cf257600080fd5b8094506002830184019350613c81565b600360009054906101000a900473ffffffffffffffffffffffffffffffffffffffff1673ffffffffffffffffffffffffffffffffffffffff1663a9fcf76b898960405160200180807f6f7261636c6573000000000000000000000000000000000000000000000000008152506007018373ffffffffffffffffffffffffffffffffffffffff1673ffffffffffffffffffffffffffffffffffffffff166c01000000000000000000000000028152601401807f63757276657300000000000000000000000000000000000000000000000000008152506006018260001916600019168152602001925050506040516020818303038152906040526040518082805190602001908083835b602083101515613e305780518252602082019150602081019050602083039250613e0b565b6001836020036101000a0380198251168184511680821785525050505050509050019150506040518091039020886040518363ffffffff167c010000000000000000000000000000000000000000000000000000000002815260040180836000191660001916815260200180602001828103825283818151815260200191508051906020019060200280838360005b83811015613eda578082015181840152602081019050613ebf565b505050509050019350505050600060405180830381600087803b158015613f0057600080fd5b505af1158015613f14573d6000803e3d6000fd5b5050505050505050505050505600a165627a7a7230582061006b1f5f0b5ca144bb56ce71d1baa81d14bac2ef1b2c99e62e39cee002d4d70029",
  "source": "pragma solidity ^0.4.24;\n// v1.0\n\nimport \"../../lib/lifecycle/Destructible.sol\";\nimport \"../../lib/ownership/Upgradable.sol\";\nimport \"../database/DatabaseInterface.sol\";\nimport \"./RegistryInterface.sol\";\n\ncontract Registry is Destructible, RegistryInterface, Upgradable {\n\n    event NewProvider(\n        address indexed provider,\n        bytes32 indexed title\n    );\n\n    event NewCurve(\n        address indexed provider,\n        bytes32 indexed endpoint,\n        int[] curve\n    );\n\n    DatabaseInterface public db;\n\n    constructor(address c) Upgradable(c) public {\n        _updateDependencies();\n    }\n\n    function _updateDependencies() internal {\n        address databaseAddress = coordinator.getContract(\"DATABASE\");\n        db = DatabaseInterface(databaseAddress);\n    }\n\n    /// @dev initiates a provider.\n    /// If no address->Oracle mapping exists, Oracle object is created\n    /// @param publicKey unique id for provider. used for encyrpted key swap for subscription endpoints\n    /// @param title name\n    function initiateProvider(\n        uint256 publicKey,\n        bytes32 title\n    )\n        public\n        returns (bool)\n    {\n        require(!isProviderInitiated(msg.sender));\n        createOracle(msg.sender, publicKey, title);\n        addOracle(msg.sender);\n        emit NewProvider(msg.sender, title);\n        return true;\n    }\n\n    /// @dev initiates an endpoint specific provider curve\n    /// If oracle[specfifier] is uninitialized, Curve is mapped to endpoint\n    /// @param endpoint specifier of endpoint. currently \"smart_contract\" or \"socket_subscription\"\n    /// @param curve flattened array of all segments, coefficients across all polynomial terms, [e0,l0,c0,c1,c2,...]\n    function initiateProviderCurve(\n        bytes32 endpoint,\n        int256[] curve\n    )\n        public\n        returns (bool)\n    {\n        // Provider must be initiated\n        require(isProviderInitiated(msg.sender));\n        // Can't reset their curve\n        require(getCurveUnset(msg.sender, endpoint));\n\n        setCurve(msg.sender, endpoint, curve);        \n        db.pushBytesArray(keccak256(abi.encodePacked('oracles', msg.sender, 'endpoints')), endpoint);\n        emit NewCurve(msg.sender, endpoint, curve);\n\n        return true;\n    }\n\n    // Sets provider data\n    function setProviderParameter(bytes32 key, bytes32 value) public {\n        // Provider must be initiated\n        require(isProviderInitiated(msg.sender));\n\n        if(!isProviderParamInitialized(msg.sender, key)){\n            // initialize this provider param\n            db.setNumber(keccak256(abi.encodePacked('oracles', msg.sender, 'is_param_set', key)), 1);\n            db.pushBytesArray(keccak256(abi.encodePacked('oracles', msg.sender, 'providerParams')), key);\n        }\n        db.setBytes32(keccak256(abi.encodePacked('oracles', msg.sender, 'providerParams', key)), value);\n    }\n\n    // Gets provider data\n    function getProviderParameter(address provider, bytes32 key) public view returns (bytes32){\n        // Provider must be initiated\n        require(isProviderInitiated(provider));\n        require(isProviderParamInitialized(provider, key));\n        return db.getBytes32(keccak256(abi.encodePacked('oracles', provider, 'providerParams', key)));\n    }\n\n    // Gets keys of all provider params\n    function getAllProviderParams(address provider) public view returns (bytes32[]){\n        // Provider must be initiated\n        require(isProviderInitiated(provider));\n        return db.getBytesArray(keccak256(abi.encodePacked('oracles', provider, 'providerParams')));\n    }\n\n    // Set endpoint specific parameters for a given endpoint\n    function setEndpointParams(bytes32 endpoint, bytes32[] endpointParams) public {\n        // Provider must be initiated\n        require(isProviderInitiated(msg.sender));\n        // Can't set endpoint params on an unset provider\n        require(!getCurveUnset(msg.sender, endpoint));\n\n        db.setBytesArray(keccak256(abi.encodePacked('oracles', msg.sender, 'endpointParams', endpoint)), endpointParams);\n    }\n\n    // get endpoint specific parameters for a given endpoint\n    function getEndpointParams(address provider, bytes32 endpoint) public view returns (bytes32[]) {\n        // Provider, endpoint must be initiated\n        require(isProviderInitiated(msg.sender));\n        require(!getCurveUnset(msg.sender, endpoint));\n\n        return db.getBytesArray(keccak256(abi.encodePacked('oracles', provider, 'endpointParams', endpoint)));\n    }\n\n    /// @return public key\n    function getProviderPublicKey(address provider) public view returns (uint256) {\n        return getPublicKey(provider);\n    }\n\n    /// @return oracle name\n    function getProviderTitle(address provider) public view returns (bytes32) {\n        return getTitle(provider);\n    }\n\n\n    /// @dev get curve paramaters from oracle\n    function getProviderCurve(\n        address provider,\n        bytes32 endpoint\n    )\n        public\n        view\n        returns (int[])\n    {\n        require(!getCurveUnset(provider, endpoint));\n        return db.getIntArray(keccak256(abi.encodePacked('oracles', provider, 'curves', endpoint)));\n    }\n\n    function getProviderCurveLength(address provider, bytes32 endpoint) public view returns (uint256){\n        require(!getCurveUnset(provider, endpoint));\n        return db.getIntArray(keccak256(abi.encodePacked('oracles', provider, 'curves', endpoint))).length;\n    }\n\n    /// @dev is provider initiated\n    /// @param oracleAddress the provider address\n    /// @return Whether or not the provider has initiated in the Registry.\n    function isProviderInitiated(address oracleAddress) public view returns (bool) {\n        return getProviderTitle(oracleAddress) != 0;\n    }\n\n    /*** STORAGE FUNCTIONS ***/\n    /// @dev get public key of provider\n    function getPublicKey(address provider) public view returns (uint256) {\n        return db.getNumber(keccak256(abi.encodePacked(\"oracles\", provider, \"publicKey\")));\n    }\n\n    /// @dev get title of provider\n    function getTitle(address provider) public view returns (bytes32) {\n        return db.getBytes32(keccak256(abi.encodePacked(\"oracles\", provider, \"title\")));\n    }\n\n    /// @dev get the endpoints of a provider\n    function getProviderEndpoints(address provider) public view returns (bytes32[]) {\n        return db.getBytesArray(keccak256(abi.encodePacked(\"oracles\", provider, \"endpoints\")));\n    }\n\n    /// @dev get all endpoint params\n    function getEndPointParams(address provider, bytes32 endpoint) public view returns (bytes32[]) {\n        return db.getBytesArray(keccak256(abi.encodePacked('oracles', provider, 'endpointParams', endpoint)));\n    }\n\n    function getCurveUnset(address provider, bytes32 endpoint) public view returns (bool) {\n        return db.getIntArrayLength(keccak256(abi.encodePacked('oracles', provider, 'curves', endpoint))) == 0;\n    }\n\n    /// @dev get overall number of providers\n    function getOracleIndexSize() public view returns (uint256) {\n        return db.getAddressArrayLength(keccak256(abi.encodePacked('oracleIndex')));\n    }\n\n    /// @dev get provider address by index\n    function getOracleAddress(uint256 index) public view returns (address) {\n        return db.getAddressArrayIndex(keccak256(abi.encodePacked('oracleIndex')), index);\n    }\n\n    /// @dev get all oracle addresses\n    function getAllOracles() external view returns (address[]) {\n        return db.getAddressArray(keccak256(abi.encodePacked('oracleIndex')));\n    }\n\n    ///  @dev add new provider to mapping\n    function createOracle(address provider, uint256 publicKey, bytes32 title) private {\n        db.setNumber(keccak256(abi.encodePacked('oracles', provider, \"publicKey\")), uint256(publicKey));\n        db.setBytes32(keccak256(abi.encodePacked('oracles', provider, \"title\")), title);\n    }\n\n    /// @dev add new provider address to oracles array\n    function addOracle(address provider) private {\n        db.pushAddressArray(keccak256(abi.encodePacked('oracleIndex')), provider);\n    }\n\n    /// @dev initialize new curve for provider\n    /// @param provider address of provider\n    /// @param endpoint endpoint specifier\n    /// @param curve flattened array of all segments, coefficients across all polynomial terms, [l0,c0,c1,c2,..., ck, e0, ...]\n    function setCurve(\n        address provider,\n        bytes32 endpoint,\n        int[] curve\n    )\n        private\n    {\n        uint prevEnd = 1;\n        uint index = 0;\n\n        // Validate the curve\n        while ( index < curve.length ) {\n            // Validate the length of the piece\n            int len = curve[index];\n            require(len > 0);\n\n            // Validate the end index of the piece\n            uint endIndex = index + uint(len) + 1;\n            require(endIndex < curve.length);\n\n            // Validate that the end is continuous\n            int end = curve[endIndex];\n            require(uint(end) > prevEnd);\n\n            prevEnd = uint(end);\n            index += uint(len) + 2; \n        }\n\n        db.setIntArray(keccak256(abi.encodePacked('oracles', provider, 'curves', endpoint)), curve);\n    }\n\n    // Determines whether this parameter has been initialized\n    function isProviderParamInitialized(address provider, bytes32 key) private view returns (bool){\n        uint256 val = db.getNumber(keccak256(abi.encodePacked('oracles', provider, 'is_param_set', key)));\n        return (val == 1) ? true : false;\n    }\n\n    /*************************************** STORAGE ****************************************\n    * 'oracles', provider, 'endpoints' => {bytes32[]} array of endpoints for this oracle\n    * 'oracles', provider, 'endpointParams', endpoint => {bytes32[]} array of params for this endpoint\n    * 'oracles', provider, 'curves', endpoint => {uint[]} curve array for this endpoint\n    * 'oracles', provider, 'is_param_set', key => {uint} Is this provider parameter set (0/1)\n    * 'oracles', provider, \"publicKey\" => {uint} public key for this oracle\n    * 'oracles', provider, \"title\" => {bytes32} title of this oracle\n    ****************************************************************************************/\n}\n",
  "sourcePath": "/home/iefnw/office6/zap-ethereum-api/contracts/platform/registry/Registry.sol",
  "compiler": {
    "name": "solc",
    "version": "0.4.24+commit.e67f0147.Emscripten.clang"
  },
  "schemaVersion": "2.0.1",
  "updatedAt": "2018-08-16T15:50:50.208Z"
}