{
  "contractName": "Registry",
  "abi": [
    {
      "constant": true,
      "inputs": [],
      "name": "db",
      "outputs": [
        {
          "name": "",
          "type": "address"
        }
      ],
      "payable": false,
      "stateMutability": "view",
      "type": "function"
    },
    {
      "constant": false,
      "inputs": [],
      "name": "updateDependencies",
      "outputs": [],
      "payable": false,
      "stateMutability": "nonpayable",
      "type": "function"
    },
    {
      "constant": true,
      "inputs": [],
      "name": "owner",
      "outputs": [
        {
          "name": "",
          "type": "address"
        }
      ],
      "payable": false,
      "stateMutability": "view",
      "type": "function"
    },
    {
      "constant": false,
      "inputs": [],
      "name": "selfDestruct",
      "outputs": [],
      "payable": false,
      "stateMutability": "nonpayable",
      "type": "function"
    },
    {
      "constant": false,
      "inputs": [
        {
          "name": "newOwner",
          "type": "address"
        }
      ],
      "name": "transferOwnership",
      "outputs": [],
      "payable": false,
      "stateMutability": "nonpayable",
      "type": "function"
    },
    {
      "inputs": [
        {
          "name": "c",
          "type": "address"
        }
      ],
      "payable": false,
      "stateMutability": "nonpayable",
      "type": "constructor"
    },
    {
      "anonymous": false,
      "inputs": [
        {
          "indexed": true,
          "name": "provider",
          "type": "address"
        },
        {
          "indexed": true,
          "name": "title",
          "type": "bytes32"
        }
      ],
      "name": "NewProvider",
      "type": "event"
    },
    {
      "anonymous": false,
      "inputs": [
        {
          "indexed": true,
          "name": "provider",
          "type": "address"
        },
        {
          "indexed": true,
          "name": "endpoint",
          "type": "bytes32"
        },
        {
          "indexed": false,
          "name": "curve",
          "type": "int256[]"
        },
        {
          "indexed": true,
          "name": "broker",
          "type": "address"
        }
      ],
      "name": "NewCurve",
      "type": "event"
    },
    {
      "anonymous": false,
      "inputs": [
        {
          "indexed": true,
          "name": "previousOwner",
          "type": "address"
        },
        {
          "indexed": true,
          "name": "newOwner",
          "type": "address"
        }
      ],
      "name": "OwnershipTransferred",
      "type": "event"
    },
    {
      "constant": false,
      "inputs": [
        {
          "name": "publicKey",
          "type": "uint256"
        },
        {
          "name": "title",
          "type": "bytes32"
        }
      ],
      "name": "initiateProvider",
      "outputs": [
        {
          "name": "",
          "type": "bool"
        }
      ],
      "payable": false,
      "stateMutability": "nonpayable",
      "type": "function"
    },
    {
      "constant": false,
      "inputs": [
        {
          "name": "endpoint",
          "type": "bytes32"
        },
        {
          "name": "curve",
          "type": "int256[]"
        },
        {
          "name": "broker",
          "type": "address"
        }
      ],
      "name": "initiateProviderCurve",
      "outputs": [
        {
          "name": "",
          "type": "bool"
        }
      ],
      "payable": false,
      "stateMutability": "nonpayable",
      "type": "function"
    },
    {
      "constant": false,
      "inputs": [
        {
          "name": "key",
          "type": "bytes32"
        },
        {
          "name": "value",
          "type": "bytes32"
        }
      ],
      "name": "setProviderParameter",
      "outputs": [],
      "payable": false,
      "stateMutability": "nonpayable",
      "type": "function"
    },
    {
      "constant": true,
      "inputs": [
        {
          "name": "provider",
          "type": "address"
        },
        {
          "name": "key",
          "type": "bytes32"
        }
      ],
      "name": "getProviderParameter",
      "outputs": [
        {
          "name": "",
          "type": "bytes32"
        }
      ],
      "payable": false,
      "stateMutability": "view",
      "type": "function"
    },
    {
      "constant": true,
      "inputs": [
        {
          "name": "provider",
          "type": "address"
        }
      ],
      "name": "getAllProviderParams",
      "outputs": [
        {
          "name": "",
          "type": "bytes32[]"
        }
      ],
      "payable": false,
      "stateMutability": "view",
      "type": "function"
    },
    {
      "constant": false,
      "inputs": [
        {
          "name": "endpoint",
          "type": "bytes32"
        },
        {
          "name": "endpointParams",
          "type": "bytes32[]"
        }
      ],
      "name": "setEndpointParams",
      "outputs": [],
      "payable": false,
      "stateMutability": "nonpayable",
      "type": "function"
    },
    {
      "constant": true,
      "inputs": [
        {
          "name": "provider",
          "type": "address"
        },
        {
          "name": "endpoint",
          "type": "bytes32"
        }
      ],
      "name": "getEndpointParams",
      "outputs": [
        {
          "name": "",
          "type": "bytes32[]"
        }
      ],
      "payable": false,
      "stateMutability": "view",
      "type": "function"
    },
    {
      "constant": true,
      "inputs": [
        {
          "name": "provider",
          "type": "address"
        }
      ],
      "name": "getProviderPublicKey",
      "outputs": [
        {
          "name": "",
          "type": "uint256"
        }
      ],
      "payable": false,
      "stateMutability": "view",
      "type": "function"
    },
    {
      "constant": true,
      "inputs": [
        {
          "name": "provider",
          "type": "address"
        }
      ],
      "name": "getProviderTitle",
      "outputs": [
        {
          "name": "",
          "type": "bytes32"
        }
      ],
      "payable": false,
      "stateMutability": "view",
      "type": "function"
    },
    {
      "constant": true,
      "inputs": [
        {
          "name": "provider",
          "type": "address"
        },
        {
          "name": "endpoint",
          "type": "bytes32"
        }
      ],
      "name": "getProviderCurve",
      "outputs": [
        {
          "name": "",
          "type": "int256[]"
        }
      ],
      "payable": false,
      "stateMutability": "view",
      "type": "function"
    },
    {
      "constant": true,
      "inputs": [
        {
          "name": "provider",
          "type": "address"
        },
        {
          "name": "endpoint",
          "type": "bytes32"
        }
      ],
      "name": "getProviderCurveLength",
      "outputs": [
        {
          "name": "",
          "type": "uint256"
        }
      ],
      "payable": false,
      "stateMutability": "view",
      "type": "function"
    },
    {
      "constant": true,
      "inputs": [
        {
          "name": "oracleAddress",
          "type": "address"
        }
      ],
      "name": "isProviderInitiated",
      "outputs": [
        {
          "name": "",
          "type": "bool"
        }
      ],
      "payable": false,
      "stateMutability": "view",
      "type": "function"
    },
    {
      "constant": true,
      "inputs": [
        {
          "name": "provider",
          "type": "address"
        }
      ],
      "name": "getPublicKey",
      "outputs": [
        {
          "name": "",
          "type": "uint256"
        }
      ],
      "payable": false,
      "stateMutability": "view",
      "type": "function"
    },
    {
      "constant": true,
      "inputs": [
        {
          "name": "provider",
          "type": "address"
        }
      ],
      "name": "getTitle",
      "outputs": [
        {
          "name": "",
          "type": "bytes32"
        }
      ],
      "payable": false,
      "stateMutability": "view",
      "type": "function"
    },
    {
      "constant": true,
      "inputs": [
        {
          "name": "provider",
          "type": "address"
        }
      ],
      "name": "getProviderEndpoints",
      "outputs": [
        {
          "name": "",
          "type": "bytes32[]"
        }
      ],
      "payable": false,
      "stateMutability": "view",
      "type": "function"
    },
    {
      "constant": true,
      "inputs": [
        {
          "name": "provider",
          "type": "address"
        },
        {
          "name": "endpoint",
          "type": "bytes32"
        }
      ],
      "name": "getEndPointParams",
      "outputs": [
        {
          "name": "",
          "type": "bytes32[]"
        }
      ],
      "payable": false,
      "stateMutability": "view",
      "type": "function"
    },
    {
      "constant": true,
      "inputs": [
        {
          "name": "oracleAddress",
          "type": "address"
        },
        {
          "name": "endpoint",
          "type": "bytes32"
        }
      ],
      "name": "getEndpointBroker",
      "outputs": [
        {
          "name": "",
          "type": "address"
        }
      ],
      "payable": false,
      "stateMutability": "view",
      "type": "function"
    },
    {
      "constant": true,
      "inputs": [
        {
          "name": "provider",
          "type": "address"
        },
        {
          "name": "endpoint",
          "type": "bytes32"
        }
      ],
      "name": "getCurveUnset",
      "outputs": [
        {
          "name": "",
          "type": "bool"
        }
      ],
      "payable": false,
      "stateMutability": "view",
      "type": "function"
    },
    {
      "constant": true,
      "inputs": [
        {
          "name": "index",
          "type": "uint256"
        }
      ],
      "name": "getOracleAddress",
      "outputs": [
        {
          "name": "",
          "type": "address"
        }
      ],
      "payable": false,
      "stateMutability": "view",
      "type": "function"
    },
    {
      "constant": true,
      "inputs": [],
      "name": "getAllOracles",
      "outputs": [
        {
          "name": "",
          "type": "address[]"
        }
      ],
      "payable": false,
      "stateMutability": "view",
      "type": "function"
    }
  ],
  "bytecode": "0x60806040523480156200001157600080fd5b5060405160208062004ded8339810180604052810190808051906020019092919050505080336000806101000a81548173ffffffffffffffffffffffffffffffffffffffff021916908373ffffffffffffffffffffffffffffffffffffffff16021790555080600160006101000a81548173ffffffffffffffffffffffffffffffffffffffff021916908373ffffffffffffffffffffffffffffffffffffffff16021790555080600260006101000a81548173ffffffffffffffffffffffffffffffffffffffff021916908373ffffffffffffffffffffffffffffffffffffffff160217905550506200011262000119640100000000026401000000009004565b5062000261565b6000600260009054906101000a900473ffffffffffffffffffffffffffffffffffffffff1673ffffffffffffffffffffffffffffffffffffffff1663358177736040518163ffffffff167c01000000000000000000000000000000000000000000000000000000000281526004018080602001828103825260088152602001807f4441544142415345000000000000000000000000000000000000000000000000815250602001915050602060405180830381600087803b158015620001de57600080fd5b505af1158015620001f3573d6000803e3d6000fd5b505050506040513d60208110156200020a57600080fd5b8101908080519060200190929190505050905080600360006101000a81548173ffffffffffffffffffffffffffffffffffffffff021916908373ffffffffffffffffffffffffffffffffffffffff16021790555050565b614b7c80620002716000396000f300608060405260043610610149576000357c0100000000000000000000000000000000000000000000000000000000900463ffffffff168063186b79c91461014e5780632316a9ff146101a9578063238b3aed1461024f578063275601f6146102fb5780634d655aff146103935780634d9bcac4146103ea5780634ff6e86e146104575780635481f43e146104ae57806354a365df1461050d57806365a6bb29146105765780636e5ecdff146105e25780637d06ce33146105f9578063857cdbb81461069f57806387cd29a4146106f65780638da5cb5b1461075b5780638e2c2e50146107b25780639217c438146107f15780639c39c8ea1461085e5780639cb8a26a146108ef578063a72460d114610906578063af87c8331461099e578063e95d6182146109f1578063f2fde38b14610a97578063f51d7d5f14610ada578063fcf0c24814610b39575b600080fd5b34801561015a57600080fd5b5061018f600480360381019080803573ffffffffffffffffffffffffffffffffffffffff169060200190929190505050610bad565b604051808215151515815260200191505060405180910390f35b3480156101b557600080fd5b506101f8600480360381019080803573ffffffffffffffffffffffffffffffffffffffff1690602001909291908035600019169060200190929190505050610bc9565b6040518080602001828103825283818151815260200191508051906020019060200280838360005b8381101561023b578082015181840152602081019050610220565b505050509050019250505060405180910390f35b34801561025b57600080fd5b506102e1600480360381019080803560001916906020019092919080359060200190820180359060200190808060200260200160405190810160405280939291908181526020018383602002808284378201915050505050509192919290803573ffffffffffffffffffffffffffffffffffffffff169060200190929190505050610e98565b604051808215151515815260200191505060405180910390f35b34801561030757600080fd5b5061033c600480360381019080803573ffffffffffffffffffffffffffffffffffffffff16906020019092919050505061143f565b6040518080602001828103825283818151815260200191508051906020019060200280838360005b8381101561037f578082015181840152602081019050610364565b505050509050019250505060405180910390f35b34801561039f57600080fd5b506103a86116fb565b604051808273ffffffffffffffffffffffffffffffffffffffff1673ffffffffffffffffffffffffffffffffffffffff16815260200191505060405180910390f35b3480156103f657600080fd5b50610439600480360381019080803573ffffffffffffffffffffffffffffffffffffffff1690602001909291908035600019169060200190929190505050611721565b60405180826000191660001916815260200191505060405180910390f35b34801561046357600080fd5b50610498600480360381019080803573ffffffffffffffffffffffffffffffffffffffff169060200190929190505050611a3c565b6040518082815260200191505060405180910390f35b3480156104ba57600080fd5b506104ef600480360381019080803573ffffffffffffffffffffffffffffffffffffffff169060200190929190505050611a4e565b60405180826000191660001916815260200191505060405180910390f35b34801561051957600080fd5b5061055c600480360381019080803573ffffffffffffffffffffffffffffffffffffffff1690602001909291908035600019169060200190929190505050611a60565b604051808215151515815260200191505060405180910390f35b34801561058257600080fd5b5061058b611c5c565b6040518080602001828103825283818151815260200191508051906020019060200280838360005b838110156105ce5780820151818401526020810190506105b3565b505050509050019250505060405180910390f35b3480156105ee57600080fd5b506105f7611e2e565b005b34801561060557600080fd5b50610648600480360381019080803573ffffffffffffffffffffffffffffffffffffffff1690602001909291908035600019169060200190929190505050611f23565b6040518080602001828103825283818151815260200191508051906020019060200280838360005b8381101561068b578082015181840152602081019050610670565b505050509050019250505060405180910390f35b3480156106ab57600080fd5b506106e0600480360381019080803573ffffffffffffffffffffffffffffffffffffffff169060200190929190505050612173565b6040518082815260200191505060405180910390f35b34801561070257600080fd5b50610745600480360381019080803573ffffffffffffffffffffffffffffffffffffffff169060200190929190803560001916906020019092919050505061235c565b6040518082815260200191505060405180910390f35b34801561076757600080fd5b5061077061262c565b604051808273ffffffffffffffffffffffffffffffffffffffff1673ffffffffffffffffffffffffffffffffffffffff16815260200191505060405180910390f35b3480156107be57600080fd5b506107ef60048036038101908080356000191690602001909291908035600019169060200190929190505050612651565b005b3480156107fd57600080fd5b5061081c60048036038101908080359060200190929190505050612c63565b604051808273ffffffffffffffffffffffffffffffffffffffff1673ffffffffffffffffffffffffffffffffffffffff16815260200191505060405180910390f35b34801561086a57600080fd5b506108ad600480360381019080803573ffffffffffffffffffffffffffffffffffffffff1690602001909291908035600019169060200190929190505050612de9565b604051808273ffffffffffffffffffffffffffffffffffffffff1673ffffffffffffffffffffffffffffffffffffffff16815260200191505060405180910390f35b3480156108fb57600080fd5b50610904612fe7565b005b34801561091257600080fd5b50610947600480360381019080803573ffffffffffffffffffffffffffffffffffffffff1690602001909291905050506130e5565b6040518080602001828103825283818151815260200191508051906020019060200280838360005b8381101561098a57808201518184015260208101905061096f565b505050509050019250505060405180910390f35b3480156109aa57600080fd5b506109d7600480360381019080803590602001909291908035600019169060200190929190505050613324565b604051808215151515815260200191505060405180910390f35b3480156109fd57600080fd5b50610a40600480360381019080803573ffffffffffffffffffffffffffffffffffffffff169060200190929190803560001916906020019092919050505061340a565b6040518080602001828103825283818151815260200191508051906020019060200280838360005b83811015610a83578082015181840152602081019050610a68565b505050509050019250505060405180910390f35b348015610aa357600080fd5b50610ad8600480360381019080803573ffffffffffffffffffffffffffffffffffffffff169060200190929190505050613756565b005b348015610ae657600080fd5b50610b1b600480360381019080803573ffffffffffffffffffffffffffffffffffffffff1690602001909291905050506139a3565b60405180826000191660001916815260200191505060405180910390f35b348015610b4557600080fd5b50610bab600480360381019080803560001916906020019092919080359060200190820180359060200190808060200260200160405190810160405280939291908181526020018383602002808284378201915050505050509192919290505050613b8c565b005b600080600102610bbc83611a4e565b6000191614159050919050565b6060610bd58383611a60565b151515610c4a576040517f08c379a000000000000000000000000000000000000000000000000000000000815260040180806020018281038252601b8152602001807f4572726f723a204375727665206973206e6f742079657420736574000000000081525060200191505060405180910390fd5b600360009054906101000a900473ffffffffffffffffffffffffffffffffffffffff1673ffffffffffffffffffffffffffffffffffffffff16632d2899b6848460405160200180807f6f7261636c6573000000000000000000000000000000000000000000000000008152506007018373ffffffffffffffffffffffffffffffffffffffff1673ffffffffffffffffffffffffffffffffffffffff166c01000000000000000000000000028152601401807f63757276657300000000000000000000000000000000000000000000000000008152506006018260001916600019168152602001925050506040516020818303038152906040526040518082805190602001908083835b602083101515610d785780518252602082019150602081019050602083039250610d53565b6001836020036101000a03801982511681845116808217855250505050505090500191505060405180910390206040518263ffffffff167c0100000000000000000000000000000000000000000000000000000000028152600401808260001916600019168152602001915050600060405180830381600087803b158015610dff57600080fd5b505af1158015610e13573d6000803e3d6000fd5b505050506040513d6000823e3d601f19601f820116820180604052506020811015610e3d57600080fd5b810190808051640100000000811115610e5557600080fd5b82810190506020810184811115610e6b57600080fd5b8151856020820283011164010000000082111715610e8857600080fd5b5050929190505050905092915050565b6000610ea333610bad565b1515610f3d576040517f08c379a00000000000000000000000000000000000000000000000000000000081526004018080602001828103825260228152602001807f4572726f723b2050726f766964657220646f6573206e6f74207965742065786981526020017f737400000000000000000000000000000000000000000000000000000000000081525060400191505060405180910390fd5b610f473385611a60565b1515610fbb576040517f08c379a000000000000000000000000000000000000000000000000000000000815260040180806020018281038252601b8152602001807f4572726f723a20437572766520697320616c726561647920736574000000000081525060200191505060405180910390fd5b610fc6338585613ea2565b600360009054906101000a900473ffffffffffffffffffffffffffffffffffffffff1673ffffffffffffffffffffffffffffffffffffffff16638d152d783360405160200180807f6f7261636c6573000000000000000000000000000000000000000000000000008152506007018273ffffffffffffffffffffffffffffffffffffffff1673ffffffffffffffffffffffffffffffffffffffff166c01000000000000000000000000028152601401807f656e64706f696e747300000000000000000000000000000000000000000000008152506009019150506040516020818303038152906040526040518082805190602001908083835b6020831015156110e457805182526020820191506020810190506020830392506110bf565b6001836020036101000a0380198251168184511680821785525050505050509050019150506040518091039020866040518363ffffffff167c0100000000000000000000000000000000000000000000000000000000028152600401808360001916600019168152602001826000191660001916815260200192505050600060405180830381600087803b15801561117b57600080fd5b505af115801561118f573d6000803e3d6000fd5b50505050600360009054906101000a900473ffffffffffffffffffffffffffffffffffffffff1673ffffffffffffffffffffffffffffffffffffffff16634e91db08338660405160200180807f6f7261636c6573000000000000000000000000000000000000000000000000008152506007018373ffffffffffffffffffffffffffffffffffffffff1673ffffffffffffffffffffffffffffffffffffffff166c010000000000000000000000000281526014018260001916600019168152602001807f62726f6b65720000000000000000000000000000000000000000000000000000815250600601925050506040516020818303038152906040526040518082805190602001908083835b6020831015156112c1578051825260208201915060208101905060208303925061129c565b6001836020036101000a03801982511681845116808217855250505050505090500191505060405180910390208473ffffffffffffffffffffffffffffffffffffffff166001026040518363ffffffff167c0100000000000000000000000000000000000000000000000000000000028152600401808360001916600019168152602001826000191660001916815260200192505050600060405180830381600087803b15801561137157600080fd5b505af1158015611385573d6000803e3d6000fd5b505050508173ffffffffffffffffffffffffffffffffffffffff1684600019163373ffffffffffffffffffffffffffffffffffffffff167fadd7c8d34ea3b815721e4441e9d375f523912507ae885dfabba0d2e892ca350c866040518080602001828103825283818151815260200191508051906020019060200280838360005b83811015611421578082015181840152602081019050611406565b505050509050019250505060405180910390a4600190509392505050565b606061144a82610bad565b15156114be576040517f08c379a000000000000000000000000000000000000000000000000000000000815260040180806020018281038252601e8152602001807f4572726f723a2050726f766964657220646f6573206e6f74206578697374000081525060200191505060405180910390fd5b600360009054906101000a900473ffffffffffffffffffffffffffffffffffffffff1673ffffffffffffffffffffffffffffffffffffffff16638db0e83b8360405160200180807f6f7261636c6573000000000000000000000000000000000000000000000000008152506007018273ffffffffffffffffffffffffffffffffffffffff1673ffffffffffffffffffffffffffffffffffffffff166c01000000000000000000000000028152601401807f70726f7669646572506172616d73000000000000000000000000000000000000815250600e019150506040516020818303038152906040526040518082805190602001908083835b6020831015156115dc57805182526020820191506020810190506020830392506115b7565b6001836020036101000a03801982511681845116808217855250505050505090500191505060405180910390206040518263ffffffff167c0100000000000000000000000000000000000000000000000000000000028152600401808260001916600019168152602001915050600060405180830381600087803b15801561166357600080fd5b505af1158015611677573d6000803e3d6000fd5b505050506040513d6000823e3d601f19601f8201168201806040525060208110156116a157600080fd5b8101908080516401000000008111156116b957600080fd5b828101905060208101848111156116cf57600080fd5b81518560208202830111640100000000821117156116ec57600080fd5b50509291905050509050919050565b600360009054906101000a900473ffffffffffffffffffffffffffffffffffffffff1681565b600061172c83610bad565b15156117a0576040517f08c379a000000000000000000000000000000000000000000000000000000000815260040180806020018281038252601e8152602001807f4572726f723a2050726f766964657220646f6573206e6f74206578697374000081525060200191505060405180910390fd5b6117aa83836142db565b1515611844576040517f08c379a00000000000000000000000000000000000000000000000000000000081526004018080602001828103825260288152602001807f4572726f723a2050726f766964657220706172616d6574657220646f6573206e81526020017f6f7420657869737400000000000000000000000000000000000000000000000081525060400191505060405180910390fd5b600360009054906101000a900473ffffffffffffffffffffffffffffffffffffffff1673ffffffffffffffffffffffffffffffffffffffff1663a6ed563e848460405160200180807f6f7261636c6573000000000000000000000000000000000000000000000000008152506007018373ffffffffffffffffffffffffffffffffffffffff1673ffffffffffffffffffffffffffffffffffffffff166c01000000000000000000000000028152601401807f70726f7669646572506172616d73000000000000000000000000000000000000815250600e018260001916600019168152602001925050506040516020818303038152906040526040518082805190602001908083835b602083101515611972578051825260208201915060208101905060208303925061194d565b6001836020036101000a03801982511681845116808217855250505050505090500191505060405180910390206040518263ffffffff167c0100000000000000000000000000000000000000000000000000000000028152600401808260001916600019168152602001915050602060405180830381600087803b1580156119f957600080fd5b505af1158015611a0d573d6000803e3d6000fd5b505050506040513d6020811015611a2357600080fd5b8101908080519060200190929190505050905092915050565b6000611a4782612173565b9050919050565b6000611a59826139a3565b9050919050565b600080600360009054906101000a900473ffffffffffffffffffffffffffffffffffffffff1673ffffffffffffffffffffffffffffffffffffffff1663a21a65ae858560405160200180807f6f7261636c6573000000000000000000000000000000000000000000000000008152506007018373ffffffffffffffffffffffffffffffffffffffff1673ffffffffffffffffffffffffffffffffffffffff166c01000000000000000000000000028152601401807f63757276657300000000000000000000000000000000000000000000000000008152506006018260001916600019168152602001925050506040516020818303038152906040526040518082805190602001908083835b602083101515611b915780518252602082019150602081019050602083039250611b6c565b6001836020036101000a03801982511681845116808217855250505050505090500191505060405180910390206040518263ffffffff167c0100000000000000000000000000000000000000000000000000000000028152600401808260001916600019168152602001915050602060405180830381600087803b158015611c1857600080fd5b505af1158015611c2c573d6000803e3d6000fd5b505050506040513d6020811015611c4257600080fd5b810190808051906020019092919050505014905092915050565b6060600360009054906101000a900473ffffffffffffffffffffffffffffffffffffffff1673ffffffffffffffffffffffffffffffffffffffff16635948f73360405160200180807f6f7261636c65496e646578000000000000000000000000000000000000000000815250600b0190506040516020818303038152906040526040518082805190602001908083835b602083101515611d115780518252602082019150602081019050602083039250611cec565b6001836020036101000a03801982511681845116808217855250505050505090500191505060405180910390206040518263ffffffff167c0100000000000000000000000000000000000000000000000000000000028152600401808260001916600019168152602001915050600060405180830381600087803b158015611d9857600080fd5b505af1158015611dac573d6000803e3d6000fd5b505050506040513d6000823e3d601f19601f820116820180604052506020811015611dd657600080fd5b810190808051640100000000811115611dee57600080fd5b82810190506020810184811115611e0457600080fd5b8151856020820283011164010000000082111715611e2157600080fd5b5050929190505050905090565b600160009054906101000a900473ffffffffffffffffffffffffffffffffffffffff1673ffffffffffffffffffffffffffffffffffffffff163373ffffffffffffffffffffffffffffffffffffffff16141515611f19576040517f08c379a00000000000000000000000000000000000000000000000000000000081526004018080602001828103825260308152602001807f4572726f723a204f6e6c7920636f6f7264696e61746f722063616e206163636581526020017f737320746869732066756e6374696f6e0000000000000000000000000000000081525060400191505060405180910390fd5b611f216144eb565b565b6060600360009054906101000a900473ffffffffffffffffffffffffffffffffffffffff1673ffffffffffffffffffffffffffffffffffffffff16638db0e83b848460405160200180807f6f7261636c6573000000000000000000000000000000000000000000000000008152506007018373ffffffffffffffffffffffffffffffffffffffff1673ffffffffffffffffffffffffffffffffffffffff166c01000000000000000000000000028152601401807f656e64706f696e74506172616d73000000000000000000000000000000000000815250600e018260001916600019168152602001925050506040516020818303038152906040526040518082805190602001908083835b602083101515612053578051825260208201915060208101905060208303925061202e565b6001836020036101000a03801982511681845116808217855250505050505090500191505060405180910390206040518263ffffffff167c0100000000000000000000000000000000000000000000000000000000028152600401808260001916600019168152602001915050600060405180830381600087803b1580156120da57600080fd5b505af11580156120ee573d6000803e3d6000fd5b505050506040513d6000823e3d601f19601f82011682018060405250602081101561211857600080fd5b81019080805164010000000081111561213057600080fd5b8281019050602081018481111561214657600080fd5b815185602082028301116401000000008211171561216357600080fd5b5050929190505050905092915050565b6000600360009054906101000a900473ffffffffffffffffffffffffffffffffffffffff1673ffffffffffffffffffffffffffffffffffffffff16632ecb0d648360405160200180807f6f7261636c6573000000000000000000000000000000000000000000000000008152506007018273ffffffffffffffffffffffffffffffffffffffff1673ffffffffffffffffffffffffffffffffffffffff166c01000000000000000000000000028152601401807f7075626c69634b657900000000000000000000000000000000000000000000008152506009019150506040516020818303038152906040526040518082805190602001908083835b602083101515612293578051825260208201915060208101905060208303925061226e565b6001836020036101000a03801982511681845116808217855250505050505090500191505060405180910390206040518263ffffffff167c0100000000000000000000000000000000000000000000000000000000028152600401808260001916600019168152602001915050602060405180830381600087803b15801561231a57600080fd5b505af115801561232e573d6000803e3d6000fd5b505050506040513d602081101561234457600080fd5b81019080805190602001909291905050509050919050565b60006123688383611a60565b1515156123dd576040517f08c379a000000000000000000000000000000000000000000000000000000000815260040180806020018281038252601b8152602001807f4572726f723a204375727665206973206e6f742079657420736574000000000081525060200191505060405180910390fd5b600360009054906101000a900473ffffffffffffffffffffffffffffffffffffffff1673ffffffffffffffffffffffffffffffffffffffff16632d2899b6848460405160200180807f6f7261636c6573000000000000000000000000000000000000000000000000008152506007018373ffffffffffffffffffffffffffffffffffffffff1673ffffffffffffffffffffffffffffffffffffffff166c01000000000000000000000000028152601401807f63757276657300000000000000000000000000000000000000000000000000008152506006018260001916600019168152602001925050506040516020818303038152906040526040518082805190602001908083835b60208310151561250b57805182526020820191506020810190506020830392506124e6565b6001836020036101000a03801982511681845116808217855250505050505090500191505060405180910390206040518263ffffffff167c0100000000000000000000000000000000000000000000000000000000028152600401808260001916600019168152602001915050600060405180830381600087803b15801561259257600080fd5b505af11580156125a6573d6000803e3d6000fd5b505050506040513d6000823e3d601f19601f8201168201806040525060208110156125d057600080fd5b8101908080516401000000008111156125e857600080fd5b828101905060208101848111156125fe57600080fd5b815185602082028301116401000000008211171561261b57600080fd5b505092919050505051905092915050565b6000809054906101000a900473ffffffffffffffffffffffffffffffffffffffff1681565b61265a33610bad565b15156126ce576040517f08c379a000000000000000000000000000000000000000000000000000000000815260040180806020018281038252601e8152602001807f4572726f723a2050726f766964657220646f6573206e6f74206578697374000081525060200191505060405180910390fd5b6126d833836142db565b1515612a8257600360009054906101000a900473ffffffffffffffffffffffffffffffffffffffff1673ffffffffffffffffffffffffffffffffffffffff166354c552db338460405160200180807f6f7261636c6573000000000000000000000000000000000000000000000000008152506007018373ffffffffffffffffffffffffffffffffffffffff1673ffffffffffffffffffffffffffffffffffffffff166c01000000000000000000000000028152601401807f69735f706172616d5f7365740000000000000000000000000000000000000000815250600c018260001916600019168152602001925050506040516020818303038152906040526040518082805190602001908083835b60208310151561280c57805182526020820191506020810190506020830392506127e7565b6001836020036101000a038019825116818451168082178552505050505050905001915050604051809103902060016040518363ffffffff167c010000000000000000000000000000000000000000000000000000000002815260040180836000191660001916815260200182815260200192505050600060405180830381600087803b15801561289c57600080fd5b505af11580156128b0573d6000803e3d6000fd5b50505050600360009054906101000a900473ffffffffffffffffffffffffffffffffffffffff1673ffffffffffffffffffffffffffffffffffffffff16638d152d783360405160200180807f6f7261636c6573000000000000000000000000000000000000000000000000008152506007018273ffffffffffffffffffffffffffffffffffffffff1673ffffffffffffffffffffffffffffffffffffffff166c01000000000000000000000000028152601401807f70726f7669646572506172616d73000000000000000000000000000000000000815250600e019150506040516020818303038152906040526040518082805190602001908083835b6020831015156129d257805182526020820191506020810190506020830392506129ad565b6001836020036101000a0380198251168184511680821785525050505050509050019150506040518091039020846040518363ffffffff167c0100000000000000000000000000000000000000000000000000000000028152600401808360001916600019168152602001826000191660001916815260200192505050600060405180830381600087803b158015612a6957600080fd5b505af1158015612a7d573d6000803e3d6000fd5b505050505b600360009054906101000a900473ffffffffffffffffffffffffffffffffffffffff1673ffffffffffffffffffffffffffffffffffffffff16634e91db08338460405160200180807f6f7261636c6573000000000000000000000000000000000000000000000000008152506007018373ffffffffffffffffffffffffffffffffffffffff1673ffffffffffffffffffffffffffffffffffffffff166c01000000000000000000000000028152601401807f70726f7669646572506172616d73000000000000000000000000000000000000815250600e018260001916600019168152602001925050506040516020818303038152906040526040518082805190602001908083835b602083101515612bb05780518252602082019150602081019050602083039250612b8b565b6001836020036101000a0380198251168184511680821785525050505050509050019150506040518091039020836040518363ffffffff167c0100000000000000000000000000000000000000000000000000000000028152600401808360001916600019168152602001826000191660001916815260200192505050600060405180830381600087803b158015612c4757600080fd5b505af1158015612c5b573d6000803e3d6000fd5b505050505050565b6000600360009054906101000a900473ffffffffffffffffffffffffffffffffffffffff1673ffffffffffffffffffffffffffffffffffffffff1663e16e934060405160200180807f6f7261636c65496e646578000000000000000000000000000000000000000000815250600b0190506040516020818303038152906040526040518082805190602001908083835b602083101515612d185780518252602082019150602081019050602083039250612cf3565b6001836020036101000a0380198251168184511680821785525050505050509050019150506040518091039020846040518363ffffffff167c010000000000000000000000000000000000000000000000000000000002815260040180836000191660001916815260200182815260200192505050602060405180830381600087803b158015612da757600080fd5b505af1158015612dbb573d6000803e3d6000fd5b505050506040513d6020811015612dd157600080fd5b81019080805190602001909291905050509050919050565b6000600360009054906101000a900473ffffffffffffffffffffffffffffffffffffffff1673ffffffffffffffffffffffffffffffffffffffff1663a6ed563e848460405160200180807f6f7261636c6573000000000000000000000000000000000000000000000000008152506007018373ffffffffffffffffffffffffffffffffffffffff1673ffffffffffffffffffffffffffffffffffffffff166c010000000000000000000000000281526014018260001916600019168152602001807f62726f6b65720000000000000000000000000000000000000000000000000000815250600601925050506040516020818303038152906040526040518082805190602001908083835b602083101515612f195780518252602082019150602081019050602083039250612ef4565b6001836020036101000a03801982511681845116808217855250505050505090500191505060405180910390206040518263ffffffff167c0100000000000000000000000000000000000000000000000000000000028152600401808260001916600019168152602001915050602060405180830381600087803b158015612fa057600080fd5b505af1158015612fb4573d6000803e3d6000fd5b505050506040513d6020811015612fca57600080fd5b810190808051906020019092919050505060019004905092915050565b6000809054906101000a900473ffffffffffffffffffffffffffffffffffffffff1673ffffffffffffffffffffffffffffffffffffffff163373ffffffffffffffffffffffffffffffffffffffff161415156130ab576040517f08c379a00000000000000000000000000000000000000000000000000000000081526004018080602001828103825260178152602001807f4572726f723a204f6e6c79204f776e6572204572726f7200000000000000000081525060200191505060405180910390fd5b6000809054906101000a900473ffffffffffffffffffffffffffffffffffffffff1673ffffffffffffffffffffffffffffffffffffffff16ff5b6060600360009054906101000a900473ffffffffffffffffffffffffffffffffffffffff1673ffffffffffffffffffffffffffffffffffffffff16638db0e83b8360405160200180807f6f7261636c6573000000000000000000000000000000000000000000000000008152506007018273ffffffffffffffffffffffffffffffffffffffff1673ffffffffffffffffffffffffffffffffffffffff166c01000000000000000000000000028152601401807f656e64706f696e747300000000000000000000000000000000000000000000008152506009019150506040516020818303038152906040526040518082805190602001908083835b60208310151561320557805182526020820191506020810190506020830392506131e0565b6001836020036101000a03801982511681845116808217855250505050505090500191505060405180910390206040518263ffffffff167c0100000000000000000000000000000000000000000000000000000000028152600401808260001916600019168152602001915050600060405180830381600087803b15801561328c57600080fd5b505af11580156132a0573d6000803e3d6000fd5b505050506040513d6000823e3d601f19601f8201168201806040525060208110156132ca57600080fd5b8101908080516401000000008111156132e257600080fd5b828101905060208101848111156132f857600080fd5b815185602082028301116401000000008211171561331557600080fd5b50509291905050509050919050565b600061332f33610bad565b1515156133a4576040517f08c379a000000000000000000000000000000000000000000000000000000000815260040180806020018281038252601e8152602001807f4572726f723a2050726f766964657220616c726561647920657869737473000081525060200191505060405180910390fd5b6133af338484614630565b6133b8336149c7565b81600019163373ffffffffffffffffffffffffffffffffffffffff167f96c4fc31a3e383225857c821101daf68248108597da8ddde0ac2b431eb9a16be60405160405180910390a36001905092915050565b606061341533610bad565b1515613489576040517f08c379a000000000000000000000000000000000000000000000000000000000815260040180806020018281038252601e8152602001807f4572726f723a2050726f766964657220646f6573206e6f74206578697374000081525060200191505060405180910390fd5b6134933383611a60565b151515613508576040517f08c379a000000000000000000000000000000000000000000000000000000000815260040180806020018281038252601b8152602001807f4572726f723a204375727665206973206e6f742079657420736574000000000081525060200191505060405180910390fd5b600360009054906101000a900473ffffffffffffffffffffffffffffffffffffffff1673ffffffffffffffffffffffffffffffffffffffff16638db0e83b848460405160200180807f6f7261636c6573000000000000000000000000000000000000000000000000008152506007018373ffffffffffffffffffffffffffffffffffffffff1673ffffffffffffffffffffffffffffffffffffffff166c01000000000000000000000000028152601401807f656e64706f696e74506172616d73000000000000000000000000000000000000815250600e018260001916600019168152602001925050506040516020818303038152906040526040518082805190602001908083835b6020831015156136365780518252602082019150602081019050602083039250613611565b6001836020036101000a03801982511681845116808217855250505050505090500191505060405180910390206040518263ffffffff167c0100000000000000000000000000000000000000000000000000000000028152600401808260001916600019168152602001915050600060405180830381600087803b1580156136bd57600080fd5b505af11580156136d1573d6000803e3d6000fd5b505050506040513d6000823e3d601f19601f8201168201806040525060208110156136fb57600080fd5b81019080805164010000000081111561371357600080fd5b8281019050602081018481111561372957600080fd5b815185602082028301116401000000008211171561374657600080fd5b5050929190505050905092915050565b6000809054906101000a900473ffffffffffffffffffffffffffffffffffffffff1673ffffffffffffffffffffffffffffffffffffffff163373ffffffffffffffffffffffffffffffffffffffff1614151561381a576040517f08c379a00000000000000000000000000000000000000000000000000000000081526004018080602001828103825260178152602001807f4572726f723a204f6e6c79204f776e6572204572726f7200000000000000000081525060200191505060405180910390fd5b600073ffffffffffffffffffffffffffffffffffffffff168173ffffffffffffffffffffffffffffffffffffffff16141515156138e5576040517f08c379a00000000000000000000000000000000000000000000000000000000081526004018080602001828103825260248152602001807f4572726f723a20526563697069656e742063616e6e6f7420626520616464726581526020017f737320300000000000000000000000000000000000000000000000000000000081525060400191505060405180910390fd5b8073ffffffffffffffffffffffffffffffffffffffff166000809054906101000a900473ffffffffffffffffffffffffffffffffffffffff1673ffffffffffffffffffffffffffffffffffffffff167f8be0079c531659141344cd1fd0a4f28419497f9722a3daafe3b4186f6b6457e060405160405180910390a3806000806101000a81548173ffffffffffffffffffffffffffffffffffffffff021916908373ffffffffffffffffffffffffffffffffffffffff16021790555050565b6000600360009054906101000a900473ffffffffffffffffffffffffffffffffffffffff1673ffffffffffffffffffffffffffffffffffffffff1663a6ed563e8360405160200180807f6f7261636c6573000000000000000000000000000000000000000000000000008152506007018273ffffffffffffffffffffffffffffffffffffffff1673ffffffffffffffffffffffffffffffffffffffff166c01000000000000000000000000028152601401807f7469746c650000000000000000000000000000000000000000000000000000008152506005019150506040516020818303038152906040526040518082805190602001908083835b602083101515613ac35780518252602082019150602081019050602083039250613a9e565b6001836020036101000a03801982511681845116808217855250505050505090500191505060405180910390206040518263ffffffff167c0100000000000000000000000000000000000000000000000000000000028152600401808260001916600019168152602001915050602060405180830381600087803b158015613b4a57600080fd5b505af1158015613b5e573d6000803e3d6000fd5b505050506040513d6020811015613b7457600080fd5b81019080805190602001909291905050509050919050565b613b9533610bad565b1515613c09576040517f08c379a000000000000000000000000000000000000000000000000000000000815260040180806020018281038252601e8152602001807f4572726f723a2050726f766964657220646f6573206e6f74206578697374000081525060200191505060405180910390fd5b613c133383611a60565b151515613c88576040517f08c379a000000000000000000000000000000000000000000000000000000000815260040180806020018281038252601b8152602001807f4572726f723a204375727665206973206e6f742079657420736574000000000081525060200191505060405180910390fd5b600360009054906101000a900473ffffffffffffffffffffffffffffffffffffffff1673ffffffffffffffffffffffffffffffffffffffff166356e5cf2e338460405160200180807f6f7261636c6573000000000000000000000000000000000000000000000000008152506007018373ffffffffffffffffffffffffffffffffffffffff1673ffffffffffffffffffffffffffffffffffffffff166c01000000000000000000000000028152601401807f656e64706f696e74506172616d73000000000000000000000000000000000000815250600e018260001916600019168152602001925050506040516020818303038152906040526040518082805190602001908083835b602083101515613db65780518252602082019150602081019050602083039250613d91565b6001836020036101000a0380198251168184511680821785525050505050509050019150506040518091039020836040518363ffffffff167c010000000000000000000000000000000000000000000000000000000002815260040180836000191660001916815260200180602001828103825283818151815260200191508051906020019060200280838360005b83811015613e60578082015181840152602081019050613e45565b505050509050019350505050600060405180830381600087803b158015613e8657600080fd5b505af1158015613e9a573d6000803e3d6000fd5b505050505050565b600080600080600060019450600093505b85518410156140bb578584815181101515613eca57fe5b906020019060200201519250600083131515613f74576040517f08c379a00000000000000000000000000000000000000000000000000000000081526004018080602001828103825260348152602001807f4572726f723a204e756d626572206f6620636f6e7374616e7473206d7573742081526020017f62652067726561746572207468616e207a65726f00000000000000000000000081525060400191505060405180910390fd5b600183850101915085518210151561401a576040517f08c379a00000000000000000000000000000000000000000000000000000000081526004018080602001828103825260378152602001807f4572726f723a204f7574206f6620626f756e6473206572726f722e205665726981526020017f667920636f7272656374206375727665206c656e67746800000000000000000081525060400191505060405180910390fd5b858281518110151561402857fe5b90602001906020020151905084811115156140ab576040517f08c379a000000000000000000000000000000000000000000000000000000000815260040180806020018281038252601e8152602001807f4572726f723a204375727665206973206e6f7420636f6e74696e756f7573000081525060200191505060405180910390fd5b8094506002830184019350613eb3565b600360009054906101000a900473ffffffffffffffffffffffffffffffffffffffff1673ffffffffffffffffffffffffffffffffffffffff1663a9fcf76b898960405160200180807f6f7261636c6573000000000000000000000000000000000000000000000000008152506007018373ffffffffffffffffffffffffffffffffffffffff1673ffffffffffffffffffffffffffffffffffffffff166c01000000000000000000000000028152601401807f63757276657300000000000000000000000000000000000000000000000000008152506006018260001916600019168152602001925050506040516020818303038152906040526040518082805190602001908083835b6020831015156141e957805182526020820191506020810190506020830392506141c4565b6001836020036101000a0380198251168184511680821785525050505050509050019150506040518091039020886040518363ffffffff167c010000000000000000000000000000000000000000000000000000000002815260040180836000191660001916815260200180602001828103825283818151815260200191508051906020019060200280838360005b83811015614293578082015181840152602081019050614278565b505050509050019350505050600060405180830381600087803b1580156142b957600080fd5b505af11580156142cd573d6000803e3d6000fd5b505050505050505050505050565b600080600360009054906101000a900473ffffffffffffffffffffffffffffffffffffffff1673ffffffffffffffffffffffffffffffffffffffff16632ecb0d64858560405160200180807f6f7261636c6573000000000000000000000000000000000000000000000000008152506007018373ffffffffffffffffffffffffffffffffffffffff1673ffffffffffffffffffffffffffffffffffffffff166c01000000000000000000000000028152601401807f69735f706172616d5f7365740000000000000000000000000000000000000000815250600c018260001916600019168152602001925050506040516020818303038152906040526040518082805190602001908083835b60208310151561440c57805182526020820191506020810190506020830392506143e7565b6001836020036101000a03801982511681845116808217855250505050505090500191505060405180910390206040518263ffffffff167c0100000000000000000000000000000000000000000000000000000000028152600401808260001916600019168152602001915050602060405180830381600087803b15801561449357600080fd5b505af11580156144a7573d6000803e3d6000fd5b505050506040513d60208110156144bd57600080fd5b81019080805190602001909291905050509050600181146144df5760006144e2565b60015b91505092915050565b6000600260009054906101000a900473ffffffffffffffffffffffffffffffffffffffff1673ffffffffffffffffffffffffffffffffffffffff1663358177736040518163ffffffff167c01000000000000000000000000000000000000000000000000000000000281526004018080602001828103825260088152602001807f4441544142415345000000000000000000000000000000000000000000000000815250602001915050602060405180830381600087803b1580156145af57600080fd5b505af11580156145c3573d6000803e3d6000fd5b505050506040513d60208110156145d957600080fd5b8101908080519060200190929190505050905080600360006101000a81548173ffffffffffffffffffffffffffffffffffffffff021916908373ffffffffffffffffffffffffffffffffffffffff16021790555050565b600360009054906101000a900473ffffffffffffffffffffffffffffffffffffffff1673ffffffffffffffffffffffffffffffffffffffff166354c552db8460405160200180807f6f7261636c6573000000000000000000000000000000000000000000000000008152506007018273ffffffffffffffffffffffffffffffffffffffff1673ffffffffffffffffffffffffffffffffffffffff166c01000000000000000000000000028152601401807f7075626c69634b657900000000000000000000000000000000000000000000008152506009019150506040516020818303038152906040526040518082805190602001908083835b60208310151561474e5780518252602082019150602081019050602083039250614729565b6001836020036101000a0380198251168184511680821785525050505050509050019150506040518091039020846040518363ffffffff167c010000000000000000000000000000000000000000000000000000000002815260040180836000191660001916815260200182815260200192505050600060405180830381600087803b1580156147dd57600080fd5b505af11580156147f1573d6000803e3d6000fd5b50505050600360009054906101000a900473ffffffffffffffffffffffffffffffffffffffff1673ffffffffffffffffffffffffffffffffffffffff16634e91db088460405160200180807f6f7261636c6573000000000000000000000000000000000000000000000000008152506007018273ffffffffffffffffffffffffffffffffffffffff1673ffffffffffffffffffffffffffffffffffffffff166c01000000000000000000000000028152601401807f7469746c650000000000000000000000000000000000000000000000000000008152506005019150506040516020818303038152906040526040518082805190602001908083835b60208310151561491357805182526020820191506020810190506020830392506148ee565b6001836020036101000a0380198251168184511680821785525050505050509050019150506040518091039020836040518363ffffffff167c0100000000000000000000000000000000000000000000000000000000028152600401808360001916600019168152602001826000191660001916815260200192505050600060405180830381600087803b1580156149aa57600080fd5b505af11580156149be573d6000803e3d6000fd5b50505050505050565b600360009054906101000a900473ffffffffffffffffffffffffffffffffffffffff1673ffffffffffffffffffffffffffffffffffffffff1663dd151d1e60405160200180807f6f7261636c65496e646578000000000000000000000000000000000000000000815250600b0190506040516020818303038152906040526040518082805190602001908083835b602083101515614a7a5780518252602082019150602081019050602083039250614a55565b6001836020036101000a0380198251168184511680821785525050505050509050019150506040518091039020836040518363ffffffff167c01000000000000000000000000000000000000000000000000000000000281526004018083600019166000191681526020018273ffffffffffffffffffffffffffffffffffffffff1673ffffffffffffffffffffffffffffffffffffffff16815260200192505050600060405180830381600087803b158015614b3557600080fd5b505af1158015614b49573d6000803e3d6000fd5b50505050505600a165627a7a72305820585dd0860cee8ca3f213e868710678d52b81ebc2d7ca45155fc2f873fcbbab540029",
  "source": "pragma solidity ^0.4.24;\n// v1.0\n\nimport \"../../lib/lifecycle/Destructible.sol\";\nimport \"../../lib/ownership/Upgradable.sol\";\nimport \"../database/DatabaseInterface.sol\";\nimport \"./RegistryInterface.sol\";\n\ncontract Registry is Destructible, RegistryInterface, Upgradable {\n\n    event NewProvider(\n        address indexed provider,\n        bytes32 indexed title\n    );\n\n    event NewCurve(\n        address indexed provider,\n        bytes32 indexed endpoint,\n        int[] curve,\n        address indexed broker\n    );\n\n    DatabaseInterface public db;\n\n    constructor(address c) Upgradable(c) public {\n        _updateDependencies();\n    }\n\n    function _updateDependencies() internal {\n        address databaseAddress = coordinator.getContract(\"DATABASE\");\n        db = DatabaseInterface(databaseAddress);\n    }\n\n    /// @dev initiates a provider.\n    /// If no address->Oracle mapping exists, Oracle object is created\n    /// @param publicKey unique id for provider. used for encyrpted key swap for subscription endpoints\n    /// @param title name\n    function initiateProvider(\n        uint256 publicKey,\n        bytes32 title\n    )\n        public\n        returns (bool)\n    {\n        require(!isProviderInitiated(msg.sender),\"Error: Provider already exists\");\n        createOracle(msg.sender, publicKey, title);\n        addOracle(msg.sender);\n        emit NewProvider(msg.sender, title);\n        return true;\n    }\n\n    /// @dev initiates an endpoint specific provider curve\n    /// If oracle[specfifier] is uninitialized, Curve is mapped to endpoint\n    /// @param endpoint specifier of endpoint. currently \"smart_contract\" or \"socket_subscription\"\n    /// @param curve flattened array of all segments, coefficients across all polynomial terms, [e0,l0,c0,c1,c2,...]\n    /// @param broker address for endpoint. if non-zero address, only this address will be able to bond/unbond \n    function initiateProviderCurve(\n        bytes32 endpoint,\n        int256[] curve,\n        address broker\n    )\n        returns (bool)\n    {\n        // Provider must be initiated\n        require(isProviderInitiated(msg.sender),\"Error; Provider does not yet exist\");\n        // Can't reset their curve\n        require(getCurveUnset(msg.sender, endpoint), \"Error: Curve is already set\");\n\n        setCurve(msg.sender, endpoint, curve);        \n        db.pushBytesArray(keccak256(abi.encodePacked('oracles', msg.sender, 'endpoints')), endpoint);\n        db.setBytes32(keccak256(abi.encodePacked('oracles', msg.sender, endpoint, 'broker')), bytes32(broker));\n\n        emit NewCurve(msg.sender, endpoint, curve, broker);\n\n        return true;\n    }\n\n    // Sets provider data\n    function setProviderParameter(bytes32 key, bytes32 value) public {\n        // Provider must be initiated\n        require(isProviderInitiated(msg.sender),\"Error: Provider does not exist\");\n\n        if(!isProviderParamInitialized(msg.sender, key)){\n            // initialize this provider param\n            db.setNumber(keccak256(abi.encodePacked('oracles', msg.sender, 'is_param_set', key)), 1);\n            db.pushBytesArray(keccak256(abi.encodePacked('oracles', msg.sender, 'providerParams')), key);\n        }\n        db.setBytes32(keccak256(abi.encodePacked('oracles', msg.sender, 'providerParams', key)), value);\n    }\n\n    // Gets provider data\n    function getProviderParameter(address provider, bytes32 key) public view returns (bytes32){\n        // Provider must be initiated\n        require(isProviderInitiated(provider),\"Error: Provider does not exist\");\n        require(isProviderParamInitialized(provider, key),\"Error: Provider parameter does not exist\");\n        return db.getBytes32(keccak256(abi.encodePacked('oracles', provider, 'providerParams', key)));\n    }\n\n    // Gets keys of all provider params\n    function getAllProviderParams(address provider) public view returns (bytes32[]){\n        // Provider must be initiated\n        require(isProviderInitiated(provider),\"Error: Provider does not exist\");\n        return db.getBytesArray(keccak256(abi.encodePacked('oracles', provider, 'providerParams')));\n    }\n\n    // Set endpoint specific parameters for a given endpoint\n    function setEndpointParams(bytes32 endpoint, bytes32[] endpointParams) public {\n        // Provider must be initiated\n        require(isProviderInitiated(msg.sender),\"Error: Provider does not exist\");\n        // Can't set endpoint params on an unset provider\n        require(!getCurveUnset(msg.sender, endpoint),\"Error: Curve is not yet set\");\n\n        db.setBytesArray(keccak256(abi.encodePacked('oracles', msg.sender, 'endpointParams', endpoint)), endpointParams);\n    }\n\n    // get endpoint specific parameters for a given endpoint\n    function getEndpointParams(address provider, bytes32 endpoint) public view returns (bytes32[]) {\n        // Provider, endpoint must be initiated\n        require(isProviderInitiated(msg.sender),\"Error: Provider does not exist\");\n        require(!getCurveUnset(msg.sender, endpoint),\"Error: Curve is not yet set\");\n\n        return db.getBytesArray(keccak256(abi.encodePacked('oracles', provider, 'endpointParams', endpoint)));\n    }\n\n    /// @return public key\n    function getProviderPublicKey(address provider) public view returns (uint256) {\n        return getPublicKey(provider);\n    }\n\n    /// @return oracle name\n    function getProviderTitle(address provider) public view returns (bytes32) {\n        return getTitle(provider);\n    }\n\n\n    /// @dev get curve paramaters from oracle\n    function getProviderCurve(\n        address provider,\n        bytes32 endpoint\n    )\n        public\n        view\n        returns (int[])\n    {\n        require(!getCurveUnset(provider, endpoint),\"Error: Curve is not yet set\");\n        return db.getIntArray(keccak256(abi.encodePacked('oracles', provider, 'curves', endpoint)));\n    }\n\n    function getProviderCurveLength(address provider, bytes32 endpoint) public view returns (uint256){\n        require(!getCurveUnset(provider, endpoint),\"Error: Curve is not yet set\");\n        return db.getIntArray(keccak256(abi.encodePacked('oracles', provider, 'curves', endpoint))).length;\n    }\n\n    /// @dev is provider initiated\n    /// @param oracleAddress the provider address\n    /// @return Whether or not the provider has initiated in the Registry.\n    function isProviderInitiated(address oracleAddress) public view returns (bool) {\n        return getProviderTitle(oracleAddress) != 0;\n    }\n\n    /*** STORAGE FUNCTIONS ***/\n    /// @dev get public key of provider\n    function getPublicKey(address provider) public view returns (uint256) {\n        return db.getNumber(keccak256(abi.encodePacked(\"oracles\", provider, \"publicKey\")));\n    }\n\n    /// @dev get title of provider\n    function getTitle(address provider) public view returns (bytes32) {\n        return db.getBytes32(keccak256(abi.encodePacked(\"oracles\", provider, \"title\")));\n    }\n\n    /// @dev get the endpoints of a provider\n    function getProviderEndpoints(address provider) public view returns (bytes32[]) {\n        return db.getBytesArray(keccak256(abi.encodePacked(\"oracles\", provider, \"endpoints\")));\n    }\n\n    /// @dev get all endpoint params\n    function getEndPointParams(address provider, bytes32 endpoint) public view returns (bytes32[]) {\n        return db.getBytesArray(keccak256(abi.encodePacked('oracles', provider, 'endpointParams', endpoint)));\n    }\n\n    /// @dev get broker address for endpoint\n    function getEndpointBroker(address oracleAddress, bytes32 endpoint) public view returns (address) {\n        return address(db.getBytes32(keccak256(abi.encodePacked('oracles', oracleAddress, endpoint, 'broker'))));\n    }\n\n    function getCurveUnset(address provider, bytes32 endpoint) public view returns (bool) {\n        return db.getIntArrayLength(keccak256(abi.encodePacked('oracles', provider, 'curves', endpoint))) == 0;\n    }\n\n    /// @dev get provider address by index\n    function getOracleAddress(uint256 index) public view returns (address) {\n        return db.getAddressArrayIndex(keccak256(abi.encodePacked('oracleIndex')), index);\n    }\n\n    /// @dev get all oracle addresses\n    function getAllOracles() external view returns (address[]) {\n        return db.getAddressArray(keccak256(abi.encodePacked('oracleIndex')));\n    }\n\n    ///  @dev add new provider to mapping\n    function createOracle(address provider, uint256 publicKey, bytes32 title) private {\n        db.setNumber(keccak256(abi.encodePacked('oracles', provider, \"publicKey\")), uint256(publicKey));\n        db.setBytes32(keccak256(abi.encodePacked('oracles', provider, \"title\")), title);\n    }\n\n    /// @dev add new provider address to oracles array\n    function addOracle(address provider) private {\n        db.pushAddressArray(keccak256(abi.encodePacked('oracleIndex')), provider);\n    }\n\n    /// @dev initialize new curve for provider\n    /// @param provider address of provider\n    /// @param endpoint endpoint specifier\n    /// @param curve flattened array of all segments, coefficients across all polynomial terms, [l0,c0,c1,c2,..., ck, e0, ...]\n    function setCurve(\n        address provider,\n        bytes32 endpoint,\n        int[] curve\n    )\n        private\n    {\n        uint prevEnd = 1;\n        uint index = 0;\n\n        // Validate the curve\n        while ( index < curve.length ) {\n            // Validate the length of the piece\n            int len = curve[index];\n            require(len > 0, \"Error: Number of constants must be greater than zero\");\n\n            // Validate the end index of the piece\n            uint endIndex = index + uint(len) + 1;\n            require(endIndex < curve.length, \"Error: Out of bounds error. Verify correct curve length\");\n\n            // Validate that the end is continuous\n            int end = curve[endIndex];\n            require(uint(end) > prevEnd,\"Error: Curve is not continuous\");\n\n            prevEnd = uint(end);\n            index += uint(len) + 2; \n        }\n\n        db.setIntArray(keccak256(abi.encodePacked('oracles', provider, 'curves', endpoint)), curve);\n    }\n\n    // Determines whether this parameter has been initialized\n    function isProviderParamInitialized(address provider, bytes32 key) private view returns (bool){\n        uint256 val = db.getNumber(keccak256(abi.encodePacked('oracles', provider, 'is_param_set', key)));\n        return (val == 1) ? true : false;\n    }\n\n    /*************************************** STORAGE ****************************************\n    * 'oracles', provider, 'endpoints' => {bytes32[]} array of endpoints for this oracle\n    * 'oracles', provider, 'endpointParams', endpoint => {bytes32[]} array of params for this endpoint\n    * 'oracles', provider, 'curves', endpoint => {uint[]} curve array for this endpoint\n    * 'oracles', provider, 'broker', endpoint => {bytes32} broker address for this endpoint\n    * 'oracles', provider, 'is_param_set', key => {uint} Is this provider parameter set (0/1)\n    * 'oracles', provider, \"publicKey\" => {uint} public key for this oracle\n    * 'oracles', provider, \"title\" => {bytes32} title of this oracle\n    ****************************************************************************************/\n}\n",
  "sourcePath": "/home/max/zprojects/zap-ethereum-api/contracts/platform/registry/Registry.sol",
  "compiler": {
    "name": "solc",
    "version": "0.4.24+commit.e67f0147.Emscripten.clang"
  },
  "schemaVersion": "2.0.1",
  "updatedAt": "2018-09-12T20:31:41.763Z"
}