{
  "contractName": "Registry",
  "abi": [
    {
      "constant": true,
      "inputs": [],
      "name": "storageAddress",
      "outputs": [
        {
          "name": "",
          "type": "address"
        }
      ],
      "payable": false,
      "stateMutability": "view",
      "type": "function"
    },
    {
      "constant": true,
      "inputs": [],
      "name": "owner",
      "outputs": [
        {
          "name": "",
          "type": "address"
        }
      ],
      "payable": false,
      "stateMutability": "view",
      "type": "function"
    },
    {
      "constant": false,
      "inputs": [],
      "name": "selfDestruct",
      "outputs": [],
      "payable": false,
      "stateMutability": "nonpayable",
      "type": "function"
    },
    {
      "constant": false,
      "inputs": [
        {
          "name": "newOwner",
          "type": "address"
        }
      ],
      "name": "transferOwnership",
      "outputs": [],
      "payable": false,
      "stateMutability": "nonpayable",
      "type": "function"
    },
    {
      "inputs": [
        {
          "name": "_storageAddress",
          "type": "address"
        }
      ],
      "payable": false,
      "stateMutability": "nonpayable",
      "type": "constructor"
    },
    {
      "anonymous": false,
      "inputs": [
        {
          "indexed": true,
          "name": "provider",
          "type": "address"
        },
        {
          "indexed": true,
          "name": "title",
          "type": "bytes32"
        },
        {
          "indexed": true,
          "name": "endpoint",
          "type": "bytes32"
        }
      ],
      "name": "NewProvider",
      "type": "event"
    },
    {
      "anonymous": false,
      "inputs": [
        {
          "indexed": true,
          "name": "provider",
          "type": "address"
        },
        {
          "indexed": true,
          "name": "endpoint",
          "type": "bytes32"
        },
        {
          "indexed": false,
          "name": "constants",
          "type": "int256[]"
        },
        {
          "indexed": false,
          "name": "parts",
          "type": "uint256[]"
        },
        {
          "indexed": false,
          "name": "dividers",
          "type": "uint256[]"
        }
      ],
      "name": "NewCurve",
      "type": "event"
    },
    {
      "anonymous": false,
      "inputs": [
        {
          "indexed": true,
          "name": "previousOwner",
          "type": "address"
        },
        {
          "indexed": true,
          "name": "newOwner",
          "type": "address"
        }
      ],
      "name": "OwnershipTransferred",
      "type": "event"
    },
    {
      "constant": false,
      "inputs": [
        {
          "name": "publicKey",
          "type": "uint256"
        },
        {
          "name": "title",
          "type": "bytes32"
        },
        {
          "name": "endpoint",
          "type": "bytes32"
        },
        {
          "name": "endpointParams",
          "type": "bytes32[]"
        }
      ],
      "name": "initiateProvider",
      "outputs": [
        {
          "name": "",
          "type": "bool"
        }
      ],
      "payable": false,
      "stateMutability": "nonpayable",
      "type": "function"
    },
    {
      "constant": false,
      "inputs": [
        {
          "name": "endpoint",
          "type": "bytes32"
        },
        {
          "name": "constants",
          "type": "int256[]"
        },
        {
          "name": "parts",
          "type": "uint256[]"
        },
        {
          "name": "dividers",
          "type": "uint256[]"
        }
      ],
      "name": "initiateProviderCurve",
      "outputs": [
        {
          "name": "",
          "type": "bool"
        }
      ],
      "payable": false,
      "stateMutability": "nonpayable",
      "type": "function"
    },
    {
      "constant": false,
      "inputs": [
        {
          "name": "endpoint",
          "type": "bytes32"
        },
        {
          "name": "endpointParams",
          "type": "bytes32[]"
        }
      ],
      "name": "setEndpointParams",
      "outputs": [],
      "payable": false,
      "stateMutability": "nonpayable",
      "type": "function"
    },
    {
      "constant": true,
      "inputs": [
        {
          "name": "provider",
          "type": "address"
        }
      ],
      "name": "getProviderPublicKey",
      "outputs": [
        {
          "name": "",
          "type": "uint256"
        }
      ],
      "payable": false,
      "stateMutability": "view",
      "type": "function"
    },
    {
      "constant": true,
      "inputs": [
        {
          "name": "provider",
          "type": "address"
        }
      ],
      "name": "getProviderTitle",
      "outputs": [
        {
          "name": "",
          "type": "bytes32"
        }
      ],
      "payable": false,
      "stateMutability": "view",
      "type": "function"
    },
    {
      "constant": true,
      "inputs": [
        {
          "name": "provider",
          "type": "address"
        },
        {
          "name": "endpoint",
          "type": "bytes32"
        },
        {
          "name": "index",
          "type": "uint256"
        }
      ],
      "name": "getNextEndpointParam",
      "outputs": [
        {
          "name": "nextIndex",
          "type": "uint256"
        },
        {
          "name": "endpointParam",
          "type": "bytes32"
        }
      ],
      "payable": false,
      "stateMutability": "view",
      "type": "function"
    },
    {
      "constant": true,
      "inputs": [
        {
          "name": "provider",
          "type": "address"
        },
        {
          "name": "endpoint",
          "type": "bytes32"
        }
      ],
      "name": "getProviderCurve",
      "outputs": [
        {
          "name": "",
          "type": "int256[]"
        },
        {
          "name": "",
          "type": "uint256[]"
        },
        {
          "name": "",
          "type": "uint256[]"
        }
      ],
      "payable": false,
      "stateMutability": "view",
      "type": "function"
    },
    {
      "constant": true,
      "inputs": [
        {
          "name": "provider",
          "type": "address"
        },
        {
          "name": "endpoint",
          "type": "bytes32"
        }
      ],
      "name": "getDotLimit",
      "outputs": [
        {
          "name": "",
          "type": "uint256"
        }
      ],
      "payable": false,
      "stateMutability": "view",
      "type": "function"
    },
    {
      "constant": true,
      "inputs": [
        {
          "name": "provider",
          "type": "address"
        },
        {
          "name": "endpoint",
          "type": "bytes32"
        }
      ],
      "name": "getProviderArgsLength",
      "outputs": [
        {
          "name": "",
          "type": "uint256"
        },
        {
          "name": "",
          "type": "uint256"
        },
        {
          "name": "",
          "type": "uint256"
        }
      ],
      "payable": false,
      "stateMutability": "view",
      "type": "function"
    },
    {
      "constant": true,
      "inputs": [
        {
          "name": "index",
          "type": "uint256"
        }
      ],
      "name": "getNextProvider",
      "outputs": [
        {
          "name": "nextIndex",
          "type": "uint256"
        },
        {
          "name": "oracleAddress",
          "type": "address"
        },
        {
          "name": "publicKey",
          "type": "uint256"
        },
        {
          "name": "title",
          "type": "bytes32"
        }
      ],
      "payable": false,
      "stateMutability": "view",
      "type": "function"
    }
  ],
  "bytecode": "0x608060405234801561001057600080fd5b50604051602080611e9883398101806040528101908080519060200190929190505050336000806101000a81548173ffffffffffffffffffffffffffffffffffffffff021916908373ffffffffffffffffffffffffffffffffffffffff16021790555080600260006101000a81548173ffffffffffffffffffffffffffffffffffffffff021916908373ffffffffffffffffffffffffffffffffffffffff16021790555080600160006101000a81548173ffffffffffffffffffffffffffffffffffffffff021916908373ffffffffffffffffffffffffffffffffffffffff16021790555050611d93806101056000396000f3006080604052600436106100d0576000357c0100000000000000000000000000000000000000000000000000000000900463ffffffff16806304c67525146100d55780632316a9ff146101795780634ff6e86e146102af57806353b0a300146103065780635481f43e1461037957806385aa92a7146103d85780638da5cb5b1461042f5780639cb8a26a14610486578063ad4732211461049d578063b21d9e8f1461051b578063e48875ae1461062d578063e4b8a9a914610692578063f2fde38b1461071c578063fcf0c2481461075f575b600080fd5b3480156100e157600080fd5b5061015f6004803603810190808035906020019092919080356000191690602001909291908035600019169060200190929190803590602001908201803590602001908080602002602001604051908101604052809392919081815260200183836020028082843782019150505050505091929192905050506107d3565b604051808215151515815260200191505060405180910390f35b34801561018557600080fd5b506101c8600480360381019080803573ffffffffffffffffffffffffffffffffffffffff1690602001909291908035600019169060200190929190505050610a22565b60405180806020018060200180602001848103845287818151815260200191508051906020019060200280838360005b838110156102135780820151818401526020810190506101f8565b50505050905001848103835286818151815260200191508051906020019060200280838360005b8381101561025557808201518184015260208101905061023a565b50505050905001848103825285818151815260200191508051906020019060200280838360005b8381101561029757808201518184015260208101905061027c565b50505050905001965050505050505060405180910390f35b3480156102bb57600080fd5b506102f0600480360381019080803573ffffffffffffffffffffffffffffffffffffffff169060200190929190505050610c30565b6040518082815260200191505060405180910390f35b34801561031257600080fd5b50610355600480360381019080803573ffffffffffffffffffffffffffffffffffffffff1690602001909291908035600019169060200190929190505050610d31565b60405180848152602001838152602001828152602001935050505060405180910390f35b34801561038557600080fd5b506103ba600480360381019080803573ffffffffffffffffffffffffffffffffffffffff169060200190929190505050610e5f565b60405180826000191660001916815260200191505060405180910390f35b3480156103e457600080fd5b506103ed610f60565b604051808273ffffffffffffffffffffffffffffffffffffffff1673ffffffffffffffffffffffffffffffffffffffff16815260200191505060405180910390f35b34801561043b57600080fd5b50610444610f86565b604051808273ffffffffffffffffffffffffffffffffffffffff1673ffffffffffffffffffffffffffffffffffffffff16815260200191505060405180910390f35b34801561049257600080fd5b5061049b610fab565b005b3480156104a957600080fd5b506104f6600480360381019080803573ffffffffffffffffffffffffffffffffffffffff169060200190929190803560001916906020019092919080359060200190929190505050611040565b6040518083815260200182600019166000191681526020019250505060405180910390f35b34801561052757600080fd5b5061061360048036038101908080356000191690602001909291908035906020019082018035906020019080806020026020016040519081016040528093929190818152602001838360200280828437820191505050505050919291929080359060200190820180359060200190808060200260200160405190810160405280939291908181526020018383602002808284378201915050505050509192919290803590602001908201803590602001908080602002602001604051908101604052809392919081815260200183836020028082843782019150505050505091929192905050506112ab565b604051808215151515815260200191505060405180910390f35b34801561063957600080fd5b5061067c600480360381019080803573ffffffffffffffffffffffffffffffffffffffff16906020019092919080356000191690602001909291905050506117b8565b6040518082815260200191505060405180910390f35b34801561069e57600080fd5b506106bd600480360381019080803590602001909291905050506118ca565b604051808581526020018473ffffffffffffffffffffffffffffffffffffffff1673ffffffffffffffffffffffffffffffffffffffff168152602001838152602001826000191660001916815260200194505050505060405180910390f35b34801561072857600080fd5b5061075d600480360381019080803573ffffffffffffffffffffffffffffffffffffffff169060200190929190505050611ae0565b005b34801561076b57600080fd5b506107d1600480360381019080803560001916906020019092919080359060200190820180359060200190808060200260200160405190810160405280939291908181526020018383602002808284378201915050505050509192919290505050611c35565b005b6000806107df33610c30565b1415156107eb57600080fd5b600160009054906101000a900473ffffffffffffffffffffffffffffffffffffffff1673ffffffffffffffffffffffffffffffffffffffff1663b3c0b7be3387876040518463ffffffff167c0100000000000000000000000000000000000000000000000000000000028152600401808473ffffffffffffffffffffffffffffffffffffffff1673ffffffffffffffffffffffffffffffffffffffff16815260200183815260200182600019166000191681526020019350505050600060405180830381600087803b1580156108c057600080fd5b505af11580156108d4573d6000803e3d6000fd5b50505050600060010283600019161415156108f4576108f38383611c35565b5b600160009054906101000a900473ffffffffffffffffffffffffffffffffffffffff1673ffffffffffffffffffffffffffffffffffffffff1663df5dd1a5336040518263ffffffff167c0100000000000000000000000000000000000000000000000000000000028152600401808273ffffffffffffffffffffffffffffffffffffffff1673ffffffffffffffffffffffffffffffffffffffff168152602001915050600060405180830381600087803b1580156109b157600080fd5b505af11580156109c5573d6000803e3d6000fd5b50505050826000191684600019163373ffffffffffffffffffffffffffffffffffffffff167ff698ab0e7380181252e6e68ce19db1e5c79992e1a2b618460155606fe30c89f260405160405180910390a460019050949350505050565b6060806060600160009054906101000a900473ffffffffffffffffffffffffffffffffffffffff1673ffffffffffffffffffffffffffffffffffffffff1663cc31433886866040518363ffffffff167c0100000000000000000000000000000000000000000000000000000000028152600401808373ffffffffffffffffffffffffffffffffffffffff1673ffffffffffffffffffffffffffffffffffffffff168152602001826000191660001916815260200192505050600060405180830381600087803b158015610af457600080fd5b505af1158015610b08573d6000803e3d6000fd5b505050506040513d6000823e3d601f19601f820116820180604052506060811015610b3257600080fd5b810190808051640100000000811115610b4a57600080fd5b82810190506020810184811115610b6057600080fd5b8151856020820283011164010000000082111715610b7d57600080fd5b50509291906020018051640100000000811115610b9957600080fd5b82810190506020810184811115610baf57600080fd5b8151856020820283011164010000000082111715610bcc57600080fd5b50509291906020018051640100000000811115610be857600080fd5b82810190506020810184811115610bfe57600080fd5b8151856020820283011164010000000082111715610c1b57600080fd5b50509291905050509250925092509250925092565b6000600160009054906101000a900473ffffffffffffffffffffffffffffffffffffffff1673ffffffffffffffffffffffffffffffffffffffff1663857cdbb8836040518263ffffffff167c0100000000000000000000000000000000000000000000000000000000028152600401808273ffffffffffffffffffffffffffffffffffffffff1673ffffffffffffffffffffffffffffffffffffffff168152602001915050602060405180830381600087803b158015610cef57600080fd5b505af1158015610d03573d6000803e3d6000fd5b505050506040513d6020811015610d1957600080fd5b81019080805190602001909291905050509050919050565b6000806000600160009054906101000a900473ffffffffffffffffffffffffffffffffffffffff1673ffffffffffffffffffffffffffffffffffffffff166353b0a30086866040518363ffffffff167c0100000000000000000000000000000000000000000000000000000000028152600401808373ffffffffffffffffffffffffffffffffffffffff1673ffffffffffffffffffffffffffffffffffffffff168152602001826000191660001916815260200192505050606060405180830381600087803b158015610e0357600080fd5b505af1158015610e17573d6000803e3d6000fd5b505050506040513d6060811015610e2d57600080fd5b810190808051906020019092919080519060200190929190805190602001909291905050509250925092509250925092565b6000600160009054906101000a900473ffffffffffffffffffffffffffffffffffffffff1673ffffffffffffffffffffffffffffffffffffffff1663f51d7d5f836040518263ffffffff167c0100000000000000000000000000000000000000000000000000000000028152600401808273ffffffffffffffffffffffffffffffffffffffff1673ffffffffffffffffffffffffffffffffffffffff168152602001915050602060405180830381600087803b158015610f1e57600080fd5b505af1158015610f32573d6000803e3d6000fd5b505050506040513d6020811015610f4857600080fd5b81019080805190602001909291905050509050919050565b600260009054906101000a900473ffffffffffffffffffffffffffffffffffffffff1681565b6000809054906101000a900473ffffffffffffffffffffffffffffffffffffffff1681565b6000809054906101000a900473ffffffffffffffffffffffffffffffffffffffff1673ffffffffffffffffffffffffffffffffffffffff163373ffffffffffffffffffffffffffffffffffffffff1614151561100657600080fd5b6000809054906101000a900473ffffffffffffffffffffffffffffffffffffffff1673ffffffffffffffffffffffffffffffffffffffff16ff5b6000806000600160009054906101000a900473ffffffffffffffffffffffffffffffffffffffff1673ffffffffffffffffffffffffffffffffffffffff16639a04b2d987876040518363ffffffff167c0100000000000000000000000000000000000000000000000000000000028152600401808373ffffffffffffffffffffffffffffffffffffffff1673ffffffffffffffffffffffffffffffffffffffff168152602001826000191660001916815260200192505050602060405180830381600087803b15801561111257600080fd5b505af1158015611126573d6000803e3d6000fd5b505050506040513d602081101561113c57600080fd5b810190808051906020019092919050505090508084101561129157600160009054906101000a900473ffffffffffffffffffffffffffffffffffffffff1673ffffffffffffffffffffffffffffffffffffffff1663d24c67418787876040518463ffffffff167c0100000000000000000000000000000000000000000000000000000000028152600401808473ffffffffffffffffffffffffffffffffffffffff1673ffffffffffffffffffffffffffffffffffffffff16815260200183600019166000191681526020018281526020019350505050602060405180830381600087803b15801561122c57600080fd5b505af1158015611240573d6000803e3d6000fd5b505050506040513d602081101561125657600080fd5b8101908080519060200190929190505050915080600185011015611282576001840182925092506112a2565b600082819150925092506112a2565b600080819150806001029050925092505b50935093915050565b600080600160009054906101000a900473ffffffffffffffffffffffffffffffffffffffff1673ffffffffffffffffffffffffffffffffffffffff1663857cdbb8336040518263ffffffff167c0100000000000000000000000000000000000000000000000000000000028152600401808273ffffffffffffffffffffffffffffffffffffffff1673ffffffffffffffffffffffffffffffffffffffff168152602001915050602060405180830381600087803b15801561136b57600080fd5b505af115801561137f573d6000803e3d6000fd5b505050506040513d602081101561139557600080fd5b8101908080519060200190929190505050141515156113b357600080fd5b600160009054906101000a900473ffffffffffffffffffffffffffffffffffffffff1673ffffffffffffffffffffffffffffffffffffffff166354a365df33876040518363ffffffff167c0100000000000000000000000000000000000000000000000000000000028152600401808373ffffffffffffffffffffffffffffffffffffffff1673ffffffffffffffffffffffffffffffffffffffff168152602001826000191660001916815260200192505050602060405180830381600087803b15801561148057600080fd5b505af1158015611494573d6000803e3d6000fd5b505050506040513d60208110156114aa57600080fd5b810190808051906020019092919050505015156114c657600080fd5b600160009054906101000a900473ffffffffffffffffffffffffffffffffffffffff1673ffffffffffffffffffffffffffffffffffffffff16635f38978933878787876040518663ffffffff167c0100000000000000000000000000000000000000000000000000000000028152600401808673ffffffffffffffffffffffffffffffffffffffff1673ffffffffffffffffffffffffffffffffffffffff1681526020018560001916600019168152602001806020018060200180602001848103845287818151815260200191508051906020019060200280838360005b838110156115bf5780820151818401526020810190506115a4565b50505050905001848103835286818151815260200191508051906020019060200280838360005b838110156116015780820151818401526020810190506115e6565b50505050905001848103825285818151815260200191508051906020019060200280838360005b83811015611643578082015181840152602081019050611628565b5050505090500198505050505050505050600060405180830381600087803b15801561166e57600080fd5b505af1158015611682573d6000803e3d6000fd5b5050505084600019163373ffffffffffffffffffffffffffffffffffffffff167fa5b7f64b56f8b812fa96dda674a98abf2d5dd52fcd202fbf6ad0ef1fd8fe8df186868660405180806020018060200180602001848103845287818151815260200191508051906020019060200280838360005b838110156117115780820151818401526020810190506116f6565b50505050905001848103835286818151815260200191508051906020019060200280838360005b83811015611753578082015181840152602081019050611738565b50505050905001848103825285818151815260200191508051906020019060200280838360005b8381101561179557808201518184015260208101905061177a565b50505050905001965050505050505060405180910390a360019050949350505050565b6000600160009054906101000a900473ffffffffffffffffffffffffffffffffffffffff1673ffffffffffffffffffffffffffffffffffffffff1663e48875ae84846040518363ffffffff167c0100000000000000000000000000000000000000000000000000000000028152600401808373ffffffffffffffffffffffffffffffffffffffff1673ffffffffffffffffffffffffffffffffffffffff168152602001826000191660001916815260200192505050602060405180830381600087803b15801561188757600080fd5b505af115801561189b573d6000803e3d6000fd5b505050506040513d60208110156118b157600080fd5b8101908080519060200190929190505050905092915050565b6000806000806000600160009054906101000a900473ffffffffffffffffffffffffffffffffffffffff1673ffffffffffffffffffffffffffffffffffffffff1663b9552c606040518163ffffffff167c0100000000000000000000000000000000000000000000000000000000028152600401602060405180830381600087803b15801561195857600080fd5b505af115801561196c573d6000803e3d6000fd5b505050506040513d602081101561198257600080fd5b8101908080519060200190929190505050905080861015611abf57600160009054906101000a900473ffffffffffffffffffffffffffffffffffffffff1673ffffffffffffffffffffffffffffffffffffffff16639217c438876040518263ffffffff167c010000000000000000000000000000000000000000000000000000000002815260040180828152602001915050602060405180830381600087803b158015611a2e57600080fd5b505af1158015611a42573d6000803e3d6000fd5b505050506040513d6020811015611a5857600080fd5b8101908080519060200190929190505050935080600187011015611a9a576001860184611a8486610c30565b611a8d87610e5f565b9450945094509450611ad8565b600084611aa686610c30565b611aaf87610e5f565b8393509450945094509450611ad8565b6000806000829250819150809050600094509450945094505b509193509193565b6000809054906101000a900473ffffffffffffffffffffffffffffffffffffffff1673ffffffffffffffffffffffffffffffffffffffff163373ffffffffffffffffffffffffffffffffffffffff16141515611b3b57600080fd5b600073ffffffffffffffffffffffffffffffffffffffff168173ffffffffffffffffffffffffffffffffffffffff1614151515611b7757600080fd5b8073ffffffffffffffffffffffffffffffffffffffff166000809054906101000a900473ffffffffffffffffffffffffffffffffffffffff1673ffffffffffffffffffffffffffffffffffffffff167f8be0079c531659141344cd1fd0a4f28419497f9722a3daafe3b4186f6b6457e060405160405180910390a3806000806101000a81548173ffffffffffffffffffffffffffffffffffffffff021916908373ffffffffffffffffffffffffffffffffffffffff16021790555050565b600160009054906101000a900473ffffffffffffffffffffffffffffffffffffffff1673ffffffffffffffffffffffffffffffffffffffff1663c6d1d82a3384846040518463ffffffff167c0100000000000000000000000000000000000000000000000000000000028152600401808473ffffffffffffffffffffffffffffffffffffffff1673ffffffffffffffffffffffffffffffffffffffff168152602001836000191660001916815260200180602001828103825283818151815260200191508051906020019060200280838360005b83811015611d24578082015181840152602081019050611d09565b50505050905001945050505050600060405180830381600087803b158015611d4b57600080fd5b505af1158015611d5f573d6000803e3d6000fd5b5050505050505600a165627a7a72305820b88157d598f874e78540886e7e412b74d61ab203db5490610fcc2d3d62481dba0029",
  "source": "pragma solidity ^0.4.24;\n// v1.0\n\nimport \"../../lib/lifecycle/Destructible.sol\";\nimport \"./RegistryStorage.sol\";\nimport \"./RegistryInterface.sol\";\n\ncontract Registry is Destructible, RegistryInterface {\n\n    enum CurveType { None, Linear, Exponential, Logarithmic }\n\n    event NewProvider(\n        address indexed provider,\n        bytes32 indexed title,\n        bytes32 indexed endpoint\n    );\n\n    event NewCurve(\n        address indexed provider,\n        bytes32 indexed endpoint,\n        int[] constants,\n        uint[] parts,\n        uint[] dividers\n    );\n\n    RegistryStorage stor;\n\n    address public storageAddress;\n\n    constructor(address _storageAddress) public {\n        storageAddress = _storageAddress;\n        stor = RegistryStorage(_storageAddress);\n    }\n\n    /// @dev initiates a provider.\n    /// If no address->Oracle mapping exists, Oracle object is created\n    /// @param publicKey unique id for provider. used for encyrpted key swap for subscription endpoints\n    /// @param title name\n    /// @param endpoint specifier\n    /// @param endpointParams endpoint specific params\n    function initiateProvider(\n        uint256 publicKey,\n        bytes32 title,\n        bytes32 endpoint,\n        bytes32[] endpointParams\n    )\n        public\n        returns (bool)\n    {\n        require(getProviderPublicKey(msg.sender) == 0);\n        stor.createOracle(msg.sender, publicKey, title);\n        if(endpoint != 0) setEndpointParams(endpoint, endpointParams);\n        stor.addOracle(msg.sender);\n        emit NewProvider(msg.sender, title, endpoint);\n        return true;\n    }\n\n    /// @dev initiates an endpoint specific provider curve\n    /// If oracle[specfifier] is uninitialized, Curve is mapped to endpoint\n    /// @param endpoint specifier of endpoint. currently \"smart_contract\" or \"socket_subscription\"\n    /// @param constants flattened array of all coefficients/powers/function across all polynomial terms\n    /// @param parts array of starting/ending points for piecewise function pieces\n    /// @param dividers array of indices, each specifying range of indices in coef,power,fn belonging to each piece\n    function initiateProviderCurve(\n        bytes32 endpoint,\n        int256[] constants,\n        uint256[] parts,\n        uint256[] dividers\n    )\n        public\n        returns (bool)\n    {\n        // Provider must be initiated\n        require(stor.getPublicKey(msg.sender) != 0);\n        // Can't reset their curve\n        require(stor.getCurveUnset(msg.sender, endpoint));\n\n        stor.setCurve(msg.sender, endpoint, constants, parts, dividers);\n        emit NewCurve(msg.sender, endpoint, constants, parts, dividers);\n\n        return true;\n    }\n\n    function setEndpointParams(bytes32 endpoint, bytes32[] endpointParams) public {\n        stor.setEndpointParameters(msg.sender, endpoint, endpointParams);\n    }\n\n    /// @return public key\n    function getProviderPublicKey(address provider) public view returns (uint256) {\n        return stor.getPublicKey(provider);\n    }\n\n    /// @return oracle name\n    function getProviderTitle(address provider) public view returns (bytes32) {\n        return stor.getTitle(provider);\n    }\n\n    /// @return endpoint-specific parameter\n    function getNextEndpointParam(address provider, bytes32 endpoint, uint256 index)\n        public\n        view\n        returns (uint256 nextIndex, bytes32 endpointParam)\n    {\n        uint256 len = stor.getEndpointIndexSize(provider, endpoint);\n        if (index < len) {\n            endpointParam = stor.getEndPointParam(provider, endpoint, index);\n            if (index + 1 < len) return (index + 1, endpointParam);\n            return (0, endpointParam);\n        }\n        return(0,0);\n    }\n\n    /// @dev get curve paramaters from oracle\n    function getProviderCurve(\n        address provider,\n        bytes32 endpoint\n    )\n        public\n        view\n        returns (int[], uint[],uint[])\n    {\n\n        return stor.getCurve(provider, endpoint);\n    }\n\n    /// @dev get curve dot limit \n    function getDotLimit(\n        address provider,\n        bytes32 endpoint\n    )\n        public\n        view\n        returns (uint)\n    {\n        return stor.getDotLimit(provider, endpoint);\n    }\n\n    /// @dev get length of constants, parts and dividers arrays\n    function getProviderArgsLength(address provider, bytes32 endpoint)\n        public\n        view\n        returns (uint, uint,uint)\n    {\n        return stor.getProviderArgsLength(provider, endpoint);\n\n    }\n\n    /// @dev get provider info\n    /// @param index index of provider\n    /// @return nextIndex next provider index\n    /// @return oracleAddress provider address\n    /// @return publicKey provider public key\n    /// @return title provider title\n    function getNextProvider(uint256 index)\n        public\n        view\n        returns (uint256 nextIndex, address oracleAddress, uint256 publicKey, bytes32 title)\n    {\n        uint256 len = stor.getOracleIndexSize();\n        if (index < len) {\n            oracleAddress = stor.getOracleAddress(index);\n            if (index + 1 < len)\n                return (\n                    index + 1,\n                    oracleAddress,\n                    getProviderPublicKey(oracleAddress),\n                    getProviderTitle(oracleAddress)\n                );\n            return (\n                0,\n                oracleAddress,\n                getProviderPublicKey(oracleAddress),\n                getProviderTitle(oracleAddress)\n            );\n        }\n        return (0,0x0,0,\"\");\n    }\n}\n",
  "sourcePath": "/Users/michaelzman/Documents/workspace/zap-ethereum-api/contracts/platform/registry/Registry.sol",
  "compiler": {
    "name": "solc",
    "version": "0.4.24+commit.e67f0147.Emscripten.clang"
  },
  "schemaVersion": "2.0.0",
  "updatedAt": "2018-07-18T21:14:08.890Z"
}