{
  "contractName": "Telegram",
  "abi": [
    {
      "constant": true,
      "inputs": [],
      "name": "spec1",
      "outputs": [
        {
          "name": "",
          "type": "bytes32"
        }
      ],
      "payable": false,
      "stateMutability": "view",
      "type": "function"
    },
    {
      "inputs": [
        {
          "name": "registryAddress",
          "type": "address"
        }
      ],
      "payable": false,
      "stateMutability": "nonpayable",
      "type": "constructor"
    },
    {
      "constant": false,
      "inputs": [
        {
          "name": "",
          "type": "uint256"
        },
        {
          "name": "",
          "type": "string"
        },
        {
          "name": "",
          "type": "bytes32"
        },
        {
          "name": "",
          "type": "bytes32[]"
        },
        {
          "name": "",
          "type": "bool"
        }
      ],
      "name": "receive",
      "outputs": [],
      "payable": false,
      "stateMutability": "nonpayable",
      "type": "function"
    }
  ],
  "bytecode": "0x60806040527f6c6f6f6d64617274000000000000000000000000000000000000000000000000600090600019169055670de0b6b3a7640000600155606060405190810160405280600167ffffffffffffffff1681526020016702c68af0bb14000067ffffffffffffffff168152602001633b9aca0067ffffffffffffffff16815250600290600361009192919061044b565b5034801561009e57600080fd5b5060405160208061060e833981018060405281019080805190602001909291905050506000606082600360006101000a81548173ffffffffffffffffffffffffffffffffffffffff021916908373ffffffffffffffffffffffffffffffffffffffff1602179055507f54656c656772616d20526567697374726174696f6e0000000000000000000000915060026040519080825280602002602001820160405280156101595781602001602082028038833980820191505090505b5090507f703100000000000000000000000000000000000000000000000000000000000081600081518110151561018c57fe5b9060200190602002019060001916908160001916815250507f70320000000000000000000000000000000000000000000000000000000000008160018151811015156101d457fe5b906020019060200201906000191690816000191681525050600360009054906101000a900473ffffffffffffffffffffffffffffffffffffffff1673ffffffffffffffffffffffffffffffffffffffff166304c67525607b84600054856040518563ffffffff167c0100000000000000000000000000000000000000000000000000000000028152600401808581526020018460001916600019168152602001836000191660001916815260200180602001828103825283818151815260200191508051906020019060200280838360005b838110156102c15780820151818401526020810190506102a6565b5050505090500195505050505050602060405180830381600087803b1580156102e957600080fd5b505af11580156102fd573d6000803e3d6000fd5b505050506040513d602081101561031357600080fd5b810190808051906020019092919050505050600360009054906101000a900473ffffffffffffffffffffffffffffffffffffffff1673ffffffffffffffffffffffffffffffffffffffff1663e67097fb60005460026040518363ffffffff167c01000000000000000000000000000000000000000000000000000000000281526004018083600019166000191681526020018060200182810382528381815481526020019150805480156103e657602002820191906000526020600020905b8154815260200190600101908083116103d2575b50509350505050602060405180830381600087803b15801561040757600080fd5b505af115801561041b573d6000803e3d6000fd5b505050506040513d602081101561043157600080fd5b8101908080519060200190929190505050505050506104c9565b828054828255906000526020600020908101928215610493579160200282015b82811115610492578251829067ffffffffffffffff1690559160200191906001019061046b565b5b5090506104a091906104a4565b5090565b6104c691905b808211156104c25760008160009055506001016104aa565b5090565b90565b610136806104d86000396000f30060806040526004361061004c576000357c0100000000000000000000000000000000000000000000000000000000900463ffffffff16806348cf129a14610051578063de26158314610084575b600080fd5b34801561005d57600080fd5b506100666100fb565b60405180826000191660001916815260200191505060405180910390f35b34801561009057600080fd5b506100f9600480360381019080803590602001909291908035906020019082018035906020019190919293919293908035600019169060200190929190803590602001908201803590602001919091929391929390803515159060200190929190505050610101565b005b60005481565b505050505050505600a165627a7a72305820276aa8ae81b9108d6db86a512f5201266b6759dde233f9a12cc8fe3beaaadd430029",
  "source": "pragma solidity ^0.4.24;\n\nimport \"../../platform/registry/RegistryInterface.sol\";\nimport \"./OnChainProvider.sol\";\n\ncontract Telegram is OnChainProvider {\n    bytes32 public spec1 = \"loomdart\";\n    uint256 decimals = 10 ** 18;\n\n    // curve y=1/5 (1 zap = 5 dots)\n    int[] curve = [1, 1*10**18/5, 1000000000];\n\n\n    RegistryInterface registry;\n\n    // middleware function for handling queries\n\tfunction receive(uint256 /* id */, string /* userQuery */, bytes32 /* endpoint */, bytes32[] /* endpointParams */, bool /* onchainSubscriber*/) external {\n\t}\n\n    constructor(address registryAddress) public{\n        registry = RegistryInterface(registryAddress);\n\n        // initialize in registry\n        bytes32 title = \"Telegram Registration\";\n\n        bytes32[] memory params = new bytes32[](2);\n        params[0] = \"p1\";\n        params[1] = \"p2\";\n\n        registry.initiateProvider(123, title, spec1, params);\n        registry.initiateProviderCurve(spec1, curve);\n    }\n}",
  "sourcePath": "/Users/avisaven/Documents/Work/Zap/zap-ethereum-api/contracts/lib/platform/Telegram.sol",
  "compiler": {
    "name": "solc",
    "version": "0.4.24+commit.e67f0147.Emscripten.clang"
  },
  "schemaVersion": "2.0.0",
  "updatedAt": "2018-08-06T23:43:22.428Z"
}