{
  "contractName": "Telegram",
  "abi": [
    {
      "constant": true,
      "inputs": [],
      "name": "spec1",
      "outputs": [
        {
          "name": "",
          "type": "bytes32"
        }
      ],
      "payable": false,
      "stateMutability": "view",
      "type": "function"
    },
    {
      "inputs": [
        {
          "name": "registryAddress",
          "type": "address"
        }
      ],
      "payable": false,
      "stateMutability": "nonpayable",
      "type": "constructor"
    },
    {
      "constant": false,
      "inputs": [
        {
          "name": "",
          "type": "uint256"
        },
        {
          "name": "",
          "type": "string"
        },
        {
          "name": "",
          "type": "bytes32"
        },
        {
          "name": "",
          "type": "bytes32[]"
        },
        {
          "name": "",
          "type": "bool"
        }
      ],
      "name": "receive",
      "outputs": [],
      "payable": false,
      "stateMutability": "nonpayable",
      "type": "function"
    }
  ],
  "bytecode": "0x60806040527f6c6f6f6d64617274000000000000000000000000000000000000000000000000600090600019169055670de0b6b3a76400006001556060604051908101604052806702c68af0bb14000067ffffffffffffffff168152602001600067ffffffffffffffff168152602001600267ffffffffffffffff16815250600290600361008e929190610532565b506040805190810160405280600063ffffffff168152602001633b9aca0063ffffffff1681525060039060026100c592919061058b565b50602060405190810160405280600160ff1681525060049060016100ea9291906105e0565b503480156100f757600080fd5b506040516020806107c1833981018060405281019080805190602001909291905050506000606082600560006101000a81548173ffffffffffffffffffffffffffffffffffffffff021916908373ffffffffffffffffffffffffffffffffffffffff1602179055507f54656c656772616d20526567697374726174696f6e0000000000000000000000915060026040519080825280602002602001820160405280156101b25781602001602082028038833980820191505090505b5090507f70310000000000000000000000000000000000000000000000000000000000008160008151811015156101e557fe5b9060200190602002019060001916908160001916815250507f703200000000000000000000000000000000000000000000000000000000000081600181518110151561022d57fe5b906020019060200201906000191690816000191681525050600560009054906101000a900473ffffffffffffffffffffffffffffffffffffffff1673ffffffffffffffffffffffffffffffffffffffff166304c67525607b84600054856040518563ffffffff167c0100000000000000000000000000000000000000000000000000000000028152600401808581526020018460001916600019168152602001836000191660001916815260200180602001828103825283818151815260200191508051906020019060200280838360005b8381101561031a5780820151818401526020810190506102ff565b5050505090500195505050505050602060405180830381600087803b15801561034257600080fd5b505af1158015610356573d6000803e3d6000fd5b505050506040513d602081101561036c57600080fd5b810190808051906020019092919050505050600560009054906101000a900473ffffffffffffffffffffffffffffffffffffffff1673ffffffffffffffffffffffffffffffffffffffff1663b21d9e8f6000546002600360046040518563ffffffff167c0100000000000000000000000000000000000000000000000000000000028152600401808560001916600019168152602001806020018060200180602001848103845287818154815260200191508054801561044b57602002820191906000526020600020905b815481526020019060010190808311610437575b5050848103835286818154815260200191508054801561048a57602002820191906000526020600020905b815481526020019060010190808311610476575b505084810382528581815481526020019150805480156104c957602002820191906000526020600020905b8154815260200190600101908083116104b5575b5050975050505050505050602060405180830381600087803b1580156104ee57600080fd5b505af1158015610502573d6000803e3d6000fd5b505050506040513d602081101561051857600080fd5b81019080805190602001909291905050505050505061067c565b82805482825590600052602060002090810192821561057a579160200282015b82811115610579578251829067ffffffffffffffff16905591602001919060010190610552565b5b5090506105879190610632565b5090565b8280548282559060005260206000209081019282156105cf579160200282015b828111156105ce578251829063ffffffff169055916020019190600101906105ab565b5b5090506105dc9190610657565b5090565b828054828255906000526020600020908101928215610621579160200282015b82811115610620578251829060ff16905591602001919060010190610600565b5b50905061062e9190610657565b5090565b61065491905b80821115610650576000816000905550600101610638565b5090565b90565b61067991905b8082111561067557600081600090555060010161065d565b5090565b90565b6101368061068b6000396000f30060806040526004361061004c576000357c0100000000000000000000000000000000000000000000000000000000900463ffffffff16806348cf129a14610051578063de26158314610084575b600080fd5b34801561005d57600080fd5b506100666100fb565b60405180826000191660001916815260200191505060405180910390f35b34801561009057600080fd5b506100f9600480360381019080803590602001909291908035906020019082018035906020019190919293919293908035600019169060200190929190803590602001908201803590602001919091929391929390803515159060200190929190505050610101565b005b60005481565b505050505050505600a165627a7a723058205b15e8e858235782587a15694a3211d46aedd88a8285ac8b6f1328f52af7884c0029",
  "source": "pragma solidity ^0.4.24;\n\nimport \"../../platform/registry/RegistryInterface.sol\";\nimport \"./OnChainProvider.sol\";\n\ncontract Telegram is OnChainProvider {\n    bytes32 public spec1 = \"loomdart\";\n    uint256 decimals = 10 ** 18;\n\n    // curve y=1/5 (1 zap = 5 dots)\n    int[] constants = [1*10**18/5, 0, 2];\n\n    uint[] parts = [0, 1000000000];\n    uint[] dividers = [1]; \n\n    RegistryInterface registry;\n\n    // middleware function for handling queries\n\tfunction receive(uint256 /* id */, string /* userQuery */, bytes32 /* endpoint */, bytes32[] /* endpointParams */, bool /* onchainSubscriber*/) external {\n\t}\n\n    constructor(address registryAddress) public{\n        registry = RegistryInterface(registryAddress);\n\n        // initialize in registry\n        bytes32 title = \"Telegram Registration\";\n\n        bytes32[] memory params = new bytes32[](2);\n        params[0] = \"p1\";\n        params[1] = \"p2\";\n\n        registry.initiateProvider(123, title, spec1, params);\n        registry.initiateProviderCurve(spec1, constants, parts, dividers);\n    }\n}",
  "sourcePath": "/Users/avisaven/Documents/Work/Zap/zap-ethereum-api/contracts/lib/platform/Telegram.sol",
  "compiler": {
    "name": "solc",
    "version": "0.4.24+commit.e67f0147.Emscripten.clang"
  },
  "schemaVersion": "2.0.0",
  "updatedAt": "2018-08-03T15:34:05.563Z"
}