{
  "contractName": "TestProvider",
  "abi": [
    {
      "constant": true,
      "inputs": [],
      "name": "specifier",
      "outputs": [
        {
          "name": "",
          "type": "bytes32"
        }
      ],
      "payable": false,
      "stateMutability": "view",
      "type": "function"
    },
    {
      "inputs": [
        {
          "name": "registryAddress",
          "type": "address"
        }
      ],
      "payable": false,
      "stateMutability": "nonpayable",
      "type": "constructor"
    },
    {
      "anonymous": false,
      "inputs": [
        {
          "indexed": false,
          "name": "query",
          "type": "string"
        },
        {
          "indexed": false,
          "name": "endpoint",
          "type": "bytes32"
        },
        {
          "indexed": false,
          "name": "params",
          "type": "bytes32[]"
        }
      ],
      "name": "RecievedQuery",
      "type": "event"
    },
    {
      "constant": false,
      "inputs": [
        {
          "name": "id",
          "type": "uint256"
        },
        {
          "name": "userQuery",
          "type": "string"
        },
        {
          "name": "endpoint",
          "type": "bytes32"
        },
        {
          "name": "endpointParams",
          "type": "bytes32[]"
        },
        {
          "name": "onchainSubscriber",
          "type": "bool"
        }
      ],
      "name": "receive",
      "outputs": [],
      "payable": false,
      "stateMutability": "nonpayable",
      "type": "function"
    }
  ],
  "bytecode": "0x60806040527f7370656330310000000000000000000000000000000000000000000000000000600090600019169055606060405190810160405280600260ff168152602001600260ff168152602001600060ff16815250600190600361006692919061052e565b506040805190810160405280600063ffffffff168152602001633b9aca0063ffffffff16815250600290600261009d929190610580565b50602060405190810160405280600160ff1681525060039060016100c29291906105d5565b503480156100cf57600080fd5b5060405160208061092783398101806040528101908080519060200190929190505050600080606083600460006101000a81548173ffffffffffffffffffffffffffffffffffffffff021916908373ffffffffffffffffffffffffffffffffffffffff1602179055507f737065633031000000000000000000000000000000000000000000000000000092507f54657374436f6e74726163740000000000000000000000000000000000000000915060026040519080825280602002602001820160405280156101ae5781602001602082028038833980820191505090505b5090507f70310000000000000000000000000000000000000000000000000000000000008160008151811015156101e157fe5b9060200190602002019060001916908160001916815250507f703200000000000000000000000000000000000000000000000000000000000081600181518110151561022957fe5b906020019060200201906000191690816000191681525050600460009054906101000a900473ffffffffffffffffffffffffffffffffffffffff1673ffffffffffffffffffffffffffffffffffffffff166304c675256130398486856040518563ffffffff167c0100000000000000000000000000000000000000000000000000000000028152600401808581526020018460001916600019168152602001836000191660001916815260200180602001828103825283818151815260200191508051906020019060200280838360005b838110156103155780820151818401526020810190506102fa565b5050505090500195505050505050602060405180830381600087803b15801561033d57600080fd5b505af1158015610351573d6000803e3d6000fd5b505050506040513d602081101561036757600080fd5b810190808051906020019092919050505050600460009054906101000a900473ffffffffffffffffffffffffffffffffffffffff1673ffffffffffffffffffffffffffffffffffffffff1663b21d9e8f6000546001600260036040518563ffffffff167c0100000000000000000000000000000000000000000000000000000000028152600401808560001916600019168152602001806020018060200180602001848103845287818154815260200191508054801561044657602002820191906000526020600020905b815481526020019060010190808311610432575b5050848103835286818154815260200191508054801561048557602002820191906000526020600020905b815481526020019060010190808311610471575b505084810382528581815481526020019150805480156104c457602002820191906000526020600020905b8154815260200190600101908083116104b0575b5050975050505050505050602060405180830381600087803b1580156104e957600080fd5b505af11580156104fd573d6000803e3d6000fd5b505050506040513d602081101561051357600080fd5b81019080805190602001909291905050505050505050610671565b82805482825590600052602060002090810192821561056f579160200282015b8281111561056e578251829060ff1690559160200191906001019061054e565b5b50905061057c9190610627565b5090565b8280548282559060005260206000209081019282156105c4579160200282015b828111156105c3578251829063ffffffff169055916020019190600101906105a0565b5b5090506105d1919061064c565b5090565b828054828255906000526020600020908101928215610616579160200282015b82811115610615578251829060ff169055916020019190600101906105f5565b5b509050610623919061064c565b5090565b61064991905b8082111561064557600081600090555060010161062d565b5090565b90565b61066e91905b8082111561066a576000816000905550600101610652565b5090565b90565b6102a7806106806000396000f30060806040526004361061004c576000357c0100000000000000000000000000000000000000000000000000000000900463ffffffff168063522fafa114610051578063de26158314610084575b600080fd5b34801561005d57600080fd5b506100666100fb565b60405180826000191660001916815260200191505060405180910390f35b34801561009057600080fd5b506100f9600480360381019080803590602001909291908035906020019082018035906020019190919293919293908035600019169060200190929190803590602001908201803590602001919091929391929390803515159060200190929190505050610101565b005b60005481565b7fb1d30540f0019c1e94a292da7a6f164844c5d2e3dee75e0b3a6a66e4e9a4e15386868686866040518080602001856000191660001916815260200180602001838103835288888281815260200192508082843782019150508381038252858582818152602001925060200280828437820191505097505050505050505060405180910390a18015610272573373ffffffffffffffffffffffffffffffffffffffff16636843581c886040518263ffffffff167c010000000000000000000000000000000000000000000000000000000002815260040180828152602001806020018281038252600b8152602001807f48656c6c6f20576f726c6400000000000000000000000000000000000000000081525060200192505050602060405180830381600087803b15801561023557600080fd5b505af1158015610249573d6000803e3d6000fd5b505050506040513d602081101561025f57600080fd5b8101908080519060200190929190505050505b505050505050505600a165627a7a72305820ec11611308595f44ba2284df2dda17a67452f7d29546fdb92b9f702f1b06d2620029",
  "source": "pragma solidity ^0.4.24;\n\nimport \"./Client.sol\";\nimport \"../../platform/dispatch/DispatchInterface.sol\";\nimport \"../../platform/bondage/BondageInterface.sol\";\nimport \"../../platform/registry/RegistryInterface.sol\";\nimport \"./OnChainProvider.sol\";\nimport \"../ERC20.sol\";\n\ncontract TestProvider is OnChainProvider {\n\tevent RecievedQuery(string query, bytes32 endpoint, bytes32[] params);\n\n    bytes32 public specifier = \"spec01\";\n\n    // curve 2x^2\n    int[] constants = [2, 2, 0];\n    uint[] parts = [0, 1000000000];\n    uint[] dividers = [1]; \n\n    RegistryInterface registry;\n\n\tfunction receive(uint256 id, string userQuery, bytes32 endpoint, bytes32[] endpointParams, bool onchainSubscriber) external {\n        emit RecievedQuery(userQuery, endpoint, endpointParams);\n        if(onchainSubscriber) Dispatch(msg.sender).respond1(id, \"Hello World\");\n\t}\n\n    constructor(address registryAddress) public{\n\n        registry = RegistryInterface(registryAddress);\n\n        // initialize in registry\n        bytes32 spec = \"spec01\";\n        bytes32 title = \"TestContract\";\n\n        bytes32[] memory params = new bytes32[](2);\n        params[0] = \"p1\";\n        params[1] = \"p2\";\n\n        registry.initiateProvider(12345, title, spec, params);\n        registry.initiateProviderCurve(specifier, constants, parts, dividers);\n    }\n}\n\n/* Test Subscriber Client */\ncontract TestClient is Client1{\n\n\tevent Result1(uint256 id, string response1);\n\tevent Result2(string response1, string response2);\n\tevent Result3(string response1, string response2, string response3);\n\tevent Result4(string response1, string response2, string response3, string response4);\n\n\tERC20 token;\n\tDispatchInterface dispatch;\n\tBondageInterface bondage;\n    RegistryInterface registry;\n\n\tconstructor(address tokenAddress, address dispatchAddress, address bondageAddress, address registryAddress) public {\n\t\ttoken = ERC20(tokenAddress);\n\t\tdispatch = DispatchInterface(dispatchAddress);\n\t\tbondage = BondageInterface(bondageAddress);\n        registry = RegistryInterface(registryAddress);\n\t}\n\n    /*\n    Implements callback function for Client1\n    */\n    function callback(uint256 id, string response1) external {\n    \tstring memory _response1 = response1;\n    \temit Result1(id, _response1);\n    }\n\n    function testQuery(address oracleAddr, string query, bytes32 specifier, bytes32[] params) external {\n    \tdispatch.query(oracleAddr, query, specifier, params, true, true);\n    }\n\n    function stringToBytes32(string memory source) internal pure returns (bytes32 result) {\n    \tbytes memory tempEmptyStringTest = bytes(source);\n\n    \tif (tempEmptyStringTest.length == 0) {\n    \t\treturn 0x0;\n    \t}\n    \tassembly {\n    \t\tresult := mload(add(source, 32))\n    \t}\n    }\n\n}\n",
  "sourcePath": "/home/iefnw/office3/zap-ethereum-api/contracts/lib/platform/TestContracts.sol",
  "compiler": {
    "name": "solc",
    "version": "0.4.24+commit.e67f0147.Emscripten.clang"
  },
  "schemaVersion": "2.0.0",
  "updatedAt": "2018-06-19T18:30:26.840Z"
}