{
  "contractName": "TestClient",
  "abi": [
    {
      "inputs": [
        {
          "name": "tokenAddress",
          "type": "address"
        },
        {
          "name": "dispatchAddress",
          "type": "address"
        },
        {
          "name": "bondageAddress",
          "type": "address"
        },
        {
          "name": "registryAddress",
          "type": "address"
        }
      ],
      "payable": false,
      "stateMutability": "nonpayable",
      "type": "constructor"
    },
    {
      "anonymous": false,
      "inputs": [
        {
          "indexed": false,
          "name": "oracle",
          "type": "address"
        },
        {
          "indexed": false,
          "name": "query",
          "type": "string"
        },
        {
          "indexed": false,
          "name": "id",
          "type": "uint256"
        }
      ],
      "name": "MadeQuery",
      "type": "event"
    },
    {
      "anonymous": false,
      "inputs": [
        {
          "indexed": false,
          "name": "id",
          "type": "uint256"
        },
        {
          "indexed": false,
          "name": "response1",
          "type": "string"
        }
      ],
      "name": "Result1",
      "type": "event"
    },
    {
      "anonymous": false,
      "inputs": [
        {
          "indexed": false,
          "name": "id",
          "type": "uint256"
        },
        {
          "indexed": false,
          "name": "response1",
          "type": "bytes32"
        }
      ],
      "name": "Result1",
      "type": "event"
    },
    {
      "anonymous": false,
      "inputs": [
        {
          "indexed": false,
          "name": "id",
          "type": "uint256"
        },
        {
          "indexed": false,
          "name": "response1",
          "type": "string"
        },
        {
          "indexed": false,
          "name": "response2",
          "type": "string"
        }
      ],
      "name": "Result2",
      "type": "event"
    },
    {
      "constant": false,
      "inputs": [
        {
          "name": "id",
          "type": "uint256"
        },
        {
          "name": "response",
          "type": "bytes32[]"
        }
      ],
      "name": "callback",
      "outputs": [],
      "payable": false,
      "stateMutability": "nonpayable",
      "type": "function"
    },
    {
      "constant": false,
      "inputs": [
        {
          "name": "id",
          "type": "uint256"
        },
        {
          "name": "response1",
          "type": "string"
        }
      ],
      "name": "callback",
      "outputs": [],
      "payable": false,
      "stateMutability": "nonpayable",
      "type": "function"
    },
    {
      "constant": false,
      "inputs": [
        {
          "name": "id",
          "type": "uint256"
        },
        {
          "name": "response1",
          "type": "string"
        },
        {
          "name": "response2",
          "type": "string"
        }
      ],
      "name": "callback",
      "outputs": [],
      "payable": false,
      "stateMutability": "nonpayable",
      "type": "function"
    },
    {
      "constant": false,
      "inputs": [
        {
          "name": "oracleAddr",
          "type": "address"
        },
        {
          "name": "query",
          "type": "string"
        },
        {
          "name": "specifier",
          "type": "bytes32"
        },
        {
          "name": "params",
          "type": "bytes32[]"
        }
      ],
      "name": "testQuery",
      "outputs": [
        {
          "name": "",
          "type": "uint256"
        }
      ],
      "payable": false,
      "stateMutability": "nonpayable",
      "type": "function"
    },
    {
      "constant": false,
      "inputs": [
        {
          "name": "id",
          "type": "uint256"
        }
      ],
      "name": "cancelQuery",
      "outputs": [],
      "payable": false,
      "stateMutability": "nonpayable",
      "type": "function"
    }
  ],
  "bytecode": "0x608060405234801561001057600080fd5b5060405160808061082a83398101806040528101908080519060200190929190805190602001909291908051906020019092919080519060200190929190505050836000806101000a81548173ffffffffffffffffffffffffffffffffffffffff021916908373ffffffffffffffffffffffffffffffffffffffff16021790555082600160006101000a81548173ffffffffffffffffffffffffffffffffffffffff021916908373ffffffffffffffffffffffffffffffffffffffff16021790555081600260006101000a81548173ffffffffffffffffffffffffffffffffffffffff021916908373ffffffffffffffffffffffffffffffffffffffff16021790555080600360006101000a81548173ffffffffffffffffffffffffffffffffffffffff021916908373ffffffffffffffffffffffffffffffffffffffff160217905550505050506106c3806101676000396000f30060806040526004361061006d576000357c0100000000000000000000000000000000000000000000000000000000900463ffffffff16806363b41fe9146100725780637237dc0b146100b7578063b69a375d146100e4578063d075f20f14610129578063f5795cd5146101be575b600080fd5b34801561007e57600080fd5b506100b56004803603810190808035906020019092919080359060200190820180359060200191909192939192939050505061021b565b005b3480156100c357600080fd5b506100e260048036038101908080359060200190929190505050610280565b005b3480156100f057600080fd5b506101276004803603810190808035906020019092919080359060200190820180359060200191909192939192939050505061032c565b005b34801561013557600080fd5b506101a8600480360381019080803573ffffffffffffffffffffffffffffffffffffffff169060200190929190803590602001908201803590602001919091929391929390803560001916906020019092919080359060200190820180359060200191909192939192939050505061040d565b6040518082815260200191505060405180910390f35b3480156101ca57600080fd5b5061021960048036038101908080359060200190929190803590602001908201803590602001919091929391929390803590602001908201803590602001919091929391929390505050610615565b005b7f5eef7b8de70c44e7326d1d7baa155450f5b38fc8d41309c12b2fc81817606b818383836000818110151561024c57fe5b90506020020135600019166040518083815260200182600019166000191681526020019250505060405180910390a1505050565b600160009054906101000a900473ffffffffffffffffffffffffffffffffffffffff1673ffffffffffffffffffffffffffffffffffffffff16637237dc0b826040518263ffffffff167c010000000000000000000000000000000000000000000000000000000002815260040180828152602001915050600060405180830381600087803b15801561031157600080fd5b505af1158015610325573d6000803e3d6000fd5b5050505050565b606082828080601f01602080910402602001604051908101604052809392919081815260200183838082843782019150505050505090507f5d599109d8427016e4c93bff9b5f27e4cd24a83316a010d9ef7e15b7105d30e784826040518083815260200180602001828103825283818151815260200191508051906020019080838360005b838110156103cc5780820151818401526020810190506103b1565b50505050905090810190601f1680156103f95780820380516001836020036101000a031916815260200191505b50935050505060405180910390a150505050565b600080600160009054906101000a900473ffffffffffffffffffffffffffffffffffffffff1673ffffffffffffffffffffffffffffffffffffffff16639f77d6008989898989896001806040518963ffffffff167c0100000000000000000000000000000000000000000000000000000000028152600401808973ffffffffffffffffffffffffffffffffffffffff1673ffffffffffffffffffffffffffffffffffffffff16815260200180602001876000191660001916815260200180602001851515151581526020018415151515815260200183810383528a8a828181526020019250808284378201915050838103825287878281815260200192506020028082843782019150509a5050505050505050505050602060405180830381600087803b15801561053d57600080fd5b505af1158015610551573d6000803e3d6000fd5b505050506040513d602081101561056757600080fd5b810190808051906020019092919050505090507f50b551167947510d4c64636aac23b675db7849e6e7c824e4cf5830c3400e98a088888884604051808573ffffffffffffffffffffffffffffffffffffffff1673ffffffffffffffffffffffffffffffffffffffff16815260200180602001838152602001828103825285858281815260200192508082843782019150509550505050505060405180910390a1809150509695505050505050565b7f0c98c7262dfd083f4b7cd58bc095ed2ef00c31ad4e6859d16be4c2b0f7fadeae8585858585604051808681526020018060200180602001838103835287878281815260200192508082843782019150508381038252858582818152602001925080828437820191505097505050505050505060405180910390a150505050505600a165627a7a723058209b3654e4d343f1311d99f45e758a2010ff87fcf41c649839349b27d9ff787f790029",
  "source": "pragma solidity ^0.4.24;\n\nimport \"./Client.sol\";\nimport \"../../platform/dispatch/DispatchInterface.sol\";\nimport \"../../platform/bondage/BondageInterface.sol\";\nimport \"../../platform/registry/RegistryInterface.sol\";\nimport \"./OnChainProvider.sol\";\nimport \"../ERC20.sol\";\n\ncontract TestProvider is OnChainProvider {\n\tevent RecievedQuery(string query, bytes32 endpoint, bytes32[] params);\n\n    event TEST(uint res, bytes32 b, string s);\n\n    bytes32 public spec1 = \"Hello?\";\n    bytes32 public spec2 = \"Reverse\";\n    bytes32 public spec3 = \"Add\";\n    bytes32 public spec4 = \"Double\";\n\n    bool AM_A_BAD_ORACLE;\n\n    /* Endpoints to Functions:\n    spec1: Hello? -> returns \"Hello World\"\n    spec2: Reverse -> returns the query string in reverse\n    spec3: Add -> Adds up the values in endpointParams \n    */\n\n    // curve 2x^2\n    int[] curve = [3, 0, 0, 2, 1000000000];\n\n    RegistryInterface registry;\n\n    // middleware function for handling queries\n\tfunction receive(uint256 id, string userQuery, bytes32 endpoint, bytes32[] endpointParams, bool onchainSubscriber) external {\n        emit RecievedQuery(userQuery, endpoint, endpointParams);\n        if(AM_A_BAD_ORACLE) return;\n        bytes32 _endpoint = endpoint;\n        if(onchainSubscriber) {\n            bytes32 hash = keccak256(abi.encodePacked(_endpoint));\n\n            if(hash == keccak256(abi.encodePacked(spec1))){\n                endpoint1(id, userQuery, endpointParams);\n            } else if (hash == keccak256(abi.encodePacked(spec2))){               \n                endpoint2(id, userQuery, endpointParams);\n            } else if (hash == keccak256(abi.encodePacked(spec3))){\n                endpoint3(id, userQuery, endpointParams);\n            } else if (hash == keccak256(abi.encodePacked(spec4))){\n                endpoint4(id, userQuery, endpointParams);\n            } else {\n                revert(\"Invalid endpoint\");\n            }\n        } // else: Do nothing (onchain only)\n\t}\n\n    constructor(address registryAddress, bool isBad) public{\n        registry = RegistryInterface(registryAddress);\n        AM_A_BAD_ORACLE = isBad;\n\n        // initialize in registry\n        bytes32 title = \"TestContract\";\n\n        bytes32[] memory params = new bytes32[](2);\n        params[0] = \"p1\";\n        params[1] = \"p2\";\n\n        registry.initiateProvider(12345, title, spec1, params);\n\n        registry.initiateProviderCurve(spec1, curve);\n        registry.initiateProviderCurve(spec2, curve);\n        registry.initiateProviderCurve(spec3, curve);\n        registry.initiateProviderCurve(spec4, curve);\n    }\n\n\n    // return Hello World to query-maker\n    function endpoint1(uint256 id, string /* userQuery */, bytes32[] /* endpointParams */) internal{\n        Dispatch(msg.sender).respond1(id, \"Hello World\");\n    }\n\n    // return the hash of the query\n    function endpoint2(uint256 id, string userQuery, bytes32[] /* endpointParams */) internal{\n        // endpointParams\n        string memory reversed = reverseString(userQuery);\n        Dispatch(msg.sender).respond1(id, reversed);\n    }\n\n     // returns the sum of all values in endpointParams\n    function endpoint3(uint256 id, string /* userQuery */, bytes32[] endpointParams) internal{\n        uint sum = 0;\n        for(uint i = 0; i<endpointParams.length; i++){\n            uint value = uint(endpointParams[i]);\n            sum += value;\n        }\n\n        bytes32[] memory res = new bytes32[](1);\n        res[0] = bytes32(sum);\n\n        Dispatch(msg.sender).respondBytes32Array(id, res);\n    }\n\n    // returns the sum of all values in endpointParams\n    function endpoint4(uint256 id, string /* userQuery */, bytes32[] /* endpointParams */) internal{\n        Dispatch(msg.sender).respond2(id, \"Hello\", \"World\");\n    }\n\n    function reverseString(string _base) internal pure returns (string){\n        bytes memory _baseBytes = bytes(_base);\n        string memory _tempValue = new string(_baseBytes.length);\n        bytes memory _newValue = bytes(_tempValue);\n\n        for(uint i=0;i<_baseBytes.length;i++){\n            _newValue[ _baseBytes.length - i - 1] = _baseBytes[i];\n        }\n\n        return string(_newValue);\n    }\n\n\n    function bytes32ToString (bytes32 data) internal pure returns (string) {\n        bytes memory bytesString = new bytes(32);\n        for (uint j=0; j<32; j++) {\n            byte char = byte(bytes32(uint(data) * 2 ** (8 * j)));\n            if (char != 0) {\n                bytesString[j] = char;\n            }\n        }\n        return string(bytesString);\n    }\n\n}\n\n/* Test Subscriber Client */\ncontract TestClient is Client1, Client2{\n\n    event MadeQuery(address oracle, string query, uint256 id);\n\tevent Result1(uint256 id, string response1);\n    event Result1(uint256 id, bytes32 response1);\n    event Result2(uint256 id, string response1, string response2);\n\n\tERC20 token;\n\tDispatchInterface dispatch;\n\tBondageInterface bondage;\n    RegistryInterface registry;\n\n\tconstructor(address tokenAddress, address dispatchAddress, address bondageAddress, address registryAddress) public {\n\t\ttoken = ERC20(tokenAddress);\n\t\tdispatch = DispatchInterface(dispatchAddress);\n\t\tbondage = BondageInterface(bondageAddress);\n        registry = RegistryInterface(registryAddress);\n\t}\n\n    /*\n    Implements overloaded callback functions for Client1\n    */\n    function callback(uint256 id, string response1) external {\n    \tstring memory _response1 = response1;\n    \temit Result1(id, _response1);\n        // do something with result\n    }\n\n    function callback(uint256 id, bytes32[] response) external {\n\n        emit Result1(id, response[0]);\n        // do something with result\n    }\n\n    // Client2 callback\n    function callback(uint256 id, string response1, string response2) external {\n        emit Result2(id, response1, response2);\n        // do something with result\n    }\n\n    function testQuery(address oracleAddr, string query, bytes32 specifier, bytes32[] params) external returns (uint256) {\n    \tuint256 id = dispatch.query(oracleAddr, query, specifier, params, true, true);\n        emit MadeQuery(oracleAddr, query, id);\n        return id;\n    }\n\n    function stringToBytes32(string memory source) internal pure returns (bytes32 result) {\n    \tbytes memory tempEmptyStringTest = bytes(source);\n\n    \tif (tempEmptyStringTest.length == 0) {\n    \t\treturn 0x0;\n    \t}\n    \tassembly {\n    \t\tresult := mload(add(source, 32))\n    \t}\n    }\n\n    // attempts to cancel an existing query\n    function cancelQuery(uint256 id) external {\n        dispatch.cancelQuery(id);\n    }\n\n}\n",
  "sourcePath": "/Users/avisaven/Documents/Work/Zap/zap-ethereum-api/contracts/lib/platform/TestContracts.sol",
  "compiler": {
    "name": "solc",
    "version": "0.4.24+commit.e67f0147.Emscripten.clang"
  },
  "schemaVersion": "2.0.0",
  "updatedAt": "2018-08-09T21:46:42.631Z"
}