{
  "contractName": "TestProvider",
  "abi": [
    {
      "constant": true,
      "inputs": [],
      "name": "spec2",
      "outputs": [
        {
          "name": "",
          "type": "bytes32"
        }
      ],
      "payable": false,
      "stateMutability": "view",
      "type": "function"
    },
    {
      "constant": true,
      "inputs": [],
      "name": "spec1",
      "outputs": [
        {
          "name": "",
          "type": "bytes32"
        }
      ],
      "payable": false,
      "stateMutability": "view",
      "type": "function"
    },
    {
      "constant": true,
      "inputs": [],
      "name": "spec3",
      "outputs": [
        {
          "name": "",
          "type": "bytes32"
        }
      ],
      "payable": false,
      "stateMutability": "view",
      "type": "function"
    },
    {
      "constant": true,
      "inputs": [],
      "name": "spec4",
      "outputs": [
        {
          "name": "",
          "type": "bytes32"
        }
      ],
      "payable": false,
      "stateMutability": "view",
      "type": "function"
    },
    {
      "inputs": [
        {
          "name": "registryAddress",
          "type": "address"
        }
      ],
      "payable": false,
      "stateMutability": "nonpayable",
      "type": "constructor"
    },
    {
      "anonymous": false,
      "inputs": [
        {
          "indexed": false,
          "name": "query",
          "type": "string"
        },
        {
          "indexed": false,
          "name": "endpoint",
          "type": "bytes32"
        },
        {
          "indexed": false,
          "name": "params",
          "type": "bytes32[]"
        }
      ],
      "name": "RecievedQuery",
      "type": "event"
    },
    {
      "anonymous": false,
      "inputs": [
        {
          "indexed": false,
          "name": "res",
          "type": "uint256"
        },
        {
          "indexed": false,
          "name": "b",
          "type": "bytes32"
        },
        {
          "indexed": false,
          "name": "s",
          "type": "string"
        }
      ],
      "name": "TEST",
      "type": "event"
    },
    {
      "constant": false,
      "inputs": [
        {
          "name": "id",
          "type": "uint256"
        },
        {
          "name": "userQuery",
          "type": "string"
        },
        {
          "name": "endpoint",
          "type": "bytes32"
        },
        {
          "name": "endpointParams",
          "type": "bytes32[]"
        },
        {
          "name": "onchainSubscriber",
          "type": "bool"
        }
      ],
      "name": "receive",
      "outputs": [],
      "payable": false,
      "stateMutability": "nonpayable",
      "type": "function"
    }
  ],
  "bytecode": "0x60806040527f48656c6c6f3f00000000000000000000000000000000000000000000000000006000906000191690557f52657665727365000000000000000000000000000000000000000000000000006001906000191690557f41646400000000000000000000000000000000000000000000000000000000006002906000191690557f446f75626c65000000000000000000000000000000000000000000000000000060039060001916905560a060405190810160405280600363ffffffff168152602001600063ffffffff168152602001600063ffffffff168152602001600263ffffffff168152602001633b9aca0063ffffffff1681525060049060056200010c92919062000840565b503480156200011a57600080fd5b5060405160208062001679833981018060405281019080805190602001909291905050506000606082600560006101000a81548173ffffffffffffffffffffffffffffffffffffffff021916908373ffffffffffffffffffffffffffffffffffffffff1602179055507f54657374436f6e7472616374000000000000000000000000000000000000000091506002604051908082528060200260200182016040528015620001d75781602001602082028038833980820191505090505b5090507f70310000000000000000000000000000000000000000000000000000000000008160008151811015156200020b57fe5b9060200190602002019060001916908160001916815250507f70320000000000000000000000000000000000000000000000000000000000008160018151811015156200025457fe5b906020019060200201906000191690816000191681525050600560009054906101000a900473ffffffffffffffffffffffffffffffffffffffff1673ffffffffffffffffffffffffffffffffffffffff166304c6752561303984600054856040518563ffffffff167c0100000000000000000000000000000000000000000000000000000000028152600401808581526020018460001916600019168152602001836000191660001916815260200180602001828103825283818151815260200191508051906020019060200280838360005b838110156200034457808201518184015260208101905062000327565b5050505090500195505050505050602060405180830381600087803b1580156200036d57600080fd5b505af115801562000382573d6000803e3d6000fd5b505050506040513d60208110156200039957600080fd5b810190808051906020019092919050505050600560009054906101000a900473ffffffffffffffffffffffffffffffffffffffff1673ffffffffffffffffffffffffffffffffffffffff1663e67097fb60005460046040518363ffffffff167c01000000000000000000000000000000000000000000000000000000000281526004018083600019166000191681526020018060200182810382528381815481526020019150805480156200046e57602002820191906000526020600020905b81548152602001906001019080831162000459575b50509350505050602060405180830381600087803b1580156200049057600080fd5b505af1158015620004a5573d6000803e3d6000fd5b505050506040513d6020811015620004bc57600080fd5b810190808051906020019092919050505050600560009054906101000a900473ffffffffffffffffffffffffffffffffffffffff1673ffffffffffffffffffffffffffffffffffffffff1663e67097fb60015460046040518363ffffffff167c01000000000000000000000000000000000000000000000000000000000281526004018083600019166000191681526020018060200182810382528381815481526020019150805480156200059157602002820191906000526020600020905b8154815260200190600101908083116200057c575b50509350505050602060405180830381600087803b158015620005b357600080fd5b505af1158015620005c8573d6000803e3d6000fd5b505050506040513d6020811015620005df57600080fd5b810190808051906020019092919050505050600560009054906101000a900473ffffffffffffffffffffffffffffffffffffffff1673ffffffffffffffffffffffffffffffffffffffff1663e67097fb60025460046040518363ffffffff167c0100000000000000000000000000000000000000000000000000000000028152600401808360001916600019168152602001806020018281038252838181548152602001915080548015620006b457602002820191906000526020600020905b8154815260200190600101908083116200069f575b50509350505050602060405180830381600087803b158015620006d657600080fd5b505af1158015620006eb573d6000803e3d6000fd5b505050506040513d60208110156200070257600080fd5b810190808051906020019092919050505050600560009054906101000a900473ffffffffffffffffffffffffffffffffffffffff1673ffffffffffffffffffffffffffffffffffffffff1663e67097fb60035460046040518363ffffffff167c0100000000000000000000000000000000000000000000000000000000028152600401808360001916600019168152602001806020018281038252838181548152602001915080548015620007d757602002820191906000526020600020905b815481526020019060010190808311620007c2575b50509350505050602060405180830381600087803b158015620007f957600080fd5b505af11580156200080e573d6000803e3d6000fd5b505050506040513d60208110156200082557600080fd5b810190808051906020019092919050505050505050620008c2565b82805482825590600052602060002090810192821562000887579160200282015b8281111562000886578251829063ffffffff1690559160200191906001019062000861565b5b5090506200089691906200089a565b5090565b620008bf91905b80821115620008bb576000816000905550600101620008a1565b5090565b90565b610da780620008d26000396000f30060806040526004361061006d576000357c0100000000000000000000000000000000000000000000000000000000900463ffffffff1680632ee2742e1461007257806348cf129a146100a55780637ff94b62146100d8578063c5d7a7251461010b578063de2615831461013e575b600080fd5b34801561007e57600080fd5b506100876101b5565b60405180826000191660001916815260200191505060405180910390f35b3480156100b157600080fd5b506100ba6101bb565b60405180826000191660001916815260200191505060405180910390f35b3480156100e457600080fd5b506100ed6101c1565b60405180826000191660001916815260200191505060405180910390f35b34801561011757600080fd5b506101206101c7565b60405180826000191660001916815260200191505060405180910390f35b34801561014a57600080fd5b506101b36004803603810190808035906020019092919080359060200190820180359060200191909192939192939080356000191690602001909291908035906020019082018035906020019190919293919293908035151590602001909291905050506101cd565b005b60015481565b60005481565b60025481565b60035481565b6000807fb1d30540f0019c1e94a292da7a6f164844c5d2e3dee75e0b3a6a66e4e9a4e15388888888886040518080602001856000191660001916815260200180602001838103835288888281815260200192508082843782019150508381038252858582818152602001925060200280828437820191505097505050505050505060405180910390a1859150821561078d57816040516020018082600019166000191681526020019150506040516020818303038152906040526040518082805190602001908083835b6020831015156102bc5780518252602082019150602081019050602083039250610297565b6001836020036101000a038019825116818451168082178552505050505050905001915050604051809103902090506000546040516020018082600019166000191681526020019150506040516020818303038152906040526040518082805190602001908083835b60208310151561034a5780518252602082019150602081019050602083039250610325565b6001836020036101000a038019825116818451168082178552505050505050905001915050604051809103902060001916816000191614156103f7576103f28989898080601f016020809104026020016040519081016040528093929190818152602001838380828437820191505050505050878780806020026020016040519081016040528093929190818152602001838360200280828437820191505050505050610798565b61078c565b6001546040516020018082600019166000191681526020019150506040516020818303038152906040526040518082805190602001908083835b6020831015156104565780518252602082019150602081019050602083039250610431565b6001836020036101000a03801982511681845116808217855250505050505090500191505060405180910390206000191681600019161415610503576104fe8989898080601f016020809104026020016040519081016040528093929190818152602001838380828437820191505050505050878780806020026020016040519081016040528093929190818152602001838360200280828437820191505050505050610881565b61078b565b6002546040516020018082600019166000191681526020019150506040516020818303038152906040526040518082805190602001908083835b602083101515610562578051825260208201915060208101905060208303925061053d565b6001836020036101000a0380198251168184511680821785525050505050509050019150506040518091039020600019168160001916141561060f5761060a8989898080601f0160208091040260200160405190810160405280939291908181526020018383808284378201915050505050508787808060200260200160405190810160405280939291908181526020018383602002808284378201915050505050506109ac565b61078a565b6003546040516020018082600019166000191681526020019150506040516020818303038152906040526040518082805190602001908083835b60208310151561066e5780518252602082019150602081019050602083039250610649565b6001836020036101000a0380198251168184511680821785525050505050509050019150506040518091039020600019168160001916141561071b576107168989898080601f016020809104026020016040519081016040528093929190818152602001838380828437820191505050505050878780806020026020016040519081016040528093929190818152602001838360200280828437820191505050505050610b50565b610789565b6040517f08c379a00000000000000000000000000000000000000000000000000000000081526004018080602001828103825260108152602001807f496e76616c696420656e64706f696e740000000000000000000000000000000081525060200191505060405180910390fd5b5b5b5b5b505050505050505050565b3373ffffffffffffffffffffffffffffffffffffffff16636843581c846040518263ffffffff167c010000000000000000000000000000000000000000000000000000000002815260040180828152602001806020018281038252600b8152602001807f48656c6c6f20576f726c6400000000000000000000000000000000000000000081525060200192505050602060405180830381600087803b15801561084057600080fd5b505af1158015610854573d6000803e3d6000fd5b505050506040513d602081101561086a57600080fd5b810190808051906020019092919050505050505050565b606061088c83610c72565b90503373ffffffffffffffffffffffffffffffffffffffff16636843581c85836040518363ffffffff167c01000000000000000000000000000000000000000000000000000000000281526004018083815260200180602001828103825283818151815260200191508051906020019080838360005b8381101561091d578082015181840152602081019050610902565b50505050905090810190601f16801561094a5780820380516001836020036101000a031916815260200191505b509350505050602060405180830381600087803b15801561096a57600080fd5b505af115801561097e573d6000803e3d6000fd5b505050506040513d602081101561099457600080fd5b81019080805190602001909291905050505050505050565b6000806000606060009350600092505b84518310156109f55784838151811015156109d357fe5b90602001906020020151600190049150818401935082806001019350506109bc565b6001604051908082528060200260200182016040528015610a255781602001602082028038833980820191505090505b50905083600102816000815181101515610a3b57fe5b9060200190602002019060001916908160001916815250503373ffffffffffffffffffffffffffffffffffffffff16630cbe69a188836040518363ffffffff167c01000000000000000000000000000000000000000000000000000000000281526004018083815260200180602001828103825283818151815260200191508051906020019060200280838360005b83811015610ae5578082015181840152602081019050610aca565b505050509050019350505050602060405180830381600087803b158015610b0b57600080fd5b505af1158015610b1f573d6000803e3d6000fd5b505050506040513d6020811015610b3557600080fd5b81019080805190602001909291905050505050505050505050565b3373ffffffffffffffffffffffffffffffffffffffff1663fedea288846040518263ffffffff167c0100000000000000000000000000000000000000000000000000000000028152600401808281526020018060200180602001838103835260058152602001807f48656c6c6f000000000000000000000000000000000000000000000000000000815250602001838103825260058152602001807f576f726c640000000000000000000000000000000000000000000000000000008152506020019350505050602060405180830381600087803b158015610c3157600080fd5b505af1158015610c45573d6000803e3d6000fd5b505050506040513d6020811015610c5b57600080fd5b810190808051906020019092919050505050505050565b606080606080600085935083516040519080825280601f01601f191660200182016040528015610cb15781602001602082028038833980820191505090505b509250829150600090505b8351811015610d6f578381815181101515610cd357fe5b9060200101517f010000000000000000000000000000000000000000000000000000000000000090047f0100000000000000000000000000000000000000000000000000000000000000028260018387510303815181101515610d3257fe5b9060200101907effffffffffffffffffffffffffffffffffffffffffffffffffffffffffffff1916908160001a9053508080600101915050610cbc565b819450505050509190505600a165627a7a723058201fbfa348d97191c19973b503abd595d192643310bcfb8a56895a8e55b2a625620029",
  "source": "pragma solidity ^0.4.24;\n\nimport \"./Client.sol\";\nimport \"../../platform/dispatch/DispatchInterface.sol\";\nimport \"../../platform/bondage/BondageInterface.sol\";\nimport \"../../platform/registry/RegistryInterface.sol\";\nimport \"./OnChainProvider.sol\";\nimport \"../ERC20.sol\";\n\ncontract TestProvider is OnChainProvider {\n\tevent RecievedQuery(string query, bytes32 endpoint, bytes32[] params);\n\n    event TEST(uint res, bytes32 b, string s);\n\n    bytes32 public spec1 = \"Hello?\";\n    bytes32 public spec2 = \"Reverse\";\n    bytes32 public spec3 = \"Add\";\n    bytes32 public spec4 = \"Double\";\n\n    /* Endpoints to Functions:\n    spec1: Hello? -> returns \"Hello World\"\n    spec2: Reverse -> returns the query string in reverse\n    spec3: Add -> Adds up the values in endpointParams \n    */\n\n    // curve 2x^2\n    int[] curve = [3, 0, 0, 2, 1000000000];\n\n    RegistryInterface registry;\n\n    // middleware function for handling queries\n\tfunction receive(uint256 id, string userQuery, bytes32 endpoint, bytes32[] endpointParams, bool onchainSubscriber) external {\n        emit RecievedQuery(userQuery, endpoint, endpointParams);\n        bytes32 _endpoint = endpoint;\n        if(onchainSubscriber) {\n            bytes32 hash = keccak256(abi.encodePacked(_endpoint));\n\n            if(hash == keccak256(abi.encodePacked(spec1))){\n                endpoint1(id, userQuery, endpointParams);\n            } else if (hash == keccak256(abi.encodePacked(spec2))){               \n                endpoint2(id, userQuery, endpointParams);\n            } else if (hash == keccak256(abi.encodePacked(spec3))){\n                endpoint3(id, userQuery, endpointParams);\n            } else if (hash == keccak256(abi.encodePacked(spec4))){\n                endpoint4(id, userQuery, endpointParams);\n            } else {\n                revert(\"Invalid endpoint\");\n            }\n        }\n\t}\n\n    constructor(address registryAddress) public{\n\n        registry = RegistryInterface(registryAddress);\n\n        // initialize in registry\n        bytes32 title = \"TestContract\";\n\n        bytes32[] memory params = new bytes32[](2);\n        params[0] = \"p1\";\n        params[1] = \"p2\";\n\n        registry.initiateProvider(12345, title, spec1, params);\n\n        registry.initiateProviderCurve(spec1, curve);\n        registry.initiateProviderCurve(spec2, curve);\n        registry.initiateProviderCurve(spec3, curve);\n        registry.initiateProviderCurve(spec4, curve);\n    }\n\n\n    // return Hello World to query-maker\n    function endpoint1(uint256 id, string /* userQuery */, bytes32[] /* endpointParams */) internal{\n        Dispatch(msg.sender).respond1(id, \"Hello World\");\n    }\n\n    // return the hash of the query\n    function endpoint2(uint256 id, string userQuery, bytes32[] /* endpointParams */) internal{\n        // endpointParams\n        string memory reversed = reverseString(userQuery);\n        Dispatch(msg.sender).respond1(id, reversed);\n    }\n\n     // returns the sum of all values in endpointParams\n    function endpoint3(uint256 id, string /* userQuery */, bytes32[] endpointParams) internal{\n        uint sum = 0;\n        for(uint i = 0; i<endpointParams.length; i++){\n            uint value = uint(endpointParams[i]);\n            sum += value;\n        }\n\n        bytes32[] memory res = new bytes32[](1);\n        res[0] = bytes32(sum);\n\n        Dispatch(msg.sender).respondBytes32Array(id, res);\n    }\n\n    // returns the sum of all values in endpointParams\n    function endpoint4(uint256 id, string /* userQuery */, bytes32[] /* endpointParams */) internal{\n        Dispatch(msg.sender).respond2(id, \"Hello\", \"World\");\n    }\n\n    function reverseString(string _base) internal pure returns (string){\n        bytes memory _baseBytes = bytes(_base);\n        string memory _tempValue = new string(_baseBytes.length);\n        bytes memory _newValue = bytes(_tempValue);\n\n        for(uint i=0;i<_baseBytes.length;i++){\n            _newValue[ _baseBytes.length - i - 1] = _baseBytes[i];\n        }\n\n        return string(_newValue);\n    }\n\n\n    function bytes32ToString (bytes32 data) internal pure returns (string) {\n        bytes memory bytesString = new bytes(32);\n        for (uint j=0; j<32; j++) {\n            byte char = byte(bytes32(uint(data) * 2 ** (8 * j)));\n            if (char != 0) {\n                bytesString[j] = char;\n            }\n        }\n        return string(bytesString);\n    }\n\n}\n\n/* Test Subscriber Client */\ncontract TestClient is Client1, Client2{\n\n\tevent Result1(uint256 id, string response1);\n    event Result1(uint256 id, bytes32 response1);\n    event Result2(uint256 id, string response1, string response2);\n\n\tERC20 token;\n\tDispatchInterface dispatch;\n\tBondageInterface bondage;\n    RegistryInterface registry;\n\n\tconstructor(address tokenAddress, address dispatchAddress, address bondageAddress, address registryAddress) public {\n\t\ttoken = ERC20(tokenAddress);\n\t\tdispatch = DispatchInterface(dispatchAddress);\n\t\tbondage = BondageInterface(bondageAddress);\n        registry = RegistryInterface(registryAddress);\n\t}\n\n    /*\n    Implements overloaded callback functions for Client1\n    */\n    function callback(uint256 id, string response1) external {\n    \tstring memory _response1 = response1;\n    \temit Result1(id, _response1);\n        // do something with result\n    }\n\n    function callback(uint256 id, bytes32[] response) external {\n\n        emit Result1(id, response[0]);\n        // do something with result\n    }\n\n    // Client2 callback\n    function callback(uint256 id, string response1, string response2) external {\n        emit Result2(id, response1, response2);\n        // do something with result\n    }\n\n    function testQuery(address oracleAddr, string query, bytes32 specifier, bytes32[] params) external {\n    \tdispatch.query(oracleAddr, query, specifier, params, true, true);\n    }\n\n    function stringToBytes32(string memory source) internal pure returns (bytes32 result) {\n    \tbytes memory tempEmptyStringTest = bytes(source);\n\n    \tif (tempEmptyStringTest.length == 0) {\n    \t\treturn 0x0;\n    \t}\n    \tassembly {\n    \t\tresult := mload(add(source, 32))\n    \t}\n    }\n\n}\n",
  "sourcePath": "/Users/avisaven/Documents/Work/Zap/zap-ethereum-api/contracts/lib/platform/TestContracts.sol",
  "compiler": {
    "name": "solc",
    "version": "0.4.24+commit.e67f0147.Emscripten.clang"
  },
  "schemaVersion": "2.0.0",
  "updatedAt": "2018-08-07T20:31:29.358Z"
}